:1000000012C02CC02BC02AC029C075C323C326C070
:1000100025C0C6C223C0A7C121C020C01FC01EC0AA
:100020001DC01CC01BC011241FBECFE5D4E0DEBF25
:10003000CDBF11E0A0E6B0E0E8E1F8E102C0059034
:100040000D92AE39B107D9F714E0AEE9B1E001C0C5
:100050001D92A134B107E1F702D0DCCBD1CFDF9301
:10006000CF93CDB7DEB7F9D345D47894D0D4DCD5CF
:10007000FDCFDF93CF9300D000D000D0CDB7DEB757
:100080009C838B8313C082E890E09A8389831E82CD
:1000900089819A81009711F081E08E8389819A810C
:1000A00001979A8389838E81882389F71D828B81AA
:1000B0009C81009711F081E08D838B819C81019759
:1000C0009C838B838D818823F1F626960FB6F89456
:1000D000DEBF0FBECDBFCF91DF910895DF93CF93E9
:1000E00000D000D0CDB7DEB79A83898389819A8109
:1000F000992344F489819A81909581959F4F9C839F
:100100008B8304C089819A819C838B838B819C81A2
:100110000F900F900F900F90CF91DF910895DF9384
:10012000CF9300D000D0CDB7DEB79A838983898181
:100130009A8199232CF48FEF9FEF9C838B8304C0CB
:1001400081E090E09C838B838B819C810F900F904A
:100150000F900F90CF91DF9108950F931F93DF932E
:10016000CF9300D000D000D0CDB7DEB78C837E8394
:100170006D83ED81FE8120818D819E8101969E831C
:100180008D83822F34D0882F90E09A83898381E0F9
:100190008B831CC089819A818C0102951295107FF6
:1001A0001027007F1027ED81FE8120818D819E81A7
:1001B00001969E838D83822F1AD0882F90E0800F26
:1001C000911F9A8389838B818F5F8B839B818C8125
:1001D000981700F389819A8126960FB6F894DEBFAE
:1001E0000FBECDBFCF91DF911F910F910895DF9387
:1001F000CF9300D0CDB7DEB789838981803340F0BB
:1002000089818A3328F48981982F90539A8317C063
:100210008981813440F08981873428F48981982F3D
:1002200097539A830CC08981813640F08981873643
:1002300028F48981982F97559A8301C01A828A8160
:100240000F900F90CF91DF910895DF93CF9300D05F
:10025000CDB7DEB79A83898389819A81892F9927BF
:1002600060E008D0898160E005D00F900F90CF91B9
:10027000DF910895DF93CF9300D0CDB7DEB78983A8
:100280006A83898182958F70882F90E09070FC013D
:10029000E05AFF4F808114D08981882F90E08F70C1
:1002A0009070FC01E05AFF4F80810AD08A81882338
:1002B00011F08A8105D00F900F90CF91DF910895B2
:1002C000DF93CF930F92CDB7DEB78983AAE2B0E078
:1002D000EAE2F0E0808188608C93EBE2F0E08081DC
:1002E000882F90E0807290700097B9F3ECE2F0E014
:1002F000898180830F90CF91DF910895DF93CF9311
:1003000000D0CDB7DEB79A8389830AC0E981FA812C
:10031000208189819A8101969A838983822FD0DFF7
:10032000E981FA818081882389F70F900F90CF911E
:10033000DF910895DF93CF9300D0CDB7DEB78983E7
:100340008981813640F089818B3728F48981982F03
:1003500090529A8302C089818A838A810F900F907C
:10036000CF91DF9108951F920F920FB60F92112433
:100370002F933F934F935F936F937F938F939F93AD
:10038000AF93BF93EF93FF93DF93CF93CDB7DEB7D8
:1003900013D0CF91DF91FF91EF91BF91AF919F91DA
:1003A0008F917F916F915F914F913F912F910F901E
:1003B0000FBE0F901F901895DF93CF9300D00F9230
:1003C000CDB7DEB7ECE2F0E080818983A5E3B0E051
:1003D000E5E3F0E0908181E089278C9389818D307D
:1003E00019F089818A30C9F581E080939E0180915E
:1003F000BE01882319F410929E010EC08091BE01A7
:10040000813051F48091BF018F3F31F41092BE01D1
:1004100010929E011092E8008091E800823028F44A
:100420001092BE0110929E0138C080913E021B8244
:100430008E3711F081E08B838091BF011A828E3755
:1004400011F091E09A838B819A81892B882329F17D
:100450001092BE0110929E0120C08091BE018F3784
:10046000E0F48091E800823050F480913E028A33BB
:1004700031F48981803219F481E080939E0180916A
:10048000BE018F5F8093BE018091BE01882F90E0F6
:10049000FC01E254FE4F89818083898180933E0272
:1004A0000F900F900F90CF91DF910895DF93CF932E
:1004B00000D00F92CDB7DEB7ECE2F0E08081898307
:1004C000A5E3B0E0E5E3F0E0908181E089278C933B
:1004D00089818D3019F089818A30C9F581E0809356
:1004E0009E018091BE01882319F410929E010EC0D6
:1004F0008091BE01813051F48091BF018F3F31F472
:100500001092BE0110929E011092E8008091E800C6
:10051000823028F41092BE0110929E0138C0809162
:100520003E021B828E3711F081E08B838091BF01E8
:100530001A828E3711F091E09A838B819A81892BF0
:10054000882329F11092BE0110929E0120C0809153
:10055000BE018F37E0F48091E800823050F4809142
:100560003E028A3331F48981803219F481E080932C
:100570009E018091BE018F5F8093BE018091BE017C
:10058000882F90E0FC01E254FE4F898180838981AD
:1005900080933E020F900F900F90CF91DF910895BE
:1005A0001F920F920FB60F9211242F933F934F93E8
:1005B0005F936F937F938F939F93AF93BF93EF93CB
:1005C000FF93DF93CF93CDB7DEB713D0CF91DF91F9
:1005D000FF91EF91BF91AF919F918F917F916F911B
:1005E0005F914F913F912F910F900FBE0F901F90F1
:1005F0001895DF93CF93CDB7DEB78091A2018F5FBF
:100600008093A2018091A201893028F081E080933B
:10061000A1011092A201CF91DF910895DF93CF93B2
:10062000CDB7DEB7A8E5B0E0E8E5F0E08081816015
:100630008C938091A2018F5F8093A2018091A2018F
:10064000893028F081E08093A1011092A201CF911E
:10065000DF9108951F920F920FB60F9211242F93DE
:100660003F938F939F93AF93BF93EF93FF93DF934A
:10067000CF93CDB7DEB7809182029091830201972C
:10068000909383028093820220913D0430913E0436
:1006900080918202909183022817390771F4A8E3B0
:1006A000B0E0E8E3F0E080818D7F8C93AFE4B0E0D0
:1006B000EFE4F0E080818F738C93809182029091BF
:1006C0008302009749F410921704AEE4B0E0EEE420
:1006D000F0E08081887F8C93CF91DF91FF91EF9143
:1006E000BF91AF919F918F913F912F910F900FBE2E
:1006F0000F901F9018951F920F920FB60F92112412
:100700002F933F934F935F936F937F938F939F9319
:10071000AF93BF93EF93FF93DF93CF9300D00F92EC
:10072000CDB7DEB7E6E4F0E0808191819A838983DA
:100730008091840290918502880F991FFC01EA57ED
:10074000FD4F89819A81918380838091A601909148
:10075000A7019093A9018093A8018091A401909191
:10076000A5019093A7018093A601809184029091A6
:100770008502880F991FFC01EA57FD4F8081918106
:10078000969587959093A5018093A401ECE4F0E001
:1007900011821082EEE4F0E080818B839B8180E403
:1007A00089278B83EEE4F0E08B81808389819A81B5
:1007B00089D58091A8019091A90121E0813092070B
:1007C00000F18091A6019091A70180339105C8F4B2
:1007D0008091A6019091A7018132910590F08091BE
:1007E000A4019091A5018032910558F48091AA014D
:1007F000882339F4809184029091850281508093FE
:10080000AA018091840290918502019690938502BD
:10081000809384028091840290918502893C9105A5
:1008200030F088EC90E090938502809384020F90E2
:100830000F900F90CF91DF91FF91EF91BF91AF910A
:100840009F918F917F916F915F914F913F912F91E8
:100850000F900FBE0F901F901895DF93CF93CDB7D9
:10086000DEB7EBE2F0E082E08083EAE2F0E01082C3
:10087000E0E4F0E086E88083E0E4F0E01082E9E282
:10088000F0E08CE08083EAE2F0E088E98083E3E551
:10089000F0E085E08083E2E5F0E01082A9E5B0E0D9
:1008A000E9E5F0E0808181608C93EFE4F0E088E49A
:1008B0008083EEE4F0E088E08083EBE4F0E01082F7
:1008C000EAE4F0E084E98083ECE4F0E01182108255
:1008D000A9E5B0E0E9E5F0E0808180618C93E4E394
:1008E000F0E087E08083E7E3F0E08AE38083CF9164
:1008F000DF910895DF93CF930F92CDB7DEB789EEE6
:1009000090E0FCDC198214C08981882F90E09C0162
:100910002F5F3F4F8981882F90E0FC01EF56FF4FFA
:100920008081F901E254FE4F808389818F5F898342
:100930008981873548F386E58093BE0181E0809305
:100940009E0119820DC08981882F90E0880F991F20
:10095000FC01EA57FD4F1182108289818F5F8983E4
:100960008981853680F382E089838981882F90E0B0
:10097000880F991FFC01EA57FD4F85E391E09183B1
:10098000808389818F5F89838981882F90E0880F98
:10099000991FFC01EA57FD4F86E290E09183808326
:1009A00089818F5F89838981882F90E0880F991FC3
:1009B000FC01EA57FD4F83E190E0918380838981B8
:1009C0008F5F89838981882F90E0880F991FFC01B0
:1009D000EA57FD4F83E190E09183808389818F5FA7
:1009E00089838981882F90E0880F991FFC01EA573D
:1009F000FD4F83E190E09183808389818F5F8983BC
:100A000080EF8093AB010F90CF91DF910895DF933A
:100A1000CF9300D000D0CDB7DEB78091A101813057
:100A200009F0FBC08091AE018F5F8093AE01809191
:100A3000AE018A3008F445C01092AE018091AD013C
:100A40008F5F8093AD018091AD01843010F01092E2
:100A5000AD018091AB01882F90E0807F9070803F46
:100A6000910579F58091AC018E5F8093AC01809106
:100A7000AB01807F8093AB018091AD01282F30E0E6
:100A80003C832B838B819C818130910579F02B8174
:100A90003C812230310581F08B819C81009789F463
:100AA0008091AB018F5F8093AB010BC08091AB0154
:100AB0008E5F8093AB0105C08091AB018C5F80930A
:100AC000AB018091AB01882F90E08170907000970E
:100AD00041F4A8E3B0E0E8E3F0E0808184608C9327
:100AE00007C0A8E3B0E0E8E3F0E080818B7F8C935F
:100AF0008091AB01882F90E082709070009741F454
:100B0000A8E3B0E0E8E3F0E0808180618C9307C067
:100B1000A8E3B0E0E8E3F0E080818F7E8C938091E1
:100B2000AB01882F90E084709070009741F4A8E3A7
:100B3000B0E0E8E3F0E0808180628C9307C0A8E336
:100B4000B0E0E8E3F0E080818F7D8C938091AB0191
:100B5000882F90E0807F90700097B9F48091AB016E
:100B6000882F90E088709070009741F4A8E3B0E07F
:100B7000E8E3F0E0808188608C9307C0A8E3B0E0F0
:100B8000E8E3F0E08081877F8C931092A10180914F
:100B9000AF018F5F8093AF018091AF018A3010F079
:100BA0001092AF018091B0019091B10101969093A4
:100BB000B1018093B0018091E800823031F08FEF75
:100BC00090E09093B1018093B0018091B001909139
:100BD000B1018A30910560F01092B1011092B0011C
:100BE000A5E3B0E0E5E3F0E0908181E089278C9314
:100BF0008091A301282F30E03A83298389819A814B
:100C00008130910551F029813A812230310529F452
:100C10008091BB01882309F4D4D50F900F900F90D9
:100C20000F90CF91DF910895DF93CF930F92CDB7BF
:100C3000DEB780919E01813071F58091BE0189837C
:100C4000A5E3B0E0E5E3F0E0908181E089278C93B3
:100C500089818330E0F08091E800823020F4809137
:100C6000E8001DD014C08091BF018E3781F48981C6
:100C7000882F90E0FC01E254FE4F80818E3739F4DA
:100C80008981282F225080EC91E0622F3BD0109276
:100C9000BE0110929E010F90CF91DF910895DF93D6
:100CA000CF9300D00F92CDB7DEB789838981282FEB
:100CB00030E03B832A838A819B81009731F02A812F
:100CC0003B812130310559F014C081E08093E80068
:100CD00081E790E013DB82EF90E010DB0DC082E053
:100CE0008093E80081E890E009DB82EF90E006DB8A
:100CF00003C08FEF8093E8000F900F900F90CF917B
:100D0000DF910895DF93CF93CDB7DEB729970FB664
:100D1000F894DEBF0FBECDBF9E838D836F83ED81C0
:100D2000FE81808107DB8A8380919F019091A001E1
:100D300001969093A00180939F018A81282F30E033
:100D400039872887888599858335910509F4CDC031
:100D500028853985243531059CF4888599858C341E
:100D6000910509F445C0288539852235310509F4F6
:100D7000EBC0888599858634910509F4E9C04AC19C
:100D8000288539852635310509F4D1C088859985AE
:100D9000873591053CF4288539852435310509F4DA
:100DA0001DC138C1888599858A35910509F404C12A
:100DB000288539852E37310509F02CC181E08C83D7
:100DC0000FC08C81282F30E08D819E81FC01E20FC5
:100DD000F31F80818983898173DA8C818F5F8C8393
:100DE0009C818F81981768F382EF90E087DA12C1B7
:100DF00081E08C8310C08C81282F30E08D819E8112
:100E0000FC01E20FF31F808189838981803239F0F0
:100E10008C818F5F8C839C818F81981760F38C818C
:100E2000282F30E08F81882F90E00197281739070D
:100E30000CF0F0C01B8211C08B81882F90E0FC0168
:100E4000EF58FF4F10828B81882F90E0FC01EF5705
:100E5000FF4F10828B818F5F8B838B81803160F39A
:100E600081E08B8316C08B81882F90E0AC014150CC
:100E700050408B81282F30E08D819E81FC01E20F54
:100E8000F31F8081FA01EF58FF4F80838B818F5FC2
:100E90008B839B818C81981730F38C818F5F8B8340
:100EA0001CC08B81882F90E09C01215030408C81A8
:100EB000882F90E0A901481B590B8B81282F30E027
:100EC0008D819E81FC01E20FF31F8081FA01EF57B3
:100ED000FF4F80838B818F5F8B839B818F819817DE
:100EE00000F382EF90E00ADA95C085EF90E006DA31
:100EF00088E091E003DA81E790E000DA88E191E0B0
:100F0000FDD981E890E0FAD98AE191E0F7D98091A2
:100F1000E8006AE3AFD980919F019091A00195D933
:100F20008AE191E0EBD982EF90E0E8D973C085EFD8
:100F300090E0E4D98CE191E0E1D981E291E0DED961
:100F40008AE491E0DBD966C08D819E816CD062C05D
:100F50008F818530F8F08D819E819C012F5F3F4FFE
:100F600082E0B901FAD88093AB018D819E819C010A
:100F70002D5F3F4F82E0B901F0D88093AC018091A2
:100F8000AB01882F90E0807F9070803F910511F435
:100F90001092AC018EE491E0B1D98091AB0160E296
:100FA00069D98091AC0160E265D98F8160E262D934
:100FB00082EF90E0A3D92EC09091BB0181E08927F8
:100FC0008093BB01C8D08BE591E098D98091BB019B
:100FD00060E250D982EF90E091D91CC081E691E0A7
:100FE0008DD981E08C830FC08C81282F30E08D81DA
:100FF0009E81FC01E20FF31F80818983898160D982
:101000008C818F5F8C839C818F81981768F382EF2E
:1010100090E074D929960FB6F894DEBF0FBECDBF0D
:10102000CF91DF910895DF93CF9300D000D0CDB75B
:10103000DEB79C838B831A8219828B819C81FC0191
:101040003196808189838B819C81FC0132968081DD
:101050008A838A81882F90E08033910561F48981A9
:10106000882F90E08334910531F41092AA018B818E
:101070009C8104963AD00F900F900F900F90CF91D3
:10108000DF910895DF93CF9300D0CDB7DEB71A82FA
:10109000198219C0E8E5F0E08081882F90E0817026
:1010A0009070882309F0BADAEBE2F0E080818823BF
:1010B0000CF4FCD989819A8101969A838983809165
:1010C0001704882331F089819A812AE388399207AD
:1010D00008F3AEE4B0E0EEE4F0E08081887F8C932A
:1010E0000F900F90CF91DF910895DF93CF9300D0B1
:1010F000CDB7DEB79A838983EEE4F0E01082ECE4AA
:10110000F0E011821082109285021092840281E038
:101110008093630282E08093A30129813A8182E077
:10112000B9011BD880933A04EEE4F0E083EC8083AD
:10113000A9E5B0E0E9E5F0E08081837C8C93A9E546
:10114000B0E0E9E5F0E0808180628C930F900F9031
:10115000CF91DF910895DF93CF93CDB7DEB7EEE463
:10116000F0E01082ECE4F0E011821082109285022F
:101170001092840281E08093630282E08093A30155
:1011800081E080933A04EEE4F0E083EC8083A9E50B
:10119000B0E0E9E5F0E08081837C8C93A9E5B0E0E4
:1011A000E9E5F0E0808180628C93CF91DF91089532
:1011B000DF93CF93CDB7DEB729970FB6F894DEBF94
:1011C0000FBECDBF88EC898389818A3018F0898170
:1011D000845089831C821B821E821D8218861F8276
:1011E0001A8233C08D819E819C838B838F819885E9
:1011F0009E838D838A81882F90E0880F991FFC0140
:10120000EA57FD4F808191819695879598878F83C6
:101210008B819C818F3F9105A9F0A0F08D819E81EB
:101220008132910578F08D819E818033910550F453
:101230008F8198858531910528F48A81982F915066
:10124000998708C08A818F5F8A839A8189819817DC
:1012500048F21986898529960FB6F894DEBF0FBE2D
:10126000CDBFCF91DF910895DF93CF9300D00F9240
:10127000CDB7DEB78B8319821A821AC08981880F95
:1012800089838B81282F30E08A81882F90E0A90103
:1012900002C0559547958A95E2F7CA018170907012
:1012A000882319F089818F5F89838A818F5F8A8380
:1012B0008A81883018F389810F900F900F90CF9119
:1012C000DF910895DF93CF9300D000D000D0CDB749
:1012D000DEB79E838D838D819E8196958795D7D02D
:1012E0008C838091B4019091B5019C012295329537
:1012F000307F3227207F32278091B2019091B30155
:10130000892F992782958F70820F931F9093B50133
:101310008093B4018091B2019091B3019C01229518
:101320003295307F3227207F32278C81882F90E0C2
:101330008F709070820F931F9093B3018093B201CE
:10134000809168018E3108F072C01B8265C0809167
:10135000B9019091BA01880F991F9093BA018093B7
:10136000B9018091B601882349F08091B90190912B
:10137000BA0101969093BA018093B9018091B701A7
:101380008F5F8093B7018091B7018A3008F441C024
:101390008091B9019091BA019695879565DF89830F
:1013A0008091B801882F90E0FC01E65EFB4F8981B7
:1013B00080838091B7018A508093B7018091B801F2
:1013C0008F5F8093B80189818D3019F5A5E3B0E076
:1013D000E5E3F0E0908182E089278C9389E691E053
:1013E0008DD71A820BC08A81882F90E0FC01E65EBF
:1013F000FB4F808165D78A818F5F8A839091B80186
:101400008A81891780F38CE791E078D78FEF8093FA
:1014100068018B818F5F8B839B818C81981708F487
:1014200096CF8091B60191E089278093B601809193
:10143000B4019091B5019F702AE081329207A1F426
:101440008091B2019091B30121E18134920761F45E
:10145000109268011092B6011092B7011092B80173
:101460001092BA011092B9018091B2019091B3012A
:101470008A3A910519F48FEF8093680126960FB68A
:10148000F894DEBF0FBECDBFCF91DF910895DF93FB
:10149000CF9300D000D0CDB7DEB79C838B838B81F8
:1014A0009C818F3F910521F018F08FEF898302C056
:1014B0008B81898389818E3118F481E08A8332C0DF
:1014C0008981813318F482E08A832CC08981843435
:1014D00018F483E08A8326C08981873518F484E074
:1014E0008A8320C089818A3618F485E08A831AC0ED
:1014F00089818D3718F486E08A8314C08981803908
:1015000018F487E08A830EC08981833A18F488E052
:101510008A8308C08981863B18F489E08A8302C0E7
:101520008AE08A838A810F900F900F900F90CF915D
:10153000DF910895DF93CF9300D000D00F92CDB705
:10154000DEB78D838D818E3118F481E08C8332C0BB
:101550008D81813318F482E08C832CC08D8184349A
:1015600018F483E08C8326C08D81873518F484E0DD
:101570008C8320C08D818A3618F485E08C831AC054
:101580008D818D3718F486E08C8314C08D8180396D
:1015900018F487E08C830EC08D81833A18F488E0BC
:1015A0008C8308C08D81863B18F489E08C8302C04F
:1015B0008AE08C838C818A3018F519821DC0809155
:1015C000BC019091BD01880F991F9093BD0180933C
:1015D000BC0180913F04909140048130910549F411
:1015E0008091BC019091BD0101969093BD018093C3
:1015F000BC0189818F5F898399818C819817F8F26A
:1016000020913F043091400481E090E082279327AD
:101610009093400480933F048C81282F30E0809188
:10162000180490911904820F931F909319048093CA
:1016300018048C8160E01ED68FE791E05FD6809120
:101640001804909119049B838A834FC08A819B81DF
:101650000A979B838A838A819B81009709F045C002
:101660008091BC019091BD0196958795FDDD882FF5
:1016700090E09093BD018093BC01809164028F5FE4
:101680008093640280916402282F30E08091BC0135
:101690009091BD01F901EC59FD4F80838CE791E0F9
:1016A0002DD68091BC019091BD018D309105C9F47A
:1016B00081E891E023D681E089830BC08981882F5E
:1016C00090E0FC01EC59FD4F8081FAD589818F5F54
:1016D0008983909164028981891780F38CE791E076
:1016E0000DD61092BD011092BC018A819B818A3077
:1016F000910508F0ABCF0F900F900F900F900F90C7
:10170000CF91DF910895DF93CF9300D00F92CDB7A3
:10171000DEB780E991E0F2D5109219041092180416
:101720001092400410923F04109264028091AA012A
:101730008B8320C08B81882F90E0880F991FFC013C
:10174000EA57FD4F808191819A83898389819A81AB
:10175000969587959A83898389819A818F3F910590
:1017600021F018F08FEFE6DE02C08981E3DE8B8185
:101770008F5F8B838B81282F30E080918402909142
:101780008502907082179307A8F681E08B830BC0C7
:101790008B81882F90E0FC01EC59FD4F808190D522
:1017A0008B818F5F8B83909164028B81891780F38B
:1017B0008CE791E0A3D50F900F900F90CF91DF9120
:1017C0000895DF93CF9300D000D0CDB7DEB78091DE
:1017D00063028F5F809363029091630280913A0469
:1017E000891738F08091840290918502883C910598
:1017F00051F4EEE4F0E01082809184029091850231
:101800008B831092A3010F900F900F900F90CF91A8
:08181000DF910895F894FFCF69
:10181800303132333435363738394142434445461E
:1018280000726F6F740000000000000000000000EC
:101838000061646D696E0000000000000000000097
:10184800007E5253302066662030303031203030F0
:101858003643203033203232203031353530304174
:10186800422030303135303031352030303135306C
:10187800303430203031313231313131313132315F
:101888003232323132323131323131313131323238
:101898003132323232317E00FF0D0A657869740DBB
:1018A8000A000D0A000D0A697A75766F5F75706413
:1018B8006174652E73682000275327206D63755F58
:1018C8007374617475733A002F003A002756272005
:1018D80000695A75566F2046617563657420312E0C
:1018E800302040204D617220313420323031322096
:1018F8002031313A35313A353200270D0A005A7510
:10190800566F2046617563657420005A75566F20BE
:101918000054657374203A00FF0D0A697A75766F72
:101928005F7570646174652E736820000D0A00206D
:1019380000456E642064657465637465640D0A000F
:0E1948006465636F64652064617461203A0019
:00000001FF
