:020000040800F2
:100000008002002095010008990100089B0100086A
:100010009D0100089F010008A101000800000000E8
:10002000000000000000000000000000A301000824
:10003000A501000800000000A7010008A9010008B0
:100040009B0A0008AB010008AB010008D72200089A
:10005000AB010008AB010008B3230008AB010008A6
:10006000AB010008AB010008AB010008AB010008C0
:10007000AB010008AB010008AB010008AB010008B0
:10008000AB010008AB010008AB010008AB010008A0
:10009000AB010008AB010008AB010008AB01000890
:1000A000AB010008AB010008AB010008AB01000880
:1000B000AB010008F50A0008AB010008AB0100081D
:1000C000AB010008AB010008AB010008AB01000860
:1000D000AB010008AB010008AB010008AB01000850
:1000E000AB010008AB010008AB01000800F002F80A
:1000F00000F041F80AA090E8000C82448344AAF181
:100100000107DA4501D100F036F8AFF2090EBAE87E
:100110000F0013F0010F18BFFB1A43F0010318473B
:100120002C3B00004C3B0000103A24BF78C878C13B
:10013000FAD8520724BF30C830C144BF04680C60ED
:10014000704700000023002400250026103A28BF35
:1001500078C1FBD8520728BF30C148BF0B60704739
:10016000642902F09F83002070471FB5AFF3008021
:100170001FBD10B510BD02F049FC1146FFF7F5FF99
:1001800000F022F802F067FCFFF7F3FF00F0F4FA4A
:1001900030BF000008480047FEE7FEE7FEE7FEE745
:1001A000FEE7FEE7FEE7FEE7FEE7FEE70348044959
:1001B000024A044B70470000ED0000088000002058
:1001C000800200208000002030B587B00025092083
:1001D00000F078FA482000F00FF94FF4165148204B
:1001E00000F0D8FA00F034FB00F072FB00F048FE9B
:1001F00002F01EF94FF478404349088043A23221AF
:100200003C2001F02CFE44A246213C2001F027FEB8
:1002100044A25A213C2001F022FE46A26E213C203D
:1002200001F01DFE19E046A282213C2001F017FEDC
:100230004FF4FA7000F0F7F846A282213C2001F05A
:100240000EFE4FF4FA7000F0EEF84748006808B967
:10025000012000E000204449086002F06EF9002807
:10026000E1D142A282213C2001F0F9FD43A2962176
:100270003C2001F0F4FD1F202349088043E000F0FA
:100280005AFB0446012C18D14FF6FF73009340F23D
:100290003F13EF22AA21002001F043FB3DA2AA2137
:1002A0003C2001F0DCFD13224049002002F06DF9F2
:1002B0003FA2AA213C2001F0D2FD032C13D142A27F
:1002C000AA213C2001F0CBFD132202A9002002F05C
:1002D0004BF943A2AA213C2001F0C1FD02AABE2194
:1002E0003C2001F0BCFD681C85B2012000F09BF8A9
:1002F000C82D08D11C48006808B9012000E0002082
:10030000194908600025BAE70A0000204D696E69A6
:100310002053544D3332000049494320544553542F
:100320000000000041544F4D40414C49454E54455A
:100330004B000000323031302F362F3130000000BA
:10034000323443303220436865636B204661696C08
:1003500065642100506C6561736520436865636B5B
:100360002120202020202000A001214232344330CF
:100370003220526561647921000000004B455930FC
:100380003A5772697465204B4559323A5265616437
:100390000000000053746172742057726974652004
:1003A00032344330322E2E2E2E000000BA31000897
:1003B00032344330322057726974652046696E6961
:1003C0007368656421000000537461727420526583
:1003D00061642032344330322E2E2E2E2000000055
:1003E00054686520446174612052656164656420CD
:1003F00049733A20200000004FF0E021096921F004
:1004000004014FF0E02211610146C21700EB527265
:10041000D2101F4B1A70194609784FF47A72514363
:100420009A1C118070471A4A921C128842434FF05E
:10043000E0235A6100229A6101221A6100BF4FF045
:10044000E022116911F0010F02D011F4803FF6D0C3
:1004500000224FF0E0231A619A6170470C4A12782B
:1004600042434FF0E0235A6100229A6101221A614F
:1004700000BF4FF0E022116911F0010F02D011F41A
:10048000803FF6D000224FF0E0231A619A61704756
:1004900000000020AC4A0A400243AC4B1A6070478F
:1004A000072323EA00021202A84B1B1D19684FF60E
:1004B000FF031940A64B194311434FF0E023C3F843
:1004C0000C1D70472DE9F04704460D4616461F46A1
:1004D0003046F11706EB91714FEAA109F11706EBCF
:1004E00091718910A6EB810101F0FF0A042101EB53
:1004F000CA0000F0FF0A3846FFF7D2FFC7F1040038
:1005000004FA00F80F203841284040EA080808F0B3
:100510000F08202E09DA8F4800680121B1400843F6
:100520004FF0E021C1F800010BE08A48001D01688E
:10053000A6F120020120904001434FF0E020C0F8D6
:100540000411854850F8290008FA0AF1014382484D
:1005500040F82910BDE8F08770B50D46CE1701EBC5
:100560009676B310CE1701EB9676B610A1EB860601
:10057000B606340E794DAD6945F00105774EB5618B
:100580004FEAB63555F823600F25A540AE43744DAC
:1005900045F8236055F8235000FA04F63543704EB1
:1005A00046F823506F4D2E6801258D402E436C4D2B
:1005B000083DC5F8006412F0010F09D0694D0C35F3
:1005C0002E6801258D402E43654D083DC5F80C640D
:1005D00012F0020F09D0634D08352E6801258D40B9
:1005E0002E435F4D083DC5F8086470BD00B500207E
:1005F0005A490861C8601420486100208861C861B8
:100600000846006840F00100086008464068564906
:1006100008405249486008460068544908404F491C
:1006200008600846006820F480200860084640689A
:1006300020F4FE0048600020886000214FF0006038
:10064000FFF728FF00BD10B540480830006840F0B3
:1006500004004FF0E021C1F8100D4048C06940F09F
:1006600080503E49C8614248406840F4807040492B
:1006700048600846006840F00400086008460068CA
:1006800040F002000860FFF783FD10BD3048001DF8
:100690002E49091D086070470146084649062F4A41
:1006A000926942F001022D4B9A612D4A083A526834
:1006B00022F0E0622A4B083B5A601A4652680A430D
:1006C0005A60704730B504460025FFF78FFF234876
:1006D000006840F480302149086000BF1F4800686E
:1006E000400CFBD04FF480601C494860A01EC4B28F
:1006F0000846406840EA844048600846406840F444
:10070000803048601B48006840F03200194908609A
:100710001248006840F080701049086000BF0F4820
:100720000068400EFBD00D48406840F002000B49C5
:10073000486005E009484068C0F3870505F00305F7
:10074000022DF7D130BD000080FFFF1F08ED00E053
:100750000000FA0500E100E000E400E000100240C3
:1007600008000140000401400000FFF8FFFFF6FE12
:100770000070004000200240014600BF7047C2B236
:100780002D4B1A8000BF2C4A121F128812F0400F06
:10079000F9D070472DE9F05F04460D46280102F0BC
:1007A00034FB8146254904FB01F002F02EFB824612
:1007B000494602F0F3F90646304602F0E1FA87B204
:1007C000384602F022FB8346314602F0CCFB8246DB
:1007D0004FF0834102F01EFB814602F0D1FA8046C1
:1007E0003F0107EB080087B21548806940F004001C
:1007F000134988610846806940F480408861114847
:10080000114908600E48C06840F480400C49C86037
:100810000846C06820F48040C8600C48A0F80878FA
:1008200005480830008842F20C0108430749A1F846
:100830000C08BDE8F09F00000438014040420F0062
:1008400000100240B4444444040801400030014018
:100850001B48806940F00400194988610846806996
:1008600040F0200088611748006820F00F0016490A
:10087000C1F804080846D0F8040840F00300C1F8A5
:1008800004080846D0F80C0840F48070C1F80C0841
:100890000E48D0F8000420F470600C49C1F8000440
:1008A0000846D0F8000440F44070C1F8000408463F
:1008B000D0F80C0440F00400C1F80C0470470000AC
:1008C00000100240040801400000014000100140F7
:1008D0003D48806940F004003B4988613B4800681E
:1008E00020F00F003A49C1F800080846D0F8000887
:1008F00040F00800C1F800083448001D0068354980
:1009000008403349C1F804083048001D00683249E6
:1009100008432F49C1F804080846D0F80C0840F4F1
:100920000050C1F80C080846D0F80C0840F400400C
:10093000C1F80C08704710B50220FFF7ADFE27483C
:10094000007800282BD02648006840B124480830A1
:10095000006820B122483438006801281FD10A20DD
:10096000FFF761FD00201D4908701D48006820B98F
:100970000120FFF791FE012010BD194808300068E2
:1009800020B90120FFF788FE0220F5E7144834382B
:100990000068012813D1FFF77FFE0320ECE7104821
:1009A000006801280BD10E4808300068012806D1E4
:1009B0000B483438006810B901200849087001203C
:1009C000FFF76AFE0020D7E7001002400008014050
:1009D00000000140FFFF0F0F000080800800002092
:1009E0003401214245F255523B4B1A601A46506081
:1009F00091604AF6AA221A604CF6CC421A607047FF
:100A00004AF6AA2034490860704770B504460D467E
:100A100016463248C06940F400603049C861304928
:100A2000097804EA01002E4908702E48006840EA5F
:100A3000C6102D49C1F8040C0846D0F8040C40F447
:100A40000070C1F8040C274800684FF68071084018
:100A50002549C1F8040C0846D0F8040C2843C1F815
:100A6000040C2048001F00681D49097841F08001EE
:100A700008431D49C1F8000C022300220321184637
:100A8000FFF720FD70BD1749091F096800F07F02BC
:100A90001143154AC2F8001C704710B51148006890
:100AA00000F07F031048D0F8000C00F07F049C4257
:100AB00003DA0B480078FFF7E6FF00200949091D1B
:100AC00008600A48D0F8880108B9012000E0002039
:100AD0000749086010BD00000030004000100240CF
:100AE00009000020042C0040002000400080224229
:100AF000888122424848008810F0010F07D04748FB
:100B0000006808B9012000E000204449086042481C
:100B1000008820F001004FF08041A1F810047047D8
:100B200070B504460D463E48C06940F002003C499D
:100B3000C86139481C3004808804A0F82854B0F8F3
:100B40000C0440F001008904A1F80C040846B0F838
:100B50000C0440F04000A1F80C040846B0F8000472
:100B600040F00100A1F8000402231D22032101200E
:100B7000FFF7A8FC70BD2A4AD26942F00202284B56
:100B8000DA61284A126822F00F02274BC3F80428C2
:100B90001A46D2F8042842F00402C3F804281A4680
:100BA000D2F8002822F07042C3F800281A46D2F882
:100BB000002842F03042C3F800281A46D2F80C2828
:100BC00042F08002C3F80C289A03A2F82C04A2F881
:100BD0002814B2F8182442F4E0429B03A3F8182426
:100BE0001A46B2F8182442F40062A3F818241A46F0
:100BF000B2F8202442F01002074B10331A80DA13A7
:100C0000D303A3F80024D203B2F8002442F0010277
:100C1000014B103B1A80704710040040888122422B
:100C20000010024004080140000001400021FF4A7A
:100C30001160FF4AC2F8A411FE4908600021FB4A76
:100C4000121F116001211160F94AC2F8A411704706
:100C500010B504460B462046FFF7E8FF0120F34994
:100C600008600020F249C1F8A401F24803600020A6
:100C7000EE49091F086001200860ED49C1F8A40190
:100C800010BD10B503461846FFF7D0FF4FF088306F
:100C9000E8490C390860E849C1F8040C0020E5492E
:100CA00008600120E14908600020091D0860DF4953
:100CB000083908600120DE49C1F89801DD48001FAD
:100CC000006884B20120D949091D08604FF0333013
:100CD000D8490C390860091D08604FF6FF70D649E5
:100CE000C1F80C0C204610BD00B52220FFF79EFF76
:100CF00000BD0121CD4A11600021CD4AC2F8A411E6
:100D0000CC4908600021C94A121F116001211160FD
:100D1000C74AC2F8A411704730B5014601F01F045C
:100D2000C1F34513CA0AE50205EB43151544A8B201
:100D300030BD70B504460D46F02C02DAB5F5A07F43
:100D400001DB002070BD2946E0B201F08FFE2220B9
:100D5000FFF76CFF4FF08830B6490C390860B64990
:100D6000C1F8040C4FF6FF70B24908600120AF498A
:100D700008600020091D0860AC490839086001209E
:100D80000860002008600120A949C1F89801AA481C
:100D9000D0F8080C86B20120A449091D08604FF064
:100DA0003330A4490C390860091D08604FF6FF7004
:100DB000A149C1F80C0CA1480088A0F58A4131393D
:100DC00001D13046BEE73046FFF7A6FFBAE700B5CF
:100DD00040F273110720FFF73BFF00BD00B5002173
:100DE0000720FFF735FF00BD002100E0491C00EBA4
:100DF000C00202EB0012B1EB820FF7D3704770B55F
:100E000004460D462946E0B201F030FE2220FFF7ED
:100E10000DFF01208549086000208549C1F8A40123
:100E2000874800888349086000208049091F0860BE
:100E3000012008607E49C1F8A40170BD70B5054667
:100E400000240021084601F011FEFFF74DFF00BF0E
:100E500012E001207549086000207549C1F8A4011D
:100E60007448056000207149091F0860012008606E
:100E70006F49C1F8A401641CB4F5963FE9D370BD75
:100E800010B57048806940F008006E4988610846D6
:100E9000806940F0100088610846806940F00100D8
:100EA00088610120FFF7F8FB674840686FF30B008B
:100EB000654948600846406840F23331084362495A
:100EC00048600846006820F07F40086008460068D7
:100ED00040F04C5008600846C06840F4F860C860B4
:100EE0004FF033305349083908605349C1F8000CBA
:100EF0004FF6FF704F4908600520FFF775FF01218D
:100F00000020FFF7A5FE0520FFF76EFF0020FFF78A
:100F1000B8FE4A490880084601884CA001F07AFCD6
:100F200046480088A0F51341253905D0434800887C
:100F3000A0F51341283978D11021E720FFF788FE6A
:100F400001210020FFF784FE4FF480710120FFF79C
:100F50007FFE4FF4E0610220FFF77AFE41F230019C
:100F60000320FFF775FE00210420FFF771FE40F219
:100F700007210820FFF76CFE00210920FFF768FE1B
:100F800000210A20FFF764FE01210C20FFF760FE1C
:100F900000210D20FFF75CFE00210F20FFF758FE17
:100FA00000211020FFF754FE07211120FFF750FE0B
:100FB00000211220FFF74CFE00211320FFF748FE0E
:100FC0000520FFF711FF41F290511020FFF740FE7E
:100FD00040F227211120FFF73BFE0520FFF704FF19
:100FE0009C211220FFF734FE0520FFF7FDFE4FF491
:100FF000C8511320FFF72CFE23212920FFF728FEDC
:101000000E212B20FFF724FE0520FFF7EDFE002127
:101010002020FFF71DFE40F23F112120FFF718FEB0
:101020000520FFF7E1FE072114E0A0E0A001224225
:10103000000022420C0C0140000001400E00002084
:101040000A000020001002400010014049443A25E7
:10105000640A00003020FFF7FBFD40F207713120E9
:10106000FFF7F6FD06213220FFF7F2FD40F2047192
:101070003520FFF7EDFD41F604713620FFF7E8FD5E
:1010800004213720FFF7E4FD00213820FFF7E0FDC1
:1010900040F206713920FFF7DBFD40F201713C2080
:1010A000FFF7D6FD0F213D20FFF7D2FD0520FFF70A
:1010B0009BFE00215020FFF7CBFDEF215120FFF7D1
:1010C000C7FD00215220FFF7C3FD40F23F1153201E
:1010D000FFF7BEFD4FF427416020FFF7B9FD012166
:1010E0006120FFF7B5FD00216A20FFF7B1FD002167
:1010F0008020FFF7ADFD00218120FFF7A9FD002131
:101100008220FFF7A5FD00218320FFF7A1FD00212C
:101110008420FFF79DFD00218520FFF799FD102118
:101120009020FFF795FD00219220FFF791FD03210C
:101130009320FFF78DFD4FF488719520FFF788FD10
:1011400000219720FFF784FD00219820FFF780FD04
:1011500040F233110720FFF77BFD00212020FFF72D
:1011600077FD40F23F112120FFF772FDCDE3FF48EC
:101170000088A0F51341203904D0FC480088B0F560
:10118000134F7ED100210846FFF762FD4FF48071B6
:101190000120FFF75DFD4FF4E0610220FFF758FDED
:1011A00041F230010320FFF753FD00210420FFF737
:1011B0004FFD40F202210820FFF74AFD00210920DF
:1011C000FFF746FD00210A20FFF742FD01210C2018
:1011D000FFF73EFD00210D20FFF73AFD00210F2013
:1011E000FFF736FD0520FFF7FFFD40F20111072054
:1011F000FFF72EFD0520FFF7F7FD4FF48651102075
:10120000FFF726FD07211120FFF722FD4FF488711B
:101210001220FFF71DFD4FF430611320FFF718FD7A
:1012200000212920FFF714FD44F210012B20FFF7C5
:101230000FFD00215020FFF70BFDEF215120FFF79C
:1012400007FD00215220FFF703FD40F23F1153201C
:10125000FFF7FEFC4FF41C516020FFF7F9FC012161
:101260006120FFF7F5FC00216A20FFF7F1FC002167
:101270008020FFF7EDFC00218120FFF7E9FC002131
:1012800000E02DE08220FFF7E3FC00218320FFF740
:10129000DFFC00218420FFF7DBFC00218520FFF725
:1012A000D7FC10219020FFF7D3FC00219220FFF7FC
:1012B000CFFC01219320FFF7CBFC4FF488719520E0
:1012C000FFF7C6FC00219720FFF7C2FC0021982001
:1012D000FFF7BEFC40F273110720FFF7B9FC14E3DF
:1012E000A2480088A0F5A85105397ED10720FFF754
:1012F000AFFC0520FFF778FD4FF48E711220FFF749
:10130000A7FC0121A420FFF7A3FC0F210820FFF771
:101310009FFC08210A20FFF79BFC08210D20FFF706
:1013200097FC40F207713020FFF792FC0721312033
:10133000FFF78EFC40F203613220FFF789FC4FF487
:10134000E0613320FFF784FC40F202213420FFF7F4
:101350007FFC02213520FFF77BFC41F60F71362020
:10136000FFF776FC40F207713720FFF771FC002190
:101370003820FFF76DFC00213920FFF769FC40F2AF
:1013800007713A20FFF764FC00213B20FFF760FC67
:1013900007213C20FFF75CFC00213D20FFF758FCB3
:1013A0000520FFF721FD01210720FFF751FC012156
:1013B0001720FFF74DFC0520FFF716FD4FF4BD5138
:1013C0001020FFF745FC40F217211120FFF740FCE9
:1013D0004FF48F711220FFF73BFC4FF47061132024
:1013E000FFF736FC00212A2000E093E0FFF730FCF5
:1013F0000A212920FFF72CFC4FF49F711220FFF7E0
:1014000027FC00215020FFF723FCEF215120FFF79C
:101410001FFC00215220FFF71BFC40F23F1153201C
:10142000FFF716FC4FF41C516020FFF711FC01215F
:101430006120FFF70DFC00216A20FFF709FC002165
:101440008020FFF705FC00218120FFF701FC00212F
:101450008220FFF7FDFB00218320FFF7F9FB00212D
:101460008420FFF7F5FB00218520FFF7F1FB132116
:101470009020FFF7EDFB4FF440719220FFF7E8FB5F
:1014800005219320FFF7E4FB00219520FFF7E0FB07
:1014900000219720FFF7DCFB00219820FFF7D8FB05
:1014A0004FF480710120FFF7D3FB4FF4E06102207D
:1014B000FFF7CEFB41F230010320FFF7C9FB00210B
:1014C0000420FFF7C5FB00210C20FFF7C1FB002122
:1014D0000F20FFF7BDFB00212020FFF7B9FB002103
:1014E0002120FFF7B5FB21210720FFF7B1FB1420D6
:1014F000FFF77AFC61210720FFF7AAFB1420FFF712
:1015000073FC40F273110720FFF7A2FB1420FFF7D2
:101510006BFCFAE115480088A0F5094189397ED1B4
:1015200001210020FFF794FB0520FFF75DFC4AF640
:10153000A4010320FFF78CFB0520FFF755FC0021D9
:101540000C20FFF785FB0520FFF74EFC40F60C0151
:101550000D20FFF77DFB0520FFF746FC4FF42C51D3
:101560000E20FFF775FB052002E000000E000020B2
:10157000FFF73AFCB0211E20FFF76AFB0520FFF7BA
:1015800033FC42F63F310120FFF762FB0520FFF7F5
:101590002BFC4FF4C0610220FFF75AFB0520FFF738
:1015A00023FC00211020FFF753FB0520FFF71CFC54
:1015B00046F270011120FFF74BFB0520FFF714FCEA
:1015C00000210520FFF744FB0520FFF70DFC00215B
:1015D0000620FFF73DFB0520FFF706FC4EF61C71C9
:1015E0001620FFF735FB0520FFF7FEFB0321172030
:1015F000FFF72EFB0520FFF7F7FB40F23321072012
:10160000FFF726FB0520FFF7EFFB00210B20FFF77C
:101610001FFB0520FFF7E8FB00210F2000E0B5E0ED
:10162000FFF716FB0520FFF7DFFB00214120FFF746
:101630000FFB0520FFF7D8FB00214220FFF708FB36
:101640000520FFF7D1FB00214820FFF701FB052013
:10165000FFF7CAFB40F23F114920FFF7F9FA0520D6
:10166000FFF7C2FB00214A20FFF7F2FA0520FFF73F
:10167000BBFB00214B20FFF7EBFA0520FFF7B4FB83
:101680004FF46F414420FFF7E3FA0520FFF7ACFB6E
:1016900000214520FFF7DCFA0520FFF7A5FB40F20B
:1016A0003F114620FFF7D4FA0520FFF79DFB40F2DB
:1016B00007713020FFF7CCFA0520FFF795FB4FF4B8
:1016C00001713120FFF7C4FA0520FFF78DFB4FF4BD
:1016D00001713220FFF7BCFA0520FFF785FB40F2CD
:1016E00002513320FFF7B4FA0520FFF77DFB40F2EB
:1016F00007513420FFF7ACFA0520FFF775FB4FF4D4
:1017000001713520FFF7A4FA0520FFF76DFB4FF4B8
:1017100001713620FFF79CFA0520FFF765FB40F2C8
:1017200002513720FFF794FA0520FFF75DFB40F2E6
:1017300002313A20FFF78CFA0520FFF755FB40F203
:1017400002313B20FFF784FA0520FFF74DFB002113
:101750002320FFF77DFA0520FFF746FB0021242018
:10176000FFF776FA0520FFF73FFB4FF400412520F5
:10177000FFF76EFA0520FFF737FB00214F20FFF738
:1017800067FA00214E20FFF763FABEE0F8480088B0
:10179000A0F58A413139F8D101210020FFF758FA2C
:1017A0003220FFF721FB41F228611020FFF750FAA9
:1017B0000E211220FFF74CFA40F639211320FFF7D3
:1017C00047FA0A20FFF710FB40211120FFF740FAEB
:1017D00050211520FFF73CFA2820FFF705FB1E21BA
:1017E0001220FFF735FA2820FFF7FEFA4FF4B15127
:1017F0001020FFF72DFA42F639211320FFF728FABF
:101800000A20FFF7F1FA4FF480710120FFF720FA68
:101810004FF440710220FFF71BFA41F23001032020
:10182000FFF716FA40F202210820FFF711FA08210B
:101830000A20FFF70DFA00213020FFF709FA40F2E5
:1018400002413120FFF704FA4FF483713220FFF791
:10185000FFF940F203513320FFF7FAF94FF4827198
:101860003420FFF7F5F940F201313520FFF7F0F9A8
:1018700040F207713620FFF7EBF940F205313720CF
:10188000FFF7E6F94FF402713820FFF7E1F940F66F
:101890000B713920FFF7DCF902214120FFF7D8F95D
:1018A0004FF41C516020FFF7D3F901216120FFF7AD
:1018B000CFF94FF404719020FFF7CAF94FF4857106
:1018C0009220FFF7C5F904219320FFF7C1F94FF4E7
:1018D0008071A020FFF7BCF901210720FFF7B8F9BC
:1018E00021210720FFF7B4F923210720FFF7B0F9E2
:1018F00033210720FFF7ACF940F233110720FFF73F
:10190000A7F90021A020FFF7A3F941F28830FFF7E3
:101910006BFA0020974908604FF6FF70FFF78EFAC8
:1019200010BD2DE9F04704460D4616461F46DDF86A
:10193000208021465020FFF78BF931465120FFF7D8
:1019400087F929465220FFF783F939465320FFF7DC
:101950007FF92946204601F089F8FFF7C5F9791B80
:10196000491C301B401C01FB00F913E00120814998
:101970000839086000208049C1F8A4017F48C0F8F8
:101980000C8C00207B490C390860012008607949E3
:10199000091F08605FEA0900A9F10109E6D10021E9
:1019A0005020FFF755F9EF215120FFF751F90021A1
:1019B0005220FFF74DF940F23F115320FFF748F94D
:1019C000BDE8F0872DE9FF4F85B004460D46164669
:1019D000002004900390A6EB04080898A0EB0509EA
:1019E000A3460095B8F1000F02DD012001900AE046
:1019F000B8F1000F02D10020019004E04FF0FF3059
:101A00000190C8F10008B9F1000F02DD4FF0010AA2
:101A100009E0B9F1000F02D14FF0000A03E04FF0E6
:101A2000FF3AC9F10009C84502DDCDF8088001E0A0
:101A3000CDF80890002722E0009881B21FFA8BF0C1
:101A4000FFF7DDF90498404404900398484403905C
:101A500002990498884205DD04990298081A0490B6
:101A600001988344DDE90210884206DDDDE90210B9
:101A7000401A0390009850440090781C87B2029856
:101A8000401C8742D8DD09B0BDE8F08F2DE9F04158
:101A900004460D4616461F462B463246294620462A
:101AA000FFF790FF3B46224629462046FFF78AFF74
:101AB0003B46324639462046FFF784FF3B463246D6
:101AC00029463046FFF77EFFBDE8F0812DE9F0475B
:101AD00004460D4616460027B0460320A0EB4609F3
:101AE0005CE0EA1B91B2A4EB080290B2FFF787F921
:101AF000EA1B91B204EB080290B2FFF780F905EB04
:101B0000080291B2E21B90B2FFF779F9EA1B91B299
:101B1000A4EB080290B2FFF772F9A5EB080291B2AC
:101B2000E21B90B2FFF76BF9EA1991B204EB0802DD
:101B300090B2FFF764F9A5EB080291B2E21990B2F6
:101B4000FFF75DF905EB080291B2E21990B2FFF7D9
:101B500056F9EA1991B2A4EB080290B2FFF74FF9D7
:101B60007F1CB9F1000F0BDAB800801D81440EE034
:101B70000E000020A8012242000022420000014085
:101B8000A7EB080080000A308144A8F1010805EBAA
:101B9000080291B2E21990B2FFF731F94745A0DD92
:101BA000BDE8F0872DE9F84F04460D4616461F465E
:101BB000DDF82880E82C02DCB5F5987F01DDBDE872
:101BC000F88F21465020FFF743F8BB4607EBD7704C
:101BD0004010401E204481B25120FFF739F82946B9
:101BE0005220FFF735F8E819401E81B25320FFF765
:101BF0002FF82946204600F039FFFFF775F8A6F1C7
:101C00002000C6B2B8F1000F56D14FF0000950E0E5
:101C10000C2F08D106EB4600A34901EB800010F819
:101C20000900009005E0A14800EB061010F809003B
:101C300000904FF0000A33E0009810F0010F14D02C
:101C400001209B49086000209A49C1F8A4019A48E4
:101C500000889A49086000209549091F0860012002
:101C600008609449C1F8A40113E00120904908607C
:101C700000209049C1F8A401914800888F4908606C
:101C800000208B49091F0860012008608949C1F8BC
:101C9000A4010098401000900AF1010000F0FF0A32
:101CA00007EBD771BAEB610FC6DB09F1010000F059
:101CB000FF09B945ACDB33E04FF000092EE00C2FF3
:101CC00008D106EB4600784901EB800010F80900C6
:101CD000009005E0754800EB061010F80900009030
:101CE0004FF0000A11E0009810F0010F06D005EB4C
:101CF000090291B204EB0A00FFF781F80098401046
:101D000000900AF1010000F0FF0A07EBD771BAEB6F
:101D1000610FE8DB09F1010000F0FF09B945CEDBF6
:101D200000215020FEF794FFEF215120FEF790FF95
:101D300000215220FEF78CFF40F23F115320FEF7A6
:101D400087FF3CE710B50246012000E050430B003E
:101D5000A1F10104E1B2F9D110BD2DE9FF4F81B02D
:101D6000044615461E460E9F4FF0000AD0463EE040
:101D7000A6EB0800401EC1B20A20FFF7E3FFB5FB47
:101D8000F0F00A21B0FBF1F201FB120000F0FF09B4
:101D9000BAF1000F16D1701E404513DDB9F1000FE6
:101DA0000ED10023BB4607EBD771491001FB084158
:101DB000C8B200933B4620220299FFF7F3FE12E0DF
:101DC0004FF0010A0023BB4607EBD771491001FB16
:101DD0000841C8B200933B4609F13001CAB20299EA
:101DE000FFF7E0FE00BF08F1010000F0FF08B0457A
:101DF000BEDB05B0BDE8F08F2DE9F84F04460D4677
:101E000016461F46DDF828804FF0000923E0A7EBB7
:101E10000900401EC1B20A20FFF794FFB6FBF0F0A4
:101E20000A21B0FBF1F201FB120000F0FF0A0B9B4C
:101E3000C34608EBD871491001FB0941C8B20093B1
:101E400043460AF13001CAB22946FFF7ABFE09F159
:101E5000010000F0FF09B945D9DBBDE8F88FF8B5FE
:101E600004460D4616461BE0E82C03DD002405F170
:101E7000100085B2B5F5987F06DD002004460546C2
:101E80004FF6FF70FEF7DAFF00230093327810233D
:101E900029462046FFF786FE04F10800C4B2761CEE
:101EA00030780028E0D1F8BDCD3100084136000877
:101EB000A0012242000022420A0000200C0C014036
:101EC0000C000020F0B50346642093FBF0F0C5B28F
:101ED000642093FBF0F700FB1730C6B2132D02DD30
:101EE00006F16400C6B2F71706EB9777304606EBAB
:101EF000A704072094FBF0F700FB174084B2A0185A
:101F00004F1EDFF824C41CF80770384484B2F7175A
:101F100006EB9777BF10B6EB870703D1032901DAE9
:101F2000601E84B2072094FBF0F700FB1740C0B29C
:101F3000F0BD0146CA1701EB92729210B1EB82021A
:101F400012D1642091FBF0F200FB121050B94FF453
:101F5000C87091FBF0F200FB121008B90120704725
:101F60000020FCE70120FAE70020F8E770B5002523
:101F700000260024ED4805882D04ED48B0F81C0823
:101F80000544EC48B5FBF0F6EB480088B0423CD085
:101F9000E9490E8040F2B27410E02046FFF7C9FF15
:101FA00040B1B6F5B77F02D3A6F5B77604E0601C62
:101FB00084B206E0A6F26D16601C84B2B6F5B67F58
:101FC000EBD800BFDD488480002416E0DB49888818
:101FD000FFF7AFFF30B1012C04D11D2E01D31D3E00
:101FE00009E00CE0D648005DB04203D8D448005D5B
:101FF000361A00E003E0601C84B21C2EE6D200BF5B
:10200000601CCE498871701CC871CA48B5FBF0F1DC
:1020100000FB11564FF46160B6FBF0F0C749087041
:102020004FF46160B6FBF0F100FB11603C21B0FBA6
:10203000F1F0C24948704FF46160B6FBF0F100FB6B
:1020400011603C21B0FBF1F201FB1200BB4988702A
:102050000B46DA7999799888FFF734FFB749087207
:10206000002070BD2DE9F04704460D461646DDE917
:1020700008784FF0000A40F2B270844203DB40F669
:102080003300844202DD0120BDE8F08740F2B279DE
:102090000CE04846FFF74DFF10B1AA48824401E02A
:1020A000A948824409F101001FFA80F9A145F0DB3B
:1020B000681EC5B24FF0000914E0A14810F80900ED
:1020C00040F2A32148430AEBC01A2046FFF731FF34
:1020D00020B1B9F1010F01D19648824409F1010004
:1020E0001FFA80F9A945E8DB701E40F2A32148439E
:1020F0000AEBC01AC3EB4310C0EB03200AEB001A33
:10210000C7EB07100AEB800AC2449048C06940F050
:1021100080508E49C8610846C06940F00060C861BF
:102120008B48006840F48070894908607F48143803
:10213000008840F010007E49A1F804087B49091D81
:10214000A1F800A04FEA1A407949A1F818080846FA
:10215000B0F8040820F01000A1F8040800BF73488C
:102160001438008810F0200FF9D000208CE71CB53F
:10217000002478480088A0F5A04150397ED07348EB
:10218000C06940F080507149C8610846C06940F09C
:102190000060C8616E48006840F480706C49086057
:1021A0006A48006A40F48030684908620846006A5C
:1021B00020F4803008620846006A40F0010008629E
:1021C00004E0601CC4B20A20FEF72DF95F48006AE3
:1021D00010F0020F01D1FA2CF3DBFA2C01DB012005
:1021E0001CBD5A48006A40F480705849086208468D
:1021F000006A40F40040086200204C491039088011
:1022000047F6FF704A49A1F80C0800BF4748143848
:10221000008810F0200FF9D000BF4448143800881F
:1022200010F0080FF9D041481838008840F001003C
:102230003F49A1F8000800BF3C481438008810F05E
:10224000200FF9D039481438008840F01000384980
:10225000A1F8040837230022CDE900230A23022233
:102260000C2140F2D970FFF7FDFE3148B0F80408A8
:1022700020F010002E49A1F8040800E00BE000BF98
:102280002A481438008810F0200FF9D045F2500089
:102290003049088015E000BF24481438008810F049
:1022A000080FF9D021481838008840F00100204973
:1022B000A1F8000800BF1D481438008810F0200F56
:1022C000F9D00223032200210846FEF7FBF8FFF7AE
:1022D0004DFE002084E700B514481438008810F043
:1022E000010F01D0FFF742FE10481438008810F0AB
:1022F000020F07D00D481438008820F002000C4966
:10230000A1F8040809481438008840F6FA7108401A
:102310000749A1F8040800BF04481438008810F0E9
:10232000200FF9D000BD0000313C00081828004003
:102330000020004080510100100000201400002007
:102340003D3C00080085E2018033E10100100240BD
:1023500000700040046C004010B53048C06840F484
:10236000FE702E49C860FEF76EF910BD70B50024EE
:10237000002500202A4908601AE02948A038006892
:1023800018B1601CC4B2002508E0681CC5B2032D5A
:1023900004DD012022490860002070BD1E20FEF7E8
:1023A00042F8642C04DB00201D4908600120F4E79A
:1023B000E3E710B501201B490860FFF7D7FF08B11C
:1023C000FFF7CAFF10BD10B51448806940F0040043
:1023D000124988610846806940F00100886112480E
:1023E000006820F00F001149C1F800080846D0F835
:1023F000000840F00800C1F8000802220021084649
:10240000FEF7AAF8FFF7B2FF08B9FEF71CF902239E
:10241000062219461846FEF755F810BD0010024076
:10242000A0012142140401400008014000000140C5
:1024300010B500F0BDF810BD70B50446002600F0E0
:10244000CEF800BF2546E11704EB11610912A02266
:1024500002EB4101C8B200F073F900F001F9E11795
:1024600004EB11610912A4EB0121C8B200F068F974
:1024700000F0F6F800F0B3F8A12000F061F900F0E8
:10248000EFF8002000F08AF9064600F0C8F8304660
:1024900070BD70B504460D4600F0A1F800BF264699
:1024A000E11704EB11610912A02202EB4101C8B24D
:1024B00000F046F900F0D4F8E11704EB11610912BD
:1024C000A4EB0121C8B200F03BF900F0C9F828469E
:1024D00000F036F900F0C4F800F0A1F80A20FDF78A
:1024E000A2FF70BD2DE9F04105460C4616460027B7
:1024F00009E0FA0024FA02F2D1B2EA1990B2FFF729
:10250000C8FF781CC7B2B742F3DBBDE8F0812DE904
:10251000F04104460D460027002609E03F026119FC
:10252000891B491E88B2FFF787FF0744701CC6B29B
:10253000AE42F3DB3846BDE8F08110B5FF20FFF76F
:102540007BFF0446552C01D1002010BD5521FF20F2
:10255000FFF79FFFFF20FFF76FFF0446552C01D1C7
:102560000020F2E70120F0E770B504460D4616465C
:1025700008E02046621C94B2FFF75EFF05F8010BED
:10258000701E86B2002EF4D170BD70B504460E46A2
:10259000154606E031782046FFF77BFF601C84B2C9
:1025A000761C2800A5F101018DB2F3D170BD0000A9
:1025B0009348806940F010009149886191484068D3
:1025C00020F47F208F4948600846406840F44C3032
:1025D00048600846C06840F4C050C860704710B5F5
:1025E0008848406820F47040864948600846406842
:1025F00040F4405048600120834908608349C1F895
:10260000B0010420FDF72AFF00207F490860042064
:10261000FDF724FF00207D49C1F8B00110BD10B5C1
:102620007848406820F47040764948600846406821
:1026300040F44050486000207349091D0860734908
:10264000C1F8AC010420FDF709FF01206E49091D06
:1026500008606E49C1F8AC010420FDF7FFFE10BD13
:1026600010B500246748406820F470406549486010
:102670000846406840F40040486001206249086014
:10268000FDF7ECFE01206149C1F8B001FDF7E6FE5F
:1026900007E0601CC4B2FA2C03DDFFF7C0FF012085
:1026A00010BD5948803800680028F2D15649091DEC
:1026B0000860F5E710B500205349091D086051482E
:1026C000406820F470404F4948600846406840F434
:1026D0004050486000204D49C1F8AC010220FDF790
:1026E000BDFE01204849091D08600220FDF7B6FE25
:1026F00000204649C1F8B00110BD10B50020424984
:10270000091D08603F48406820F470403D4948601A
:102710000846406840F44050486001203B49C1F8F9
:10272000AC010220FDF79AFE01203749091D08601F
:102730000220FDF793FE00203449C1F8B00110BD1E
:1027400070B505462F48406820F470402D49486018
:102750000846406840F44050486000202A49091D5E
:102760000860002417E0E809274908606806050E9C
:102770000220FDF773FE01202449C1F8B0010220B8
:10278000FDF76CFE00202049091D08600220FDF7BE
:1027900065FE601CC4B2082CE5DB70BD70B5044654
:1027A00000251848406820F47040164948600846E3
:1027B000406840F400404860002617E000201249BD
:1027C000091D08600220FDF749FE01200F49C1F8EC
:1027D000B0016806050E0C488038006808B1681C16
:1027E000C5B20120FDF73AFE701CC6B2082EE5DB2B
:1027F00014B9FFF782FF01E0FFF75CFF284670BDC8
:102800000010024000100140AC01224200002242B0
:10281000704700000FB4054A054910B503AB794471
:10282000029800F0D8F810BC5DF814FB04000020FA
:102830005DDFFFFF2DE9F04104460E4600202BE04E
:10284000E1682046884748B3252802D0D4E9012111
:102850001FE0E16820460027884705001ED0A5F14B
:102860004100192802D820354FF400673246294626
:1028700020462760FDF774FC40B1012801D1361DC8
:10288000DEE7F61D26F007060836D9E7D4E9012170
:1028900028469047206A401C2062D1E7206ABDE8A4
:1028A000F08100002DE9F04180460026106875296E
:1028B000414614A511D0AFF30080002802DA40424F
:1028C00011A508E0D8F800108A0701D50FA502E08D
:1028D000490704D50EA5012601E0AFF300800024CE
:1028E00008F1240704E000F089F830313955641C00
:1028F0000028F8D133462A4621464046BDE8F0413B
:1029000000F00CB8000000002D0000002B000000BB
:102910002000000070477047704770472DE9F0476E
:102920000D4604469246994600F12408016888063F
:1029300004D5E06921F01001216000E001200027AA
:10294000A84200DD471BA1697A1902EB0900081AA9
:10295000A0612068C00602D42046AFF300800026A4
:1029600008E0D4E901211AF806009047206A401CCB
:10297000761C20624E45F4DB2068C0060AD520464E
:10298000AFF3008006E0D4E9012130209047206AAF
:10299000401C2062381EA7F10107F4DC07E0D4E9EF
:1029A000012118F805009047206A401C2062281E6B
:1029B000A5F10105F3DC2046AFF300802168022079
:1029C000090600D40120BDE8F087000001694A1C17
:1029D00002610878704710B50C46194690B0CDE9F1
:1029E000024200220692044A7A44CDE9042001A85A
:1029F000FFF720FF10B010BDE1FFFFFF4FF00A010D
:102A0000B0FBF1F202FB110110467047754600F071
:102A100029F8AE4605006946534620F00700854672
:102A200018B020B5FDF7C2FBBDE820404FF000060E
:102A30004FF000074FF000084FF0000B21F00701A6
:102A4000AC46ACE8C009ACE8C009ACE8C009ACE8E9
:102A5000C0098D4670470446AFF300802046FDF75D
:102A600093FB0000004870472000002030B504466A
:102A70000D4621462020FEF7EBF829462120FEF7DF
:102A8000E7F830BD90EA010F48BF81F0004100F146
:102A90007C82421A3CBF801A89184FEAD0524FF00C
:102AA0007F4C1CEA410FA2EBD15318BF9CEA026F86
:102AB00000F040804FF0004C4CEA00204CEA01212D
:102AC00021FA03FC10EB0C0C23D202F1FF325FEA77
:102AD0001C2040EBC25038BF70471CF07F0F4FEAFC
:102AE000400C18BFBCF17F4F38BF7047C3F12003C3
:102AF000994008BF20F00100BCF17F4F38BF7047FC
:102B0000A0F1C0404FF0FF0141EAD0514FEAC1505F
:102B100070474FEA3C00000A40EBC25028BF1CF04F
:102B2000FF0F4FEA400CE1D018BFBCF17F4F38BF18
:102B30007047E5E79CEA026F05D010EA5C0F08BF1A
:102B400000F000407047BCEB410F4FEA400228BF45
:102B50009445DFF828C0C0F01580AFF30080B2EBD9
:102B6000410F05D012F1807F08BF704708467047BB
:102B700090EA010F58BF70470148704701000004F8
:102B80000000C07F014800F0CEBA00000000C07F06
:102B9000014800F0C8BA00000000C07F4FF47F0C6D
:102BA0001CEAD0121EBF1CEAD11392EA0C0F93EA62
:102BB0000C0F00F0A58090EA010F48BF42F480722C
:102BC00040F4000C41F400002CF07F4120F07F40E5
:102BD00000B58142A2EB03020FF2401CACEB504E59
:102BE000C0F100009EF800E04FEA4E0E00FB0EFC24
:102BF00038BF49004FEA2C1C02F5FA020CFB0EF319
:102C00004FEACE1E4FEA112C4FEAC1210EEB635E54
:102C10000EFB0CFC4FEA1C5300FB03114FEA112C76
:102C20004FEA01310EFB0CFC02F4807E42EB2242A3
:102C30004FEADC4C00FB0C11C14228BF09184CEBD9
:102C40000333012924BF4EF0020E4EF0804E10EBEC
:102C5000410F24BF4EF0010E4EF0804E08BF4EF0E3
:102C6000040E4EF008015DF804EB43EBC25018BFB0
:102C7000B2F57C0F38BF704741EAC07108BF20F041
:102C80000100B2F57C0F38BF704729D512F0F00F64
:102C90001CBF00F1C04000F00040704700818283FB
:102CA0008485868788898B8C8D8E8F91929395965B
:102CB00097999A9C9D9FA0A2A3A5A7A8AAACAEB0E5
:102CC000B2B3B5B7B9BCBEC0C2C5C7C9CCCED1D4EA
:102CD000D7D9DCDFE2E6E9ECF0F3F7FAFE0000001A
:102CE0004FEA400C0CF1807CBCF17E4F28BF70474E
:102CF000B0F1C0404FF07F404CBF401040087047DB
:102D000090EA010F0CEAD11348BF42F48072624589
:102D100038BF634507D213F47F0F23D080EA010048
:102D200000F0004070474FF0807C1CEB400F98BFD4
:102D30001CEB410FDFF840C03FF624AFAFF300803B
:102D40004FF0807C1CEB400F02BF1CEB410F0B4887
:102D500070471CEB410F0CBF002020F0004040EA00
:102D6000C250704712F47F0F04BF0448704742F00E
:102D7000FF004FEAC0507047040000040000C07F0D
:102D8000C2154FEA002318BF43F0004305D4D2F127
:102D90009E020AD323FA02F070474FEA4001B1F1D4
:102DA000FE4F02D24FF000007047DFF828C04FEA14
:102DB0004001B1F17F4F88BF4CF4803C3FF6E8AE54
:102DC0001CBF6FEAE0707047AFF300806FEAE070FD
:102DD000704700006800020410F0004218BF404233
:102DE00042F08042B0FA80F18840A2EBC15202F179
:102DF000786208BF7047410642EB202018BF5FF0A1
:102E0000806C28BF20F0010070474FF08042FFF730
:102E1000E9BF00004FF47F0C1CEAD0121EBF1CEA71
:102E2000D11392EA0C0F93EA0C0F00F04A8090EA5B
:102E3000010F48BF42F480724FF0004C4CEA002072
:102E40004CEA01211A44A0FB01C3A2F50002BCF127
:102E5000000F18BF43F0010302F4807CB3F1004F70
:102E600038BF5B0042EB2242180A40EBC25028BF39
:102E700013F07F0F18BFB2F57C0F38BF704708BF43
:102E800020F00100B2F57C0F38BF70470BD582F0FF
:102E9000FF0212F5803FC8BF704700F1C040D8BFA5
:102EA00000F00040704700F5000C5FEA4C0C48BF92
:102EB0007047B0F1C0404FF07F404CBF4010400819
:102EC000704790EA010F0CEAD11348BF42F48072B8
:102ED000624538BF634504D280EA010000F000403B
:102EE00070474FF0807C1CEB400F98BF1CEB410FEC
:102EF0004FF0030C4CF0806C3FF644AEAFF3008013
:102F000012F47F0F1FBF13F47F0F42F0FF02D005B2
:102F100070470148704700000000C07F10B412F4F1
:102F20007F0F4FEA00204FEA012110D1B0FA80F460
:102F300000FA04F0A2EB044213F47F0F02F5803292
:102F400018BF41F0004100D010BC18BF604740F0EE
:102F50000040B1FA81F401FA04F1A3EB044310BC80
:102F600003F58033604780F0004090EA010F7FF561
:102F700090AD81F0004100F008B8000090EA010F28
:102F800048BF81F000413FF584AD421A3EBF82F058
:102F90000042801A89184FEAD0524FF07F4C1CEA49
:102FA000410FA2EBD15318BF9CEA026F4FD04FF0F4
:102FB000004C4CEA00204CEA012121FA03FCB0EB62
:102FC0000C0C0FD412F0FE0F18BF5FEA4C001DD599
:102FD000001240EBC25038BF70471CF03F0F18BFC3
:102FE00070470BE0A2F101025FEA1C2040EBC250E7
:102FF00038BF70471CF07F0F18BF7047C3F1200324
:10300000994014BF401E20F0010070474FEA122380
:1030100016D0004204BF002070474FEA9000B0FA7B
:1030200080FCA2EB0C02CCF1280C60FA0CF093EAC5
:10303000122F04BF00EBC25070474FEAC3707047B5
:103040005FEADC1008BF70474FEAC37070479CEA24
:10305000026F04D010EA5C0F08BF00207047BCEB81
:10306000410F4FEA400228BF9445DFF82CC0FFF41F
:1030700089ADAFF30080B2EB410F06D012F1807F33
:1030800008BF704781F00040704790EA010F48BFC9
:103090007047024870470000020000040000C07F33
:1030A00000F0004343EAD05323F48073C3F1C1031B
:1030B00023F0004117291FD8C3F1200310FA03F1B0
:1030C000C3F1200320F07F4040F4000020FA03F019
:1030D00003F0004340EA03000DD00B46590009D32A
:1030E00018BF401C06D17FEAE27398BF401C38BF6E
:1030F00020F0010070477047182903EB912318BF97
:103100006FF00041013168BF03F0004009D6400272
:1031100003F0004000F1010004BF12F0004F20F066
:103120000100704770470CF00F03092B08BF0820FF
:1031300000F02B800A2B0BD0082B18BF704708BF5C
:103140001CF0400F0AD04FF000004FF00001704714
:103150001CF0400F18BF4FF0004070471CF0100FDC
:1031600008D020F0704300F07F4242EAD3014FEADA
:103170004370704700F0604021F07F4242EA000255
:1031800001F07F4040EA727070471CF4801F11D03C
:103190001CF4E02F03D06FEACC31490070474FF0A8
:1031A0004050EFF3008222F0704242EA000282F3C4
:1031B000008870474FF0000070474D696E695354A6
:1031C0004D333220494943205445535400000000F8
:1031D00000000000000000000000000404040404DB
:1031E000040004000000140A0A00000000000000AF
:1031F00000000014143F140A3F0A0A000000041ED5
:103200001505060C14150F0400000012150D0A1404
:103210002C2A1200000000040A0A1E1515093600A7
:103220000000020201000000000000000000201069
:103230000808080808081020000002040808080808
:10324000080804020000000004150E0E150400001A
:103250000000000404041F04040400000000000037
:1032600000000000000002020100000000001F003A
:10327000000000000000000000000000000002004C
:103280000000100808080404020202010000000EF9
:103290001111111111110E000000000406040404A4
:1032A00004040E000000000E1111080402011F00AA
:1032B0000000000E11100C1010110E00000000088C
:1032C0000C0A0A091E0818000000001F01010F1057
:1032D00010110E000000000E09010F1111110E0057
:1032E0000000001F09080404040404000000000E8C
:1032F00011110E1111110E000000000E1111111EFE
:1033000010120E0000000000000400000000040085
:103310000000000000000400000004040000201071
:10332000080402040810200000000000001F000034
:103330001F00000000000204081020100804020012
:103340000000000E11110804040004000000000E2B
:10335000111915151D011E0000000004040C0A0AB5
:103360001E1233000000000F12120E1212120F0074
:103370000000001E1101010101110E000000000FEC
:103380001212121212120F000000001F120A0E0A6F
:1033900002121F000000001F120A0E0A020207009C
:1033A0000000001C1201013911120C000000003352
:1033B00012121E12121233000000001F0404040433
:1033C00004041F000000003E080808080808090758
:1033D00000000037120A060A0A1237000000000730
:1033E0000202020202223F000000001B1B1B1B15F1
:1033F000151515000000003B1216161A1A121700B8
:103400000000000E1111111111110E000000000F2B
:1034100012120E02020207000000000E111111111B
:1034200017190E180000000F12120E0A12123700A0
:103430000000001E1101060810110F000000001FFF
:103440001504040404040E000000003312121212CA
:1034500012120C000000003312120A0A0C040400BD
:103460000000001515150E0A0A0A0A000000001BCC
:103470000A0A04040A0A1B000000001B0A0A0404CA
:1034800004040E000000001F0908040402121F00BB
:1034900000001C04040404040404041C00000202D0
:1034A000020404080808100000000E0808080808B4
:1034B0000808080E0000040A0000000000000000D8
:1034C0000000000000000000000000003F000400B9
:1034D00000000000000000000000000000000C12CE
:1034E0001C123C000000000302020E1212120E0019
:1034F0000000000000001C1202021C000000001866
:1035000010101C1212123C000000000000000C12EF
:103510001E021C000000003804041E0404041E00E7
:103520000000000000003C120C021E221C000003E0
:1035300002020E12121237000000000400000604FE
:1035400004040E000000000800000C080808080829
:103550000700000302023A0A0E12370000000007BB
:103560000404040404041F000000000000000F1500
:10357000151515000000000000000F121212370090
:103580000000000000000C1212120C0000000000ED
:1035900000000F1212120E020700000000001C12A1
:1035A00012121C103800000000001B060202070067
:1035B0000000000000001E020C101E0000000000B1
:1035C00004040E04040418000000000000001B1294
:1035D00012123C0000000000000037120A0C040028
:1035E00000000000000015150E0A0A00000000008F
:1035F00000001B0A040A1B00000000000000371234
:103600000A0C04040300000000001E0804041E004D
:103610000000180808080408080808180008080826
:103620000808080808080808080006040404080434
:103630000404040600022518000000000000000039
:10364000000000000000000000000000000000007A
:103650000000000008080808080808000018180002
:103660000000486C24120000000000000000000070
:10367000000000002424247F1212127F1212120074
:10368000000000081C2A2A0A0C1828282A2A1C08CC
:103690000800000022251515152A585454542200FC
:1036A000000000000C1212120A76252911916E00FA
:1036B00000000606040300000000000000000000F7
:1036C00000004020101008080808080810102040CA
:1036D000000002040808101010101010080804025E
:1036E000000000000008086B1C1C6B0808000000AC
:1036F0000000000000080808087F0808080800000B
:1037000000000000000000000000000000060604A9
:10371000030000000000000000FE000000000000A8
:10372000000000000000000000000000000606008D
:10373000000000804040202010100808040402020D
:103740000000000018244242424242424224180033
:1037500000000000080E08080808080808083E00D5
:10376000000000003C4242422020100804427E003B
:10377000000000003C4242201820404042221C0031
:1037800000000000203028242422227E20207800FF
:10379000000000007E0202021A26404042221C0065
:1037A00000000000382402021A2642424224180077
:1037B000000000007E2222101008080808080800F7
:1037C000000000003C4242422418244242423C0095
:1037D00000000000182442424264584040241C006B
:1037E0000000000000000018180000000018180079
:1037F00000000000000000000800000000000808B1
:1038000004000000402010080402040810204000BA
:10381000000000000000007F0000007F00000000AA
:1038200000000000020408102040201008040200DC
:10383000000000003C4242464020101000181800D2
:10384000000000001C225A555555552D42221C00DF
:10385000000000000808181414243C224242E7002B
:10386000000000001F2222221E22424242221F008C
:10387000000000007C4242010101010142221C00C3
:10388000000000001F2242424242424242221F00E8
:10389000000000003F4212121E12120242423F007C
:1038A000000000003F4212121E1212020202070024
:1038B000000000003C2222010101712122221C0093
:1038C00000000000E7424242427E42424242E7009C
:1038D000000000003E0808080808080808083E0024
:1038E000000000007C1010101010101010101011AB
:1038F0000F0000007722120A0E0A1212222277000D
:1039000000000000070202020202020202427F00DF
:103910000000000077363636362A2A2A2A2A6B001B
:1039200000000000E346464A4A5252526262470093
:10393000000000001C2241414141414141221C0044
:10394000000000003F424242423E020202020700E3
:10395000000000001C2241414141414D53321C6096
:10396000000000003F4242423E1212222242C700A3
:10397000000000007C4242020418204042423E0007
:10398000000000007F4908080808080808081C0013
:1039900000000000E74242424242424242423C00B2
:1039A00000000000E74242222424141418080800F2
:1039B000000000006B494949495555362222220032
:1039C00000000000E7422424181818242442E700CD
:1039D00000000000772222141408080808081C00C0
:1039E000000000007E2120101008040442423F0025
:1039F0000000780808080808080808080808087877
:103A000000000002020404080808101020202040D2
:103A100040001E1010101010101010101010101E6A
:103A2000000038440000000000000000000000001A
:103A30000000000000000000000000000000000086
:103A4000FF00060800000000000000000000000069
:103A500000000000000000003C4278444242FC00AC
:103A600000000000030202021A26424242261A0007
:103A70000000000000000000384402020244380048
:103A80000000000060404040784442424264D80058
:103A900000000000000000003C427E0202423C00A8
:103AA00000000000F08808087E08080808083E00AA
:103AB00000000000000000007C22221C023C424268
:103AC0003C000000030202023A4642424242E70042
:103AD000000000000C0C00000E08080808083E005A
:103AE000000000003030000038202020202020225C
:103AF0001E0000000302020272120A161222770050
:103B0000000000000E0808080808080808083E0021
:103B100000000000000000007F9292929292B70095
:103B200000000000000000003B4642424242E70025
:103B300000000000000000003C42424242423C00C3
:103B400000000000000000001B26424242221E022C
:103B500007000000000000007844424242447840E0
:103B6000E000000000000000774C040404041F0083
:103B700000000000000000007C42023C40423E0089
:103B800000000000000008083E080808080830008F
:103B90000000000000000000634242424262DC007C
:103BA0000000000000000000E74224241408080080
:103BB0000000000000000000EB494955552222009A
:103BC00000000000000000007624181818246E0081
:103BD0000000000000000000E74224241418080838
:103BE00007000000000000007E22100808447E004C
:103BF0000000C0202020202010202020202020C0D5
:103C000000101010101010101010101010101010C4
:103C10001000060808080808100808080808080620
:103C2000000C32C200000000000000000000000094
:103C3000000003030601040602050003051F1C1F04
:103C40001E1F1E1F1F1E1F1E1F0000006C3C0008B1
:103C5000000000201400000028010008803C00083B
:103C6000140000206C020000440100080000000065
:103C700000000000017F0000FFFF000000000000C6
:04000005080000ED02
:00000001FF
