:020000040800F2
:100000007002002095010008990100089B0100087A
:100010009D0100089F010008A101000800000000E8
:10002000000000000000000000000000A301000824
:10003000A501000800000000A7010008A9010008B0
:100040001F0A0008AB010008AB010008AB01000863
:10005000AB010008AB010008F9070008AB0100087C
:10006000AB010008AB010008AB010008AB010008C0
:10007000AB010008AB010008AB010008AB010008B0
:10008000AB010008AB010008AB010008AB010008A0
:10009000AB010008AB010008AB010008AB01000890
:1000A000AB010008AB010008AB010008AB01000880
:1000B000AB010008790A0008AB010008AB01000899
:1000C000AB010008AB010008AB010008AB01000860
:1000D000AB010008AB010008AB010008AB01000850
:1000E00037080008AB010008AB01000800F002F877
:1000F00000F041F80AA090E8000C82448344AAF181
:100100000107DA4501D100F036F8AFF2090EBAE87E
:100110000F0013F0010F18BFFB1A43F0010318473B
:100120004430000064300000103A24BF78C878C121
:10013000FAD8520724BF30C830C144BF04680C60ED
:10014000704700000023002400250026103A28BF35
:1001500078C1FBD8520728BF30C148BF0B60704739
:10016000642901F03D86002070471FB5AFF3008081
:100170001FBD10B510BD01F0E7FE1146FFF7F5FFFA
:1001800000F022F801F005FFFFF7F3FF00F088FA16
:1001900030BF000008480047FEE7FEE7FEE7FEE745
:1001A000FEE7FEE7FEE7FEE7FEE7FEE70348044959
:1001B000024A044B70470000ED0000087000002068
:1001C000700200207000002010B50024092000F00B
:1001D0000DFA482000F0A4F84FF41651482000F022
:1001E0006DFA00F0C9FA00F00DFE4FF4784039497D
:1001F00008806DE00C2C41D2DFE804F0060B0F13F1
:10020000181D22272C31363B4FF6FF7000F0D8FD29
:1002100034E0002000F0D4FD30E01F2000F0D0FDDD
:100220002CE04FF4784000F0CBFD27E04FF61F00A4
:1002300000F0C6FD22E04FF4FC6000F0C1FD1DE0BF
:1002400047F6FF7000F0BCFD18E04FF6E07000F0DC
:10025000B7FD13E04FF6074000F0B2FD0EE048F2A4
:10026000304000F0ADFD09E04CF2186000F0A8FD50
:1002700004E04BF6404000F0A3FD00BF00BF4FF488
:1002800078401449088014A232211E2001F030FD6C
:1002900015A246211E2001F02BFD19A25A211E2075
:1002A00001F026FD1AA26E211E2001F021FD601C26
:1002B000C4B20C2C00D100241848006808B90120F1
:1002C00000E00020154908604FF47A7000F03FF814
:1002D00090E700000A0000204D696E692053544DDC
:1002E0003332205E5F5E0000322E34272F322E38EC
:1002F00027205446544C4344205445535400000096
:1003000041544F4D40414C49454E54454B0000002F
:10031000323031302F352F3133000000A00121421F
:100320004FF0E021096921F004014FF0E022116152
:100330000146C21700EB5272D2101F4B1A701946B9
:1003400009784FF47A7251439A1C118070471A4A07
:10035000921C128842434FF0E0235A6100229A61B6
:1003600001221A6100BF4FF0E022116911F0010F64
:1003700002D011F4803FF6D000224FF0E0231A6142
:100380009A6170470C4A127842434FF0E0235A6159
:1003900000229A6101221A6100BF4FF0E022116928
:1003A00011F0010F02D011F4803FF6D000224FF07F
:1003B000E0231A619A61704700000020AC4A0A40AD
:1003C0000243AC4B1A607047072323EA0002120273
:1003D000A84B1B1D19684FF6FF031940A64B194384
:1003E00011434FF0E023C3F80C1D70472DE9F0478F
:1003F00004460D4616461F463046F11706EB91712E
:100400004FEAA109F11706EB91718910A6EB810162
:1004100001F0FF0A042101EBCA0000F0FF0A384690
:10042000FFF7D2FFC7F1040004FA00F80F203841AB
:10043000284040EA080808F00F08202E09DA8F4803
:1004400000680121B14008434FF0E021C1F80001EC
:100450000BE08A48001D0168A6F1200201209040AF
:1004600001434FF0E020C0F80411854850F82900FE
:1004700008FA0AF10143824840F82910BDE8F087E4
:1004800070B50D46CE1701EB9676B310CE1701EB83
:100490009676B610A1EB8606B606340E794DAD6998
:1004A00045F00105774EB5614FEAB63555F8236042
:1004B0000F25A540AE43744D45F8236055F82350F1
:1004C00000FA04F63543704E46F823506F4D2E68FF
:1004D00001258D402E436C4D083DC5F8006412F097
:1004E000010F09D0694D0C352E6801258D402E4332
:1004F000654D083DC5F80C6412F0020F09D0634D3C
:1005000008352E6801258D402E435F4D083DC5F806
:10051000086470BD00B500205A490861C860142005
:10052000486100208861C8610846006840F0010009
:1005300008600846406856490840524948600846E5
:100540000068544908404F4908600846006820F494
:10055000802008600846406820F4FE0048600020C3
:10056000886000214FF00060FFF728FF00BD10B544
:1005700040480830006840F004004FF0E021C1F826
:10058000100D4048C06940F080503E49C861424863
:10059000406840F48070404948600846006840F078
:1005A000040008600846006840F002000860FFF799
:1005B000EFFD10BD3048001D2E49091D0860704731
:1005C0000146084649062F4A926942F001022D4B26
:1005D0009A612D4A083A526822F0E0622A4B083BA1
:1005E0005A601A4652680A435A60704730B504464A
:1005F0000025FFF78FFF2348006840F48030214931
:10060000086000BF1F480068400CFBD04FF48060BA
:100610001C494860A01EC4B20846406840EA8440B5
:1006200048600846406840F4803048601B480068D5
:1006300040F03200194908601248006840F08070AC
:100640001049086000BF0F480068400EFBD00D48FD
:10065000406840F002000B49486005E009484068E6
:10066000C0F3870505F00305022DF7D130BD00006A
:1006700080FFFF1F08ED00E00000FA0500E100E048
:1006800000E400E0001002400800014000040140C6
:100690000000FFF8FFFFF6FE00700040002002405F
:1006A000014600BF7047C2B22D4B1A8000BF2C4AD2
:1006B000121F128812F0400FF9D070472DE9F05F39
:1006C00004460D46280101F042FE8146254904FBFF
:1006D00001F001F03CFE8246494601F001FD06466C
:1006E000304601F0EFFD87B2384601F030FE834618
:1006F000314601F0DAFE82464FF0834101F02CFED4
:10070000814601F0DFFD80463F0107EB080087B21C
:100710001548806940F004001349886108468069E3
:1007200040F4804088611148114908600E48C06853
:1007300040F480400C49C8600846C06820F48040FE
:10074000C8600C48A0F8087805480830008842F2D4
:100750000C0108430749A1F80C08BDE8F09F000010
:100760000438014040420F0000100240B4444444A9
:1007700004080140003001401B48806940F004003B
:10078000194988610846806940F02000886117484F
:10079000006820F00F001649C1F804080846D0F898
:1007A000040840F00300C1F804080846D0F80C081B
:1007B00040F48070C1F80C080E48D0F8000420F412
:1007C00070600C49C1F800040846D0F8000440F4F9
:1007D0004070C1F800040846D0F80C0440F0040052
:1007E000C1F80C04704700000010024004080140EA
:1007F000000001400010014010B50A20FFF7A7FDDE
:1008000050480068012812D14E48A030006808B94D
:10081000012000E000204B49A03108604A48D0F890
:10082000880108B9012000E0002048490860012043
:100830004749086010BD10B50A20FFF788FD414800
:100840003430006850B93F48A030006808B9012032
:1008500000E000203B49A03108600BE039483C3003
:10086000006838B93948006808B9012000E0002064
:10087000364908604FF4005035490860800035491A
:10088000C1F8140410BD10B53348806940F004006D
:10089000314988610846806940F0010088612D482F
:1008A000406820F0E0602B4948600846406840F00E
:1008B000806048602948006820F00F00C1F80008F7
:1008C0000846D0F8000840F00800C1F800082348A6
:1008D000001D0068224908401E49C1F804081F484D
:1008E000001D00681F4908431A49C1F8040808465A
:1008F000D0F80C0840F40050C1F80C080846D0F8B5
:100900000C0840F40040C1F80C08022200210846FF
:10091000FFF7B6FD01220D210020FFF7B1FD0122F6
:100920000F210020FFF7ACFD0223062219461846CE
:10093000FFF75CFD0223282201211846FFF756FD30
:1009400010BD000000012142008022428881224225
:100950001404014000000140001002400008014062
:10096000FFFF0F0F0000808045F255523B4B1A608D
:100970001A46506091604AF6AA221A604CF6CC42A0
:100980001A6070474AF6AA2034490860704770B56B
:1009900004460D4616463248C06940F400603049AE
:1009A000C8613049097804EA01002E4908702E48D0
:1009B000006840EAC6102D49C1F8040C0846D0F87A
:1009C000040C40F40070C1F8040C274800684FF68E
:1009D000807108402549C1F8040C0846D0F8040C81
:1009E0002843C1F8040C2048001F00681D490978FD
:1009F00041F0800108431D49C1F8000C0223002288
:100A000003211846FFF7F2FC70BD1749091F09685A
:100A100000F07F021143154AC2F8001C704710B560
:100A20001148006800F07F031048D0F8000C00F077
:100A30007F049C4203DA0B480078FFF7E6FF0020B2
:100A40000949091D08600A48D0F8880108B9012041
:100A500000E000200749086010BD000000300040A1
:100A60000010024008000020042C0040002000403C
:100A700000802242888122424848008810F0010FFD
:100A800007D04748006808B9012000E00020444929
:100A900008604248008820F001004FF08041A1F832
:100AA0001004704770B504460D463E48C06940F0DA
:100AB00002003C49C86139481C3004808804A0F811
:100AC0002854B0F80C0440F001008904A1F80C048B
:100AD0000846B0F80C0440F04000A1F80C040846A9
:100AE000B0F8000440F00100A1F8000402231D2228
:100AF00003210120FFF77AFC70BD2A4AD26942F037
:100B00000202284BDA61284A126822F00F02274BB2
:100B1000C3F804281A46D2F8042842F00402C3F8A5
:100B200004281A46D2F8002822F07042C3F80028A0
:100B30001A46D2F8002842F03042C3F800281A467C
:100B4000D2F80C2842F08002C3F80C289A03A2F8CD
:100B50002C04A2F82814B2F8182442F4E0429B03B3
:100B6000A3F818241A46B2F8182442F40062A3F835
:100B700018241A46B2F8202442F01002074B103312
:100B80001A80DA13D303A3F80024D203B2F80024A6
:100B900042F00102014B103B1A80704710040040E4
:100BA00088812242001002400408014000000140F8
:100BB0000021FF4A1160FF4AC2F8A411FE490860F3
:100BC0000021FB4A121F116001211160F94AC2F88D
:100BD000A411704710B504460B462046FFF7E8FF06
:100BE0000120F34908600020F249C1F8A401F2484D
:100BF00003600020EE49091F086001200860ED49EC
:100C0000C1F8A40110BD10B503461846FFF7D0FF88
:100C10004FF08830E8490C390860E849C1F8040C05
:100C20000020E54908600120E14908600020091D15
:100C30000860DF49083908600120DE49C1F89801E1
:100C4000DD48001F006884B20120D949091D0860F1
:100C50004FF03330D8490C390860091D08604FF651
:100C6000FF70D649C1F80C0C204610BD00B52220FB
:100C7000FFF79EFF00BD0121CD4A11600021CD4A42
:100C8000C2F8A411CC4908600021C94A121F1160A2
:100C900001211160C74AC2F8A411704730B501465E
:100CA00001F01F04C1F34513CA0AE50205EB431521
:100CB0001544A8B230BD70B504460D46B4F5A07F0A
:100CC00001DAF02D01DB002070BD2946204601F03D
:100CD0006BF92220FFF76CFF4FF08830B6490C39D2
:100CE0000860B649C1F8040C4FF6FF70B2490860BD
:100CF0000120AF4908600020091D0860AC4908398F
:100D0000086001200860002008600120A949C1F89E
:100D10009801AA48D0F8080C86B20120A449091D00
:100D200008604FF03330A4490C390860091D086091
:100D30004FF6FF70A149C1F80C0CA1480088A0F53E
:100D40008A41313901D13046BEE73046FFF7A6FF70
:100D5000BAE700B540F273110720FFF73BFF00BD73
:100D600000B500210720FFF735FF00BD002100E09E
:100D7000491C00EBC00202EB0012B1EB820FF7D36B
:100D8000704770B504460D462946204601F00CF91F
:100D90002220FFF70DFF01208549086000208549CA
:100DA000C1F8A40187480088834908600020804971
:100DB000091F0860012008607E49C1F8A40170BDC8
:100DC00070B5054600240021084601F0EDF8FFF754
:100DD0004DFF00BF12E001207549086000207549F1
:100DE000C1F8A4017448056000207149091F08601A
:100DF000012008606F49C1F8A401641CB4F5963F56
:100E0000E9D370BD10B57048806940F008006E49A4
:100E100088610846806940F0100088610846806952
:100E200040F0010088610120FFF7CAFB6748406875
:100E30006FF30B00654948600846406840F2333163
:100E40000843624948600846006820F07F40086017
:100E50000846006840F04C5008600846C06840F4FE
:100E6000F860C8604FF0333053490839086053497F
:100E7000C1F8000C4FF6FF704F4908600520FFF7DE
:100E800075FF01210020FFF7A5FE0520FFF76EFF8B
:100E90000020FFF7B8FE4A490880084601884CA0A8
:100EA00000F056FF46480088A0F51341253905D0CB
:100EB00043480088A0F51341283978D11021E72054
:100EC000FFF788FE01210020FFF784FE4FF48071B8
:100ED0000120FFF77FFE4FF4E0610220FFF77AFE6A
:100EE00041F230010320FFF775FE00210420FFF7D7
:100EF00071FE40F207210820FFF76CFE0021092057
:100F0000FFF768FE00210A20FFF764FE01210C2094
:100F1000FFF760FE00210D20FFF75CFE00210F208F
:100F2000FFF758FE00211020FFF754FE0721112083
:100F3000FFF750FE00211220FFF74CFE0021132086
:100F4000FFF748FE0520FFF711FF41F290511020F6
:100F5000FFF740FE40F227211120FFF73BFE05205E
:100F6000FFF704FF9C211220FFF734FE0520FFF756
:100F7000FDFE4FF4C8511320FFF72CFE232129203A
:100F8000FFF728FE0E212B20FFF724FE0520FFF798
:100F9000EDFE00212020FFF71DFE40F23F11212031
:100FA000FFF718FE0520FFF7E1FE072114E0A0E09F
:100FB000A0012242000022420C0C0140000001402E
:100FC0000E0000200A000020001002400010014026
:100FD00049443A25640A00003020FFF7FBFD40F247
:100FE00007713120FFF7F6FD06213220FFF7F2FDF1
:100FF00040F204713520FFF7EDFD41F60471362013
:10100000FFF7E8FD04213720FFF7E4FD0021382039
:10101000FFF7E0FD40F206713920FFF7DBFD40F2FB
:1010200001713C20FFF7D6FD0F213D20FFF7D2FDD7
:101030000520FFF79BFE00215020FFF7CBFDEF219D
:101040005120FFF7C7FD00215220FFF7C3FD40F2FA
:101050003F115320FFF7BEFD4FF427416020FFF7FB
:10106000B9FD01216120FFF7B5FD00216A20FFF7DE
:10107000B1FD00218020FFF7ADFD00218120FFF7A9
:10108000A9FD00218220FFF7A5FD00218320FFF7A5
:10109000A1FD00218420FFF79DFD00218520FFF7A1
:1010A00099FD10219020FFF795FD00219220FFF778
:1010B00091FD03219320FFF78DFD4FF4887195205A
:1010C000FFF788FD00219720FFF784FD002198207D
:1010D000FFF780FD40F233110720FFF77BFD002171
:1010E0002020FFF777FD40F23F112120FFF772FD2E
:1010F000CDE3FF480088A0F51341203904D0FC4817
:101100000088B0F5134F7ED100210846FFF762FD3D
:101110004FF480710120FFF75DFD4FF4E061022084
:10112000FFF758FD41F230010320FFF753FD002186
:101130000420FFF74FFD40F202210820FFF74AFD8F
:1011400000210920FFF746FD00210A20FFF742FD9C
:1011500001210C20FFF73EFD00210D20FFF73AFD95
:1011600000210F20FFF736FD0520FFF7FFFD40F2BD
:1011700001110720FFF72EFD0520FFF7F7FD4FF4C3
:1011800086511020FFF726FD07211120FFF722FDD1
:101190004FF488711220FFF71DFD4FF430611320CA
:1011A000FFF718FD00212920FFF714FD44F210017C
:1011B0002B20FFF70FFD00215020FFF70BFDEF2143
:1011C0005120FFF707FD00215220FFF703FD40F2F9
:1011D0003F115320FFF7FEFC4FF41C516020FFF736
:1011E000F9FC01216120FFF7F5FC00216A20FFF7DF
:1011F000F1FC00218020FFF7EDFC00218120FFF7AA
:10120000E9FC002100E02DE08220FFF7E3FC002153
:101210008320FFF7DFFC00218420FFF7DBFC0021A7
:101220008520FFF7D7FC10219020FFF7D3FC002189
:101230009220FFF7CFFC01219320FFF7CBFC4FF466
:1012400088719520FFF7C6FC00219720FFF7C2FCAC
:1012500000219820FFF7BEFC40F273110720FFF732
:10126000B9FC14E3A2480088A0F5A85105397ED145
:101270000720FFF7AFFC0520FFF778FD4FF48E71D4
:101280001220FFF7A7FC0121A420FFF7A3FC0F21E8
:101290000820FFF79FFC08210A20FFF79BFC08218C
:1012A0000D20FFF797FC40F207713020FFF792FC0A
:1012B00007213120FFF78EFC40F203613220FFF757
:1012C00089FC4FF4E0613320FFF784FC40F20221F7
:1012D0003420FFF77FFC02213520FFF77BFC41F62D
:1012E0000F713620FFF776FC40F207713720FFF7C9
:1012F00071FC00213820FFF76DFC00213920FFF739
:1013000069FC40F207713A20FFF764FC00213B20A2
:10131000FFF760FC07213C20FFF75CFC00213D202B
:10132000FFF758FC0520FFF721FD01210720FFF7FB
:1013300051FC01211720FFF74DFC0520FFF716FD9A
:101340004FF4BD511020FFF745FC40F2172111204A
:10135000FFF740FC4FF48F711220FFF73BFC4FF476
:1013600070611320FFF736FC00212A2000E093E093
:10137000FFF730FC0A212920FFF72CFC4FF49F7166
:101380001220FFF727FC00215020FFF723FCEF215C
:101390005120FFF71FFC00215220FFF71BFC40F2F9
:1013A0003F115320FFF716FC4FF41C516020FFF74C
:1013B00011FC01216120FFF70DFC00216A20FFF7DD
:1013C00009FC00218020FFF705FC00218120FFF7A8
:1013D00001FC00218220FFF7FDFB00218320FFF7A5
:1013E000F9FB00218420FFF7F5FB00218520FFF7A2
:1013F000F1FB13219020FFF7EDFB4FF44071922099
:10140000FFF7E8FB05219320FFF7E4FB002195207F
:10141000FFF7E0FB00219720FFF7DCFB002198207D
:10142000FFF7D8FB4FF480710120FFF7D3FB4FF497
:10143000E0610220FFF7CEFB41F230010320FFF70D
:10144000C9FB00210420FFF7C5FB00210C20FFF79A
:10145000C1FB00210F20FFF7BDFB00212020FFF77B
:10146000B9FB00212120FFF7B5FB21210720FFF761
:10147000B1FB1420FFF77AFC61210720FFF7AAFBDC
:101480001420FFF773FC40F273110720FFF7A2FB53
:101490001420FFF76BFCFAE115480088A0F509411C
:1014A00089397ED101210020FFF794FB0520FFF749
:1014B0005DFC4AF6A4010320FFF78CFB0520FFF733
:1014C00055FC00210C20FFF785FB0520FFF74EFCA3
:1014D00040F60C010D20FFF77DFB0520FFF746FCD1
:1014E0004FF42C510E20FFF775FB052002E00000A1
:1014F0000E000020FFF73AFCB0211E20FFF76AFB28
:101500000520FFF733FC42F63F310120FFF762FB75
:101510000520FFF72BFC4FF4C0610220FFF75AFBB8
:101520000520FFF723FC00211020FFF753FB0520C7
:10153000FFF71CFC46F270011120FFF74BFB052062
:10154000FFF714FC00210520FFF744FB0520FFF7FF
:101550000DFC00210620FFF73DFB0520FFF706FCF0
:101560004EF61C711620FFF735FB0520FFF7FEFB3A
:1015700003211720FFF72EFB0520FFF7F7FB40F2B2
:1015800033210720FFF726FB0520FFF7EFFB0021A3
:101590000B20FFF71FFB0520FFF7E8FB00210F20C2
:1015A00000E0B5E0FFF716FB0520FFF7DFFB0021A9
:1015B0004120FFF70FFB0520FFF7D8FB0021422059
:1015C000FFF708FB0520FFF7D1FB00214820FFF7BC
:1015D00001FB0520FFF7CAFB40F23F114920FFF74E
:1015E000F9FA0520FFF7C2FB00214A20FFF7F2FAC3
:1015F0000520FFF7BBFB00214B20FFF7EBFA05208E
:10160000FFF7B4FB4FF46F414420FFF7E3FA0520E6
:10161000FFF7ACFB00214520FFF7DCFA0520FFF7C0
:10162000A5FB40F23F114620FFF7D4FA0520FFF753
:101630009DFB40F207713020FFF7CCFA0520FFF741
:1016400095FB4FF401713120FFF7C4FA0520FFF735
:101650008DFB4FF401713220FFF7BCFA0520FFF734
:1016600085FB40F202513320FFF7B4FA0520FFF763
:101670007DFB40F207513420FFF7ACFA0520FFF75D
:1016800075FB4FF401713520FFF7A4FA0520FFF731
:101690006DFB4FF401713620FFF79CFA0520FFF730
:1016A00065FB40F202513720FFF794FA0520FFF75F
:1016B0005DFB40F202313A20FFF78CFA0520FFF77C
:1016C00055FB40F202313B20FFF784FA0520FFF77B
:1016D0004DFB00212320FFF77DFA0520FFF746FB95
:1016E00000212420FFF776FA0520FFF73FFB4FF497
:1016F00000412520FFF76EFA0520FFF737FB002198
:101700004F20FFF767FA00214E20FFF763FABEE093
:10171000FB480088A0F58A413139F8D10121002029
:10172000FFF758FA3220FFF721FB41F22861102021
:10173000FFF750FA0E211220FFF74CFA40F639213C
:101740001320FFF747FA0A20FFF710FB4021112072
:10175000FFF740FA50211520FFF73CFA2820FFF749
:1017600005FB1E211220FFF735FA2820FFF7FEFAAD
:101770004FF4B1511020FFF72DFA42F63921132012
:10178000FFF728FA0A20FFF7F1FA4FF480710120E1
:10179000FFF720FA4FF440710220FFF71BFA41F2E5
:1017A00030010320FFF716FA40F202210820FFF76C
:1017B00011FA08210A20FFF70DFA00213020FFF767
:1017C00009FA40F202413120FFF704FA4FF4837125
:1017D0003220FFF7FFF940F203513320FFF7FAF907
:1017E0004FF482713420FFF7F5F940F201313520D2
:1017F000FFF7F0F940F207713620FFF7EBF940F2FE
:1018000005313720FFF7E6F94FF402713820FFF772
:10181000E1F940F60B713920FFF7DCF90221412094
:10182000FFF7D8F94FF41C516020FFF7D3F90121DD
:101830006120FFF7CFF94FF404719020FFF7CAF948
:101840004FF485719220FFF7C5F904219320FFF72B
:10185000C1F94FF48071A020FFF7BCF901210720E6
:10186000FFF7B8F921210720FFF7B4F9232107205A
:10187000FFF7B0F933210720FFF7ACF940F233113D
:101880000720FFF7A7F90021A020FFF7A3F941F2F5
:101890008830FFF76BFA00209A4908604FF6FF7016
:1018A000FFF78EFA10BD2DE9F04704460D461646A7
:1018B0001F46DDF820809448B0F80090AA46A0F8B2
:1018C00000800BE005E029462046FFF75AFA681C25
:1018D00085B2BD42F7DD5546601C84B2B442F1DDED
:1018E0008948A0F80090BDE8F0872DE9FF4F85B04A
:1018F00004460D461646002004900390A6EB04080B
:101900000898A0EB0509A3460095B8F1000F02DD89
:10191000012001900AE0B8F1000F02D100200190EF
:1019200004E04FF0FF300190C8F10008B9F1000F5A
:1019300002DD4FF0010A09E0B9F1000F02D14FF0CA
:10194000000A03E04FF0FF3AC9F10009C84502DD83
:10195000CDF8088001E0CDF80890002722E000983B
:1019600081B21FFA8BF0FFF70CFA04984044049000
:1019700003984844039002990498884205DD04992D
:101980000298081A049001988344DDE90210884205
:1019900006DDDDE90210401A0390009850440090E3
:1019A000781C87B20298401C8742D8DD09B0BDE898
:1019B000F08F2DE9F04104460D4616461F462B4692
:1019C000324629462046FFF790FF3B4622462946ED
:1019D0002046FFF78AFF3B46324639462046FFF74E
:1019E00084FF3B46324629463046FFF77EFFBDE87E
:1019F000F0812DE9F04704460D4616460027B04613
:101A00000320A0EB460954E0EA1B91B2A4EB0802C4
:101A100090B2FFF7B6F9EA1B91B204EB080290B25C
:101A2000FFF7AFF905EB080291B2E21B90B2FFF7A6
:101A3000A8F9EA1B91B2A4EB080290B2FFF7A1F952
:101A4000A5EB080291B2E21B90B2FFF79AF9EA19EE
:101A500091B204EB080290B2FFF793F9A5EB0802EC
:101A600091B2E21990B2FFF78CF905EB080291B23E
:101A7000E21990B2FFF785F9EA1991B2A4EB0802D6
:101A800090B2FFF77EF97F1CB9F1000F03DAB800BE
:101A9000801D814406E0A7EB080080000A308144E5
:101AA000A8F1010805EB080291B2E21990B2FFF724
:101AB00068F94745A8DDBDE8F0872DE9F84F0446F1
:101AC0000D4616461F46A3460F4800880090B4F501
:101AD0009C7F01DCE82D01DDBDE8F88FA6F1200038
:101AE000C6B20A98002841D181463CE00C2F0FD1A4
:101AF00006EB4600054901EB800010F809800CE078
:101B00000E000020A80122420A000020FE26000844
:101B10008A4800EB061010F809804FF0000A16E022
:101B200018F0010F03D086490098088003E085482B
:101B300000888349088029462046FFF722F94FEAAA
:101B40006808601C84B20AF1010000F0FF0A07EB8C
:101B5000D771BAEB610FE3DB5C46681C85B209F113
:101B6000010000F0FF09B945C0DB30E04FF000098B
:101B70002BE00C2F07D106EB4600734901EB8000E8
:101B800010F8098004E06D4800EB061010F8098099
:101B90004FF0000A10E018F0010F07D005EB090222
:101BA00091B204EB0A0290B2FFF7EBF84FEA680833
:101BB0000AF1010000F0FF0A07EBD771BAEB610FE1
:101BC000E9DB09F1010000F0FF09B945D1DB5C490F
:101BD0000098088080E710B50246012000E05043DD
:101BE0000B00A1F10104E1B2F9D110BD2DE9FF4FC5
:101BF00081B0044615461E460E9F4FF0000AD0469F
:101C00003EE0A6EB0800401EC1B20A20FFF7E3FF4A
:101C1000B5FBF0F00A21B0FBF1F201FB120000F07D
:101C2000FF09BAF1000F16D1701E404513DDB9F15E
:101C3000000F0ED10023BB4607EBD771491001FB03
:101C4000084188B200933B4620220299FFF735FFF6
:101C500012E04FF0010A0023BB4607EBD771491091
:101C600001FB084188B200933B4609F13001CAB23A
:101C70000299FFF722FF00BF08F1010000F0FF0802
:101C8000B045BEDB05B0BDE8F08F2DE9F84F044646
:101C90000D4616461F46DDF828804FF0000923E068
:101CA000A7EB0900401EC1B20A20FFF794FFB6FB64
:101CB000F0F00A21B0FBF1F201FB120000F0FF0A84
:101CC0000B9BC34608EBD871491001FB094188B250
:101CD000009343460AF13001CAB22946FFF7EDFEF0
:101CE00009F1010000F0FF09B945D9DBBDE8F88F23
:101CF000F8B504460D4616461BE0B4F59C7F03DD9F
:101D0000002405F1100085B2E82D06DD0020044610
:101D100005464FF6FF70FFF753F800230093327823
:101D2000102329462046FFF7C8FE04F1080084B2BC
:101D3000761C30780028E0D1F8BD0000722B000836
:101D40000A0000200C000020FE260008704700005A
:101D50000FB4054A054910B503AB7944029800F069
:101D6000D8F810BC5DF814FB0400002049E9FFFF1F
:101D70002DE9F04104460E4600202BE0E1682046A4
:101D8000884748B3252802D0D4E901211FE0E16843
:101D900020460027884705001ED0A5F141001928DC
:101DA00002D820354FF40067324629462046276086
:101DB000FEF7D6F940B1012801D1361DDEE7F61D48
:101DC00026F007060836D9E7D4E9012128469047CE
:101DD000206A401C2062D1E7206ABDE8F081000043
:101DE0002DE9F0418046002610687529414614A56A
:101DF00011D0AFF30080002802DA404211A508E0BC
:101E0000D8F800108A0701D50FA502E0490704D5CC
:101E10000EA5012601E0AFF30080002408F124079D
:101E200004E000F089F830313955641C0028F8D1FD
:101E300033462A4621464046BDE8F04100F00CB842
:101E4000000000002D0000002B000000200000001A
:101E500070477047704770472DE9F0470D460446BC
:101E60009246994600F124080168880604D5E06985
:101E700021F01001216000E001200027A84200DDD0
:101E8000471BA1697A1902EB0900081AA0612068B2
:101E9000C00602D42046AFF30080002608E0D4E953
:101EA00001211AF806009047206A401C761C206227
:101EB0004E45F4DB2068C0060AD52046AFF300800B
:101EC00006E0D4E9012130209047206A401C2062BE
:101ED000381EA7F10107F4DC07E0D4E9012118F866
:101EE00005009047206A401C2062281EA5F10105CC
:101EF000F3DC2046AFF3008021680220090600D4FD
:101F00000120BDE8F087000001694A1C02610878E1
:101F1000704710B50C46194690B0CDE90242002238
:101F20000692044A7A44CDE9042001A8FFF720FF75
:101F300010B010BDE1FFFFFF4FF00A01B0FBF1F25E
:101F400002FB110110467047754600F029F8AE46B5
:101F500005006946534620F00700854618B020B5B5
:101F6000FEF724F9BDE820404FF000064FF00007CF
:101F70004FF000084FF0000B21F00701AC46ACE831
:101F8000C009ACE8C009ACE8C009ACE8C0098D469E
:101F900070470446AFF300802046FEF7F5F80000D6
:101FA000004870471000002030B504460D46294611
:101FB0002020FEF70FFE40F23F10001B81B22120CF
:101FC000FEF708FE30BD000090EA010F48BF81F027
:101FD000004100F17C82421A3CBF801A89184FEA06
:101FE000D0524FF07F4C1CEA410FA2EBD15318BFE7
:101FF0009CEA026F00F040804FF0004C4CEA002059
:102000004CEA012121FA03FC10EB0C0C23D202F163
:10201000FF325FEA1C2040EBC25038BF70471CF013
:102020007F0F4FEA400C18BFBCF17F4F38BF70479D
:10203000C3F12003994008BF20F00100BCF17F4F9D
:1020400038BF7047A0F1C0404FF0FF0141EAD051C6
:102050004FEAC15070474FEA3C00000A40EBC250C3
:1020600028BF1CF0FF0F4FEA400CE1D018BFBCF1B5
:102070007F4F38BF7047E5E79CEA026F05D010EA52
:102080005C0F08BF00F000407047BCEB410F4FEA07
:10209000400228BF9445DFF828C0C0F01580AFF398
:1020A0000080B2EB410F05D012F1807F08BF70476E
:1020B0000846704790EA010F58BF704701487047C3
:1020C000010000040000C07F014800F0CEBA00000B
:1020D0000000C07F014800F0C8BA00000000C07FC7
:1020E0004FF47F0C1CEAD0121EBF1CEAD11392EAF7
:1020F0000C0F93EA0C0F00F0A58090EA010F48BF87
:1021000042F4807240F4000C41F400002CF07F4156
:1021100020F07F4000B58142A2EB03020FF2401C89
:10212000ACEB504EC0F100009EF800E04FEA4E0EBE
:1021300000FB0EFC38BF49004FEA2C1C02F5FA02E6
:102140000CFB0EF34FEACE1E4FEA112C4FEAC121D1
:102150000EEB635E0EFB0CFC4FEA1C5300FB0311FD
:102160004FEA112C4FEA01310EFB0CFC02F4807E89
:1021700042EB22424FEADC4C00FB0C11C14228BF6B
:1021800009184CEB0333012924BF4EF0020E4EF028
:10219000804E10EB410F24BF4EF0010E4EF0804EEA
:1021A00008BF4EF0040E4EF008015DF804EB43EB5F
:1021B000C25018BFB2F57C0F38BF704741EAC071FA
:1021C00008BF20F00100B2F57C0F38BF704729D559
:1021D00012F0F00F1CBF00F1C04000F0004070474B
:1021E000008182838485868788898B8C8D8E8F91F0
:1021F0009293959697999A9C9D9FA0A2A3A5A7A814
:10220000AAACAEB0B2B3B5B7B9BCBEC0C2C5C7C93F
:10221000CCCED1D4D7D9DCDFE2E6E9ECF0F3F7FAA3
:10222000FE0000004FEA400C0CF1807CBCF17E4FB8
:1022300028BF7047B0F1C0404FF07F404CBF401006
:102240004008704790EA010F0CEAD11348BF42F4EE
:102250008072624538BF634507D213F47F0F23D0E5
:1022600080EA010000F0004070474FF0807C1CEBDA
:10227000400F98BF1CEB410FDFF840C03FF624AF82
:10228000AFF300804FF0807C1CEB400F02BF1CEBD3
:10229000410F0B4870471CEB410F0CBF002020F092
:1022A000004040EAC250704712F47F0F04BF044858
:1022B000704742F0FF004FEAC0507047040000042E
:1022C0000000C07FC2154FEA002318BF43F000434F
:1022D00005D4D2F19E020AD323FA02F070474FEAE6
:1022E0004001B1F1FE4F02D24FF000007047DFF81D
:1022F00028C04FEA4001B1F17F4F88BF4CF4803CC9
:102300003FF6E8AE1CBF6FEAE0707047AFF30080A5
:102310006FEAE070704700006800020410F00042AD
:1023200018BF404242F08042B0FA80F18840A2EBF0
:10233000C15202F1786208BF7047410642EB20208B
:1023400018BF5FF0806C28BF20F0010070474FF08D
:102350008042FFF7E9BF00004FF47F0C1CEAD01267
:102360001EBF1CEAD11392EA0C0F93EA0C0F00F087
:102370004A8090EA010F48BF42F480724FF0004C4F
:102380004CEA00204CEA01211A44A0FB01C3A2F54B
:102390000002BCF1000F18BF43F0010302F4807C7F
:1023A000B3F1004F38BF5B0042EB2242180A40EB0A
:1023B000C25028BF13F07F0F18BFB2F57C0F38BF93
:1023C000704708BF20F00100B2F57C0F38BF70479E
:1023D0000BD582F0FF0212F5803FC8BF704700F1B5
:1023E000C040D8BF00F00040704700F5000C5FEA25
:1023F0004C0C48BF7047B0F1C0404FF07F404CBF1D
:1024000040104008704790EA010F0CEAD11348BF12
:1024100042F48072624538BF634504D280EA01000D
:1024200000F0004070474FF0807C1CEB400F98BFDD
:102430001CEB410F4FF0030C4CF0806C3FF644AEA8
:10244000AFF3008012F47F0F1FBF13F47F0F42F031
:10245000FF02D00570470148704700000000C07FB0
:1024600010B412F47F0F4FEA00204FEA012110D17F
:10247000B0FA80F400FA04F0A2EB044213F47F0FE8
:1024800002F5803218BF41F0004100D010BC18BFE7
:10249000604740F00040B1FA81F401FA04F1A3EB87
:1024A000044310BC03F58033604780F0004090EA9D
:1024B000010F7FF590AD81F0004100F008B80000F9
:1024C00090EA010F48BF81F000413FF584AD421A08
:1024D0003EBF82F00042801A89184FEAD0524FF076
:1024E0007F4C1CEA410FA2EBD15318BF9CEA026F4C
:1024F0004FD04FF0004C4CEA00204CEA012121FA69
:1025000003FCB0EB0C0C0FD412F0FE0F18BF5FEA07
:102510004C001DD5001240EBC25038BF70471CF074
:102520003F0F18BF70470BE0A2F101025FEA1C20C9
:1025300040EBC25038BF70471CF07F0F18BF704788
:10254000C3F12003994014BF401E20F001007047E2
:102550004FEA122316D0004204BF002070474FEA12
:102560009000B0FA80FCA2EB0C02CCF1280C60FACF
:102570000CF093EA122F04BF00EBC25070474FEAF1
:10258000C37070475FEADC1008BF70474FEAC37042
:1025900070479CEA026F04D010EA5C0F08BF00206D
:1025A0007047BCEB410F4FEA400228BF9445DFF86B
:1025B0002CC0FFF489ADAFF30080B2EB410F06D021
:1025C00012F1807F08BF704781F00040704790EAA9
:1025D000010F48BF70470248704700000200000426
:1025E0000000C07F00F0004343EAD05323F480731F
:1025F000C3F1C10323F0004117291FD8C3F1200301
:1026000010FA03F1C3F1200320F07F4040F40000F2
:1026100020FA03F003F0004340EA03000DD00B461C
:10262000590009D318BF401C06D17FEAE27398BF56
:10263000401C38BF20F0010070477047182903EB99
:10264000912318BF6FF00041013168BF03F00040D3
:1026500009D6400203F0004000F1010004BF12F06F
:10266000004F20F00100704770470CF00F03092B5A
:1026700008BF082000F02B800A2B0BD0082B18BFB6
:10268000704708BF1CF0400F0AD04FF000004FF019
:10269000000170471CF0400F18BF4FF0004070471A
:1026A0001CF0100F08D020F0704300F07F4242EA87
:1026B000D3014FEA4370704700F0604021F07F4241
:1026C00042EA000201F07F4040EA727070471CF459
:1026D000801F11D01CF4E02F03D06FEACC314900E9
:1026E00070474FF04050EFF3008222F0704242EA10
:1026F000000282F3008870474FF00000704700002E
:1027000000000000000000000000000004040404B9
:1027100004040004000000140A0A00000000000085
:102720000000000014143F140A3F0A0A00000004CD
:102730001E1505060C14150F0400000012150D0AD5
:10274000142C2A1200000000040A0A1E151509366E
:102750000000000202010000000000000000002054
:1027600010080808080808102000000204080808DB
:1027700008080804020000000004150E0E150400ED
:10278000000000000404041F040404000000000012
:102790000000000000000002020100000000001F15
:1027A0000000000000000000000000000000000227
:1027B00000000010080808040402020201000000E2
:1027C0000E1111111111110E000000000406040475
:1027D0000404040E000000000E1111080402011F81
:1027E000000000000E11100C1010110E000000006F
:1027F000080C0A0A091E0818000000001F01010F3A
:102800001010110E000000000E09010F1111110E21
:10281000000000001F090804040404040000000074
:102820000E11110E1111110E000000000E111111E8
:102830001E10120E00000000000004000000000442
:10284000000000000000000400000004040000205C
:1028500010080402040810200000000000001F00FF
:10286000001F0000000000020408102010080402ED
:10287000000000000E111108040400040000000014
:102880000E111915151D011E0000000004040C0A8C
:102890000A1E1233000000000F12120E1212120F45
:1028A000000000001E1101010101110E00000000D6
:1028B0000F1212121212120F000000001F120A0E45
:1028C0000A02121F000000001F120A0E0A0202076D
:1028D000000000001C1201013911120C0000000060
:1028E0003312121E12121233000000001F040404DF
:1028F0000404041F000000003E0808080808080936
:102900000700000037120A060A0A1237000000000A
:10291000070202020202223F000000001B1B1B1BD9
:1029200015151515000000003B1216161A1A12177D
:10293000000000000E1111111111110E0000000015
:102940000F12120E02020207000000000E111111F8
:102950001117190E180000000F12120E0A1212376A
:10296000000000001E1101060810110F00000000F9
:102970001F1504040404040E000000003312121298
:102980001212120C000000003312120A0A0C040486
:10299000000000001515150E0A0A0A0A00000000C2
:1029A0001B0A0A04040A0A1B000000001B0A0A048E
:1029B0000404040E000000001F0908040402121F92
:1029C0000000001C04040404040404041C000002AD
:1029D00002020404080808100000000E0808080895
:1029E000080808080E0000040A00000000000000AB
:1029F000000000000000000000000000003F000494
:102A00000000000000000000000000000000000CBA
:102A1000121C123C000000000302020E1212120EE1
:102A2000000000000000001C1202021C0000000058
:102A30001810101C1212123C000000000000000CC4
:102A4000121E021C000000003804041E0404041EB0
:102A5000000000000000003C120C021E221C0000BE
:102A60000302020E121212370000000004000006DA
:102A70000404040E000000000800000C0808080808
:102A8000080700000302023A0A0E12370000000095
:102A9000070404040404041F000000000000000FE9
:102AA00015151515000000000000000F1212123756
:102AB000000000000000000C1212120C00000000C8
:102AC0000000000F1212120E020700000000001C8E
:102AD0001212121C103800000000001B0602020730
:102AE000000000000000001E020C101E000000008C
:102AF0000004040E04040418000000000000001B81
:102B00001212123C0000000000000037120A0C04F0
:102B10000000000000000015150E0A0A0000000069
:102B20000000001B0A040A1B000000000000003720
:102B3000120A0C04040300000000001E0804041E16
:102B40000000001808080804080808081800080809
:102B5000080808080808080808080006040404080B
:102B60000404040406000225180000000000000010
:102B70000000000000000000000000000000000055
:102B800000000000000808080808080800001818DD
:102B9000000000486C24120000000000000000004B
:102BA00000000000002424247F1212127F1212124F
:102BB00000000000081C2A2A0A0C1828282A2A1CAF
:102BC000080800000022251515152A5854545422CF
:102BD00000000000000C1212120A76252911916ED5
:102BE00000000006060403000000000000000000D2
:102BF00000000040201010080808080808101020E5
:102C000040000002040808101010101010080804FA
:102C100002000000000008086B1C1C6B0808000084
:102C2000000000000000080808087F0808080800E5
:102C30000000000000000000000000000000060688
:102C400004030000000000000000FE00000000007F
:102C50000000000000000000000000000000060668
:102C600000000000804040202010100808040402EA
:102C7000020000000018244242424242424224180C
:102C80000000000000080E08080808080808083EB0
:102C900000000000003C4242422020100804427E16
:102CA00000000000003C4242201820404042221C0C
:102CB0000000000000203028242422227E202078DA
:102CC00000000000007E0202021A26404042221C40
:102CD0000000000000382402021A26424242241852
:102CE00000000000007E22221010080808080808D2
:102CF00000000000003C4242422418244242423C70
:102D00000000000000182442424264584040241C45
:102D10000000000000000000181800000000181853
:102D20000000000000000000000800000000000893
:102D3000080400000040201008040204081020408D
:102D400000000000000000007F0000007F00000085
:102D500000000000000204081020402010080402B7
:102D600000000000003C42424640201010001818AD
:102D700000000000001C225A555555552D42221CBA
:102D800000000000000808181414243C224242E706
:102D900000000000001F2222221E22424242221F67
:102DA00000000000007C4242010101010142221C9E
:102DB00000000000001F2242424242424242221FC3
:102DC00000000000003F4212121E12120242423F57
:102DD00000000000003F4212121E121202020207FF
:102DE00000000000003C2222010101712122221C6E
:102DF0000000000000E7424242427E42424242E777
:102E000000000000003E0808080808080808083EFE
:102E100000000000007C1010101010101010101096
:102E2000110F0000007722120A0E0A1212222277D6
:102E30000000000000070202020202020202427FBA
:102E4000000000000077363636362A2A2A2A2A6BF6
:102E50000000000000E346464A4A5252526262476E
:102E600000000000001C2241414141414141221C1F
:102E700000000000003F424242423E0202020207BE
:102E800000000000001C2241414141414D53321CD1
:102E900060000000003F4242423E1212222242C71E
:102EA00000000000007C4242020418204042423EE2
:102EB00000000000007F4908080808080808081CEE
:102EC0000000000000E74242424242424242423C8D
:102ED0000000000000E742422224241414180808CD
:102EE00000000000006B494949495555362222220D
:102EF0000000000000E7422424181818242442E7A8
:102F00000000000000772222141408080808081C9A
:102F100000000000007E2120101008040442423FFF
:102F200000000078080808080808080808080808C9
:102F30007800000002020404080808101020202075
:102F40004040001E10101010101010101010101023
:102F50001E000038440000000000000000000000D7
:102F60000000000000000000000000000000000061
:102F700000FF000608000000000000000000000044
:102F80000000000000000000003C4278444242FC87
:102F90000000000000030202021A26424242261AE2
:102FA0000000000000000000003844020202443823
:102FB000000000000060404040784442424264D833
:102FC0000000000000000000003C427E0202423C83
:102FD0000000000000F08808087E08080808083E85
:102FE0000000000000000000007C22221C023C4285
:102FF000423C000000030202023A4642424242E7DB
:1030000000000000000C0C00000E08080808083E34
:103010000000000000303000003820202020202058
:10302000221E0000000302020272120A1612227708
:1030300000000000000E0808080808080808083EFC
:103040000000000000000000007F9292929292B770
:103050000000000000000000003B4642424242E700
:103060000000000000000000003C42424242423C9E
:103070000000000000000000001B26424242221E09
:1030800002070000000000000078444242424478F9
:1030900040E000000000000000774C040404041F1E
:1030A0000000000000000000007C42023C40423E64
:1030B0000000000000000008083E0808080808306A
:1030C000000000000000000000634242424262DC57
:1030D000000000000000000000E74224241408085B
:1030E000000000000000000000EB49495555222275
:1030F0000000000000000000007624181818246E5C
:10310000000000000000000000E74224241418081A
:103110000807000000000000007E22100808447E1E
:10312000000000C02020202020102020202020206F
:10313000C0001010101010101010101010101010EF
:1031400010100006080808080810080808080808F1
:1031500006000C32C2000000000000000000000069
:103160000000000084310008000000201000000072
:1031700028010008943100081000002060020000BF
:103180004401000800000000000000007F00000073
:04319000FFFF00003D
:04000005080000ED02
:00000001FF
