:030000000200F00B
:0C00F000787FE4F6D8FD75818C020137A2
:10023A00012F00012D00018C00013B00012E00015D
:0B024A002900012A00012B00012C00FC
:1002B900788CE6FE783B667002FF22EE04FFC39459
:1002C900084002E4FF788CA607E62444F8E6120207
:0302D900827F0120
:0102DC0022FF
:1002DD00783BE604FEC394084002E4FE788CE66E9B
:0E02ED006004783BA606783BE62444F8A6079A
:0102FB0022E0
:0A000E00309807C298AF991202DD86
:0100180022C5
:03002300020317BE
:10031700C0E0C0D075D00812000E309905C299759B
:070327002E00D0D0D0E0321F
:03000B00020003ED
:08000300C28CC2A97590003205
:03001B00020026BA
:0D002600C0E0C0F0C083C082C0D075D01013
:10003300E4FFFEC28CC2A9758B9A758DF143B0049F
:10004300F59043B02053B0DF53B0FB743C2529F83F
:10005300E66036AF297401A817088002C333D8FCC1
:10006300F5907EFF7FCC753100743C2529F8E6FDC1
:10007300C3EF9DFFEE9400FE0531E531B407EA8F2F
:100083008A8E8CD28CD2A9800375900005295329BE
:1000930007753100E52975F008A4244C2531F8E6ED
:1000A300F533753200E53330E70543B00880035379
:1000B300B0F743B01053B0EFE53325E0F533120347
:1000C300420532E532D3940740DB0531E531D39461
:1000D3000740C153B0F7052AE52AC394644003756A
:0200E3002F01EB
:0B00E500D0D0D082D083D0F0D0E03229
:09034200309806C298AF998F991A
:01034B00228F
:1002FC00E52F6016052BE52BC3940A400AE4F52B79
:0A030C00E52CF46002052CE4F52F47
:0103160022C4
:0100190022C4
:10017C00438901758ACC758CF8C28CC2A943B8022C
:10018C00438910758B9A758DF1D28ED2AB759850C0
:10019C0075CAF475CCF475CBFF75CDFF75C834D228
:1001AC00AC784C765A0876A50876FFE408F6087603
:1001BC0001087602087603087604785576FF785E97
:1001CC0076FF786776FF787076FF787976FF78829D
:1001DC0076FF788B76FFFF7401A807088002C33383
:1001EC00D8FC2410FE743C2FF8A6060FBF08E8D2EA
:0901FC00AF1202FC12001980F898
:100255001118303132333435363738394142434459
:030265004546000B
:040205008F378D386A
:10020900E53754F0FF3395E0FEEF7804CEA2E7130B
:10021900CE13D8F82418F8E6FF12032EE537540F49
:100229002418F8E6FF12032EE5386004FF12032EA6
:0102390022A2
:10032E00E4F539F53A752E018F99E52E70030080AC
:03033E00F9C29968
:010341002299
:100294008B348A358936AB34AA35A93612026960A3
:1002A400130536E5367002053514F9120269FF129A
:0502B400032E80E22290
:1000FC0002017CE493A3F8E493A34003F68001F29D
:10010C0008DFF48029E493A3F85407240CC8C33304
:10011C00C4540F4420C8834004F456800146F6DFD3
:10012C00E4800B010204081020408090023AE47E27
:10013C00019360BCA3FF543F30E509541FFEE493C8
:10014C00A360010ECF54C025E060A840B8E493A38F
:10015C00FAE493A3F8E493A3C8C582C8CAC583CABA
:10016C00F0A3C8C582C8CAC583CADFE9DEE780BE72
:010268000095
:10026900BB010689828A83E0225002E722BBFE0293
:09027900E32289828A83E49322C6
:10028200BB010689828A83F0225002F722BBFE015B
:02029200F32255
:00000001FF
