:030000000200E714
:0C00E700787FE4F6D8FD75815902012EE7
:03000E00011800D6
:03000B00020003ED
:08000300C28CC2A97590003205
:03001B0002001EC2
:0D001E00C0E0C0F0C083C082C0D075D0101B
:10002B00E4758BCD758DF8C28CC2A943B004F590E5
:10003B0043B02053B0DF8D90051853180753B0FB16
:10004B007EFF7FCCFCC3EF9519FFEE9400FE0CBC3A
:10005B0007F38F8A8E8CD28CD2A97C00E51875F0B1
:10006B0008A4241A2CF8E6FDE4FFED30E70543B0B5
:10007B0008800353B0F743B01053B0EFED25E0FD0C
:10008B000FBF08E60CBC08D453B0F7E5185407B4FF
:10009B000800503D9000A6F82828730200BE02000D
:1000AB00C20200C60200CA0200CE0200D20200D673
:1000BB000200DA7D01801A7D0280167D0480127D9C
:1000CB0008800E7D10800A7D2080067D4080027D99
:0100DB0080A4
:0B00DC00D0D0D082D083D0F0D0E03232
:10017300438901758ACC758CF8C28CC2A943B80235
:10018300438910758BCD758DF8D28ED2AB751A5A03
:10019300751BA5751CFFE4F51D751E01751F027502
:1001A30020037521047523FF752CFF7535FF753EFC
:1001B300FF7547FF7550FF7559FF7519FFD2AF6380
:0401C300A00180FB1C
:1000F300020173E493A3F8E493A34003F68001F2AF
:1001030008DFF48029E493A3F85407240CC8C3330D
:10011300C4540F4420C8834004F456800146F6DFDC
:10012300E4800B010204081020408090000EE47E5E
:10013300019360BCA3FF543F30E509541FFEE493D1
:10014300A360010ECF54C025E060A840B8E493A398
:10015300FAE493A3F8E493A3C8C582C8CAC583CAC3
:10016300F0A3C8C582C8CAC583CADFE9DEE780BE7B
:0100110000EE
:00000001FF
