:020000040800F2
:10000000680200208D01000891010008930100089A
:100010009501000897010008990100080000000000
:100020000000000000000000000000009B0100082C
:100030009D010008000000009F010008A1010008C8
:1000400003090008A3010008A3010008A301000898
:10005000A3010008A3010008F5060008A301000899
:10006000A3010008A3010008A3010008A3010008E0
:10007000A3010008A3010008A3010008A3010008D0
:10008000A3010008A3010008A3010008A3010008C0
:10009000A3010008A3010008A3010008A3010008B0
:1000A000A3010008A3010008A3010008A3010008A0
:1000B000A30100085D090008A3010008A3010008CE
:1000C000A3010008A3010008A3010008A301000880
:1000D000A3010008A3010008A3010008A301000870
:1000E00033070008A3010008A301000800F002F88C
:1000F00000F03CF80AA090E8000C82448344AAF186
:100100000107DA4501D100F031F8AFF2090EBAE883
:100110000F0013F0010F18BFFB1A43F0010318473B
:100120006C1000008C100000103A24BF78C878C111
:10013000FAD8520724BF30C830C144BF04680C60ED
:10014000704700000023002400250026103A28BF35
:1001500078C1FBD8520728BF30C148BF0B60704739
:100160001FB5AFF300801FBD10B510BD00F043FCFC
:100170001146FFF7F5FF00F023F800F061FCFFF7F0
:10018000F3FF00F001FA000030BF0000084800470C
:10019000FEE7FEE7FEE7FEE7FEE7FEE7FEE7FEE737
:1001A000FEE7FEE703480449024A044B704700009B
:1001B000ED000008680000206802002068000020B0
:1001C00010B5092000F086F9482000F01DF84FF422
:1001D0001651482000F0E6F900F04CFA41F61F41B4
:1001E00041F2883000F0D0FB0AE00648006808B908
:1001F000012000E0002003490860C82000F01BF83F
:10020000F3E70000A00121424FF0E021096921F04D
:1002100004014FF0E02211610146C21700EB527257
:10022000D2101F4B1A70194609784FF47A72514355
:100230009A1C118070471A4A921C128842434FF050
:10024000E0235A6100229A6101221A6100BF4FF037
:10025000E022116911F0010F02D011F4803FF6D0B5
:1002600000224FF0E0231A619A6170470C4A12781D
:1002700042434FF0E0235A6100229A6101221A6141
:1002800000BF4FF0E022116911F0010F02D011F40C
:10029000803FF6D000224FF0E0231A619A61704748
:1002A00000000020AC4A0A400243AC4B1A60704781
:1002B000072323EA00021202A84B1B1D19684FF600
:1002C000FF031940A64B194311434FF0E023C3F835
:1002D0000C1D70472DE9F04704460D4616461F4693
:1002E0003046F11706EB91714FEAA109F11706EBC1
:1002F00091718910A6EB810101F0FF0A042101EB45
:10030000CA0000F0FF0A3846FFF7D2FFC7F1040029
:1003100004FA00F80F203841284040EA080808F0A5
:100320000F08202E09DA8F4800680121B1400843E8
:100330004FF0E021C1F800010BE08A48001D016880
:10034000A6F120020120904001434FF0E020C0F8C8
:100350000411854850F8290008FA0AF1014382483F
:1003600040F82910BDE8F08770B50D46CE1701EBB7
:100370009676B310CE1701EB9676B610A1EB8606F3
:10038000B606340E794DAD6945F00105774EB5617D
:100390004FEAB63555F823600F25A540AE43744D9E
:1003A00045F8236055F8235000FA04F63543704EA3
:1003B00046F823506F4D2E6801258D402E436C4D1D
:1003C000083DC5F8006412F0010F09D0694D0C35E5
:1003D0002E6801258D402E43654D083DC5F80C64FF
:1003E00012F0020F09D0634D08352E6801258D40AB
:1003F0002E435F4D083DC5F8086470BD00B5002070
:100400005A490861C8601420486100208861C861A9
:100410000846006840F001000860084640685649F8
:1004200008405249486008460068544908404F490E
:1004300008600846006820F480200860084640688C
:1004400020F4FE0048600020886000214FF000602A
:10045000FFF728FF00BD10B540480830006840F0A5
:1004600004004FF0E021C1F8100D4048C06940F091
:1004700080503E49C8614248406840F4807040491D
:1004800048600846006840F00400086008460068BC
:1004900040F002000860FFF777FE10BD3048001DF5
:1004A0002E49091D086070470146084649062F4A33
:1004B000926942F001022D4B9A612D4A083A526826
:1004C00022F0E0622A4B083B5A601A4652680A43FF
:1004D0005A60704730B504460025FFF78FFF234868
:1004E000006840F480302149086000BF1F48006860
:1004F000400CFBD04FF480601C494860A01EC4B281
:100500000846406840EA844048600846406840F435
:10051000803048601B48006840F03200194908608C
:100520001248006840F080701049086000BF0F4812
:100530000068400EFBD00D48406840F002000B49B7
:10054000486005E009484068C0F3870505F00305E9
:10055000022DF7D130BD000080FFFF1F08ED00E045
:100560000000FA0500E100E000E400E000100240B5
:1005700008000140000401400000FFF8FFFFF6FE04
:100580000070004000200240014600BF704700BFDD
:10059000324A128812F0400FFAD0C2B22F4B1B1D04
:1005A0001A8070472DE9F05F04460D46280100F0DF
:1005B00014FC81462A4904FB01F000F00EFC82463F
:1005C000494600F0D3FA0646304600F0C1FB87B238
:1005D000384600F002FC8346314600F0ACFC82460F
:1005E0004FF0834100F0FEFB814600F0B1FB8046F6
:1005F0003F0107EB080087B21A48806940F0040009
:10060000184988610846806940F48040886116482E
:10061000006820F47F601549C1F804080846D0F846
:10062000040840F40B60C1F804080E48C06840F4A8
:1006300080400C49C8600846C06820F48040C8600B
:100640000B48A0F8087805480C30008842F20C01ED
:10065000084302490C310880BDE8F09F0038014092
:1006600040420F0000100240040801400000014019
:10067000003001401B48806940F00400194988613E
:100680000846806940F0200088611748006820F023
:100690000F001649C1F804080846D0F8040840F0D5
:1006A0000300C1F804080846D0F80C0840F4807034
:1006B000C1F80C080E48D0F8000420F470600C4912
:1006C000C1F800040846D0F8000440F44070C1F8B6
:1006D00000040846D0F80C0440F00400C1F80C04F3
:1006E0007047000000100240040801400000014073
:1006F0000010014010B50A20FFF79DFD4A48006830
:10070000012812D14848A030006808B9012000E053
:1007100000204549A03108604448D0F8880108B954
:10072000012000E0002042490860012041490860A2
:1007300010BD10B50A20FFF77EFD3B48343000683D
:1007400050B93948A030006808B9012000E0002005
:100750003549A03108600BE033483C30006838B9B7
:100760003348006808B9012000E0002030490860E3
:100770004FF400502F49086080002F49C1F814043D
:1007800010BD10B52D48806940F004002B498861E8
:100790000220FFF789FE2A48006820F00F00264952
:1007A000C1F800080846D0F8000840F00800C1F879
:1007B00000082348001D0068224908401E49C1F86E
:1007C00004081F48001D00681F4908431A49C1F862
:1007D00004080846D0F80C0840F40050C1F80C0892
:1007E0000846D0F80C0840F40040C1F80C0802227A
:1007F00000210846FFF7B8FD01220D210020FFF778
:10080000B3FD01220F210020FFF7AEFD02230622D7
:1008100019461846FFF75EFD0223282201211846DB
:10082000FFF758FD10BD0000000121420080224268
:10083000888122421404014000000140001002405F
:1008400000080140FFFF0F0F0000808045F2555265
:100850003B4B1A601A46506091604AF6AA221A6011
:100860004CF6CC421A6070474AF6AA203449086018
:10087000704770B504460D4616463248C06940F4CC
:1008800000603049C8613049097804EA01002E4906
:1008900008702E48006840EAC6102D49C1F8040CC3
:1008A0000846D0F8040C40F40070C1F8040C274846
:1008B00000684FF6807108402549C1F8040C0846CD
:1008C000D0F8040C2843C1F8040C2048001F00682D
:1008D0001D49097841F0800108431D49C1F8000C09
:1008E0000223002203211846FFF7F4FC70BD1749CC
:1008F000091F096800F07F021143154AC2F8001C65
:10090000704710B51148006800F07F031048D0F818
:10091000000C00F07F049C4203DA0B480078FFF7DC
:10092000E6FF00200949091D08600A48D0F888013F
:1009300008B9012000E000200749086010BD000050
:10094000003000400010024004000020042C004051
:1009500000200040008022428881224220480088F6
:1009600010F0010F07D01F48006808B9012000E00F
:1009700000201C4908601A48008820F001004FF050
:100980008041A1F81004704770B504460D46164822
:10099000C06940F002001449C86111481C3004804D
:1009A0008804A0F82854B0F80C0440F00100890431
:1009B000A1F80C040846B0F80C0440F04000A1F87F
:1009C0000C040846B0F8000440F00100A1F800044F
:1009D00002231D2203210120FFF77CFC70BD0000D3
:1009E0001004004088812242001002407047704786
:1009F000704770477047754600F028F8AE4605000E
:100A00006946534620F00700854618B020B5FFF729
:100A1000C9FBBDE820404FF000064FF000074FF043
:100A200000084FF0000B21F00701AC46ACE8C0090C
:100A3000ACE8C009ACE8C009ACE8C0098D46704715
:100A40000446AFF300802046FFF799FB004870474B
:100A50000800002090EA010F48BF81F0004100F13A
:100A60007C82421A3CBF801A89184FEAD0524FF05C
:100A70007F4C1CEA410FA2EBD15318BF9CEA026FD6
:100A800000F040804FF0004C4CEA00204CEA01217D
:100A900021FA03FC10EB0C0C23D202F1FF325FEAC7
:100AA0001C2040EBC25038BF70471CF07F0F4FEA4C
:100AB000400C18BFBCF17F4F38BF7047C3F1200313
:100AC000994008BF20F00100BCF17F4F38BF70474C
:100AD000A0F1C0404FF0FF0141EAD0514FEAC150B0
:100AE00070474FEA3C00000A40EBC25028BF1CF0A0
:100AF000FF0F4FEA400CE1D018BFBCF17F4F38BF69
:100B00007047E5E79CEA026F05D010EA5C0F08BF6A
:100B100000F000407047BCEB410F4FEA400228BF95
:100B20009445DFF828C0C0F01580AFF30080B2EB29
:100B3000410F05D012F1807F08BF7047084670470B
:100B400090EA010F58BF7047014870470100000448
:100B50000000C07F014800F0CEBA00000000C07F56
:100B6000014800F0C8BA00000000C07F4FF47F0CBD
:100B70001CEAD0121EBF1CEAD11392EA0C0F93EAB2
:100B80000C0F00F0A58090EA010F48BF42F480727C
:100B900040F4000C41F400002CF07F4120F07F4035
:100BA00000B58142A2EB03020FF2401CACEB504EA9
:100BB000C0F100009EF800E04FEA4E0E00FB0EFC74
:100BC00038BF49004FEA2C1C02F5FA020CFB0EF369
:100BD0004FEACE1E4FEA112C4FEAC1210EEB635EA5
:100BE0000EFB0CFC4FEA1C5300FB03114FEA112CC7
:100BF0004FEA01310EFB0CFC02F4807E42EB2242F4
:100C00004FEADC4C00FB0C11C14228BF09184CEB29
:100C10000333012924BF4EF0020E4EF0804E10EB3C
:100C2000410F24BF4EF0010E4EF0804E08BF4EF033
:100C3000040E4EF008015DF804EB43EBC25018BF00
:100C4000B2F57C0F38BF704741EAC07108BF20F091
:100C50000100B2F57C0F38BF704729D512F0F00FB4
:100C60001CBF00F1C04000F000407047008182834B
:100C70008485868788898B8C8D8E8F9192939596AB
:100C800097999A9C9D9FA0A2A3A5A7A8AAACAEB035
:100C9000B2B3B5B7B9BCBEC0C2C5C7C9CCCED1D43A
:100CA000D7D9DCDFE2E6E9ECF0F3F7FAFE0000006A
:100CB0004FEA400C0CF1807CBCF17E4F28BF70479E
:100CC000B0F1C0404FF07F404CBF4010400870472B
:100CD00090EA010F0CEAD11348BF42F480726245DA
:100CE00038BF634507D213F47F0F23D080EA010099
:100CF00000F0004070474FF0807C1CEB400F98BF25
:100D00001CEB410FDFF840C03FF624AFAFF300808B
:100D10004FF0807C1CEB400F02BF1CEB410F0B48D7
:100D200070471CEB410F0CBF002020F0004040EA50
:100D3000C250704712F47F0F04BF0448704742F05E
:100D4000FF004FEAC0507047040000040000C07F5D
:100D5000C2154FEA002318BF43F0004305D4D2F177
:100D60009E020AD323FA02F070474FEA4001B1F124
:100D7000FE4F02D24FF000007047DFF828C04FEA64
:100D80004001B1F17F4F88BF4CF4803C3FF6E8AEA4
:100D90001CBF6FEAE0707047AFF300806FEAE0704D
:100DA000704700006800020410F0004218BF404283
:100DB00042F08042B0FA80F18840A2EBC15202F1C9
:100DC000786208BF7047410642EB202018BF5FF0F1
:100DD000806C28BF20F0010070474FF08042FFF781
:100DE000E9BF00004FF47F0C1CEAD0121EBF1CEAC2
:100DF000D11392EA0C0F93EA0C0F00F04A8090EAAC
:100E0000010F48BF42F480724FF0004C4CEA0020C2
:100E10004CEA01211A44A0FB01C3A2F50002BCF177
:100E2000000F18BF43F0010302F4807CB3F1004FC0
:100E300038BF5B0042EB2242180A40EBC25028BF89
:100E400013F07F0F18BFB2F57C0F38BF704708BF93
:100E500020F00100B2F57C0F38BF70470BD582F04F
:100E6000FF0212F5803FC8BF704700F1C040D8BFF5
:100E700000F00040704700F5000C5FEA4C0C48BFE2
:100E80007047B0F1C0404FF07F404CBF4010400869
:100E9000704790EA010F0CEAD11348BF42F4807208
:100EA000624538BF634504D280EA010000F000408B
:100EB00070474FF0807C1CEB400F98BF1CEB410F3C
:100EC0004FF0030C4CF0806C3FF644AEAFF3008063
:100ED00012F47F0F1FBF13F47F0F42F0FF02D00503
:100EE00070470148704700000000C07F10B412F442
:100EF0007F0F4FEA00204FEA012110D1B0FA80F4B1
:100F000000FA04F0A2EB044213F47F0F02F58032E2
:100F100018BF41F0004100D010BC18BF604740F03E
:100F20000040B1FA81F401FA04F1A3EB044310BCD0
:100F300003F58033604780F0004090EA010F7FF5B1
:100F400090AD81F0004100F008B8000090EA010F78
:100F500048BF81F000413FF584AD421A3EBF82F0A8
:100F60000042801A89184FEAD0524FF07F4C1CEA99
:100F7000410FA2EBD15318BF9CEA026F4FD04FF044
:100F8000004C4CEA00204CEA012121FA03FCB0EBB2
:100F90000C0C0FD412F0FE0F18BF5FEA4C001DD5E9
:100FA000001240EBC25038BF70471CF03F0F18BF13
:100FB00070470BE0A2F101025FEA1C2040EBC25037
:100FC00038BF70471CF07F0F18BF7047C3F1200374
:100FD000994014BF401E20F0010070474FEA1223D1
:100FE00016D0004204BF002070474FEA9000B0FACC
:100FF00080FCA2EB0C02CCF1280C60FA0CF093EA16
:10100000122F04BF00EBC25070474FEAC370704705
:101010005FEADC1008BF70474FEAC37070479CEA74
:10102000026F04D010EA5C0F08BF00207047BCEBD1
:10103000410F4FEA400228BF9445DFF82CC0FFF46F
:1010400089ADAFF30080B2EB410F06D012F1807F83
:1010500008BF704781F00040704790EA010F48BF19
:101060007047024870470000020000040000C07F83
:1010700000F0004343EAD05323F48073C3F1C1036B
:1010800023F0004117291FD8C3F1200310FA03F100
:10109000C3F1200320F07F4040F4000020FA03F069
:1010A00003F0004340EA03000DD00B46590009D37A
:1010B00018BF401C06D17FEAE27398BF401C38BFBE
:1010C00020F0010070477047182903EB912318BFE7
:1010D0006FF00041013168BF03F0004009D64002C3
:1010E00003F0004000F1010004BF12F0004F20F0B7
:1010F0000100704770470CF00F03092B08BF082050
:1011000000F02B800A2B0BD0082B18BF704708BFAC
:101110001CF0400F0AD04FF000004FF00001704764
:101120001CF0400F18BF4FF0004070471CF0100F2C
:1011300008D020F0704300F07F4242EAD3014FEA2A
:101140004370704700F0604021F07F4242EA0002A5
:1011500001F07F4040EA727070471CF4801F11D08C
:101160001CF4E02F03D06FEACC31490070474FF0F8
:101170004050EFF3008222F0704242EA000282F314
:10118000008870474FF0000070470000AC11000865
:10119000000000200800000028010008B411000829
:1011A0000800002060020000440100080000000068
:0411B0007F000000BC
:04000005080000ED02
:00000001FF
