:03000000020800F3
:03004B000209A205
:03006B00020A2561
:10080000787FE4F6D8FD75812002084702088CE461
:1008100093A3F8E493A34003F68001F208DFF48089
:1008200029E493A3F85407240CC8C333C4540F44D9
:1008300020C8834004F456800146F6DFE4800B01B3
:10084000020408102040809009EBE47E019360BC14
:10085000A3FF543F30E509541FFEE493A360010E4B
:10086000CF54C025E060A840B8E493A3FAE493A372
:10087000F8E493A3C8C582C8CAC583CAF0A3C8C593
:1008800082C8CAC583CADFE9DEE780BEE47806F223
:10089000120A671208E5D2AF120A4BC284C282C2A2
:1008A00080120A8B7805E2602DE4F27806E204F209
:1008B000E2C3940440207593F0E4F2F580D2827F85
:1008C00064FE120976C2821209C8A204720550FAA7
:1008D000E4F520120A7E120A8775A4047F0A7E00BE
:1008E00012097680BCC2E8D2EAD2B97FE87E031250
:1008F00009767BFE7A007900780B7405F27F30125E
:10090000093A7BFE7A007900780B7405F27F2A128F
:10091000093A7D017F21120A3A7F22120A3A7D109C
:100920007F24120A3A7D287F25120A3A7D0F7F26FE
:10093000120A3A7D147F31020A3A7808EBF208EA8B
:10094000F208E9F2C2E9120A74AE07E4FD780BE29C
:10095000FFEDC39F501B7808E2FB0808E2F9240171
:10096000F218E2FA3400F2120A0CFF120A740D8037
:10097000DCD2E9AF0622E4FDFCC3ED9FEC9E5021E2
:100980007807E4F208746CF2780708E2FB24FFF2BF
:1009900018E2FA34FFF2EB4A70EE0DBD00010C8054
:1009A000D822C0E0C0D075D000C005C006C0077F07
:1009B00007120A5A8F207D707F27120A3AD007D07B
:1009C00006D005D0D0D0E0327D0E7F20120A3A7BCF
:1009D000007A007908780B7414F27FA012093AD2D9
:1009E000E87F0A7E00120976C2E822850034567834
:1009F00090121408FF01020304050000000000002B
:100A0000000000000000000081050000BB01068915
:100A1000828A83E0225002E722BBFE02E32289821F
:100A20008A83E49322C0E0C0D075D000C00078056E
:100A30007401F2D000D0D0D0E032C2E9120A74AE14
:100A400007AF05120A74D2E9AF062275AD0175B47D
:100A5000FF75B5FF75B306D2BD22C2E9120A74E470
:100A6000FF120A74D2E9227593F07594FFC284C212
:100A700082C280228FE7E5E630E1FBAFE722C2E8E1
:0F0A80007D0C7F20020A3A43B3012253B3FE22BA
:00000001FF
