:040000001BC037C02A
:10000400FDCFFCCFFBCFFACFF9CFF8CFF7CFF6CFA8
:10001400F5CFF4CFF3CFB2C0F1CFF0CFEFCFEECF27
:10002400EDCF1027E80364000A000100001000016E
:1000340010000100F894EE27ECBBF1E0FBBFEBBF2E
:10004400E5BFF8E1F1BDE1BD8DE0A2E0BB27ED9392
:100054008A95E9F780E094E0A0E6ED930197E9F74B
:10006400EFE5EDBFE4E0EEBFC0E6D1E0E9C00A92FF
:100074001A929A93AA93BA93EA93FA93EFB7EA93EC
:100084001A9354D1E1E0EEBD5520E1F44FD1829BA7
:10009400FECFE1E0EEBD829B04C04DD109F05EC00D
:1000A400FACF4DD14FD1E135A6E4FA0728F44AD16D
:1000B400E03EAEE2FA0708F451C0E1E05E2E6624A9
:1000C40077244CC0E9E15E1608F048C0829905C067
:1000D40032D111F0552442C0F9CF31D1A52D35D1FB
:1000E4001197E8E0F0E068D11E2F2CD1E13BA4E0A9
:1000F400FA0728F027D1E830A7E0FA0708F009C08A
:1001040026D1F595E795EC9322D1E058FF4FEC9377
:1001140012C018D1E139A1E0FA0728F013D1E4366E
:10012400A2E0FA0708F005C012D1F595E795EC9323
:1001340002C0552413C016D1E17069F47694679413
:10014400E12F13D1E05AFE4FE0810FD1E07CE03C77
:1001540011F4E8E07E2A06D131965E2EF0D0E8B79D
:1001640004D1E460E8BF1991E991EFBFF991E991F5
:10017400B991A9919991199009901895EA93FA93D4
:10018400EFB7EA93882061F08A94E92DEED0E8591C
:10019400FE4FE081ECB99394E8E0E91509F4992461
:1001A400E991EFBFF991E9911895E8E0E815E9F3D1
:1001B400F894882021F4EBB1D8D0E07269F4E42DEE
:1001C400D4D0E859FE4FA881A0834394E8E0E41515
:1001D40009F44424839402C0E881ECB9789421960C
:1001E400089500D10A811B81D801E8EEF3E0D1D053
:1001F400F096E0936301D801E8EEF3E0E2D08F01DA
:10020400D801E4E6F0E0C5D0F096E0936401D801AB
:10021400E4E6F0E0D6D08F01D801EAE0F0E0B9D00E
:10022400F096E0936501D801EAE0F0E0CAD0F096D8
:10023400E0936601E0E0E0936701D7D02496089547
:10024400E0E0E8BBE7E0E7BBE0E0E5BBE4BBE2BB42
:10025400E1BBE3BFE2BFEFBD72D0E0E0EDBDECBDBA
:10026400E7BDE6BDEBBDEABDE9BDE8BDE2BDE5BD68
:10027400E4BDE3BDEBB779D0E064EBBFE2E0E5BFFA
:10028400E0E4EABFE0E0E9BFEBB9E8E4EAB9E6E8B4
:10029400E0BDE0E0E0BDECE0E9B9E0E8E8B9E0E0C9
:1002A400E0BF78945524E1E462D0E2E460D0E3E472
:1002B4005ED0E4EFF1E0FA93EA935BD0C09B02C016
:1002C400C09801C0C09AE8E1E515E8F455247A9293
:1002D4006A9287DFE3E6F1E0FA93EA9316D0E3E269
:1002E400F1E0E615F70529F4C19B02C0C19801C0ED
:1002F400C19AE1E2F3E0E615F70529F4C29B02C0D6
:10030400C29801C0C29AD5CFFFCF1A93A981BA81EE
:10031400ED91A983BA831E2FE03019F01A9345DFBB
:10032400F5CFEAE024D0188123960895E0E0F0E0C8
:10033400FDBDECBD0895E8B7F0E0E4700895E0E099
:10034400EEBD0895ECB5FDB50895B0E00895A12F74
:10035400FCDFA05ABE4FE12FF0E0E05AFE4FE081EF
:10036400F0E00895E52DF0E00895F0E00895EA93B3
:100374001CCFE991F991309639F08AEF90E001971A
:10038400F1F7A8953197C9F70895F195E195F040F3
:1003940008950024112490E1AA0FBB1F001C111C16
:1003A4000E1A1F0A18F40E0E1F1E01C0A1609A95A2
:1003B40099F7FD01D001089507D0EBDF0EF4E5DFD6
:1003C4000895E7DFFD010895E894F7FF02C0DDDF3B
:1003D4006894B7FF06C0A095B095119600F80394F1
:1003E40000FA08951A930A930895198108810895CB
:00000001FF
