:1000000002004EBB010689828A83E0225002E72269
:10001000BBFE02E32289828A83E49322F8BB010DAE
:10002000E58229F582E5833AF583E8F0225006E976
:100030002582C8F622BBFE05E92582C8F222C2E964
:10004000120371E4FF120371D2E922020153787F97
:10005000E4F6D8FD75814A0200950200DAE493A324
:10006000F8E493A34003F68001F208DFF48029E46A
:1000700093A3F85407240CC8C333C4540F4420C8B6
:10008000834004F456800146F6DFE4800B0102044D
:1000900008102040809002C0E47E019360BCA3FF62
:1000A000543F30E509541FFEE493A360010ECF5482
:1000B000C025E060A840B8E493A3FAE493A3F8E471
:1000C00093A3C8C582C8CAC583CAF0A3C8C582C8DD
:1000D000CAC583CADFE9DEE780BE1202DB12030F66
:1000E0001201A9D2AF12035AC2997BFF7A0279F5A5
:1000F00012025F7F401203417F311203390F120356
:10010000397F0A1203417F647E00120284C20630E6
:1001100006FDE4F520C282FF7D0874322DF8E6600A
:10012000027F010DBD0EF3EF60217BFF7A0279FDA6
:1001300012025FE4FD74322DF8E6FF1202A50DBD38
:100140000EF37BFF7A03790C12025FD281D282D246
:100150008080BCC0E0C083C082C0D075D000C00029
:10016000C001C002C003C005C006C0077F0712005F
:100170003E8F203006157B007A0079327511147F8E
:100180006112022EE4FD7FE21203267D707F2712AA
:100190000326D007D006D005D003D002D001D0006E
:1001A000D0D0D082D083D0E032C2E8D2EAD2B97FB8
:1001B000E87E031202847B007A007946750C057F85
:1001C000301201FC7B007A007946750C057F2A12FB
:1001D00001FC7D017F211203267D017F221203266F
:1001E0007D1A7F241203267D287F251203267D0F8A
:1001F0007F261203267D147F310203268B098A0A8B
:10020000890BC2E9120371AE07E4FDEDC3950C50F2
:1002100018AB09050BE50BAA0A7002050A14F912BE
:100220000003FF1203710D80E2D2E9AF06228B0EAC
:100230008A0F8910C2E9120371AE07E4FDEDC39580
:10024000115017E4FF120371AB0EAA0FA9108D8293
:10025000758300EF12001C0D80E3D2E9AF06228BFC
:10026000088A09890AAB08AA09A90A1200036013BF
:10027000050AE50A7002050914F9120003FF1203CA
:100280006680E222E4FDFCC3ED9FEC9E50167B6C81
:100290007A00EB1B8A8370011A458370F50DBD004F
:1002A000010C80E322AE07EE54F0C4540F2421F871
:1002B000E6FF120366EE540F2421F8E6FF02036600
:1002C00005463456789012112130313233343536A8
:1002D00037383941424344454600007593F07594E0
:1002E000FFC281C282C2807FE87E03120284D28173
:1002F000D282D2802248656C6C6F0D0A0044617412
:100300006120526563656976656420000D0A00C24C
:10031000ACD29CC29FD29E43878043D88075AAE608
:1003200075BA03C29922AE05C2E9120371AD07AFD7
:1003300006120371D2E9AF05221203410F120341E5
:100340000FC2998F992099030080FA22AD07AC065D
:10035000AF041202A5AF050202A5C2E87D0F7F20FF
:10036000120326D2E822C2998F992099030080FABD
:10037000228FE7E5E630E1FBAFE7223099FDC29935
:030380008F992230
:00000001FF
