:030000000209F9F9
:03000B00020B16CF
:03004B00020BDCC9
:03006B00020CAFD5
:10080000750801E4F509F50AF50BF50C750D027F85
:1008100008780EE4F608DFFC7F0E5393FDD28112B8
:100820000BB07808EFF27FF47E01120B847808E2B7
:10083000B4010B780A7401F275101E120B8478084B
:10084000E2B4020B780A7401F275101F120B817862
:1008500008E2B4040B780A7401F2751020120B81BF
:100860007808E2B4080E780A7401F27510217FF45A
:10087000FE120B847808E2B4100E780A7401F27547
:1008800010227FF4FE120B84C2814393025393FE25
:10089000D280120BB07808EFF27FF47E01120B8445
:1008A0007808E2B4010B780A7401F2751023120B78
:1008B000847808E2B4020E780A7401F27510247F7D
:1008C000F4FE120B847808E2B4040E780A7401F284
:1008D0007510257FF4FE120B847808E2B4080E78B8
:1008E0000A7401F27510267FF4FE120B847808E278
:1008F000B4100E780A7401F27510277FF4FE120B03
:1009000084C2804393015394F7D293120BB07808BA
:10091000EFF27FF47E01120B847808E2B4010B78C9
:100920000A7401F27509E2120B847808E2B4020E2F
:10093000780A7401F2750B027FF4FE120B847808BA
:10094000E2B4040E780A7401F27509B77FF4FE125E
:100950000B847808E2B4080E780A7401F27509B6BF
:100960007FF4FE120B847808E2B4100E780A74014A
:10097000F27509CD7FF4FE120B84C29343940853A1
:1009800094FBD292120BB07808EFF27FF47E011242
:100990000B847808E2B4010B780A7401F27509B58A
:1009A000120B847808E2B4020E780A7401F2750919
:1009B000E97FF4FE120B847808E2B4040E780A741E
:1009C00001F27509EA7FF4FE120B847808E2B4089C
:1009D0000E780A7401F275099C7FF4FE120B84787C
:1009E00008E2B4100E780A7401F275099D7FF4FED6
:1009F000120B84C29243940422787FE4F6D8FD75EA
:100A00008120020A40020C25E493A3F8E493A3405A
:100A100003F68001F208DFF48029E493A3F8540779
:100A2000240CC8C333C4540F4420C8834004F45674
:100A3000800146F6DFE4800B0102040810204080AC
:100A4000900B4EE47E019360BCA3FF543F30E50958
:100A5000541FFEE493A360010ECF54C025E060A8AC
:100A600040B8E493A3FAE493A3F8E493A3C8C5823F
:100A7000C8CAC583CAF0A3C8C582C8CAC583CADFAD
:100A8000E9DEE780BEC2E8D2EAD2B97FE87E03128F
:100A90000B847BFE7A00790378107405F27F3012A4
:100AA0000ADA7BFE7A00790378107405F27F2A1245
:100AB0000ADA7D017F21120C787F22120C787D1AD0
:100AC0007F24120C787D287F25120C787D0F7F26DD
:100AD000120C787D147F31020C78780DEBF208EA65
:100AE000F208E9F2C2E9120CA5AE07E4FD7810E2C3
:100AF000FFEDC39F501B780DE2FB0808E2F92401CB
:100B0000F218E2FA3400F2120C5FFF120CA50D800D
:100B1000DCD2E9AF0622C0E0C0D075D000C00078BA
:100B200000E204F2E2C39408400978097401F27803
:100B300000E4F27801E204F2E2C394514009780B38
:100B40007401F27801E4F2D000D0D0D0E032850315
:100B50003456789012140801E200000002000000F0
:100B60000000000000000000000000810900810B6F
:100B700000810000810100810800810A00810200DB
:100B8000007FF4FEE4FDFCC3ED9FEC9E5021780C49
:100B9000E4F208746CF2780C08E2FB24FFF218E22D
:100BA000FA34FFF2EB4A70EE0DBD00010C80D82242
:100BB000A290E43325E0FFA291E4334FFFA287E443
:100BC0003325E025E04FFFA286E43333333354F876
:100BD0004FFFA296E433C454F04FFF22C0E0C0D0D0
:100BE00075D000C005C006C0077F07120C988F2083
:100BF0007D707F27120C78D007D006D005D0D0D0DA
:100C0000E0327D0E7F20120C787B007A0079087824
:100C1000107414F27FA0120ADAD2E87F647E001208
:100C20000B84C2E822120A85120C445389F0D2A91F
:100C3000D28CD2AFD283C282780BE2B401FAE4F252
:100C4000B28280F4E4F580F5907593C07594437595
:100C50009F31759F30759F36759E37759E3622BBC6
:100C6000010689828A83E0225002E722BBFE02E36A
:100C70002289828A83E49322C2E9120CA5AE07AFCF
:100C800005120CA5D2E9AF062275AD0175B4FF754A
:100C9000B5FF75B306D2BD22C2E9120CA5E4FF125E
:100CA0000CA5D2E9228FE7E5E630E1FBAFE722D2DF
:020CB00082328E
:00000001FF
