:030000000209C72B
:03000B00020800E8
:03004B00020BB8ED
:10080000C0E0C0F0C083C082C0D075D000C000C0BE
:1008100001C002C003C004C005C006C0077800E2E2
:1008200004F2E2C39411405F78157401F27800E499
:10083000F27806E2FC08E2FD08E2FE08E2FF081298
:100840000AD27806120ADE00000000781BE4F27873
:1008500006E2FB08E2F908E2FA08E2CBF8C0007809
:100860001BE22401F8E2FFE4FCFDFED000EB2FFFC9
:10087000EE3AFEED39FDEC38FC7806120AD2781B10
:10088000E204F2E2B404C87800E214601E14602EA0
:1008900014603E14604E240470587801E4F208F2AB
:1008A00008F208F25393FDD281805B120B8C780121
:1008B000EFF2C2814393025393FED2808048120B21
:1008C0008C7802EFF2C2804393015394F7D2938065
:1008D00035120B8C7803EFF2C2934394085394FBC8
:1008E000D2928022120B8C7804EFF2C292439404CD
:1008F0008014C293439408C292439404C2814393E8
:1009000002C280439301D007D006D005D004D003A3
:10091000D002D001D000D0D0D082D083D0F0D0E0AF
:1009200032120A53120C015389F0D2A9D28CD2AFE1
:100930007815E2B401FA7805E204F2E47815F27869
:1009400005E2C394054004E4F2B282780AE2FC08AE
:10095000E2FD08E2FE08E2FF7806E2FB08E2F908A1
:10096000E2FA08E2CBF8C3120AC16055B283E4FF91
:10097000FEFDFC7806E2FB08E2F908E2FA08E2CBA9
:10098000F8C3120AC160177806080808E25407FF86
:10099000E4FEFDFC75101EEF2510F5108003E4F554
:1009A00010E4F520120BDEA204720550FAE4FD7F7C
:1009B000E1120C1C7DFF7F27120C1CE4F5200209BC
:1009C00030E4F510020930787FE4F6D8FD75812017
:1009D000020A0E020921E493A3F8E493A34003F66C
:1009E0008001F208DFF48029E493A3F85407240C73
:1009F000C8C333C4540F4420C8834004F456800154
:100A000046F6DFE4800B0102040810204080900BC2
:100A100033E47E019360BCA3FF543F30E509541FCB
:100A2000FEE493A360010ECF54C025E060A840B857
:100A3000E493A3FAE493A3F8E493A3C8C582C8CAD5
:100A4000C583CAF0A3C8C582C8CAC583CADFE9DEA8
:100A5000E780BEC2E8D2EAD2B97FE87E03120B601B
:100A60007BFE7A00790E781A7405F27F30120AF74D
:100A70007BFE7A00790E781A7405F27F2A120AF743
:100A80007D017F21120C1C7F22120C1C7D1A7F24F9
:100A9000120C1C7D287F25120C1C7D0F7F26120C4A
:100AA0001C7D147F31020C1CBB010689828A83E005
:100AB000225002E722BBFE02E32289828A83E4936A
:100AC00022EB9FF5F0EA9E42F0E99D42F0E89C455A
:100AD000F022ECF208EDF208EEF208EFF222D083F9
:100AE000D082E493F208740193F208740293F2083E
:100AF000740393F27404737817EBF208EAF208E9CE
:100B0000F2C2E9120C3AAE07E4FD781AE2FFEDC337
:100B10009F501B7817E2FB0808E2F92401F218E263
:100B2000FA3400F2120AA8FF120C3A0D80DCD2E966
:100B3000AF0622850E3456789012140801E20000A8
:100B400000020000000000000000000000000000A3
:100B500081130081150081140081000081050000CF
:100B6000E4FDFCC3ED9FEC9E50217816E4F208747E
:100B70006CF2781608E2FB24FFF218E2FA34FFF276
:100B8000EB4A70EE0DBD00010C80D822A290E43338
:100B900025E0FFA291E4334FFFA287E43325E0254F
:100BA000E04FFFA286E43333333354F84FFFA2966D
:100BB000E433C454F04FFF22C0E0C0D075D000C071
:100BC00005C006C0077F07120C2D8F207D707F2780
:100BD000120C1CD007D006D005D0D0D0E0327D0E4C
:100BE0007F20120C1C7B007A007908781A7414F2AA
:100BF0007FA0120AF7D2E87F647E00120B60C2E881
:100C000022E4F580F5907593C0759443759F317516
:100C10009F30759F36759E37759E3622C2E9120C3D
:100C20003AAE07AF05120C3AD2E9AF0622C2E9127A
:100C30000C3AE4FF120C3AD2E9228FE7E5E630E104
:040C4000FBAFE722FD
:00000001FF
