:03000000020921D1
:03000B00020800E8
:03004B00020B6144
:10080000C0E0C0F0C083C082C0D075D000C000C0BE
:1008100001C002C003C004C005C006C0077800E2E2
:1008200004F2E2C39411405F78157401F27800E499
:10083000F27806E2FC08E2FD08E2FE08E2FF081298
:100840000A7B7806120A8700000000781BE4F27821
:1008500006E2FB08E2F908E2FA08E2CBF8C0007809
:100860001BE22401F8E2FFE4FCFDFED000EB2FFFC9
:10087000EE3AFEED39FDEC38FC7806120A7B781B67
:10088000E204F2E2B404C87800E214601E14602EA0
:1008900014603E14604E240470587801E4F208F2AB
:1008A00008F208F25393FDD281805B120B35780178
:1008B000EFF2C2814393025393FED2808048120B21
:1008C000357802EFF2C2804393015394F7D29380BC
:1008D00035120B357803EFF2C2934394085394FB1F
:1008E000D2928022120B357804EFF2C29243940424
:1008F0008014C293439408C292439404C2814393E8
:1009000002C280439301D007D006D005D004D003A3
:10091000D002D001D000D0D0D082D083D0F0D0E0AF
:1009200032787FE4F6D8FD758120020968020A0258
:10093000E493A3F8E493A34003F68001F208DFF404
:100940008029E493A3F85407240CC8C333C4540F7C
:100950004420C8834004F456800146F6DFE4800B4F
:100960000102040810204080900ADCE47E019360BC
:10097000BCA3FF543F30E509541FFEE493A360017C
:100980000ECF54C025E060A840B8E493A3FAE493E6
:10099000A3F8E493A3C8C582C8CAC583CAF0A3C894
:1009A000C582C8CAC583CADFE9DEE780BEC2E8D215
:1009B000EAD2B97FE87E03120B097BFE7A00790E3A
:1009C000781A7405F27F30120AA07BFE7A00790E45
:1009D000781A7405F27F2A120AA07D017F21120B7A
:1009E000C57F22120BC57D1A7F24120BC57D287F7F
:1009F00025120BC57D0F7F26120BC57D147F31029A
:100A00000BC51209AD120BAA5389F0D2A9D28CD210
:100A1000AF7815E2B401FA7805E204F2E47815F251
:100A20007805E2C394054004E4F2B282780AE2FC5D
:100A300008E2FD08E2FE08E2FF7806E2FB08E2F9C0
:100A400008E2FA08E2CBF8C3120A6A60C4B28380F3
:100A5000C0BB010689828A83E0225002E722BBFEE6
:100A600002E32289828A83E49322EB9FF5F0EA9ED7
:100A700042F0E99D42F0E89C45F022ECF208EDF2EC
:100A800008EEF208EFF222D083D082E493F20874E9
:100A90000193F208740293F208740393F2740473DE
:100AA0007817EBF208EAF208E9F2C2E9120BE3AEBA
:100AB00007E4FD781AE2FFEDC39F501B7817E2FBB5
:100AC0000808E2F92401F218E2FA3400F2120A519D
:100AD000FF120BE30D80DCD2E9AF0622850E3456FF
:100AE000789012140801E2000000020000000000EB
:100AF000000000000000000000811300811500814B
:100B0000140081000081050000E4FDFCC3ED9FECB2
:100B10009E50217816E4F208746CF2781608E2FB15
:100B200024FFF218E2FA34FFF2EB4A70EE0DBD003A
:100B3000010C80D822A290E43325E0FFA291E43397
:100B40004FFFA287E43325E025E04FFFA286E43380
:100B500033333354F84FFFA296E433C454F04FFFBD
:100B600022C0E0C0D075D000C005C006C0077F0716
:100B7000120BD68F207D707F27120BC5D007D006B1
:100B8000D005D0D0D0E0327D0E7F20120BC57B0087
:100B90007A007908781A7414F27FA0120AA0D2E8B9
:100BA0007F647E00120B09C2E822E4F580F590759F
:100BB00093C0759443759F31759F30759F36759EB0
:100BC00037759E3622C2E9120BE3AE07AF05120B52
:100BD000E3D2E9AF0622C2E9120BE3E4FF120BE312
:0D0BE000D2E9228FE7E5E630E1FBAFE72226
:00000001FF
