:020000040800F2
:1000000028090020B5010008B9010008BB0100085B
:10001000BD010008BF010008C10100080000000088
:10002000000000000000000000000000C301000804
:10003000C501000800000000C7010008C901000850
:10004000FF280008CB010008CB010008CB01000805
:10005000CB010008CB010008F1260008CB01000805
:10006000CB010008CB010008CB010008CB01000840
:10007000CB010008CB010008CB010008CB01000830
:10008000CB010008CB010008CB010008CB01000820
:10009000CB010008CB010008CB010008CB01000810
:1000A000CB010008CB010008CB010008CB01000800
:1000B000CB01000859290008CB010008CB0100083A
:1000C000CB010008CB010008CB010008CB010008E0
:1000D000CB010008D322000837240008CB01000818
:1000E0002F270008CB010008CB01000800F002F820
:1000F00000F050F80AA090E8000C82448344AAF172
:100100000107DA4501D100F045F8AFF2090EBAE86F
:100110000F0013F0010F18BFFB1A43F0010318473B
:1001200084620000A4620000103A24BF78C878C13D
:10013000FAD8520724BF30C830C144BF04680C60ED
:10014000704700000023002400250026103A28BF35
:1001500078C1FBD8520728BF30C148BF0B60704739
:10016000642904F0AF83782904F0E483732904F050
:100170005086002070471FB5AFF3008004F080FF69
:1001800004000020002104F0FBFF401C60601FBD44
:1001900010B510BD04F04EFF1146FFF7ECFF00F064
:1001A00023F804F083FFFFF7F3FF02F049F80000A3
:1001B00030BF000008480047FEE7FEE7FEE7FEE725
:1001C000FEE7FEE7FEE7FEE7FEE7FEE70348044939
:1001D000024A044B70470000ED0000082807002089
:1001E000280900202807002010B5092001F0CEFFC3
:1001F000482001F065FE4FF4E131482002F077F825
:100200004FF49651242002F024F902F0A7F902F0ED
:1002100052FD02F0E3F941F61F41092002F0ADFB67
:1002200000F02CF901E001F0B8FBFCE730B595B027
:1002300004460D462022502101A804F007FD2A465D
:10024000FEA101A804F0DAFA284604F09AFC01A9FC
:1002500020220A5400208DF82C0004EB041081B2F7
:1002600001AA002003F0A8FE15B030BD10B5044669
:1002700004EB0410401E83B204EB0410401E81B254
:1002800040F23F12002003F091FC10BD70B504460F
:100290000D46164605EB85008004010CE8A20020FF
:1002A00003F08AFE05EB85008004010C32462046EF
:1002B00003F082FE70BD00BFEB49098811F0400FCA
:1002C000FAD0E949091D0880704700B5E74890F861
:1002D000FF01E64991F8FE1188420FD0E34890F8FB
:1002E000FF01401CC2B2B2F5FF7F00DB0022DF48F5
:1002F000835C80F8FF211846FFF7DDFF00BD70B575
:10030000002400250026DA480068401CD84908600F
:10031000D8480068401CD74908600846006864282F
:100320000AD30120D4490870D4480078401CD3492E
:1003300008700020CF490860D1480088D149088062
:10034000D1480078012807D1CA48001F00680988F1
:100350000844C849091F0860C648001F00684EF6D7
:100360006021884206D3C348001F0068401AC14973
:10037000091F0860C54800684001C549D1F80C1143
:1003800040EA0110C349D1F8301140EA8100C14967
:10039000D1F82C1140EAC100BC49091F0968084383
:1003A000BD490870B348001D0078B249091D487066
:1003B000B748D0F80C010870B848007890B9A1F19E
:1003C0000800006847F23051884203D20120B44946
:1003D000086002E00020B24908600020A549083109
:1003E000086035E0AF480078102806DAA7481830D2
:1003F0000068AD49C1F8880125E09E48001D0078DD
:1004000008BB9C48001D407801281CD19948083041
:100410000068C0F3C70697480830006800F0070579
:100420000A2E00D30A26A148805DC5F107010841C4
:1004300000F001009A4908608E4808300068401CAE
:100440008C49083108608B4808300068984908706A
:10045000934880380068C4B296484078A04208D0DB
:1004600094484078012804D192480078401C914972
:10047000087090484470FFF728FF70BD10B58E4893
:10048000806940F010008C4988618C48406820F4F5
:1004900070208A4948600846406840F4002048605F
:1004A0000846C06840F48050C8600846406820F4A0
:1004B000704048600846406840F400404860084684
:1004C000C06840F40060C8600846006820F47020EE
:1004D00008600846006840F4002008600846C068CC
:1004E00040F01000C8600846006820F47000086002
:1004F0000846006840F4000008600846C06840F004
:100500002000C8604FF6FF7002F0B8FB4FF478404F
:100510006B4908806BA10020FFF788FE71A374A2CD
:1005200076A17B4804F06AF979490120FFF77EFE45
:100530000220FFF79BFE0720FFF798FE0A20FFF737
:1005400095FE0D20FFF792FE1F205D49088071A1E6
:100550000220FFF76BFE00207549087048705A2092
:100560005249087001204870232088704520C870C7
:100570006720087189204871AB208871CD20C8712F
:10058000EF200872A520487248216A4801F08AFCD1
:100590006521684801F086FC6C21664801F082FC08
:1005A0006C21644801F07EFC6F21624801F07AFC06
:1005B0000D21604801F076FC0A215E4801F072FCD2
:1005C00003F028FD03F0ABFD28B15BA20B210C204A
:1005D000FFF75CFE04E05EA20B210C20FFF756FE45
:1005E00010BD0021214A92F8FE21521CD1B2B1F572
:1005F000FF7F00DB00211D4A505482F8FE11704736
:1006000070B50446002504E0605DFFF7EAFF681C52
:10061000C5B2204604F0B5FAA842F5D870BD00B5C1
:10062000034651491A09885CFFF7DBFF03F00F010D
:100630004D4A505CFFF7D5FF00BD00002573000058
:1006400020202020202020202020202020202020AA
:10065000202020202020202020202020202020209A
:100660002020202020202000003801400A03002004
:1006700008000020280000200000002004000020C6
:1006800010000020120000200F0000201401224260
:1006900000002142000022423A0000200D0000200C
:1006A000888122420C0000200080224200030020AA
:1006B0000E000020580000200010024000100140F1
:1006C0005200002020202020202044324D205A7546
:1006D000566F5F3330305F4D43555F5465737465BB
:1006E0007200000031373A33343A333900000000E9
:1006F0004E6F7620323920323031310020202042B6
:1007000075696C642044617465202573202573002D
:100710002101002020202020523030203A2030308B
:100720003030302D78787878782D3230303037008E
:100730003C000020C805002032344330322043689A
:1007400065636B204661696C202121212100000036
:10075000323443303220436865636B2050617373D9
:100760002021212121000000E25800080146302903
:1007700005DB392903DCA1F13000C0B27047412903
:1007800005DB462903DCA1F13700C0B2F6E7002003
:10079000F4E770B502460B4613F8010BFFF7E6FFCE
:1007A0000546012408E013F8010BFFF7DFFF00EB1B
:1007B000051085B2601CC4B29442F4DB284670BDBB
:1007C000F8B505460C4601202168FFF7E2FFC6B2E6
:1007D00000962A46F9A1FF48236804F00FF8FD4966
:1007E0000D20FFF723FD16B1012E0BD104E00821E7
:1007F000F94803F0D6FC05E00821F748083003F07B
:10080000C8FC00BF00BFF8BD00B503461846FFF79F
:10081000E8FE00BD10B50446F0492209885CFFF7E8
:10082000F3FF04F00F01ED4A505CFFF7EDFF10BD40
:100830002DE9FC4704460D4602202968FFF7A9FF71
:10084000C6B22868811C0220FFF7A3FFC7B2CDE91A
:1008500000672246E2A1DF482B6803F0CFFFDD49A5
:100860000D20FFF7E3FCE5A0FFF7CAFE3046FFF7D7
:10087000D1FF4FF000080AE006EB080003F0CEFBC2
:100880008146FFF7C7FF08F1010000F0FF08B845F7
:10089000F2DBDBA0FFF7B4FEBDE8FC872DE9F043F7
:1008A00087B004460D4602202968FFF772FFC6B2E2
:1008B000286804F066F9801EC0F347074FF000086F
:1008C0000DE02868801C00EB48010220FFF761FF63
:1008D00003A901F8080008F1010000F0FF08B8457D
:1008E000EFDB9DF80D30CDE9006702932246C5A1EC
:1008F000B8482B6803F082FFB6490D20FFF796FC3D
:10090000C8A0FFF77DFE3046FFF784FF4FF00008D8
:1009100011E003AA12F8081006EB080003F0ABFB85
:1009200006EB080003F07AFB8146FFF773FF08F13E
:10093000010000F0FF08B845EBDBB1A0FFF760FE57
:1009400007B0BDE8F083F8B504460D46286804F00A
:1009500018F9074600902246B3A19E482B6803F081
:100960004DFF9C490D20FFF761FC286804F009F950
:10097000102808D0B0A197482A6803F03FFF954897
:10098000FFF73EFEF8BD002609E0286800EB4601AF
:100990000220FFF7FEFE90498855701CC6B2082E53
:1009A000F3D308218C4803F0FCFB08218A48083067
:1009B00003F0EFFB642001F09AFA08218648083022
:1009C00003F0E7FB642001F092FAA4A0FFF718FE01
:1009D000002606E080490831885DFFF71BFF701C88
:1009E000C6B2082EF6D386A0FFF70AFECAE7014674
:1009F0000020002209E04306180E012393400B4219
:100A000001D0431CD8B2531CDAB2072AF3DD704779
:100A1000F0B587B004460D46286804F0B2F80746E2
:100A2000009022468EA16B482B6803F0E7FE6949CF
:100A30000D20FFF7FBFB08216748083003F0A9FBF6
:100A400008216548083003F0A4FB84A0FFF7D8FD17
:100A500000260CE060490831885DFFF7C8FF5E4959
:100A600008318855885DFFF7D5FE701CC6B2082E88
:100A7000F0D363A0FFF7C4FD7EA1564803F0BEFE8D
:100A800054490720FFF7D2FB5348C37B827B417B4D
:100A9000007B02AF0FC75048C37A827ACDE90023AA
:100AA000437A027A7AA14B4803F0A8FE494908200C
:100AB000FFF7BCFB07B0F0BD2DE9F04186B004465E
:100AC0000D460027286804F05CF880460090224616
:100AD0007AA140482B6803F091FE3E490D20FFF7B4
:100AE000A5FB286804F04DF810280AD052A1394817
:100AF0002A6803F083FE3748FFF782FD06B0BDE8A1
:100B0000F08100260FE0286800EB46010220FFF785
:100B100040FE31498855885DFFF769FF2E4908314D
:100B20008855701CC6B2082EEDD308212A4803F060
:100B300038FB6748007848B908212748083003F097
:100B400028FB08212448083003F023FB43A0FFF7CB
:100B500057FD002610E020490831885DFFF747FF68
:100B60001D49083188551C48815D0830805D8142EF
:100B700000D00127701CC6B2082EECD3002606E078
:100B800015490831885DFFF745FE701CC6B2082E76
:100B9000F6D31BA0FFF734FD1FB14FF478404D4949
:100BA00008800D48C379827941790079CDE9042321
:100BB000CDE902010848C37882788DE054657374EA
:100BC000696E67202573202573202D20253032780B
:100BD0002000000021010020B8050020F358000883
:100BE0004545502052656164202573202573202DD2
:100BF0002025303278202530325800004552200020
:100C00000D0A000045455020577269746520257310
:100C1000202573202D2025303258202564202530B2
:100C20003258000045572000505F52464944202565
:100C300073202573202564002352464944206861AF
:100C40007320746F2062652031362064696769748F
:100C500073203A2025730A0D000000005620000082
:100C60005246494420524541442025732025732093
:100C7000256400002020524649442057202D2D2D68
:100C80002D2D2D2D2D2D2D2D2D2D2D2D2D0000001B
:100C900020205246494420522025303258253032F7
:100CA00058253032582530325825303258253032C8
:100CB00058253032582530325800000052464944F9
:100CC0002057524954452025732025732025640060
:100CD0002100002052000020CDE900234378027853
:100CE000F4A1FF4803F08AFDFD490720FFF79EFAB3
:100CF000FC48C37B827B417B007BCDE90423CDE9AB
:100D00000201F848C37A827ACDE90023437A027A55
:100D1000AFF28401F24803F071FDF1490820FFF7BA
:100D200085FAF1A1EE4803F069FDED490920FFF7CE
:100D30007DFA1F20EF490880E0E6F0B587B007464E
:100D40000C462246EAA1002003F0D3FE06463046B8
:100D500003F0C2FE05462B463246E7A1E04803F009
:100D60004DFDDF490D20FFF761FA25B1012D03D0BC
:100D7000082D27D10CE000BFE448006883B22A4662
:100D8000E3A1D74803F03AFDD548FFF739FC22E04C
:100D9000E348836942690169C068CDE90523CDE96B
:100DA0000301DF48836842680168DE488DE80E0071
:100DB0002A46DDA14368CA4803F020FDC848FFF772
:100DC0001FFC08E02A46E4A1C54803F017FDC4480B
:100DD000FFF716FC00BF00BF07B0F0BD2DE9F043E0
:100DE00087B081460C462246C1A1002003F081FE57
:100DF00007462246BEA1002003F07BFE8046434604
:100E00003A46D7A1B64803F0F9FCB5490D20FFF7E3
:100E10000DFA384603F060FE05460A2D77D2DFE86A
:100E200005F005111DB534404C586777404603F076
:100E300053FE18B90020CF49086002E00120CD49D7
:100E40000860A4E0404603F047FE18B90020CA49F4
:100E5000087002E00120C849087098E0404603F09D
:100E60003BFE20B1012806D002280CD107E000206B
:100E7000AC49486007E00021AA48016203E0002174
:100E8000A848C16300BF00BF81E0404603F024FED4
:100E900018B90020B949087002E00120B74908706C
:100EA00075E0404603F018FE18B90020B4490870F8
:100EB00002E00120B249087069E0404603F00CFEF0
:100EC00018B90020AF49087002E00120AD49087050
:100ED0005DE0404603F000FEAB4908703A46ABA126
:100EE0007F4803F08BFC7E490D20FFF79FF94EE011
:100EF000404603F0F1FDAA4908803A46A9A1784886
:100F000003F07CFC76490D20FFF790F93FE03DE0CF
:100F10002021A84803F0C4FE4246AFF6E001A548F0
:100F200003F06CFCA34AA4A16D4803F067FC6C4974
:100F30000520FFF77BF90A21A24803F0B1FE002645
:100F400009E09C4800EB46010220FFF722FC9D4986
:100F50008855701CC6B20A2EF3D99A48C379827993
:100F600041790079CDE90423CDE902019548C378A0
:100F70008278CDE900234378027893A1584803F0A2
:100F80003DFC57490620FFF751F900E000BF00BFC4
:100F900043463A4697A1524803F030FC5048FFF7C9
:100FA0002FFB07B0BDE8F08370B506460C4622461D
:100FB0004FA1002003F09DFD05462A4679A148482F
:100FC00003F01CFC46490D20FFF730F9284603F0DA
:100FD00083FD734908808BA1414803F00FFC404812
:100FE000FFF70EFB70BD2DE9F04180460C46002551
:100FF00009E0206800EB45010220FFF7CAFB8649A3
:101000004855681CC5B2142DF3D38348007810B13D
:10101000012816D116E08148C0787F494978884276
:1010200006D000207D4908717B484078C87004E0F4
:101030007A480079401C794908717748407A7849A4
:101040004870FBE0744880787349497840EA01268B
:10105000714800797049C97840EA0127002504E009
:1010600042F646000744681CC5B2B542F8D32C4886
:101070000760694880796849497940EA01266648ED
:10108000007A6549C97940EA0127254846608760AA
:101090006148807A6049497A40EA01265E48007BCF
:1010A0005D49C97A40EA012747EA06470520B7FBB0
:1010B000F0F0B7E020205246494420572025303236
:1010C00058253032582530325825303258253032A4
:1010D000582530325825303258253032580000001B
:1010E00021010020B8050020202052464944205606
:1010F0002000000052000020496E70757420436D7E
:1011000064202573202564200000000008000020D2
:10111000692C25642C25303478200A0D000000004D
:10112000900500203C050020692C25642C253035D5
:10113000582C253036582C253036582C253036582A
:101140002C253032582C253032582C253032582C52
:1011500025303258200A0D00692C25640A0D000044
:101160004F757470757420436D642025732025734A
:1011700000000000A00121420F00002021000020FB
:10118000200000201F0000200C0000205465737414
:1011900020436D64202573202020202000000000C3
:1011A00010000020465220436D642025732020202B
:1011B00020200000E0020020202020534E2020208C
:1011C00025730000000300202044617461203A2050
:1011D0002530325825303258253032582530325893
:1011E0002530325825303258253032582530325883
:1011F00000000000434D4420444F202573202573F8
:10120000200A0D00434D4420466C6F77526174658F
:1012100020200A0D00000000140500203E000020E0
:101220003A000020F949C860F948407B0861F84855
:10123000807B4861F648C07B886100BF00BFBDE885
:10124000F081F8B504460D46286803F09AFCC6B252
:10125000062E02D0102E2DD121E002202968FFF7A2
:1012600098FAEC4908702868811C0220FFF791FA6F
:10127000E84948702868011D0220FFF78AFAE5490D
:10128000887008468378009343780278E2A1EA48A0
:1012900003F0B4FAE8490920FEF7C8FF0AE0E7A026
:1012A000FFF7AEF92868FFF7ABF9AFF2AC60FFF7D4
:1012B000A7F900BF00BF286803F063FC0746009051
:1012C0002246DFA1DC482B6803F098FADA490D20AA
:1012D000FEF7ACFFF8BDF8B504460D4617466A4662
:1012E000AFF2F411284603F004FC06460122D8A10F
:1012F000304603F000FC20B969463046FFF7A1FFF5
:10130000F8BD0122D3A1304603F0F5FB20B96946B0
:101310003046FFF768FEF3E70322CFA1304603F023
:10132000EAFB20B969463046FFF73EFEE8E70122B6
:10133000CAA1304603F0DFFB20B969463046FFF70B
:101340004DFDDDE70122C6A1304603F0D4FB20B9F4
:1013500069463046FFF7F1FCD2E70222C1A13046D0
:1013600003F0C9FB20B969463046FFF7A5FBC7E784
:101370000222BDA1304603F0BEFB20B969463046CB
:10138000FFF746FBBCE70122B8A1304603F0B3FBF0
:1013900020B969463046FFF7D6FAB1E70222B4A178
:1013A000304603F0A8FB20B969463046FFF776FACD
:1013B000A6E70222AFA1304603F09DFB20B96946A3
:1013C0003046FFF735FA9BE70122ABA1304603F028
:1013D00092FB20B969463046FFF7F2F990E7012CFD
:1013E00007D1A64AA6A1944803F008FA9248FFF74D
:1013F00007F985E70146612905DB7A2903DCA1F1BC
:101400002000C0B270470846FCE770B52BE0A0484A
:1014100000F039FD0646FFF7EDFF04469D499E4A60
:1014200012788C549C480078401C9B4908700D2C05
:1014300001D00A2C17D14021904803F00FFC9648A8
:101440000078421E93498D4803F0BAFB9248007819
:10145000012805DD9048027888490120FFF73BFF0D
:1014600000208D4908708A4800F0EDFC0128CED19B
:101470004CE08A4800F007FD0646FFF7BBFF044634
:10148000874888490978445486480078401C854933
:1014900008700D2C01D00A2C38D14021774803F078
:1014A000DDFB80480078421E7D49744803F088FBCC
:1014B0007C480078032826DD7B480078012813D17A
:1014C000002506E07648445D2046FFF78AF8681C50
:1014D000C5B274480078401EA842F3DC0D20FFF727
:1014E00080F80A20FFF77DF8644A70A1524803F0A3
:1014F00085F951490B20FEF799FE674802785F494C
:101500000220FFF7E8FE002066490870634800F0FB
:101510009AFC0128ADD170BD0246002008469142D8
:1015200002DB831AD8B204E0431CD8B2D34303448D
:10153000D8B2704730B5002404EB44005E490D5C1E
:10154000C4EBC4015D4A12F821002946FFF7E4FF0D
:10155000C4EBC401594A02EB810149680844C4EB59
:10156000C40102EB81014860C4EBC400114601F8DC
:10157000205030BD10B586B0044614B1012C2AD1DC
:101580001BE04F48007880F001004D4908704DA1E4
:101590000C20FEF74BFE4A48007820B153A101A869
:1015A00003F02CF903E056A101A803F027F9142257
:1015B00001A90120FFF78FFE0DE056A10C20FEF7D8
:1015C00035FE5EA101A803F019F9142201A901203A
:1015D000FFF781FE00BF00BF06B010BD10B5384850
:1015E000401F0078401C3649491F087008460078A3
:1015F000012806D0022805D0032804D0042803D1EE
:10160000ADE09DE0A1E0A5E0B1E000009005002084
:10161000140500203E000020202052464944205658
:101620002030303030303025303258253032582597
:101630003032583030303700210100205220000075
:101640002020202573203A202573203A202564008D
:101650005200000044000000434652004F000000CA
:101660004900000050570000505200005000000098
:101670004557000045520000540000006100002062
:10168000756E6B6E6F776E2025730A0D000000007B
:10169000C8050020A100002002000020480600200C
:1016A000E1000020030000201F000020554152549B
:1016B000323A257300000000580000203C0500204D
:1016C00039000020204B45592020203A2033202883
:1016D00054657374205246494420546167202D207C
:1016E000577269746520212129000000505720306D
:1016F00030303030304142434445323030303700B2
:101700005057203030303030303132333435323091
:1017100030303700204B45592020203A20322028F5
:1017200054657374205246494420546167202D202B
:1017300052656164202121290000000050522000E0
:10174000DFA10020FEF772FD15E0E6A10020FEF704
:101750006DFD10E0ECA10020FEF768FD0BE0F3A1A9
:101760000020FEF763FD0020F949087003E0002027
:10177000F749087000BF00BFF548401C0078401CC6
:10178000F349491C087000BFF2480078012832D1A3
:10179000F1484068000AF149C870EF484068087194
:1017A000EF4800780874EE4840784874EC48807838
:1017B0008874ECA0FEF724FF002405E0EA49085DE8
:1017C000FEF72DFF601CC4B2132CF7DBAFF6D03050
:1017D000FEF716FFE5A0FEF713FF002405E0DF4942
:1017E000085DFEF71CFF601CC4B2132CF7DBAFF6DC
:1017F000F030FEF705FF10BD1FB5DDA1E24802F095
:10180000FDFFE1490320FEF711FDE048047884F074
:101810003C0404F00102C4F34011C4F3C000C4F35B
:1018200080038DE81700C4F30012D9A1D64802F056
:10183000E5FFD5490420FEF7F9FCD448447884F04C
:101840001C0404F00102C4F34011C4F3C000C4F34B
:1018500080038DE81700C4F30012CDA1CA4802F03E
:10186000CDFFC9490520FEF7E1FCBD480379C278E8
:1018700080780111BA488DE80E0043780278CCA137
:10188000C14802F0BBFFC0490220FEF7CFFC1FBDDC
:1018900010B5AF48801C0078401CAD49891C087009
:1018A0000846007801281EDB00200870481C0078DC
:1018B000401C491C087008460078202801DB0020E5
:1018C0000870A348C01C0078102807DDA048C01C81
:1018D000007880F01F00C249087004E09C48C01CDA
:1018E0000078BF4908709A48001D0078401C98494C
:1018F000091D087008460078092811D2DFE800F0B9
:1019000005060708090A0D0E0F0010E00FE00EE0B3
:101910000DE00CE0FFF770FF09E008E007E006E0EB
:1019200000208B49091D0870FFF758FE00BF00BF5B
:1019300000F087FE0446002C2ED0012C04D0022C8F
:1019400019D0032C27D11EE0A648007818B9012031
:10195000A449087002E00020A2490870A24800686B
:1019600008B9012000E000209F4908609FA10C20D9
:10197000FEF75CFC0FE0A0A10C20FEF757FC012055
:10198000FFF7F8FD07E09FA10C20FEF74FFC0020B9
:10199000FFF7F0FD00BF00BF10BD00B58FB0AFF680
:1019A000B00107A802F02AFF9948007801286AD1FF
:1019B000002097490870FFF76BFFFFF7BBFD9548C4
:1019C000007824285ADA9348007807281ED2DFE8E6
:1019D00000F0040F13191A1B1C0000208249086034
:1019E0008DA1694802F00AFF6748FEF709FE0DE085
:1019F00001207D49086009E001207B4908608C498D
:101A0000087003E002E001E000E000BF00BF814891
:101A10000078002801DD012000E0002085490978D8
:101A2000142901DA012100E00021084220D0824877
:101A3000036882480268001D01688148D0F83001BF
:101A4000CDE90423CDE902017C481C3003686648D7
:101A5000943802687B48CDE90023D0F8A0316D4866
:101A6000027879A1484802F0C9FE4748FEF7C8FD50
:101A700068480078401C6749087004E000206C4901
:101A800008706C490870FFF7C0FC0FB000BD02463B
:101A900000200846914201D3801A04E0401C4FF612
:101AA000FF73534018447047034600220A46994288
:101AB00001DBD21A02E002F58072D21AD0B270476E
:101AC00020202020202044324D205A75566F5F334D
:101AD00030305F4D43555F5465737465722020202C
:101AE0005E2D5E0020202020202044324D205A759B
:101AF000566F5F3330305F4D43555F546573746587
:101B0000722020205E6F5E002020202020204432A2
:101B10004D205A75566F5F3330305F4D43555F54DB
:101B200065737465722020205E6D5E002020202089
:101B3000202044324D205A75566F5F3330305F4D50
:101B400043555F5465737465722020205E785E0093
:101B500034000020200000203C0500202805002043
:101B60003E000020443000001405002044310000F5
:101B7000204D435520494F203A20522D472D422DCC
:101B80005A2D552D46530000210100203A00002017
:101B900020202020202020203A2025782D25782D57
:101BA00025782D25782D25782D25303278000000D8
:101BB00020202052464944203A2030303030302D09
:101BC000253032582530325825582D3230303037B4
:101BD000202020253032582D2530325800000000BA
:101BE0003C0000200F000020A0012142204B45595D
:101BF0002020203A20310000204B45592020203A57
:101C000020320000204B45592020203A203300008C
:101C1000000000200C000020545858203A20502D7D
:101C2000522D472D422D5A2D552D460D0A000000EC
:101C30000D0000200E000020888122421001224267
:101C400000002242000021425425303258203A2020
:101C500025642D25642D25642D25642D25642D25D1
:101C6000642D25640D0A000030B500253FE00024F6
:101C700013E0C5EB05106B4901EB8000C4F10401D2
:101C800050F82100C5EB0511664A02EB8101C4F151
:101C9000050241F82200601CC4B2052CE9DB624851
:101CA00000EB45100069C5EB05115E4A42F82100C2
:101CB000002418E0C5EB05125A4B03EB8203621CAB
:101CC00053F82200C5EB0512564B53F82210FFF7CC
:101CD000DEFEC5EB0511534A02EB8101283141F8C4
:101CE0002400601CC4B2052CE4DB681CC5B2022DC4
:101CF000BDDD30BD10B5002439E004EB84004B4954
:101D000001EB8000406804EB8401484A42F821005E
:101D1000454800EB4410006904EB840102EB8101AB
:101D2000486004EB8400114601EB8000C06804EBBE
:101D3000840102EB810188603D48007804EB840156
:101D400002EB8101C86004EB8402384B03EB820292
:101D5000516804EB840253F82200FFF798FE04EB6D
:101D60008401324A02EB81010861601CC4B2022C7A
:101D7000C3DD10BD30B5002428E004EB44002D493C
:101D80000D5C294901EB4411087F2946FFF7C4FB8C
:101D9000254901EB441109690844234901EB441129
:101DA0000861214800EB44100577214805781E485A
:101DB00000EB4410C068401C1B4901EB4411C86093
:101DC000194800EB44100572601CC4B2022CD4DD2B
:101DD00030BD70B5002400BF00251AE0164AA91CCA
:101DE000505CFEF704FE444000260EE014F0800F25
:101DF00005D06004040C40F21D114C4001E0600469
:101E0000040CC4F30804701CC6B2072EEEDD681C77
:101E1000C5B2082DE2DBE0B2FEF7E9FD0446254637
:101E200070BD00002C02002090010020F001002075
:101E3000040000205800002014000020017003223C
:101E4000427082707047014648788A78904201D18A
:101E5000012070470020FCE70246501CC3B28B42B1
:101E600001DB032070471846FCE730B504462178B3
:101E7000A078FFF7F1FF05466078A84201D1012064
:101E800030BD0020FCE730B5044665786078A17865
:101E9000884205D021786078FFF7DEFF054665703F
:101EA000605D30BD70B504460D462178A078FFF71F
:101EB000D3FF06466078B04201D0A670A55570BD2C
:101EC0004FF0E021096921F004014FF0E022116197
:101ED0000146C21700EB5272D2101F4B1A701946FE
:101EE00009784FF47A7251439A1C118070471A4A4C
:101EF000921C128842434FF0E0235A6100229A61FB
:101F000001221A6100BF4FF0E022116911F0010FA8
:101F100002D011F4803FF6D000224FF0E0231A6186
:101F20009A6170470C4A127842434FF0E0235A619D
:101F300000229A6101221A6100BF4FF0E02211696C
:101F400011F0010F02D011F4803FF6D000224FF0C3
:101F5000E0231A619A61704744000020AC4A0A40AD
:101F60000243AC4B1A607047072323EA00021202B7
:101F7000A84B1B1D19684FF6FF031940A64B1943C8
:101F800011434FF0E023C3F80C1D70472DE9F047D3
:101F900004460D4616461F463046F11706EB917172
:101FA0004FEAA109F11706EB91718910A6EB8101A7
:101FB00001F0FF0A042101EBCA0000F0FF0A3846D5
:101FC000FFF7D2FFC7F1040004FA00F80F203841F0
:101FD000284040EA080808F00F08202E09DA8F4848
:101FE00000680121B14008434FF0E021C1F8000131
:101FF0000BE08A48001D0168A6F1200201209040F4
:1020000001434FF0E020C0F80411854850F8290042
:1020100008FA0AF10143824840F82910BDE8F08728
:1020200070B50D46CE1701EB9676B310CE1701EBC7
:102030009676B610A1EB8606B606340E794DAD69DC
:1020400045F00105774EB5614FEAB63555F8236086
:102050000F25A540AE43744D45F8236055F8235035
:1020600000FA04F63543704E46F823506F4D2E6843
:1020700001258D402E436C4D083DC5F8006412F0DB
:10208000010F09D0694D0C352E6801258D402E4376
:10209000654D083DC5F80C6412F0020F09D0634D80
:1020A00008352E6801258D402E435F4D083DC5F84B
:1020B000086470BD00B500205A490861C86014204A
:1020C000486100208861C8610846006840F001004E
:1020D000086008464068564908405249486008462A
:1020E0000068544908404F4908600846006820F4D9
:1020F000802008600846406820F4FE004860002008
:10210000886000214FF00060FFF728FF00BD10B588
:1021100040480830006840F004004FF0E021C1F86A
:10212000100D4048C06940F080503E49C8614248A7
:10213000406840F48070404948600846006840F0BC
:10214000040008600846006840F002000860FEF7DE
:102150002FF810BD3048001D2E49091D086070473A
:102160000146084649062F4A926942F001022D4B6A
:102170009A612D4A083A526822F0E0622A4B083BE5
:102180005A601A4652680A435A60704730B504468E
:102190000025FFF78FFF2348006840F48030214975
:1021A000086000BF1F480068400CFBD04FF48060FF
:1021B0001C494860A01EC4B20846406840EA8440FA
:1021C00048600846406840F4803048601B4800681A
:1021D00040F03200194908601248006840F08070F1
:1021E0001049086000BF0F480068400EFBD00D4842
:1021F000406840F002000B49486005E0094840682B
:10220000C0F3870505F00305022DF7D130BD0000AE
:1022100080FFFF1F08ED00E00000FA0500E100E08C
:1022200000E400E00010024008000140000401400A
:102230000000FFF8FFFFF6FE0070004000200240A3
:10224000014600BF7047C2B2B84B1A8000BFB74A00
:10225000121F128812F0400FF9D07047B349091FBE
:10226000098811F0200F33D0B0490988C8B2B049AD
:10227000097811F0800F2BD1AD49097811F0400F8A
:102280000CD00A2803D00021A94A117020E0A849E7
:10229000097841F08001A64A117019E00D2806D195
:1022A000A349097841F04001A14A117010E0A0490A
:1022B000097801F03F019F4A50549D490978491C13
:1022C0009B4A1170114609783F2901DD00211170E8
:1022D000704710B59548001F008810F0200F05D0FA
:1022E00092480088C1B29348FFF7DCFD10BD2DE98C
:1022F000F05F04460D46280103F01BF981468E4924
:1023000004FB01F003F015F98246494602F0DAFFBA
:102310000646304603F0C8F887B2384603F009F99C
:102320008346314603F0B3F982464FF0834103F010
:1023300005F9814603F0B8F880463F0107EB080035
:1023400087B27E48806940F004007C498861084675
:10235000806940F48040886179487A49086077480C
:10236000C06840F480407549C8600846C06820F4E1
:102370008040C8607448A0F808786C48083000882D
:1023800042F20C0108437049A1F80C080846B0F865
:102390000C0840F48070A1F80C080846B0F80C084E
:1023A00040F02000A1F80C08022325220321084652
:1023B000FFF7ECFD80215F48FFF740FDBDE8F09F8F
:1023C0006249098811F0200F34D06049091D09883D
:1023D000C8B25F49097811F0800F2BD15C490978A8
:1023E00011F0400F0CD00A2803D00021584A117078
:1023F00020E05749097841F08001554A117019E0F1
:102400000D2806D15249097841F04001504A117017
:1024100010E04F49097801F03F014E4A50544C49B1
:102420000978491C4A4A1170114609783F2901DD93
:1024300000211170704710B54448008810F0200F3B
:1024400006D04248001D0088C1B24248FFF72AFD6D
:1024500010BD2DE9F05F04460D46280103F069F830
:102460008146354904FB01F003F063F88246494692
:1024700002F028FF0646304603F016F887B23846C9
:1024800003F057F88346314603F001F982464FF0D6
:10249000834103F053F8814603F006F880463F017C
:1024A00007EB080087B22548806940F00400234903
:1024B00088610846C06940F40030C8612648214957
:1024C000091F08601D48006940F400301B4908617D
:1024D0000846006920F4003008614FF04020A0F861
:1024E00008741A480C30008842F20C0108434FF07F
:1024F0004021A1F80C040846B0F80C0440F48070A8
:10250000A1F80C040846B0F80C0440F02000A1F833
:102510000C040223262203210846FFF737FD802101
:102520000C48FFF78BFCBDE8F09F00000438014029
:1025300048000020C805002040420F000010024063
:10254000B4444444040801400030014000440040C9
:102550004900002048060020444B44441B48806941
:1025600040F00400194988610846806940F0200065
:1025700088611748006820F00F001649C1F8040868
:102580000846D0F8040840F00300C1F804080846E3
:10259000D0F80C0840F48070C1F80C080E48D0F850
:1025A000000420F470600C49C1F800040846D0F81B
:1025B000000440F44070C1F800040846D0F80C0450
:1025C00040F00400C1F80C04704700000010024005
:1025D0000408014000000140001001403D488069AE
:1025E00040F004003B4988613B48006820F00F0040
:1025F0003A49C1F800080846D0F8000840F0080041
:10260000C1F800083448001D0068354908403349C6
:10261000C1F804083048001D0068324908432F49BA
:10262000C1F804080846D0F80C0840F40050C1F87E
:102630000C080846D0F80C0840F40040C1F80C081B
:10264000704710B50220FFF78BFD2748007800285F
:102650002BD02648006840B124480830006820B1DB
:1026600022483438006801281FD10A20FFF73FFCB8
:1026700000201D4908701D48006820B90120FFF79F
:102680006FFD012010BD19480830006820B90120F5
:10269000FFF766FD0220F5E714483438006801288A
:1026A00013D1FFF75DFD0320ECE710480068012817
:1026B0000BD10E4808300068012806D10B48343889
:1026C000006810B90120084908700120FFF748FD93
:1026D0000020D7E700100240000801400000014040
:1026E000FFFF0F0F000080805000002034012142C6
:1026F00010B50A20FFF7FBFB4A480068012812D1F9
:102700004848A030006808B9012000E00020454991
:10271000A03108604448D0F8880108B9012000E0E1
:1027200000204249086001204149086010BD10B5F1
:102730000A20FFF7DCFB3B483430006850B93948C9
:10274000A030006808B9012000E000203549A03120
:1027500008600BE033483C30006838B93348006803
:1027600008B9012000E00020304908604FF4005013
:102770002F49086080002F49C1F8140410BD10B51E
:102780002D48806940F004002B4988610220FFF742
:10279000E7FC2A48006820F00F002649C1F800082D
:1027A0000846D0F8000840F00800C1F800082348A7
:1027B000001D0068224908401E49C1F804081F484E
:1027C000001D00681F4908431A49C1F8040808465B
:1027D000D0F80C0840F40050C1F80C080846D0F8B6
:1027E0000C0840F40040C1F80C0802220021084601
:1027F000FFF716FC01220D210020FFF711FC01223A
:102800000F210020FFF70CFC022306221946184670
:10281000FFF7BCFB0223282201211846FFF7B6FB75
:1028200010BD000000012142008022428881224226
:102830001404014000000140001002400008014063
:10284000FFFF0F0F0000808045F255523B4B1A608E
:102850001A46506091604AF6AA221A604CF6CC42A1
:102860001A6070474AF6AA2034490860704770B56C
:1028700004460D4616463248C06940F400603049AF
:10288000C8613049097804EA01002E4908702E48D1
:10289000006840EAC6102D49C1F8040C0846D0F87B
:1028A000040C40F40070C1F8040C274800684FF68F
:1028B000807108402549C1F8040C0846D0F8040C82
:1028C0002843C1F8040C2048001F00681D490978FE
:1028D00041F0800108431D49C1F8000C0223002289
:1028E00003211846FFF752FB70BD1749091F0968FD
:1028F00000F07F021143154AC2F8001C704710B562
:102900001148006800F07F031048D0F8000C00F078
:102910007F049C4203DA0B480078FFF7E6FF0020B3
:102920000949091D08600A48D0F8880108B9012042
:1029300000E000200749086010BD000000300040A2
:102940000010024051000020042C004000200040F4
:10295000008022428881224210B54648008810F04B
:10296000010F01D0FDF7CBFC4248008820F00100A8
:102970004FF08041A1F8100410BD70B504460D461B
:102980003D48C06940F002003B49C86139481C30ED
:1029900004808804A0F82854B0F80C0440F001002A
:1029A0008904A1F80C040846B0F80C0440F040007B
:1029B000A1F80C040846B0F8000440F00100A1F8AA
:1029C000000402231D2203210120FFF7DFFA70BD5E
:1029D000294AD26942F00202274BDA61274A12687B
:1029E00022F00F02264BC3F804281A46D2F8042816
:1029F00042F00402C3F804281A46D2F8002822F054
:102A00007042C3F800281A46D2F8002842F030423B
:102A1000C3F800281A46D2F80C2842F08002C3F806
:102A20000C289A03A2F82C04A2F82814B2F818244F
:102A300042F4E0429B03A3F818241A46B2F8182483
:102A400042F40062A3F818241A46B2F8202442F097
:102A50001002084B10331A80DA13D303A3F80024B2
:102A6000D203B2F8002442F00102024B103B1A805C
:102A700070470000100400400010024004080140AC
:102A8000000001404FF48071FF4A516149005161DB
:102A9000FE49086080215161116189001161704710
:102AA00010B504460B462046FFF7ECFF4FF480704C
:102AB000F549086140004861F4480360802048619E
:102AC00008618000086110BD70B504462046FFF71C
:102AD000D9FF4FF08830ED490C390860EC49C1F856
:102AE000040C4FF6FF70E94908608815E649086153
:102AF00040004861402048610520FFF713FA40205C
:102B0000E1490861E248D0F8080C85B2481508612F
:102B10004FF03330DD490C390860091D08604FF66D
:102B2000FF70DA490860284670BD00B52220FFF723
:102B3000A9FF00BD4FF48071D34A11614900516172
:102B4000D24908608021516111618900116170478B
:102B500030B5014601F01F04C1F34513CA0AE5026E
:102B600005EB43151544A8B230BD70B504460D46BB
:102B7000B4F5A07F01DAF02D01DB002070BD2946FD
:102B8000204602F0D9FA2220FFF77CFF4FF0883070
:102B9000BE490C390860BE49C1F8040C4FF6FF70FD
:102BA000BA4908608815B84908614000486140206A
:102BB000486108610220FFF7B5F94020B249486139
:102BC0000220FFF7AFF94020AF490861B048D0F8C4
:102BD000080C86B2481508614FF03330AB490C3908
:102BE0000860091D08604FF6FF70A949C1F80C0C78
:102BF000A8480088A0F58A41353911D0A548008839
:102C0000A0F58A4131390BD0A2480088A0F50941CE
:102C1000893905D09F480088A0F53541053901D193
:102C20003046ABE73046FFF793FFA7E700B540F229
:102C300073110720FFF734FF00BD00B50021072006
:102C4000FFF72EFF00BD70B504460D46294620460D
:102C500002F072FA2220FFF715FF4FF480708A49C4
:102C60000861400048618C480088884908608020DD
:102C70008549486108618000086170BD70B50546EE
:102C800000240021084602F057FAFFF74EFF00BF6C
:102C90000DE04FF480707C490861400048617B483A
:102CA000056080204861086180000861641CB4F5FB
:102CB000963FEED370BD10B57848806940F00800AB
:102CC000764988610846806940F0100088610846AE
:102CD000806940F0010088610120FFF741FA6A48ED
:102CE00040686FF30B00684948600846406840F24E
:102CF00033310843644948600846006820F07F404B
:102D000008600846006840F04C5008600846C068FB
:102D100040F4F860C8604FF033305C49083908600F
:102D20005B49C1F8000C4FF6FF705849086032202B
:102D3000FFF7DDF801210020FFF7B2FE3220FFF798
:102D4000D6F80020FFF7C0FE5249088008460188E7
:102D500053A001F043FD4F480088A0F513412539E9
:102D600005D04C480088A0F5134128397ED11021A8
:102D7000E720FFF795FE01210020FFF791FE4FF4B9
:102D800080710120FFF78CFE4FF4E0610220FFF715
:102D900087FE41F230010320FFF782FE002104206C
:102DA000FFF77EFE40F207210820FFF779FE0021A1
:102DB0000920FFF775FE00210A20FFF771FE0121AF
:102DC0000C20FFF76DFE00210D20FFF769FE0021AA
:102DD0000F20FFF765FE00211020FFF761FE07219D
:102DE0001120FFF75DFE00211220FFF759FE0021A0
:102DF0001320FFF755FE3220FFF779F841F290518A
:102E00001020FFF74DFE40F227211120FFF748FE6A
:102E10003220FFF76CF89C211220FFF741FE322090
:102E2000FFF765F84FF4C8511320FFF739FE23214F
:102E30002920FFF735FE0E212B20FFF731FE32202F
:102E4000FFF755F800212020FFF72AFE40F23F113E
:102E50002120FFF725FE3220FFF749F80721302017
:102E6000FFF71EFE40F20771312000E09AE0FFF705
:102E700017FE06213220FFF713FE40F204713520C1
:102E8000FFF70EFE12E00000001001400C0C0140A4
:102E900000000140560000205200002000100240B7
:102EA000204C43442049443A25780A0041F60471F5
:102EB0003620FFF7F5FD04213720FFF7F1FD002153
:102EC0003820FFF7EDFD40F206713920FFF7E8FDED
:102ED00040F201713C20FFF7E3FD0F213D20FFF799
:102EE000DFFD3220FFF703F800215020FFF7D8FD67
:102EF000EF215120FFF7D4FD00215220FFF7D0FD34
:102F000040F23F115320FFF7CBFD4FF427416020E3
:102F1000FFF7C6FD01216120FFF7C2FD00216A20F5
:102F2000FFF7BEFD00218020FFF7BAFD00218120C0
:102F3000FFF7B6FD00218220FFF7B2FD00218320BC
:102F4000FFF7AEFD00218420FFF7AAFD00218520B8
:102F5000FFF7A6FD10219020FFF7A2FD002192208F
:102F6000FFF79EFD03219320FFF79AFD4FF4887130
:102F70009520FFF795FD00219720FFF791FD002197
:102F80009820FFF78DFD40F233110720FFF788FDF1
:102F900000212020FFF784FD40F23F112120FFF7A0
:102FA0007FFD7FE2FF480088A0F51341203904D05F
:102FB000FC480088B0F5134F7ED100210846FFF78A
:102FC0006FFD4FF480710120FFF76AFD4FF4E0615F
:102FD0000220FFF765FD41F230010320FFF760FD9D
:102FE00000210420FFF75CFD40F202210820FFF7DA
:102FF00057FD00210920FFF753FD00210A20FFF7AC
:103000004FFD01210C20FFF74BFD00210D20FFF7A4
:1030100047FD00210F20FFF743FD3220FEF767FF39
:1030200040F201110720FFF73BFD3220FEF75FFF62
:103030004FF486511020FFF733FD07211120FFF7D1
:103040002FFD4FF488711220FFF72AFD4FF43061F5
:103050001320FFF725FD00212920FFF721FD44F271
:1030600010012B20FFF71CFD00215020FFF718FD59
:10307000EF215120FFF714FD00215220FFF710FD32
:1030800040F23F115320FFF70BFD4FF41C5160201D
:10309000FFF706FD01216120FFF702FD00216A20F4
:1030A000FFF7FEFC00218020FFF7FAFC00218120C1
:1030B000FFF7F6FC002100E02DE08220FFF7F0FC96
:1030C00000218320FFF7ECFC00218420FFF7E8FCBF
:1030D00000218520FFF7E4FC10219020FFF7E0FCA1
:1030E00000219220FFF7DCFC01219320FFF7D8FCA0
:1030F0004FF488719520FFF7D3FC00219720FFF74C
:10310000CFFC00219820FFF7CBFC40F27311072081
:10311000FFF7C6FC45E7A3480088A0F5A841083999
:103120007ED14FF480710120FFF7BAFC4FF4E061CB
:103130000220FFF7B5FC41F230010320FFF7B0FC9D
:1031400000210420FFF7ACFC40F207210820FFF724
:10315000A7FC00210920FFF7A3FC00210A20FFF7AC
:103160009FFC00210C20FFF79BFC00210D20FFF7A6
:1031700097FC00210F20FFF793FC1420FEF7B7FE09
:1031800041F2B0611020FFF78BFC01211120FFF705
:1031900087FC01211720FFF783FC4FF49C7112205C
:1031A000FFF77EFC4FF400611320FFF779FC092143
:1031B0002920FFF775FC09212A20FFF771FC002167
:1031C000A420FFF76DFC00215020FFF769FCEF21E0
:1031D0005120FFF765FC00215220FFF761FC40F20F
:1031E0003F115320FFF75CFC4FF41C516020FFF7A8
:1031F00057FC01216120FFF753FC00216A20FFF7F3
:103200004FFC00218020FFF74BFC00218120FFF7BD
:1032100047FC00218220FFF743FC0021832000E0CF
:1032200023E0FFF73DFC00218420FFF739FC00215B
:103230008520FFF735FC13219020FFF731FC00219A
:103240009220FFF72DFC03219320FFF729FC4FF478
:1032500088719520FFF724FC40F273110720FFF7D7
:103260001FFC3220FEF743FE9BE64E480088A0F587
:10327000A85105397ED10720FFF712FC3220FEF756
:1032800036FE4FF48E711220FFF70AFC0121A420B4
:10329000FFF706FC0F210820FFF702FC08210A2097
:1032A000FFF7FEFB08210D20FFF7FAFB40F2077144
:1032B0003020FFF7F5FB07213120FFF7F1FB40F24B
:1032C00003613220FFF7ECFB4FF4E0613320FFF79E
:1032D000E7FB40F202213420FFF7E2FB0221352018
:1032E000FFF7DEFB41F60F713620FFF7D9FB40F206
:1032F00007713720FFF7D4FB00213820FFF7D0FB00
:1033000000213920FFF7CCFB40F207713A20FFF78C
:10331000C7FB00213B20FFF7C3FB07213C20FFF741
:10332000BFFB00213D20FFF7BBFB3220FEF7DFFD96
:1033300001210720FFF7B4FB01211720FFF7B0FBA5
:103340003220FEF7D4FD4FF4BD511020FFF7A8FB4B
:1033500040F217211120FFF7A3FB4FF48F711220C9
:10336000FFF79EFB4FF470611320FFF799FB0021DC
:103370002A2000E097E0FFF793FB0A212920FFF7BE
:103380008FFB4FF49F711220FFF78AFB0021502022
:10339000FFF786FBEF215120FFF782FB002152202F
:1033A00002E0000056000020FFF77AFB40F23F11D8
:1033B0005320FFF775FB4FF41C516020FFF770FBA3
:1033C00001216120FFF76CFB00216A20FFF768FBF9
:1033D00000218020FFF764FB00218120FFF760FBC4
:1033E00000218220FFF75CFB00218320FFF758FBC0
:1033F00000218420FFF754FB00218520FFF750FBBC
:1034000013219020FFF74CFB4FF440719220FFF7FF
:1034100047FB05219320FFF743FB00219520FFF791
:103420003FFB00219720FFF73BFB00219820FFF78F
:1034300037FB4FF480710120FFF732FB4FF4E0615E
:103440000220FFF72DFB41F230010320FFF728FB9C
:1034500000210420FFF724FB00210C20FFF720FBB4
:1034600000210F20FFF71CFB00212020FFF718FB95
:1034700000212120FFF714FB21210720FFF710FB7B
:103480001420FEF734FD61210720FFF709FB14200B
:10349000FEF72DFD40F273110720FFF701FB14200A
:1034A000FEF725FD45E3FF480088A0F535410539C5
:1034B0007DD10846FFF7F4FA00210846FFF7F0FA3D
:1034C00000210846FFF7ECFA00210846FFF7E8FA6A
:1034D0000121A420FFF7E4FA1420FEF708FD4FF4C1
:1034E0001C516020FFF7DCFA40F202210820FFF7B0
:1034F000D7FA4FF405713020FFF7D2FA43F2157175
:103500003120FFF7CDFA40F204613220FFF7C8FA0C
:1035100040F616613320FFF7C3FA42F2112134203E
:10352000FFF7BEFA4FF4A8513520FFF7B9FA48F279
:1035300007513620FFF7B4FA41F207413720FFF771
:10354000AFFA41F203413820FFF7AAFA20213920CF
:10355000FFF7A6FA1A219020FFF7A2FA0021102007
:10356000FFF79EFA07211120FFF79AFA0021122097
:10357000FFF796FA00211320FFF792FA1420FEF7C6
:10358000B6FC4FF4E6611020FFF78AFA40F23711DB
:103590001120FFF785FA1420FEF7A9FC4FF4DC7127
:1035A0001220FFF77DFA1420FEF7A1FC00E083E073
:1035B0004FF470611320FFF773FA80212A20FFF780
:1035C0006FFA48212920FFF76BFA1420FEF78FFCD1
:1035D0004FF480710120FFF763FA4FF4E06102209D
:1035E000FFF75EFA41F230210320FFF759FA40F26B
:1035F00002210820FFF754FA00210A20FFF750FAB1
:1036000000210C20FFF74CFA00210D20FFF748FAAB
:1036100030210E20FFF744FA00215020FFF740FA36
:10362000EF215120FFF73CFA00215220FFF738FA32
:1036300040F23F115320FFF733FA4FF41C51602042
:10364000FFF72EFA01216120FFF72AFA00216A20F4
:10365000FFF726FA11219020FFF722FA4FF4C061FC
:103660009220FFF71DFA40F202419320FFF718FA6B
:1036700002219420FFF714FA1420FEF738FC0121F0
:103680000720FFF70DFA1420FEF731FC6121072017
:10369000FFF706FA40F273110720FFF701FA002145
:1036A0002020FFF7FDF900212120FFF7F9F9222161
:1036B0000020FFF7F5F93CE27A480088A0F50941BF
:1036C00089397DD101210020FFF7EAF94AF6A401EA
:1036D0000320FFF7E5F900210C20FFF7E1F940F6A0
:1036E0000C010D20FFF7DCF94FF42C510E20FFF7F1
:1036F000D7F9B0211E20FFF7D3F942F63F31012060
:10370000FFF7CEF94FF4C0610220FFF7C9F900219D
:103710001020FFF7C5F946F270011120FFF7C0F93C
:1037200000210520FFF7BCF900210620FFF7B8F9BA
:103730004EF61C711620FFF7B3F903211720FFF78F
:10374000AFF940F233210720FFF7AAF900210B203F
:10375000FFF7A6F900210F20FFF7A2F90021412071
:10376000FFF79EF900214220FFF79AF90021482037
:10377000FFF796F940F23F114920FFF791F9002138
:103780004A20FFF78DF900214B20FFF789F94FF40C
:103790006F414420FFF784F900214520FFF780F9AD
:1037A00040F23F114620FFF77BF940F207713020CD
:1037B000FFF776F94FF401713120FFF771F900E05E
:1037C0003DE04FF401713220FFF76AF940F20251F7
:1037D0003320FFF765F940F207513420FFF760F915
:1037E0004FF401713520FFF75BF94FF4017136207A
:1037F000FFF756F940F202513720FFF751F940F236
:1038000002313A20FFF74CF940F202313B20FFF73A
:1038100047F900212320FFF743F900212420FFF777
:103820003FF94FF400412520FFF73AF900214F20DE
:10383000FFF736F900214E20FFF732F979E11948F8
:103840000088A0F58A4131397ED101210020FFF79F
:1038500027F90A20FEF74BFB41F228611020FFF701
:103860001FF90E211220FFF71BF940F63921132012
:10387000FFF716F90A20FEF73AFB40211120FFF767
:103880000FF950211520FFF70BF90A20FEF72FFB47
:103890001E211220FFF704F90A20FEF728FB4FF43F
:1038A000B15101E0560000201020FFF7F9F842F670
:1038B00039211320FFF7F4F80A20FEF718FB4FF424
:1038C00080710120FFF7ECF84FF440710220FFF700
:1038D000E7F841F230010320FFF7E2F840F202215D
:1038E0000820FFF7DDF808210A20FFF7D9F80021AA
:1038F0003020FFF7D5F840F202413120FFF7D0F831
:103900004FF483713220FFF7CBF840F2035133209C
:10391000FFF7C6F84FF482713420FFF7C1F840F288
:1039200001313520FFF7BCF840F207713620FFF770
:10393000B7F840F205313720FFF7B2F84FF40271C3
:103940003820FFF7ADF800E03EE040F60B7139207B
:10395000FFF7A6F802214120FFF7A2F84FF41C510F
:103960006020FFF79DF801216120FFF799F84FF4DF
:1039700004719020FFF794F84FF485719220FFF7BF
:103980008FF804219320FFF78BF84FF48071A0206B
:10399000FFF786F801210720FFF782F82121072091
:1039A000FFF77EF823210720FFF77AF8332107205D
:1039B000FFF776F840F233110720FFF771F8002186
:1039C000A020FFF76DF8B4E0F9480088A0F58A411F
:1039D0003539F8D130211520FFF762F810219A20EF
:1039E000FFF75EF820211120FFF75AF843F2284133
:1039F0001020FFF755F802211220FFF751F841F28D
:103A000038011320FFF74CF82820FEF770FA122136
:103A10000846FFF745F82820FEF769FA43F22041EF
:103A20001020FFF73DF843F238011320FFF738F874
:103A30004620FEF75CFA00213020FFF731F840F213
:103A400002413120FFF72CF840F207313220FFF716
:103A500027F84FF441713320FFF722F80421342076
:103A6000FFF71EF840F201413520FFF719F840F248
:103A700007713620FFF714F840F205313720FFF7C1
:103A80000FF84FF4C2613820FFF70AF84FF4C26113
:103A90003920FFF705F84FF480710120FFF700F897
:103AA0004FF440710220FEF7FBFF41F2300103208A
:103AB000FEF7F6FF40F608010820FEF7F1FF0821A7
:103AC0000A20FEF7EDFF4FF41C516020FEF7E8FFDF
:103AD00001216120FEF7E4FF4FF49F719020FEF773
:103AE000DFFF4FF480719220FEF7DAFF4FF4807110
:103AF0009320FEF7D5FF4FF44051A020FEF7D0FFF2
:103B00001021A320FEF7CCFF01210720FEF7C8FFFC
:103B100021210720FEF7C4FF23210720FEF7C0FF65
:103B200033210720FEF7BCFF40F233110720FEF7D8
:103B3000B7FF01209F4908604FF6FF70FFF79EF81E
:103B400010BD2DE9F05F04460D4616461F46DDF810
:103B500028804FF0000B781B401C1FFA80FBA14609
:103B600020E02946484601F0E7FAFEF7DEFF4FF075
:103B7000000A11E04FF480708F49086140004861ED
:103B80008E48C0F80C8C8020486108618000086174
:103B90000AF101001FFA80FADA45EBDB09F10100B6
:103BA0001FFA80F9B145DCDDBDE8F09F2DE9FF4F3C
:103BB00085B004460D461646002004900390A6EBFF
:103BC00004080898A0EB0509A3460095B8F1000F7A
:103BD00002DD012001900AE0B8F1000F02D10020BF
:103BE000019004E04FF0FF300190C8F10008B9F1F6
:103BF000000F02DD4FF0010A09E0B9F1000F02D118
:103C00004FF0000A03E04FF0FF3AC9F10009C84540
:103C100002DDCDF8088001E0CDF80890002722E011
:103C2000009881B21FFA8BF0FFF70DF8049840441A
:103C3000049003984844039002990498884205DD53
:103C400004990298081A049001988344DDE902104F
:103C5000884206DDDDE90210401A039000985044C6
:103C60000090781C87B20298401C8742D8DD09B0CA
:103C7000BDE8F08F2DE9F04104460D4616461F467B
:103C80002B46324629462046FFF790FF3B46224608
:103C900029462046FFF78AFF3B46324639462046F2
:103CA000FFF784FF3B46324629463046FFF77EFF4A
:103CB000BDE8F0812DE9F04704460D461646002781
:103CC000B0460320A0EB460954E0EA1B91B2A4EBF6
:103CD000080290B2FEF7B7FFEA1B91B204EB0802AC
:103CE00090B2FEF7B0FF05EB080291B2E21B90B272
:103CF000FEF7A9FFEA1B91B2A4EB080290B2FEF70F
:103D0000A2FFA5EB080291B2E21B90B2FEF79BFF67
:103D1000EA1991B204EB080290B2FEF794FFA5EB0A
:103D2000080291B2E21990B2FEF78DFF05EB08028E
:103D300091B2E21990B2FEF786FFEA1991B2A4EBB4
:103D4000080290B2FEF77FFF7F1CB9F1000F03DA83
:103D5000B800801D814406E0A7EB080080000A300F
:103D60008144A8F1010805EB080291B2E21990B272
:103D7000FEF769FF4745A8DDBDE8F0872DE9F84F5C
:103D800004460D4616461F46A3460D48008800907F
:103D9000B4F59C7F01DCE82D01DDBDE8F88FA6F1CC
:103DA0002000C6B20A98002844D181463FE00000B6
:103DB00056000020A80122420010014000000140EE
:103DC000520000200C2F07D106EB46008D4901EB75
:103DD000800010F8098004E08B4800EB061010F812
:103DE00009804FF0000A16E018F0010F03D0874950
:103DF0000098088003E086480088844908802946A6
:103E00002046FEF720FF4FEA6808601C84B20AF1E2
:103E1000010000F0FF0A07EBD771BAEB610FE3DB9B
:103E20005C46681C85B209F1010000F0FF09B94544
:103E3000C8DB30E04FF000092BE00C2F07D106EB78
:103E40004600704901EB800010F8098004E06E48DC
:103E500000EB061010F809804FF0000A10E018F08F
:103E6000010F07D005EB090291B204EB0A0290B2F0
:103E7000FEF7E9FE4FEA68080AF1010000F0FF0AC8
:103E800007EBD771BAEB610FE9DB09F1010000F034
:103E9000FF09B945D1DB5D49009808807DE710B581
:103EA0000246012000E050430B00A1F10104E1B201
:103EB000F9D110BD2DE9FF4F81B0044615461E46CD
:103EC0000E9F4FF0000AD0463EE0A6EB0800401ED1
:103ED000C1B20A20FFF7E3FFB5FBF0F00A21B0FB07
:103EE000F1F201FB120000F0FF09BAF1000F16D148
:103EF000701E404513DDB9F1000F0ED10023BB4603
:103F000007EBD771491001FB084188B200933B468B
:103F100020220299FFF732FF12E04FF0010A00233E
:103F2000BB4607EBD771491001FB084188B20093EB
:103F30003B4609F13001CAB20299FFF71FFF00BFEB
:103F400008F1010000F0FF08B045BEDB05B0BDE898
:103F5000F08F2DE9F84F04460D4616461F46DDF852
:103F600028804FF0000923E0A7EB0900401EC1B2F2
:103F70000A20FFF794FFB6FBF0F00A21B0FBF1F244
:103F800001FB120000F0FF0A0B9BC34608EBD8713F
:103F9000491001FB094188B2009343460AF1300100
:103FA000CAB22946FFF7EAFE09F1010000F0FF0955
:103FB000B945D9DBBDE8F88FF8B504460D4616467D
:103FC0001BE0B4F59C7F03DD002405F1100085B2F1
:103FD000E82D06DD0020044605464FF6FF70FEF78B
:103FE0004DFE002300933278102329462046FFF728
:103FF000C5FE04F1080084B2761C30780028E0D1B8
:10400000F8BD000004590008785D00085200002047
:104010005400002010B500F00BF910BD70B5044637
:10402000002600F01CF900BF2546E11704EB1161E2
:104030000912A02202EB4101C8B200F0C1F900F060
:104040004FF9E11704EB11610912A4EB0121C8B289
:1040500000F0B6F900F044F900F001F9A12000F0F9
:10406000AFF900F03DF9002000F0D8F9064600F065
:1040700016F9304670BD70B504460D4600F0EFF8F5
:1040800000BF2646E11704EB11610912A02202EBE2
:104090004101C8B200F094F900F022F9E11704EBF5
:1040A00011610912A4EB0121C8B200F089F900F0F6
:1040B00017F9284600F084F900F012F900F0EFF843
:1040C0000A20FDF714FF70BD2DE9F04105460C46AE
:1040D0001646002709E0FA0024FA02F2D1B2EA19E2
:1040E00090B2FFF7C8FF781CC7B2B742F3DBBDE858
:1040F000F0812DE9F04104460D460027002609E035
:104100003F026119891B491E88B2FFF787FF0744E8
:10411000701CC6B2AE42F3DB3846BDE8F08110B584
:10412000FF20FFF77BFF0446552C01D1002010BD76
:104130005521FF20FFF79FFFFF20FFF76FFF044689
:10414000552C01D10020F2E70120F0E770B50446BC
:104150000D46164608E02046621C94B2FFF75EFF4B
:1041600005F8010B701E86B2002EF4D170BD70B53B
:1041700004460E46154606E031782046FFF77BFFE1
:10418000601C84B2761C2800A5F101018DB2F3D128
:1041900070BD70B504460D462946204600F0EFFA82
:1041A00070BD70B504460D462946204600F0CEFA93
:1041B00070BD70B504460D4600F084FA0B2000F087
:1041C00098F90A20FDF7AEFE002000F092F90A20CF
:1041D000FDF7A8FE002000F08CF90A20FDF7A2FEF2
:1041E000002000F086F90A20FDF79CFE082000F070
:1041F00080F90A20FDF796FE122000F07AF90A20D5
:10420000FDF790FE402000F074F90A20FDF78AFEC9
:10421000002000F06EF90A20FDF784FEE02000F097
:1042200068F90A20FDF77EFE00F071FA70BD00000B
:10423000FA48806940F01000F8498861F848406801
:1042400020F47F20F64948600846406840F44C302E
:1042500048600846C06840F4C050C860704710B558
:10426000EF48406820F47040ED49486008464068D7
:1042700040F4405048600120EA490860EA49C1F82A
:10428000B0010420FDF74EFE0020E649086004203E
:10429000FDF748FE0020E449C1F8B00110BD10B59B
:1042A000DF48406820F47040DD49486008464068B7
:1042B00040F4405048600020DA49091D0860DA499E
:1042C000C1F8AC010420FDF72DFE0120D549091DE0
:1042D0000860D549C1F8AC010420FDF723FE10BDEC
:1042E00010B50024CE48406820F47040CC494860A6
:1042F0000846406840F4004048600120C949086011
:10430000FDF710FE0120C849C1F8B001FDF70AFE13
:1043100007E0601CC4B2FA2C03DDFFF7C0FF0120E8
:1043200010BDC048803800680028F2D1BD49091D81
:104330000860F5E710B50020BA49091D0860B848C3
:10434000406820F47040B64948600846406840F430
:10435000405048600020B449C1F8AC010220FDF78C
:10436000E1FD0120AF49091D08600220FDF7DAFDDB
:104370000020AD49C1F8B00110BD10B50020A94919
:10438000091D0860A648406820F47040A4494860B0
:104390000846406840F4405048600120A249C1F8F6
:1043A000AC010220FDF7BEFD01209E49091D0860F9
:1043B0000220FDF7B7FD00209B49C1F8B00110BDF8
:1043C00070B505469648406820F4704094494860AE
:1043D0000846406840F44050486000209149091D5B
:1043E0000860002417E0E8098E4908606806050E99
:1043F0000220FDF797FD01208B49C1F8B001022092
:10440000FDF790FD00208749091D08600220FDF797
:1044100089FD601CC4B2082CE5DB70BD70B5044694
:1044200000257F48406820F470407D494860084678
:10443000406840F400404860002617E000207949B9
:10444000091D08600220FDF76DFD01207649C1F8C5
:10445000B0016806050E73488038006808B1681C12
:10446000C5B20120FDF75EFD701CC6B2082EE5DB6B
:1044700014B1012C06D102E0FFF77FFF03E0FFF744
:1044800059FF00E000BF00BF284670BD70B5002492
:104490006348406820F470406149486008464068BD
:1044A00040F40040486000251BE000205D49091DE4
:1044B00008606420FDF736FD01205B49C1F8B001BA
:1044C0006006040E57488038006808B1601CC4B20A
:1044D0006420FDF727FD00205249091D0860681C73
:1044E000C5B2082DE1DB4FF4FA70FDF71BFD204645
:1044F00070BD70B504464A48406820F47040484991
:1045000048600846406840F440504860002518E084
:1045100000204449091D08603220FDF703FD04F026
:1045200001004149C1F8AC013220FDF7FBFC6410E9
:1045300001203C49091D08606420FDF7F3FC681C5C
:10454000C5B2082DE4DB4FF4FA70FDF7EBFC70BD4B
:1045500070B504463248406820F4704030494860E5
:104560000846406840F44050486000251BE00020A9
:104570002C49091D08603220FDF7D4FC04F001002D
:104580002949C1F8AC013220FDF7CCFC641064204D
:10459000FDF7C8FC01202349091D08606420FDF7D0
:1045A000C1FC681CC5B2082DE1DB00201D49091DB6
:1045B000086001201C49C1F8AC014FF49670FDF76A
:1045C000B1FC1748406820F470401549486008461F
:1045D000406840F4004048606420FDF7A3FC0120DF
:1045E0001049091D08606420FDF79CFC00200E495D
:1045F000C1F8B0016420FDF795FC70BD70B50546AB
:104600000748406820F47040054948600846406803
:1046100040F440504860002422E0000000100240B6
:1046200000100140AC0122420000224200206749F4
:1046300008603220FDF776FC05F001006449C1F8FE
:10464000AC013220FDF76EFC6D106420FDF76AFCB2
:1046500001205E4908606420FDF764FC601CC4B260
:10466000082CE3DB00205949086001205849C1F8B3
:10467000AC014FF49670FDF755FC5648406820F4A5
:104680007040544948600846406840F40040486023
:104690006420FDF747FC01204C4908600920FDF724
:1046A00026FC6420FDF73EFC00204949C1F8B0011A
:1046B0006420FDF737FC0020444908606420FDF7C2
:1046C00031FC70BD10B54348406820F4704041494A
:1046D00048600846406840F44050486001203B492B
:1046E000091F08603A49C1F8B0012820FDF71AFCFB
:1046F00000203649091F0860C820FDF7F8FB00209C
:104700003349C1F8B0012820FDF70CFC10BD10B5ED
:104710003048406820F470402E49486008464068A0
:1047200040F44050486000202849091F08600120DB
:104730002749C1F8B0011420FDF7D9FB0120234916
:10474000091F08602820FDF7EDFB10BD70B5044679
:104750000E46FFF7B7FFD020FFF7FAFE002506E070
:10476000C5F10701605CFFF7C4FE681CC5B2072DE8
:10477000F6DD6420FDF7D6FBFFF7C9FF70BD70B50D
:1047800004460D46FFF79EFFC020FFF737FFFFF7F7
:104790007DFEE071FFF77AFEA071FFF777FE607192
:1047A000FFF774FE2071FFF771FEE070FFF76EFEF9
:1047B000A070FFF76BFE6070FFF768FE207064204A
:1047C000FDF7B0FBFFF7A3FF70BD0000B001224270
:1047D0000000224200100140704700000FB4054A5B
:1047E000054910B503AB7944029800F0E8FA10BC13
:1047F0005DF814FB4C0000205DDAFFFF0FB40849A0
:104800001CB506AB6A4679440090059800F0D7FACB
:104810000020694600F0E6FA1CBC5DF814FB0000BD
:10482000DB05000070B50446856900683026C106C6
:1048300000D42026C00709D106E0D4E90121304682
:104840009047206A401C20626D1EF6D570BD70B581
:10485000044685690068C00709D006E0D4E9012153
:1048600020209047206A401C20626D1EF6D570BD46
:1048700070B505460C46012A01D101200BE02868DD
:10488000800600D5EA69002000E0401C904202D278
:10489000215C0029F9D1A9692618091AA961296A98
:1048A000014428462962FFF7BDFF04E0D5E9012154
:1048B00014F8010B9047B442F8D32846FFF7C7FF1E
:1048C00070BD00002DE9F041804600261068752972
:1048D000414614A511D0AFF30080002802DA40420F
:1048E00011A508E0D8F800108A0701D50FA502E04D
:1048F000490704D50EA5012601E0AFF3008000248E
:1049000008F1240704E000F017FB30313955641C2E
:104910000028F8D133462A4621464046BDE8F041FA
:1049200000F0F0B9000000002D0000002B00000096
:104930002000000070B504460D4621461068AFF314
:1049400000802168090502D5104A7A4402E00F4A26
:104950007A440E32002104F1240306E000F00F0631
:104960004FEA1010965D5E54491C0028F6D120686D
:104970000023000704D5702D02D009B111320223A3
:104980002046BDE8704000F0BDB900001A1A0000D2
:104990002DE9F05F4FF0000B044689464FF0010A05
:1049A000C0F820B02046E168884700287DD025283F
:1049B00002D0D4E9012185E0464F00267F442046FD
:1049C000E16888472028054607DB312D05D2781994
:1049D00010F8200C08B10643F1E7B00701D526F026
:1049E0000406C4F81CB00027C4F818B02A2D10D152
:1049F000204659F8041B04EB87029161E16888475F
:104A0000012F054628D1E069002830DA26F020067B
:104A10002DE0A5F1300052460A2801461AD2CAB14B
:104A200004EB870092468046816108E0D8F81800C0
:104A300000EB800005EB40003038C8F81800204635
:104A4000E168884705465046A5F130010A2901D2A0
:104A50000028EBD1012F0AD02E2D08D12046E16885
:104A600088477F1C0546022F46F02006BEDBA06962
:104A7000002803DA404246F00106A061F00701D0A9
:104A800026F010068DB1A5F14100192802D8203575
:104A900046F400664A462946204626604E46FBF705
:104AA0005FFB60B1012804D100E010E006F10409C9
:104AB00078E7F61D26F0070000F1080972E7D4E94F
:104AC000012128469047206A401C20626AE7206A3C
:104AD000BDE8F09FD019000070B5064600F00CF953
:104AE0000468054630460A22002100F096F92C6041
:104AF00070BD00F0CBB940EA010370B59B0729D126
:104B00004FF00136042A25D308C810C9121F9D1B77
:104B10009D4315EAC61505D1A342F3D018BA21BAB0
:104B2000401A70BDD8B2E1B2401A50EA0561F8D11E
:104B300098B2A1B2401A50EA0541F2D123F07F4168
:104B400024F07F40081A50EA0521EAD1180EA0EBA4
:104B5000146070BD0AB9002070BD10F8013B11F857
:104B6000014B63B1A3420AD1521E08D010F8013B99
:104B700011F8014B1BB1A34201D1521EEDD1181BFC
:104B800070BD10B5431C04E010F8011B09B9C01A30
:104B900010BD8107F8D14FF0013202C88C1A8C4346
:104BA00014EAC211F9D0C01A0A0601D0C01E10BD05
:104BB0000A0401D0801E10BD0902FCD0401E10BDA9
:104BC000032A40F2318010F0030C00F0158011F838
:104BD000013BBCF1020F624498BF11F801CB00F811
:104BE000013B38BF11F8013BA2F1040298BF00F865
:104BF00001CB38BF00F8013B11F0030300F06A81DC
:104C0000083AC0F0098051F8043B51F804CB40F851
:104C1000043B40F804CBF3E7121D5CBF51F8043BA2
:104C200040F8043BAFF30080D20724BF11F8013BEA
:104C300011F801CB48BF11F8012B24BF00F8013B4C
:104C400000F801CB48BF00F8012B704702F0FF03CA
:104C500043EA032242EA024200F002B84FF00002A7
:104C60000429C0F0128010F0030C00F01B80CCF17E
:104C7000040CBCF1020F18BF00F8012BA8BF20F8EC
:104C8000022BA1EB0C0100F00DB85FEAC17C24BF40
:104C900000F8012B00F8012B48BF00F8012B7047EA
:104CA0004FF0000200B5134694469646203922BFC5
:104CB000A0E80C50A0E80C50B1F12001BFF4F7AF10
:104CC000090728BFA0E80C5048BF0CC05DF804EBF2
:104CD000890028BF40F8042B08BF704748BF20F860
:104CE000022B11F0804F18BF00F8012B704770475E
:104CF00070477047704700000148704770470000D8
:104D0000C80600202DE9F0470D4604469246994614
:104D100000F124080168880604D5E06921F010013B
:104D2000216000E001200027A84200DD471BA169A7
:104D30007A1902EB0900081AA0612068C00602D4A3
:104D40002046FFF76FFD002608E0D4E901211AF89C
:104D500006009047206A401C761C20624E45F4DB1A
:104D60002068C0060AD52046FFF75CFD06E0D4E9BE
:104D7000012130209047206A401C2062381EA7F194
:104D80000107F4DC07E0D4E9012118F80500904799
:104D9000206A401C2062281EA5F10105F3DC204694
:104DA000FFF755FD21680220090600D40120BDE867
:104DB000F087000001694A1C02610878704710B54D
:104DC0000C46194690B0CDE9024200220692044AF0
:104DD0007A44CDE9042001A8FFF7DAFD10B010BD38
:104DE000E1FFFFFF0A6802F8010B0A60704710B587
:104DF000436913B1AFF3008001E0FFF739FD0120F3
:104E000010BD126800F124010A7000224A700122CC
:104E1000EDE711684FF0FF32E9E72DE9F0478046F2
:104E20000F4691460446002614F8015B2DB100F0B0
:104E30008FF80068405DC007F6D12B2D05D02D2DD1
:104E400002D146F4806600E0641E4A463946204698
:104E500000F086F827B13968A14201D1C7F8008077
:104E60004FF00204710508D54042002803DDFFF72A
:104E700043FF0460A007BDE8F0870028FBDAFFF7D6
:104E80003BFF04606FF00040F5E700002DE9F041C2
:104E90000E461546040003D128680DA400B104464F
:104EA0003146204600F0B8F80444207808B90027BD
:104EB0000AE027463146204600F09EF80444207858
:104EC00010B1002004F8010B38462C60BDE8F081D9
:104ED0000000000010B5203AC0F00B80B1E8185077
:104EE000203AA0E81850B1E81850A0E81850BFF4D4
:104EF000F5AF5FEA027C24BFB1E81850A0E8185073
:104F000044BF18C918C0BDE810405FEA827C24BFC6
:104F100051F8043B40F8043B08BF7047D20728BF54
:104F200031F8023B48BF11F8012B28BF20F8023BA3
:104F300048BF00F8012B70474FF00A01B0FBF1F2B7
:104F400002FB11011046704700487047C806002058
:104F500010B500F095F8001D10BD000025020000FE
:104F60002DE9F05F824604468B461546641C0027F7
:104F7000B9460078302811D114F8010B01277828A0
:104F800001D0582807D10DB1102D09D1002714F8F0
:104F9000010B102504E01DB9082501E005B90A251B
:104FA0000026B0460EE005FB080005FB06F10127D0
:104FB0001FFA80F801EB1046B6F5803F00D3B946E2
:104FC00014F8010B294600F061F80028EBDABBF178
:104FD000000F04D0641E07B95446CBF80040B9F165
:104FE000000F06D0FFF788FE02210160C81EBDE851
:104FF000F09F48EA0640FAE730B503461D781DB138
:105000000A4603E0AC4201D1181A30BD12F8014B38
:10501000002CF7D15B1CF1E730B503461D781DB1BC
:105020000A4612F8014B0CB9181A30BDAC42F8D13F
:105030005B1CF3E77546FFF787FFAE460500694640
:10504000534620F00700854618B020B5FBF7BEF8A0
:10505000BDE820404FF000064FF000074FF0000879
:105060004FF0000B21F00701AC46ACE8C009ACE8FA
:10507000C009ACE8C009ACE8C0098D467047000023
:105080000148704770470000E80600203A2800D227
:10509000303820F02002412A01D3A2F137004FF02E
:1050A000FF32884200D20246104670470446AFF3F2
:1050B00000802046FBF777F84FF0013C50F8042BB6
:1050C00051F8043B9A4221D1A2EB0C03934313EA1B
:1050D000CC1317D150F8042B51F8043B9A4215D148
:1050E000A2EB0C03934313EACC130BD150F8042B1F
:1050F00051F8043B9A4209D1A2EB0C03934313EA03
:10510000CC13DBD04FF0000070470000D01A01BA7A
:10511000B1FA81F101F0180122FA01F0CB40C1F19E
:105120002001DBB2C0B2C01A2CFA01F3D11A9143AC
:1051300011EAC311E6D1704730B504460D460F4859
:105140000088A0F5094189390BD129464E20FDF789
:10515000A7FC40F23F10001B81B24F20FDF7A0FCDE
:105160000AE029462020FDF79BFC40F23F10001B7F
:1051700081B22120FDF794FC30BD000056000020D4
:1051800010B500290AD00878002807D005487844CF
:10519000FFF792FF002801D0002010BD024878449C
:1051A00010BD0000361200002E12000090EA010F20
:1051B00048BF81F0004100F17C82421A3CBF801A56
:1051C00089184FEAD0524FF07F4C1CEA410FA2EBF6
:1051D000D15318BF9CEA026F00F040804FF0004CA2
:1051E0004CEA00204CEA012121FA03FC10EB0C0CE4
:1051F00023D202F1FF325FEA1C2040EBC25038BFDD
:1052000070471CF07F0F4FEA400C18BFBCF17F4F76
:1052100038BF7047C3F12003994008BF20F0010058
:10522000BCF17F4F38BF7047A0F1C0404FF0FF0185
:1052300041EAD0514FEAC15070474FEA3C00000AA2
:1052400040EBC25028BF1CF0FF0F4FEA400CE1D0EA
:1052500018BFBCF17F4F38BF7047E5E79CEA026F8B
:1052600005D010EA5C0F08BF00F000407047BCEBAF
:10527000410F4FEA400228BF9445DFF828C0C0F034
:105280001580AFF30080B2EB410F05D012F1807FA3
:1052900008BF70470846704790EA010F58BF704733
:1052A00001487047010000040000C07F014800F081
:1052B000CEBA00000000C07F014800F0C8BA00006C
:1052C0000000C07F4FF47F0C1CEAD0121EBF1CEA06
:1052D000D11392EA0C0F93EA0C0F00F0A58090EA2C
:1052E000010F48BF42F4807240F4000C41F400000A
:1052F0002CF07F4120F07F4000B58142A2EB0302F9
:105300000FF2401CACEB504EC0F100009EF800E0E4
:105310004FEA4E0E00FB0EFC38BF49004FEA2C1C32
:1053200002F5FA020CFB0EF34FEACE1E4FEA112CE7
:105330004FEAC1210EEB635E0EFB0CFC4FEA1C53DF
:1053400000FB03114FEA112C4FEA01310EFB0CFC5C
:1053500002F4807E42EB22424FEADC4C00FB0C114F
:10536000C14228BF09184CEB0333012924BF4EF07A
:10537000020E4EF0804E10EB410F24BF4EF0010E96
:105380004EF0804E08BF4EF0040E4EF008015DF85E
:1053900004EB43EBC25018BFB2F57C0F38BF704727
:1053A00041EAC07108BF20F00100B2F57C0F38BFA0
:1053B000704729D512F0F00F1CBF00F1C04000F07B
:1053C00000407047008182838485868788898B8C22
:1053D0008D8E8F919293959697999A9C9D9FA0A25E
:1053E000A3A5A7A8AAACAEB0B2B3B5B7B9BCBEC0AE
:1053F000C2C5C7C9CCCED1D4D7D9DCDFE2E6E9EC4F
:10540000F0F3F7FAFE0000004FEA400C0CF1807C4C
:10541000BCF17E4F28BF7047B0F1C0404FF07F40D5
:105420004CBF40104008704790EA010F0CEAD113BE
:1054300048BF42F48072624538BF634507D213F417
:105440007F0F23D080EA010000F0004070474FF04A
:10545000807C1CEB400F98BF1CEB410FDFF840C075
:105460003FF624AFAFF300804FF0807C1CEB400F81
:1054700002BF1CEB410F0B4870471CEB410F0CBFE8
:10548000002020F0004040EAC250704712F47F0F25
:1054900004BF0448704742F0FF004FEAC050704715
:1054A000040000040000C07FC2154FEA002318BFAB
:1054B00043F0004305D4D2F19E020AD323FA02F04E
:1054C00070474FEA4001B1F1FE4F02D24FF00000A9
:1054D0007047DFF828C04FEA4001B1F17F4F88BF25
:1054E0004CF4803C3FF6E8AE1CBF6FEAE0707047BA
:1054F000AFF300806FEAE0707047000068000204BC
:1055000010F0004218BF404242F08042B0FA80F1F1
:105510008840A2EBC15202F1786208BF7047410691
:1055200042EB202018BF5FF0806C28BF20F0010004
:1055300070474FF08042FFF7E9BF00004FF47F0C47
:105540001CEAD0121EBF1CEAD11392EA0C0F93EA98
:105550000C0F00F04A8090EA010F48BF42F48072BD
:105560004FF0004C4CEA00204CEA01211A44A0FB09
:1055700001C3A2F50002BCF1000F18BF43F0010304
:1055800002F4807CB3F1004F38BF5B0042EB224253
:10559000180A40EBC25028BF13F07F0F18BFB2F5B6
:1055A0007C0F38BF704708BF20F00100B2F57C0FB8
:1055B00038BF70470BD582F0FF0212F5803FC8BF9D
:1055C000704700F1C040D8BF00F00040704700F5C0
:1055D000000C5FEA4C0C48BF7047B0F1C0404FF080
:1055E0007F404CBF40104008704790EA010F0CEA22
:1055F000D11348BF42F48072624538BF634504D27C
:1056000080EA010000F0004070474FF0807C1CEB06
:10561000400F98BF1CEB410F4FF0030C4CF0806C17
:105620003FF644AEAFF3008012F47F0F1FBF13F4B8
:105630007F0F42F0FF02D00570470148704700001D
:105640000000C07F10B412F47F0F4FEA00204FEA31
:10565000012110D1B0FA80F400FA04F0A2EB044268
:1056600013F47F0F02F5803218BF41F0004100D0E3
:1056700010BC18BF604740F00040B1FA81F401FA55
:1056800004F1A3EB044310BC03F58033604780F0C2
:10569000004090EA010F7FF590AD81F0004100F0ED
:1056A00008B8000090EA010F48BF81F000413FF5C3
:1056B00084AD421A3EBF82F00042801A89184FEA38
:1056C000D0524FF07F4C1CEA410FA2EBD15318BFD0
:1056D0009CEA026F4FD04FF0004C4CEA00204CEA9D
:1056E000012121FA03FCB0EB0C0C0FD412F0FE0FD9
:1056F00018BF5FEA4C001DD5001240EBC25038BF06
:1057000070471CF03F0F18BF70470BE0A2F1010279
:105710005FEA1C2040EBC25038BF70471CF07F0F7F
:1057200018BF7047C3F12003994014BF401E20F0FA
:10573000010070474FEA122316D0004204BF002038
:1057400070474FEA9000B0FA80FCA2EB0C02CCF15B
:10575000280C60FA0CF093EA122F04BF00EBC25041
:1057600070474FEAC37070475FEADC1008BF7047AC
:105770004FEAC37070479CEA026F04D010EA5C0FD6
:1057800008BF00207047BCEB410F4FEA400228BF22
:105790009445DFF82CC0FFF489ADAFF30080B2EB85
:1057A000410F06D012F1807F08BF704781F00040A2
:1057B000704790EA010F48BF7047024870470000E9
:1057C000020000040000C07F00F0004343EAD05311
:1057D00023F48073C3F1C10323F0004117291FD8BC
:1057E000C3F1200310FA03F1C3F1200320F07F403E
:1057F00040F4000020FA03F003F0004340EA030005
:105800000DD00B46590009D318BF401C06D17FEAC2
:10581000E27398BF401C38BF20F00100704770470A
:10582000182903EB912318BF6FF00041013168BFC5
:1058300003F0004009D6400203F0004000F10100EF
:1058400004BF12F0004F20F00100704770470CF0C9
:105850000F03092B08BF082000F02B800A2B0BD068
:10586000082B18BF704708BF1CF0400F0AD04FF03C
:1058700000004FF0000170471CF0400F18BF4FF0C0
:10588000004070471CF0100F08D020F0704300F06B
:105890007F4242EAD3014FEA4370704700F0604014
:1058A00021F07F4242EA000201F07F4040EA72703C
:1058B00070471CF4801F11D01CF4E02F03D06FEA56
:1058C000CC31490070474FF04050EFF3008222F096
:1058D000704242EA000282F3008870474FF00000F5
:1058E00070473031323334353637383941424344EA
:1058F000454600303132333435363738394142434A
:1059000044454600000000000000000000000000C8
:1059100000000404040404040004000000140A0A43
:105920000000000000000000000014143F140A3FB3
:105930000A0A000000041E1505060C14150F0400C9
:10594000000012150D0A142C2A1200000000040A8F
:105950000A1E1515093600000002020100000000B1
:1059600000000000002010080808080808102000A7
:1059700000020408080808080804020000000004E7
:10598000150E0E150400000000000404041F04049A
:1059900004000000000000000000000000020201FE
:1059A00000000000001F00000000000000000000D8
:1059B00000000000000200000010080808040402B3
:1059C0000202010000000E1111111111110E000050
:1059D0000000040604040404040E000000000E117C
:1059E00011080402011F000000000E11100C10101D
:1059F000110E00000000080C0A0A091E0818000019
:105A000000001F01010F1010110E000000000E0910
:105A1000010F1111110E000000001F0908040404F9
:105A20000404000000000E11110E1111110E0000EF
:105A300000000E1111111E10120E000000000000D7
:105A4000040000000004000000000000000400004A
:105A500000040400002010080402040810200000C4
:105A6000000000001F00001F0000000000020408EA
:105A7000102010080402000000000E111108040498
:105A80000004000000000E111915151D011E000074
:105A9000000004040C0A0A1E1233000000000F125A
:105AA000120E1212120F000000001E11010101015E
:105AB000110E000000000F1212121212120F00003D
:105AC00000001F120A0E0A02121F000000001F121F
:105AD0000A0E0A020207000000001C12010139111F
