:020000040800F2
:10000000A804002095010008990100089B01000840
:100010009D0100089F010008A101000800000000E8
:10002000000000000000000000000000A301000824
:10003000A501000800000000A7010008A9010008B0
:100040006F090008AB010008AB0100085524000847
:10005000AB010008AB01000803250008452E00088D
:10006000AB010008AB010008AB010008AB010008C0
:10007000AB010008AB010008AB010008AB010008B0
:10008000AB010008AB010008AB010008AB010008A0
:10009000AB010008AB010008AB010008AB01000890
:1000A000AB010008AB010008AB010008AB01000880
:1000B000AB010008C9090008AB010008AB0100084A
:1000C000AB010008AB010008AB010008AB01000860
:1000D000AB010008AB010008AB010008AB01000850
:1000E000AB010008AB010008AB01000800F002F80A
:1000F00000F041F80AA090E8000C82448344AAF181
:100100000107DA4501D100F036F8AFF2090EBAE87E
:100110000F0013F0010F18BFFB1A43F0010318473B
:10012000C4550000E4550000103A24BF78C878C1D7
:10013000FAD8520724BF30C830C144BF04680C60ED
:10014000704700000023002400250026103A28BF35
:1001500078C1FBD8520728BF30C148BF0B60704739
:10016000782903F07586002070471FB5AFF3008033
:100170001FBD10B510BD03F021FF1146FFF7F5FFBD
:1001800000F022F803F03FFFFFF7F3FF00F0DEFA84
:1001900030BF000008480047FEE7FEE7FEE7FEE745
:1001A000FEE7FEE7FEE7FEE7FEE7FEE70348044959
:1001B000024A044B70470000ED000008A80200202E
:1001C000A8040020A802002038B50025092000F06E
:1001D00063FA482000F0FAF84FF41651482000F076
:1001E000C3FA00F09AFD00F027FB4FF478403E4937
:1001F00008803EA232213C2001F05AFE3EA2462158
:100200003C2001F055FE40A25A213C2001F050FE56
:1002100041A26E213C2001F04BFE19E041A2822157
:100220003C2001F045FE4FF4FA7000F0E6F841A2E0
:1002300082213C2001F03CFE4FF4FA7000F0DDF822
:100240004148006808B9012000E000203E490860EC
:1002500003F018FA0028E1D13CA282213C2001F0F1
:1002600027FE3FA296213C2001F022FE03F04CFB2A
:1002700004461023220D009304239621A42001F0AC
:1002800086FD30E01E2D21D13A49002003F098FB75
:1002900000281AD138A2AA213C2001F009FE3CA076
:1002A00003F08EFD002405E03248015D3CA003F020
:1002B00087FD641CB4F5007FF6D33AA003F080FDFF
:1002C0003CA2AA213C2001F0F3FD0025681CC5B228
:1002D000C82000F092F81C48006808B9012000E02E
:1002E000002019490860CDE70A0000204D696E69B9
:1002F0002053544D33320000534420436172642034
:10030000544553540000000041544F4D40414C4966
:10031000454E54454B000000323031312F312F31E2
:100320000000000053442043617264204661696C00
:1003300065642100506C6561736520436865636B7B
:100340002120202020202000A001214253442043CE
:1003500061726420436865636B6564204F4B2000C5
:10036000534420436172642053697A653A20202007
:10037000204D62002000002055534152543120533B
:10038000656E64696E6720446174612E2E2E0000D4
:10039000534543544F52203020444154413A0A00BF
:1003A000257820000A4441544120454E4445440AE2
:1003B000000000005553415254312053656E6420B3
:1003C00044617461204F7665722100004FF0E02196
:1003D000096921F004014FF0E02211610146C217C2
:1003E00000EB5272D2101F4B1A70194609784FF465
:1003F0007A7251439A1C118070471A4A921C1288D3
:1004000042434FF0E0235A6100229A6101221A61AF
:1004100000BF4FF0E022116911F0010F02D011F47A
:10042000803FF6D000224FF0E0231A619A617047B6
:100430000C4A127842434FF0E0235A6100229A613D
:1004400001221A6100BF4FF0E022116911F0010F83
:1004500002D011F4803FF6D000224FF0E0231A6161
:100460009A61704700000020AC4A0A400243AC4B3E
:100470001A607047072323EA00021202A84B1B1DD3
:1004800019684FF6FF031940A64B194311434FF06B
:10049000E023C3F80C1D70472DE9F04704460D46D4
:1004A00016461F463046F11706EB91714FEAA10937
:1004B000F11706EB91718910A6EB810101F0FF0A9B
:1004C000042101EBCA0000F0FF0A3846FFF7D2FF13
:1004D000C7F1040004FA00F80F203841284040EA30
:1004E000080808F00F08202E09DA8F48006801215B
:1004F000B14008434FF0E021C1F800010BE08A4809
:10050000001D0168A6F120020120904001434FF038
:10051000E020C0F80411854850F8290008FA0AF1D3
:100520000143824840F82910BDE8F08770B50D46B8
:10053000CE1701EB9676B310CE1701EB9676B61078
:10054000A1EB8606B606340E794DAD6945F001057E
:10055000774EB5614FEAB63555F823600F25A540B3
:10056000AE43744D45F8236055F8235000FA04F665
:100570003543704E46F823506F4D2E6801258D404F
:100580002E436C4D083DC5F8006412F0010F09D0F0
:10059000694D0C352E6801258D402E43654D083D73
:1005A000C5F80C6412F0020F09D0634D08352E68AF
:1005B00001258D402E435F4D083DC5F8086470BD90
:1005C00000B500205A490861C86014204861002025
:1005D0008861C8610846006840F00100086008466C
:1005E00040685649084052494860084600685449E6
:1005F00008404F4908600846006820F480200860E1
:100600000846406820F4FE00486000208860002111
:100610004FF00060FFF728FF00BD10B540480830DC
:10062000006840F004004FF0E021C1F8100D404890
:10063000C06940F080503E49C8614248406840F47B
:100640008070404948600846006840F00400086037
:100650000846006840F002000860FFF799FD10BDF1
:100660003048001D2E49091D0860704701460846A4
:1006700049062F4A926942F001022D4B9A612D4A98
:10068000083A526822F0E0622A4B083B5A601A4648
:1006900052680A435A60704730B504460025FFF798
:1006A0008FFF2348006840F480302149086000BF74
:1006B0001F480068400CFBD04FF480601C49486024
:1006C000A01EC4B20846406840EA8440486008461C
:1006D000406840F4803048601B48006840F03200B9
:1006E000194908601248006840F08070104908609D
:1006F00000BF0F480068400EFBD00D48406840F036
:1007000002000B49486005E009484068C0F38705CE
:1007100005F00305022DF7D130BD000080FFFF1F5B
:1007200008ED00E00000FA0500E100E000E400E070
:100730000010024008000140000401400000FFF8E2
:10074000FFFFF6FE0070004000200240014600BF9F
:10075000704700BF324A128812F0400FFAD0C2B27E
:100760002F4B1B1D1A8070472DE9F05F04460D4684
:10077000280104F07AF881462A4904FB01F004F0CC
:1007800074F88246494603F001FF0646304604F0FD
:1007900027F887B2384604F068F88346314604F0FB
:1007A00012F982464FF0834104F064F8814604F068
:1007B00017F880463F0107EB080087B21A488069A6
:1007C00040F00400184988610846806940F4804080
:1007D00088611648006820F47F601549C1F8040854
:1007E0000846D0F8040840F40B60C1F804080E482D
:1007F000C06840F480400C49C8600846C06820F4D6
:100800008040C8600B48A0F8087805480C30008884
:1008100042F20C01084302490C310880BDE8F09F08
:100820000038014040420F0000100240040801401F
:1008300000000140003001401B48806940F0040086
:10084000194988610846806940F02000886117488E
:10085000006820F00F001649C1F804080846D0F8D7
:10086000040840F00300C1F804080846D0F80C085A
:1008700040F48070C1F80C080E48D0F8000420F451
:1008800070600C49C1F800040846D0F8000440F438
:100890004070C1F800040846D0F80C0440F0040091
:1008A000C1F80C0470470000001002400408014029
:1008B000000001400010014045F255523B4B1A60C8
:1008C0001A46506091604AF6AA221A604CF6CC4251
:1008D0001A6070474AF6AA2034490860704770B51C
:1008E00004460D4616463248C06940F4006030495F
:1008F000C8613049097804EA01002E4908702E4881
:10090000006840EAC6102D49C1F8040C0846D0F82A
:10091000040C40F40070C1F8040C274800684FF63E
:10092000807108402549C1F8040C0846D0F8040C31
:100930002843C1F8040C2048001F00681D490978AD
:1009400041F0800108431D49C1F8000C0223002238
:1009500003211846FFF7A0FD70BD1749091F09685C
:1009600000F07F021143154AC2F8001C704710B511
:100970001148006800F07F031048D0F8000C00F028
:100980007F049C4203DA0B480078FFF7E6FF002063
:100990000949091D08600A48D0F8880108B90120F2
:1009A00000E000200749086010BD00000030004052
:1009B0000010024008000020042C004000200040ED
:1009C00000802242888122424848008810F0010FAE
:1009D00007D04748006808B9012000E000204449DA
:1009E00008604248008820F001004FF08041A1F8E3
:1009F0001004704770B504460D463E48C06940F08B
:100A000002003C49C86139481C3004808804A0F8C1
:100A10002854B0F80C0440F001008904A1F80C043B
:100A20000846B0F80C0440F04000A1F80C04084659
:100A3000B0F8000440F00100A1F8000402231D22D8
:100A400003210120FFF728FD70BD2A4AD26942F038
:100A50000202284BDA61284A126822F00F02274B63
:100A6000C3F804281A46D2F8042842F00402C3F856
:100A700004281A46D2F8002822F07042C3F8002851
:100A80001A46D2F8002842F03042C3F800281A462D
:100A9000D2F80C2842F08002C3F80C289A03A2F87E
:100AA0002C04A2F82814B2F8182442F4E0429B0364
:100AB000A3F818241A46B2F8182442F40062A3F8E6
:100AC00018241A46B2F8202442F01002074B1033C3
:100AD0001A80DA13D303A3F80024D203B2F8002457
:100AE00042F00102014B103B1A8070471004004095
:100AF00088812242001002400408014000000140A9
:100B00004FF48071FF4A516149005161FE4908600C
:100B100080215161116189001161704710B504464F
:100B20000B462046FFF7ECFF4FF48070F549086153
:100B300040004861F44803608020486108618000FB
:100B4000086110BD70B504462046FFF7D9FF4FF08D
:100B50008830ED490C390860EC49C1F8040C4FF6B7
:100B6000FF70E94908608815E6490861400048615E
:100B7000402048610520FFF75BFC4020E149086107
:100B8000E248D0F8080C85B2481508614FF03330C0
:100B9000DD490C390860091D08604FF6FF70DA491D
:100BA0000860284670BD00B52220FFF7A9FF00BDF0
:100BB0004FF48071D34A116149005161D2490860F4
:100BC00080215161116189001161704730B5014682
:100BD00001F01F04C1F34513CA0AE50205EB4315F2
:100BE0001544A8B230BD70B504460D46F02C02DAAB
:100BF000B5F5A07F01DB002070BD2946204603F03B
:100C000009FA2220FFF77CFF4FF08830BE490C39EB
:100C10000860BE49C1F8040C4FF6FF70BA4908607D
:100C20008815B84908614000486140204861086162
:100C30000220FFF7FDFB4020B24948610220FFF788
:100C4000F7FB4020AF490861B048D0F8080C86B2E5
:100C5000481508614FF03330AB490C390860091D65
:100C600008604FF6FF70A949C1F80C0CA84800882D
:100C7000A0F58A41313905D0A5480088A0F5094181
:100C8000893901D13046B7E73046FFF79FFFB3E718
:100C900000B540F273110720FFF740FF00BD00B51B
:100CA00000210720FFF73AFF00BD70B504460D464E
:100CB0002946204603F0AEF92220FFF721FF4FF42A
:100CC00080709049086140004861924800888E49D0
:100CD000086080208B49486108618000086170BD10
:100CE00070B5054600240021084603F093F9FFF78C
:100CF0005AFF00BF0DE04FF4807082490861400048
:100D00004861814805608020486108618000086171
:100D1000641CB4F5963FEED370BD10B57E48806973
:100D200040F008007C4988610846806940F0100066
:100D300088610846806940F0010088610120FFF762
:100D400095FC704840686FF30B006E494860084698
:100D5000406840F2333108436A49486008460068F9
:100D600020F07F4008600846006840F04C50086062
:100D70000846C06840F4F860C8604FF033306249FC
:100D8000083908606149C1F8000C4FF6FF705E49F0
:100D900008603220FFF731FB01210020FFF7BEFE83
:100DA0003220FFF72AFB0020FFF7CCFE58490880CD
:100DB0000846018859A003F003F855480088A0F5BB
:100DC0001341253905D052480088A0F51341283930
:100DD0007ED11021E720FFF7A1FE01210020FFF7BF
:100DE0009DFE4FF480710120FFF798FE4FF4E06103
:100DF0000220FFF793FE41F230010320FFF78EFE41
:100E000000210420FFF78AFE40F207210820FFF7A7
:100E100085FE00210920FFF781FE00210A20FFF74F
:100E20007DFE01210C20FFF779FE00210D20FFF748
:100E300075FE00210F20FFF771FE00211020FFF743
:100E40006DFE07211120FFF769FE00211220FFF738
:100E500065FE00211320FFF761FE3220FFF7CDFA77
:100E600041F290511020FFF759FE40F22721112046
:100E7000FFF754FE3220FFF7C0FA9C211220FFF743
:100E80004DFE3220FFF7B9FA4FF4C8511320FFF797
:100E900045FE23212920FFF741FE0E212B20FFF7DD
:100EA0003DFE3220FFF7A9FA00212020FFF736FE91
:100EB00040F23F112120FFF731FE3220FFF79DFA6B
:100EC00007213020FFF72AFE40F20771312000E0B1
:100ED00099E0FFF723FE06213220FFF71FFE40F2C4
:100EE00004713520FFF71AFE41F604713620FFF732
:100EF00015FE04213720FFF711FE00213820FFF7EF
:100F00000DFE11E0001001400C0C014000000140FA
:100F10000E0000200A00002000100240204C434434
:100F20002049443A25780A0040F206713920FFF73B
:100F3000F5FD40F201713C20FFF7F0FD0F213D204F
:100F4000FFF7ECFD3220FFF758FA00215020FFF7A1
:100F5000E5FDEF215120FFF7E1FD00215220FFF7D1
:100F6000DDFD40F23F115320FFF7D8FD4FF427413C
:100F70006020FFF7D3FD01216120FFF7CFFD0021A5
:100F80006A20FFF7CBFD00218020FFF7C7FD00217D
:100F90008120FFF7C3FD00218220FFF7BFFD002164
:100FA0008320FFF7BBFD00218420FFF7B7FD002160
:100FB0008520FFF7B3FD10219020FFF7AFFD002142
:100FC0009220FFF7ABFD03219320FFF7A7FD4FF41D
:100FD00088719520FFF7A2FD00219720FFF79EFD65
:100FE00000219820FFF79AFD40F233110720FFF708
:100FF00095FD00212020FFF791FD40F23F112120B7
:10100000FFF78CFD7EE2FF480088A0F513412039F0
:1010100004D0FC480088B0F5134F7ED1002108466B
:10102000FFF77CFD4FF480710120FFF777FD4FF44F
:10103000E0610220FFF772FD41F230010320FFF76B
:101040006DFD00210420FFF769FD40F20221082018
:10105000FFF764FD00210920FFF760FD00210A2051
:10106000FFF75CFD01210C20FFF758FD00210D204A
:10107000FFF754FD00210F20FFF750FD3220FFF74E
:10108000BCF940F201110720FFF748FD3220FFF7BD
:10109000B4F94FF486511020FFF740FD07211120CD
:1010A000FFF73CFD4FF488711220FFF737FD4FF436
:1010B00030611320FFF732FD00212920FFF72EFDBC
:1010C00044F210012B20FFF729FD00215020FFF7EB
:1010D00025FDEF215120FFF721FD00215220FFF7D0
:1010E0001DFD40F23F115320FFF718FD4FF41C5136
:1010F0006020FFF713FD01216120FFF70FFD0021A4
:101100006A20FFF70BFD00218020FFF707FD00217B
:101110008120FFF703FD002100E02DE08220FFF792
:10112000FDFC00218320FFF7F9FC00218420FFF75C
:10113000F5FC00218520FFF7F1FC10219020FFF73E
:10114000EDFC00219220FFF7E9FC01219320FFF73D
:10115000E5FC4FF488719520FFF7E0FC0021972013
:10116000FFF7DCFC00219820FFF7D8FC40F2731158
:101170000720FFF7D3FC45E7A2480088A0F5A84167
:1011800008397ED14FF480710120FFF7C7FC4FF47E
:10119000E0610220FFF7C2FC41F230010320FFF7BB
:1011A000BDFC00210420FFF7B9FC40F20721082014
:1011B000FFF7B4FC00210920FFF7B0FC00210A2052
:1011C000FFF7ACFC00210C20FFF7A8FC00210D204C
:1011D000FFF7A4FC00210F20FFF7A0FC1420FFF76D
:1011E0000CF941F2B0611020FFF798FC01211120A9
:1011F000FFF794FC01211720FFF790FC4FF49C713E
:101200001220FFF78BFC4FF400611320FFF786FCE0
:1012100009212920FFF782FC09212A20FFF77EFC03
:101220000021A420FFF77AFC00215020FFF776FC74
:10123000EF215120FFF772FC00215220FFF76EFCD6
:1012400040F23F115320FFF769FC4FF41C5160201E
:10125000FFF764FC01216120FFF760FC00216A2098
:10126000FFF75CFC00218020FFF758FC0021812063
:10127000FFF754FC00218220FFF750FC002183205F
:1012800000E023E0FFF74AFC00218420FFF746FC42
:1012900000218520FFF742FC13219020FFF73EFC40
:1012A00000219220FFF73AFC03219320FFF736FC40
:1012B0004FF488719520FFF731FC40F2731107203D
:1012C000FFF72CFC3220FFF798F8AAE34D4800887E
:1012D000A0F5A85105397ED10720FFF71FFC322069
:1012E000FFF78BF84FF48E711220FFF717FC0121E6
:1012F000A420FFF713FC0F210820FFF70FFC0821A3
:101300000A20FFF70BFC08210D20FFF707FC40F235
:1013100007713020FFF702FC07213120FFF7FEFBA9
:1013200040F203613220FFF7F9FB4FF4E061332014
:10133000FFF7F4FB40F202213420FFF7EFFB02211C
:101340003520FFF7EBFB41F60F713620FFF7E6FB88
:1013500040F207713720FFF7E1FB00213820FFF74B
:10136000DDFB00213920FFF7D9FB40F207713A205D
:10137000FFF7D4FB00213B20FFF7D0FB07213C20E7
:10138000FFF7CCFB00213D20FFF7C8FB3220FFF721
:1013900034F801210720FFF7C1FB01211720FFF7D7
:1013A000BDFB3220FFF729F84FF4BD511020FFF7A5
:1013B000B5FB40F217211120FFF7B0FB4FF48F71FE
:1013C0001220FFF7ABFB4FF470611320FFF7A6FB71
:1013D00000212A2000E096E0FFF7A0FB0A21292047
:1013E000FFF79CFB4FF49F711220FFF797FB002142
:1013F0005020FFF793FBEF215120FFF78FFB0021D7
:10140000522001E00E000020FFF788FB40F23F1160
:101410005320FFF783FB4FF41C516020FFF77EFB46
:1014200001216120FFF77AFB00216A20FFF776FB9C
:1014300000218020FFF772FB00218120FFF76EFB67
:1014400000218220FFF76AFB00218320FFF766FB63
:1014500000218420FFF762FB00218520FFF75EFB5F
:1014600013219020FFF75AFB4FF440719220FFF7B1
:1014700055FB05219320FFF751FB00219520FFF735
:101480004DFB00219720FFF749FB00219820FFF733
:1014900045FB4FF480710120FFF740FB4FF4E06102
:1014A0000220FFF73BFB41F230010320FFF736FB40
:1014B00000210420FFF732FB00210C20FFF72EFB58
:1014C00000210F20FFF72AFB00212020FFF726FB39
:1014D00000212120FFF722FB21210720FFF71EFB1F
:1014E0001420FEF78AFF61210720FFF717FB142065
:1014F000FEF783FF40F273110720FFF70FFB142064
:10150000FEF77BFF8DE2FF480088A0F535410539E5
:101510007DD10846FFF702FB00210846FFF7FEFADF
:1015200000210846FFF7FAFA00210846FFF7F6FA0D
:101530000121A420FFF7F2FA1420FEF75EFF4FF41A
:101540001C516020FFF7EAFA40F202210820FFF761
:10155000E5FA4FF405713020FFF7E0FA43F2157118
:101560003120FFF7DBFA40F204613220FFF7D6FAB0
:1015700040F616613320FFF7D1FA42F211213420F0
:10158000FFF7CCFA4FF4A8513520FFF7C7FA48F21D
:1015900007513620FFF7C2FA41F207413720FFF723
:1015A000BDFA41F203413820FFF7B8FA2021392073
:1015B000FFF7B4FA1A219020FFF7B0FA00211020AB
:1015C000FFF7ACFA07211120FFF7A8FA002112203B
:1015D000FFF7A4FA00211320FFF7A0FA1420FEF76A
:1015E0000CFF4FF4E6611020FFF798FA40F2371134
:1015F0001120FFF793FA1420FEF7FFFE4FF4DC7181
:101600001220FFF78BFA1420FEF7F7FE00E083E0CC
:101610004FF470611320FFF781FA80212A20FFF731
:101620007DFA48212920FFF779FA1420FEF7E5FE1C
:101630004FF480710120FFF771FA4FF4E06102204E
:10164000FFF76CFA41F230210320FFF767FA40F20E
:1016500002210820FFF762FA00210A20FFF75EFA54
:1016600000210C20FFF75AFA00210D20FFF756FA4F
:1016700030210E20FFF752FA00215020FFF74EFADA
:10168000EF215120FFF74AFA00215220FFF746FAD6
:1016900040F23F115320FFF741FA4FF41C516020F4
:1016A000FFF73CFA01216120FFF738FA00216A2098
:1016B000FFF734FA11219020FFF730FA4FF4C061A0
:1016C0009220FFF72BFA40F202419320FFF726FA0F
:1016D00002219420FFF722FA1420FEF78EFE01214A
:1016E0000720FFF71BFA1420FEF787FE6121072071
:1016F000FFF714FA40F273110720FFF70FFA0021E9
:101700002020FFF70BFA00212120FFF707FA222102
:101710000020FFF703FA84E17A480088A0F5094128
:1017200089397DD101210020FFF7F8F94AF6A4019B
:101730000320FFF7F3F900210C20FFF7EFF940F643
:101740000C010D20FFF7EAF94FF42C510E20FFF7A2
:10175000E5F9B0211E20FFF7E1F942F63F31012003
:10176000FFF7DCF94FF4C0610220FFF7D7F9002141
:101770001020FFF7D3F946F270011120FFF7CEF9E0
:1017800000210520FFF7CAF900210620FFF7C6F95E
:101790004EF61C711620FFF7C1F903211720FFF741
:1017A000BDF940F233210720FFF7B8F900210B20E3
:1017B000FFF7B4F900210F20FFF7B0F90021412015
:1017C000FFF7ACF900214220FFF7A8F900214820DB
:1017D000FFF7A4F940F23F114920FFF79FF90021DC
:1017E0004A20FFF79BF900214B20FFF797F94FF4B0
:1017F0006F414420FFF792F900214520FFF78EF951
:1018000040F23F114620FFF789F940F2077130207E
:10181000FFF784F94FF401713120FFF77FF900E001
:101820003DE04FF401713220FFF778F940F20251A8
:101830003320FFF773F940F207513420FFF76EF9B8
:101840004FF401713520FFF769F94FF4017136202B
:10185000FFF764F940F202513720FFF75FF940F2D9
:1018600002313A20FFF75AF940F202313B20FFF7EC
:1018700055F900212320FFF751F900212420FFF71B
:101880004DF94FF400412520FFF748F900214F2082
:10189000FFF744F900214E20FFF740F9C1E0194855
:1018A0000088A0F58A413139F8D101210020FFF7E5
:1018B00035F90A20FEF7A1FD41F228611020FFF75B
:1018C0002DF90E211220FFF729F940F639211320B6
:1018D000FFF724F90A20FEF790FD40211120FFF7C1
:1018E0001DF950211520FFF719F90A20FEF785FD93
:1018F0001E211220FFF712F90A20FEF77EFD4FF499
:10190000B15101E00E0000201020FFF707F942F668
:1019100039211320FFF702F90A20FEF76EFD4FF47C
:1019200080710120FFF7FAF84FF440710220FFF7B1
:10193000F5F841F230010320FFF7F0F840F2022100
:101940000820FFF7EBF808210A20FFF7E7F800214D
:101950003020FFF7E3F840F202413120FFF7DEF8D4
:101960004FF483713220FFF7D9F840F2035133204E
:10197000FFF7D4F84FF482713420FFF7CFF840F22C
:1019800001313520FFF7CAF840F207713620FFF722
:10199000C5F840F205313720FFF7C0F84FF4027167
:1019A0003820FFF7BBF840F60B713920FFF7B6F887
:1019B00002214120FFF7B2F84FF41C516020FFF7DD
:1019C000ADF801216120FFF7A9F84FF404719020D0
:1019D000FFF7A4F84FF485719220FFF79FF80421D8
:1019E0009320FFF79BF84FF48071A020FFF796F843
:1019F00001210720FFF792F821210720FFF78EF839
:101A000023210720FFF78AF833210720FFF786F804
:101A100040F233110720FFF781F80021A020FFF7E3
:101A20007DF80120FF4908604FF6FF70FFF758F975
:101A300010BD2DE9F05F04460D4616461F46DDF841
:101A400028804FF0000B301B401C1FFA80FBA9467A
:101A500020E04946204602F0DDFAFFF7A4F84FF0F7
:101A6000000A11E04FF48070EF49086140004861BE
:101A7000EE48C0F80C8C8020486108618000086145
:101A80000AF101001FFA80FADA45EBDB09F10100E7
:101A90001FFA80F9B945DCDDBDE8F09F2DE9FF4F65
:101AA00085B004460D461646002004900390A6EB30
:101AB00004080898A0EB0509A3460095B8F1000FAB
:101AC00002DD012001900AE0B8F1000F02D10020F0
:101AD000019004E04FF0FF300190C8F10008B9F127
:101AE000000F02DD4FF0010A09E0B9F1000F02D149
:101AF0004FF0000A03E04FF0FF3AC9F10009C84572
:101B000002DDCDF8088001E0CDF80890002722E042
:101B1000009881B21FFA8BF0FFF7C7F80498404491
:101B2000049003984844039002990498884205DD84
:101B300004990298081A049001988344DDE9021080
:101B4000884206DDDDE90210401A039000985044F7
:101B50000090781C87B20298401C8742D8DD09B0FB
:101B6000BDE8F08F2DE9F04104460D4616461F46AC
:101B70002B46324629462046FFF790FF3B46224639
:101B800029462046FFF78AFF3B4632463946204623
:101B9000FFF784FF3B46324629463046FFF77EFF7B
:101BA000BDE8F0812DE9F04704460D4616460027B2
:101BB000B0460320A0EB460954E0EA1B91B2A4EB27
:101BC000080290B2FFF771F8EA1B91B204EB080229
:101BD00090B2FFF76AF805EB080291B2E21B90B2EF
:101BE000FFF763F8EA1B91B2A4EB080290B2FFF78B
:101BF0005CF8A5EB080291B2E21B90B2FFF755F832
:101C0000EA1991B204EB080290B2FFF74EF8A5EB87
:101C1000080291B2E21990B2FFF747F805EB08020B
:101C200091B2E21990B2FFF740F8EA1991B2A4EB31
:101C3000080290B2FFF739F87F1CB9F1000F03DA00
:101C4000B800801D814406E0A7EB080080000A3040
:101C50008144A8F1010805EB080291B2E21990B2A3
:101C6000FFF723F84745A8DDBDE8F0872DE9F84FD9
:101C700004460D4616461F46A3466D480088009050
:101C8000E82C02DCB5F59C7F01DDBDE8F88FA6F1FC
:101C90002000C6B20A98002839D1814634E00C2FC2
:101CA00007D106EB4600634901EB800010F809807C
:101CB00004E0614800EB061010F809804FF0000ABC
:101CC00016E018F0010F03D059490098088003E08E
:101CD0005A4800885649088029462046FEF7E5FF05
:101CE0004FEA6808601C84B20AF1010000F0FF0AA4
:101CF00007EBD771BAEB610FE3DB5C46681C85B27A
:101D000009F1010000F0FF09B945C8DB30E04FF0F0
:101D100000092BE00C2F07D106EB4600454901EBEB
:101D2000800010F8098004E0434800EB061010F82A
:101D300009804FF0000A10E018F0010F07D005EB02
:101D4000090291B204EB0A0290B2FEF7AEFF4FEA2D
:101D500068080AF1010000F0FF0A07EBD771BAEB3F
:101D6000610FE9DB09F1010000F0FF09B945D1DBA2
:101D70002F490098088088E710B50246012000E04E
:101D800050430B00A1F10104E1B2F9D110BD2DE9DE
:101D9000FF4F81B0044615461E460E9F4FF0000AC5
:101DA000D0463EE0A6EB0800401EC1B20A20FFF775
:101DB000E3FFB5FBF0F00A21B0FBF1F201FB1200EA
:101DC00000F0FF09BAF1000F16D1701E404513DD77
:101DD000B9F1000F0ED10023BB4607EBD7714910B4
:101DE00001FB084188B200933B4620220299FFF78D
:101DF0003DFF12E04FF0010A0023BB4607EBD7710D
:101E0000491001FB084188B200933B4609F13001BB
:101E1000CAB20299FFF72AFF00BF08F1010000F0E3
:101E2000FF080DE0A801224200100140000001401F
:101E30000A0000201A4C00088E5000080C000020F8
:101E4000B045AFDB05B0BDE8F08F2DE9F84F044693
:101E50000D4616461F46DDF828804FF0000923E0A6
:101E6000A7EB0900401EC1B20A20FFF785FFB6FBB1
:101E7000F0F00A21B0FBF1F201FB120000F0FF0AC2
:101E80000B9BC34608EBD871491001FB094188B28E
:101E9000009343460AF13001CAB22946FFF7E6FE35
:101EA00009F1010000F0FF09B945D9DBBDE8F88F61
:101EB000F8B504460D4616461BE0E82C03DD002469
:101EC00005F1100085B2B5F59C7F06DD00200446C3
:101ED00005464FF6FF70FEF703FF002300933278AC
:101EE000102329462046FFF7C1FE04F1080084B202
:101EF000761C30780028E0D1F8BD0000F0B503462C
:101F0000642093FBF0F0C5B2642093FBF0F700FB74
:101F10001730C6B2132D02DD06F16400C6B2F71702
:101F200006EB9777304606EBA704072094FBF0F703
:101F300000FB174084B2A0184F1EDFF86CC41CF8D9
:101F40000770384484B2F71706EB9777BF10B6EBEB
:101F5000870703D1032901DA601E84B2072094FBAE
:101F6000F0F700FB1740C0B2F0BD0146CA1701EB05
:101F700092729210B1EB820212D1642091FBF0F2C6
:101F800000FB121050B94FF4C87091FBF0F200FB47
:101F9000121008B9012070470020FCE70120FAE781
:101FA0000020F8E770B5002600240025FF480688C9
:101FB0003604FF48B0F81C080644FE48B6FBF0F4AF
:101FC000FD480088A0423AD0FB490C8040F2B2752F
:101FD0000EE02846FFF7C9FF30B1B4F5B77F02D352
:101FE000A4F5B77402E006E0A4F26D14681C85B293
:101FF000B4F5B67FEDD800BFF0488580002516E027
:10200000EE498888FFF7B1FF30B1012D04D11D2CB6
:1020100001D31D3C09E00CE0E948405DA04203D833
:10202000E748405D241A00E003E0681C85B21C2CE0
:10203000E6D200BF681CE1498871601CC871DD48A8
:10204000B6FBF0F100FB11644FF46160B4FBF0F0FB
:10205000DA4908704FF46160B4FBF0F100FB114005
:102060003C21B0FBF1F0D54948704FF46160B4FBFE
:10207000F0F100FB11403C21B0FBF1F201FB12003A
:10208000CE4988700B46DA7999799888FFF736FF40
:10209000CA490872002070BD2DE9F04704460D467C
:1020A0001646DDE908784FF0000A40F2B27084422B
:1020B00003DB40F63300844202DD0120BDE8F087F7
:1020C00040F2B2790CE04846FFF74FFF10B1BD482F
:1020D000824401E0BC48824409F101001FFA80F902
:1020E000A145F0DB681EC5B24FF0000914E0B4480A
:1020F00010F8090040F2A32148430AEBC01A204619
:10210000FFF733FF20B1B9F1010F01D1A948824493
:1021100009F101001FFA80F9A945E8DB701E40F2C1
:10212000A32148430AEBC01AC3EB4310C0EB0320C2
:102130000AEB001AC7EB07100AEB800AC244A34857
:10214000C06940F08050A149C8610846C06940F0AC
:102150000060C8619E48006840F480709C49086037
:1021600092481438008840F010009149A1F8040802
:102170008E49091DA1F800A04FEA1A408C49A1F828
:1021800018080846B0F8040820F01000A1F8040868
:1021900000BF86481438008810F0200FF9D00020C6
:1021A0008CE770B50346002409E013F8015B11F8D1
:1021B000016BB54201D0002070BD601CC4B29442D6
:1021C000F3DB0120F8E72DE9FE47002406E0814813
:1021D0000068005D02A90855601CC4B2032CF6DB40
:1021E00000240BE004EB44017B4A8818032202A977
:1021F000FFF7D7FF00B103E0601CC4B20C2CF1DB89
:1022000000BF601CC5B2734800680079202805D162
:102210007048006840793038C6B20BE06D480068FD
:1022200040796C490968097930390A2202FB0100BA
:102230003038C6B267480068C07930384FF47A71D8
:10224000484364490968097A3039642202FB010075
:1022500060490968497A30390A2202FB01005D4968
:102260000968897A0844303887B25C480068407849
:102270005A4909680978303902FB0100303800F00A
:10228000FF0A56480068007954490968C97830390E
:1022900002FB0100303800F0FF0950480068C079A7
:1022A0004E4909688979303902FB0100303800F065
:1022B000FF085346324629463846CDE90098FFF7D5
:1022C000EBFEBDE8FE8710B5002445480088A0F568
:1022D000A041503966D03D48C06940F080503B492C
:1022E000C8610846C06940F00060C86138480068AD
:1022F00040F48070364908603448006A40F4803009
:10230000324908620846006A20F4803008620846B4
:10231000006A40F00100086204E0601CC4B20A20B8
:10232000FEF76BF82948006A10F0020F01D1FA2C71
:10233000F3DBFA2C01DB012010BD2448006A40F4D5
:102340008070224908620846006A40F40040086232
:1023500000BF16481438008810F0200FF9D000BFD5
:1023600012481438008810F0080FF9D00F481838B8
:10237000008840F001000E49A1F8000800BF0B489A
:102380001438008810F0200FF9D00848143800885D
:1023900040F010000649A1F8040800200349103954
:1023A00008801FE038E000007E5600081828004032
:1023B0000020004080510100100000202002002079
:1023C0008A5600080085E2018033E10100100240D6
:1023D00000700040140000209656000818000020ED
:1023E000046C004047F6FF702C49A1F80C08FFF779
:1023F000EAFE2A48B0F8040820F010002749A1F8A6
:10240000040800BF2648008810F0200FFAD045F2DB
:1024100050002449088013E000BF2148008810F0D4
:10242000080FFAD01E48001F008840F001001B4929
:10243000A1F8000800BF1A48008810F0200FFAD059
:102440000223032200210846FEF726F8FFF7AAFD23
:10245000002071E700B51248008810F0010F01D08C
:10246000FFF7A0FD0E48008810F0020F06D00C48C0
:10247000008820F002000949A1F8040808480088F3
:1024800040F6FA7108400549A1F8040800BF044865
:10249000008810F0200FFAD000BD0000002000409E
:1024A00004280040046C004010B53048C06840F477
:1024B000FE702E49C860FEF7B0F810BD70B500245C
:1024C000002500202A4908601AE02948A038006841
:1024D00018B1601CC4B2002508E0681CC5B2032D09
:1024E00004DD012022490860002070BD1E20FDF798
:1024F00084FF642C04DB00201D4908600120F4E700
:10250000E3E710B501201B490860FFF7D7FF08B1CA
:10251000FFF7CAFF10BD10B51448806940F00400F1
:10252000124988610846806940F0010088611248BC
:10253000006820F00F001149C1F800080846D0F8E3
:10254000000840F00800C1F80008022200210846F7
:10255000FDF7ECFFFFF7B2FF08B9FEF75EF80223C4
:10256000062219461846FDF797FF10BD00100240DD
:10257000A001214214040140000801400000014074
:1025800010B500F0BDF810BD70B50446002600F08F
:10259000CEF800BF2546E11704EB11610912A02215
:1025A00002EB4101C8B200F073F900F001F9E11744
:1025B00004EB11610912A4EB0121C8B200F068F923
:1025C00000F0F6F800F0B3F8A12000F061F900F097
:1025D000EFF8002000F08AF9064600F0C8F830460F
:1025E00070BD70B504460D4600F0A1F800BF264648
:1025F000E11704EB11610912A02202EB4101C8B2FC
:1026000000F046F900F0D4F8E11704EB116109126B
:10261000A4EB0121C8B200F03BF900F0C9F828464C
:1026200000F036F900F0C4F800F0A1F80A20FDF738
:10263000E4FE70BD2DE9F04105460C461646002724
:1026400009E0FA0024FA02F2D1B2EA1990B2FFF7D7
:10265000C8FF781CC7B2B742F3DBBDE8F0812DE9B3
:10266000F04104460D460027002609E03F026119AB
:10267000891B491E88B2FFF787FF0744701CC6B24A
:10268000AE42F3DB3846BDE8F08110B5FF20FFF71E
:102690007BFF0446552C01D1002010BD5521FF20A1
:1026A000FFF79FFFFF20FFF76FFF0446552C01D176
:1026B0000020F2E70120F0E770B504460D4616460B
:1026C00008E02046621C94B2FFF75EFF05F8010B9C
:1026D000701E86B2002EF4D170BD70B504460E4651
:1026E000154606E031782046FFF77BFF601C84B278
:1026F000761C2800A5F101018DB2F3D170BD000058
:102700009348806940F01000914988619148406881
:1027100020F47F208F4948600846406840F44C30E0
:1027200048600846C06840F4C050C860704710B5A3
:102730008848406820F470408649486008464068F0
:1027400040F4405048600120834908608349C1F843
:10275000B0010420FDF76CFE00207F4908600420D2
:10276000FDF766FE00207D49C1F8B00110BD10B52F
:102770007848406820F470407649486008464068D0
:1027800040F44050486000207349091D08607349B7
:10279000C1F8AC010420FDF74BFE01206E49091D74
:1027A00008606E49C1F8AC010420FDF741FE10BD80
:1027B00010B500246748406820F4704065494860BF
:1027C0000846406840F400404860012062490860C3
:1027D000FDF72EFE01206149C1F8B001FDF728FE8A
:1027E00007E0601CC4B2FA2C03DDFFF7C0FF012034
:1027F00010BD5948803800680028F2D15649091D9B
:102800000860F5E710B500205349091D08605148DC
:10281000406820F470404F4948600846406840F4E2
:102820004050486000204D49C1F8AC010220FDF73E
:10283000FFFD01204849091D08600220FDF7F8FD51
:1028400000204649C1F8B00110BD10B50020424932
:10285000091D08603F48406820F470403D494860C9
:102860000846406840F44050486001203B49C1F8A8
:10287000AC010220FDF7DCFD01203749091D08608D
:102880000220FDF7D5FD00203449C1F8B00110BD8C
:1028900070B505462F48406820F470402D494860C7
:1028A0000846406840F44050486000202A49091D0D
:1028B0000860002417E0E809274908606806050E4B
:1028C0000220FDF7B5FD01202449C1F8B001022026
:1028D000FDF7AEFD00202049091D08600220FDF72C
:1028E000A7FD601CC4B2082CE5DB70BD70B50446C2
:1028F00000251848406820F4704016494860084692
:10290000406840F400404860002617E0002012496B
:10291000091D08600220FDF78BFD01200F49C1F859
:10292000B0016806050E0C488038006808B1681CC4
:10293000C5B20120FDF77CFD701CC6B2082EE5DB98
:1029400014B9FFF782FF01E0FFF75CFF284670BD76
:102950000010024000100140AC012242000022425F
:102960000246002105E0481CC1B2C82901DD002053
:1029700070475048008910F0020FF4D04D48828112
:10298000002105E0481CC1B2C82901DD0020EFE7A5
:102990004848008910F0010FF4D046488089C0B241
:1029A000E6E700B54448806940F004004249886188
:1029B0000846806940F48050886140480068C0F350
:1029C00013003F49C1F800083C4800683D490843EE
:1029D0003B49C1F800080846D0F80C0840F0E00078
:1029E000C1F80C083348008832490880084600883E
:1029F00040F4007008800846008840F48070088029
:102A00000846008840F004000880084600880880D6
:102A10000846008840F0020008800846008840F020
:102A2000010008800846008840F038000880084609
:102A3000008808800846008840F040000880FF2099
:102A4000FFF78EFF00BD1B4909884FF6C772114082
:102A5000184A1180052825D2DFE800F003080F1678
:102A60001D0014490988134A11801BE01149098887
:102A700041F008010F4A118014E00E49098841F025
:102A800010010C4A11800DE00A49098841F0180133
:102A9000084A118006E00749098841F03801054AD3
:102AA000118000BF00BF0349098841F04001014A7D
:102AB00011807047003001400010024000080140C2
:102AC000000001400000B0BB002100BF15E010F085
:102AD000800F03D00122FB4B1A6002E00022F94B69
:102AE0001A604206100E0022F64B0C3B1A600122BF
:102AF000F54BC3F880214A1CD1B20829E7DB7047A7
:102B000070B50446002600250020EE490C39086007
:102B1000ED49C1F8B4012046FFF7D6FF0620FDF7C6
:102B200087FC0120E7490C3908600020E649C1F81C
:102B3000800100BF11E06804050C0020E1490C3958
:102B400008600120E049C1F88001DE48843800684F
:102B500008B1681C85B2701CC6B2102EEBDB2D11BB
:102B60000120D84928310860284670BD2DE9F04180
:102B700088B004464FF00008002506E02046FFF725
:102B8000BFFF2DF81500681C85B20F2DF6DB002560
:102B900016E0681C86B20FE03DF815003DF81610EF
:102BA000884207DD3DF815703DF816002DF8150038
:102BB0002DF81670701C86B20F2EEDDB681C85B2E6
:102BC0000E2DE6DB4FF00008052506E03DF8150068
:102BD00040441FFA80F8681C85B20A2DF6DB0520F8
:102BE00098FBF0F087B2384608B0BDE8F0812DE9D7
:102BF000F04104460D46D020FFF7B8FF064690206E
:102C0000FFF7B4FF0746642E01DB642F02DA0020D1
:102C1000BDE8F08126802F800120F9E77FB50446CA
:102C20000D4602A903A8FFF7E2FF064616B90020E9
:102C300004B070BD694601A8FFF7D9FF06460EB97A
:102C40000020F5E7BDF80400BDF80C10884206DC52
:102C5000BDF80C10BDF80400323081420CDBBDF829
:102C60000C00BDF80410884236DCBDF80410BDF835
:102C70000C00323081422FDABDF80000BDF8081098
:102C8000884206DCBDF80810BDF8000032308142F1
:102C90000CDBBDF80800BDF8001088421CDCBDF854
:102CA0000010BDF808003230814215DABDF80C1072
:102CB000BDF80420881800EBD071C1F34F012180CA
:102CC000BDF80810BDF80020881800EBD071C1F3E2
:102CD0004F0129800120ABE70020A9E738B17B49EB
:102CE000096841F002017A4AC2F8001406E0774907
:102CF000096821F00201764AC2F80014704710B545
:102D000000240020FFF7EAFF002072490872891DA5
:102D1000881EFFF783FF04E0601CC4B20A20FDF7A1
:102D20006CFB68488838006808B9FA2CF4DD01208B
:102D3000FFF7D4FFFA2C01DB002010BD0120FCE7D7
:102D400070B504460D46A4F10C0188B22B4604F17F
:102D50000D022946FEF7A2FEA5F10C0081B2193042
:102D600083B222462046FEF799FE681C81B2601CA1
:102D7000FDF79BFF611E88B2691C89B2FDF795FFC4
:102D8000681E81B2601CFDF790FF6A1E91B2621E40
:102D900090B2FDF78AFF062229462046FEF702FF81
:102DA00070BD70B504460D4629462046FDF77DFFEF
:102DB0002946601CFDF779FF681C81B22046FDF7AB
:102DC00074FF681C81B2601CFDF76FFF70BD2DE9B8
:102DD000F0414049891D881EFFF720FF80B33D491F
:102DE000B1F9140001F028FD06463A49888801F03F
:102DF0003CFD07463748C168384601F03BFD0546B3
:102E0000314601F037FB044601F0EAFC3149088005
:102E1000B1F9160001F010FD06462E49C88801F0F0
:102E200024FD07462B480169384601F023FD05467D
:102E3000314601F01FFB044601F0D2FC25494880D1
:102E4000BDE8F08101202349087202201F49143196
:102E50000860704770B51F49C8681F4901F00AFD36
:102E6000054601F085FC0446042221462820FFF790
:102E7000E1FB18490869184901F0FCFC054601F01E
:102E800077FC0446042221462C20FFF7D3FB11488F
:102E9000B0F9141002223020FFF7CCFB0D48B0F936
:102EA000161002223220FFF7C5FB3420FFF76CFB1F
:102EB000044604F0F00444F00A0421463420FFF7ED
:102EC00090FB70BD8C0122420000224200040140B0
:102ED000000001402C02002020BCBE4C70B5342004
:102EE000FFF752FB044604F00F000A282DD10421FD
:102EF0002820FFF7B4FB0446204601F09DFC054660
:102F0000FF4901F043FBFF49C86004212C20FFF773
:102F1000A6FB0446204601F08FFC0546F84901F067
:102F200035FBF849086102213020FFF798FB044681
:102F300020B2F449888202213220FFF790FB044638
:102F400020B2F049C882012070BD0020FCE72DE9C5
:102F5000F04F89B0002400BF1F20EB4908804FF6D6
:102F6000FF70EA490880FDF7BBFE4FF47840E64960
:102F700008804FF6FF70FDF7B3FE14210846FFF7F7
:102F8000DFFE0020DF490872C8601AE2DD48007ADF
:102F900001287ED1FFF7B3FE58B1DA48808805A931
:102FA00021F82400D748C08801EB84014880601CC8
:102FB000C4B2012C06D0022C0DD0032C15D0042C49
:102FC00008D11CE04FF6FF70FDF78AFE1421DC20CB
:102FD000FFF7B6FEF3E14FF6FF70FDF781FE4FF409
:102FE00096711420FFF7ACFEE9E14FF6FF70FDF794
:102FF00077FE4FF49671DC20FFF7A2FEDFE1BDF80B
:103000001410BDF81820881A01D4014600E041428E
:103010000F46BDF81620BDF81A10501A01D401460B
:1030200000E0414288467F4308FB08F807EB0800B0
:1030300001F0D4F8CDE9020101F00AF8CDE9000170
:1030400001F07CF885B2BDF81C10BDF82020881A6C
:1030500001D4014600E041420F46BDF81E20BDF8F4
:103060002210501A01D4014600E0414288467F43B5
:1030700008FB08F807EB080001F0B0F8CDE9020101
:1030800000F0E6FFCDE9000101F058F886B23046C5
:1030900000E095E101F0E9FB8146284601F0E5FBFF
:1030A0008246494601F072FA0490049801F0BAF998
:1030B000CDE9000196A00CC8009801F095F80CD35A
:1030C000049801F0AFF9CDE9020193A00CC8029871
:1030D00001F0C2F801D305B14EB900244FF6FF70DC
:1030E000FDF7FEFD14210846FFF72AFE69E1BDF851
:1030F0001410BDF81C20881A01D4014600E041429A
:103100000F46BDF81620BDF81E10501A01D4014616
:1031100000E0414288467F4308FB08F807EB0800BF
:1031200001F05CF8CDE9020100F092FFCDE9000169
:1031300001F004F885B2BDF81810BDF82020881AF7
:1031400001D4014600E041420F46BDF81A20BDF807
:103150002210501A01D4014600E0414288467F43C4
:1031600008FB08F807EB080001F038F8CDE9020188
:1031700000F06EFFCDE9000100F0E0FF86B23046BE
:1031800001F073FB8146284601F06FFB82464946F9
:1031900001F0FCF90490049801F044F9CDE9000134
:1031A0005BA00CC8009801F01FF80AD3049801F046
:1031B00039F9CDE9020158A00CC8029801F04CF889
:1031C00009D200244FF6FF70FDF78AFD142108464E
:1031D000FFF7B6FDF5E0BDF81810BDF81C20881A01
:1031E00001D4014600E041420F46BDF81A20BDF867
:1031F0001E10501A01D4014600E0414288467F4328
:1032000008FB08F807EB080000F0E8FFCDE9020131
:1032100000F01EFFCDE9000100F090FF85B2BDF87F
:103220001410BDF82020881A01D4014600E0414264
:103230000F46BDF81620BDF82210501A01D40146E1
:1032400000E0414288467F4308FB08F807EB08008E
:1032500000F0C4FFCDE9020100F0FAFECDE9000163
:1032600000F06CFF86B2304601F0FFFA8146284636
:1032700001F0FBFA8246494601F088F9049004986F
:1032800001F0D0F8CDE9000121A00CC8009800F0B1
:10329000ABFF0AD3049801F0C5F8CDE902011EA0E6
:1032A0000CC8029800F0D8FF09D200244FF6FF7036
:1032B000FDF716FD14210846FFF742FD81E0BDF839
:1032C0001810BDF81420881A01F0B6FA814601469C
:1032D000134801F05BF90B49C860BDF81810BDF840
:1032E0001420881801F0A8FA03900648C1680398D2
:1032F00001F0C0FA83460B4901F065FB824613E0FA
:1033000020BCBE4C2C0200200A0000200C00002033
:10331000666666666666EE3FCDCCCCCCCCCCF03F24
:1033200000004843000070434FF0804101F02EF947
:10333000814601F01DFA00B255498882BDF81E1081
:10334000BDF81620881A01F077FA814601465148E7
:1033500001F01CF94E490861BDF81E10BDF8162099
:10336000881801F069FA039049480169039801F04F
:1033700081FA8346484901F026FB82464FF080419E
:1033800001F004F9814601F0F3F900B24049C88226
:103390001F20424908804FF6FF70FDF7A1FC40A2B4
:1033A0006E212320FEF784FD4FF47A70FDF725F897
:1033B0004FF6FF70FDF794FC09B0BDE8F08F00BF39
:1033C00000BFE3E510B53C48806940F010003A4981
:1033D00088610846806940F00100886137480068CC
:1033E0006FF30F00354908600846006843F6830113
:1033F0000843324908600846406820F4700048607D
:103400000846406840F4401048600846C06842F2F0
:103410000F0108432949C8601D49891D881EFFF70F
:10342000E6FB0223072200211846FDF735F8224863
:10343000806940F00100204988612148806840F09F
:1034400020001F4988601F48006840F00200C1F852
:1034500000040846D0F8040440F00200C1F8040457
:103460000846D0F80C0440F00200C1F80C04FFF745
:1034700087F8FFF733FD00B110BD4FF6FF70FDF781
:103480002FFCFFF764FDFFF7E5FCFFF727FDF3E7EF
:103490002C02002000008C430000A0430A00002002
:1034A000546F7563682053637265656E2041646A6A
:1034B000757374204F4B2100001002400010014032
:1034C000000001400004014070B5044640F6FF755D
:1034D00001E0681E85B2FF20FFF742FAA04201D04A
:1034E000002DF6D10DB9FF2070BD0020FCE770B5AE
:1034F000FF24002500BFFF20FFF732FA00F01F0471
:10350000A5F57F40FE3801D1012070BD6D1C052C52
:1035100004D00B2C04D00D2C06D103E0052405E0CB
:103520000B20F2E70D20F0E7FF2400BF00BFFF2CC7
:10353000E1D0002505E06D1C15F1020F01D3FF203D
:10354000E3E7FF20FFF70CFA0028F4D00020DCE7C7
:103550002DE9F04104460D46164600270120FF499B
:103560000860FF20FFF7FCF9FF20FFF7F9F9FF20C3
:10357000FFF7F6F90020FA49C1F88C0144F0400049
:10358000FFF7EEF9280EFFF7EBF9C5F30740FFF759
:10359000E7F9C5F30720FFF7E3F9E8B2FFF7E0F931
:1035A0003046FFF7DDF904E0781CC7B2C82F00DD14
:1035B00005E0FF20FFF7D4F98046FF28F4D000BFD4
:1035C0000120E6490860FF20FFF7CAF94046BDE840
:1035D000F0812DE9F04104460D4616460027FF20F4
:1035E000FFF7BEF9FF20FFF7BBF90020DB490860B9
:1035F00044F04000FFF7B4F9280EFFF7B1F9C5F326
:103600000740FFF7ADF9C5F30720FFF7A9F9E8B2C6
:10361000FFF7A6F93046FFF7A3F904E0781CC7B21C
:10362000C82F00DD05E0FF20FFF79AF98046FF284C
:10363000F4D000BF4046BDE8F08170B5002401E041
:10364000601C84B2B4F5706FFADB002404E0FF2044
:10365000FFF786F9601C84B20A2CF8DB002500BF56
:10366000952200210846FFF773FF0446681CC5B287
:10367000012C01D0C82DF3DBC82D01D1012070BD74
:103680000020FCE77CB5B748806940F00400B549EC
:103690008861B5480068B5490840B549C1F80008D7
:1036A000B1480068B3490843B149C1F80008084669
:1036B000D0F80C0840F01C00C1F80C08FFF771F9B5
:1036C0000420FFF7C0F90120A4490860FFF7B5FF07
:1036D00008B101207CBD0020A049086087224FF47A
:1036E000D5710820FFF775FF0446052C52D1012043
:1036F000A149087099490860FF20FFF731F90025BA
:1037000000BF002211463720FFF722FF0446FF2C9E
:1037100001D12046DEE7002211462920FFF718FFDD
:103720000446681C85B214B1B5F5C87FE9DBB5F570
:10373000C87F15D1002500BF002211460120FFF7E8
:1037400007FF0446681C85B214B1B5F5C87FF3DBEA
:10375000B5F5C87F01D10120BCE70020864908707B
:103760000120FFF770F9FF20FFF7FAF895220021FA
:103770003B20FFF7EDFE04460CB12046AAE7952258
:103780004FF400711020FFF7E3FE0446002C6BD0CD
:1037900020469FE7012C67D1FF20FFF7E1F88DF865
:1037A0000000FF20FFF7DCF88DF80100FF20FFF795
:1037B000D7F88DF80200FF20FFF7D2F88DF803004C
:1037C000012066490860FF20FFF7CAF8002500BF06
:1037D000002211463720FFF7BBFE0446012C01D022
:1037E000204677E700224FF080412920FFF7B0FE06
:1037F0000446C82D01DD20466CE7002CE8D10022EC
:1038000011463A20FFF7E5FE044624B10120534952
:10381000086020465EE7FF20FFF7A2F88DF8000061
:10382000FF20FFF79DF88DF80100FF20FFF798F8C3
:103830008DF80200FF20FFF793F88DF803000120B8
:1038400046490860FF20FFF78BF89DF8000010F054
:10385000400F03D004204849087002E00220464986
:1038600008700120FFF7EFF8204633E770B50446F3
:103870000D461646002039490860FE20FFF724FE59
:1038800018B101203549086070BD04E0FF20FFF742
:1038900067F82070641C2800A5F101018DB2F5D1F4
:1038A000FF20FFF75DF8FF20FFF75AF8012E05D142
:1038B00001202A490860FF20FFF752F80020E3E7C3
:1038C00070B50446FF2200210A20FFF741FE05469D
:1038D0000DB1284670BD012210212046FFF7C6FF1A
:1038E0000020F7E770B50446FF2200210920FFF70A
:1038F0002FFE05460DB1284670BD0122102120463D
:10390000FFF7B4FF0020F7E72DE9FF416846FFF716
:10391000E9FF18B1002004B0BDE8F0819DF8000077
:1039200000F0C000402809D19DF8080004029DF86D
:103930000900401C0444A40264023FE09DF8060014
:1039400000F0030636029DF807000644B6009DF815
:10395000080006EB90169DF809000FE08C0121424B
:10396000000021420010024000080140FF00F0FF6B
:1039700000000140003303001C00002000F003059C
:103980006D009DF80A0005EBD015AD1C012703E082
:103990007804070C681EC5B2002DF9D1701C00FB1D
:1039A00007F49DF8050000F00F06012703E07804F6
:1039B000070C701E86B2002EF9D17C432046AAE780
:1039C00070B504460E460120FFF73DF8F94800782F
:1039D000042800D06402002221461120FFF7B8FD20
:1039E00005460DB1284670BD012251023046FFF751
:1039F0003DFF05460DB12846F5E70020F3E72DE928
:103A0000F05F04460D4616464FF00008C1464FEAE7
:103A100056280020E849086032E005EB090AE5482D
:103A20000078042801D14FEA5A2AFF225146182073
:103A3000FFF7CFFD8346BBF1000F04D00120DE4924
:103A40000860BDE8F09FFE20FEF78AFF002704E033
:103A500014F8010BFEF784FF7F1CB7F5007FF7D346
:103A6000FF20FEF77DFFFF20FEF77AFFFFF73FFD07
:103A700020B10120D04908600220E2E709F5007971
:103A80005FEA0800A8F10108C7D10120CA4908600F
:103A9000FF20FEF765FF0020D3E72DE9F04704463D
:103AA0000D4616460027B846B946BA46770A0020A2
:103AB000C149086028E005EB0809BE4800780428E1
:103AC00001D14FEA5929FF2249461120FFF781FD14
:103AD0008246BAF1000F05D00120B7490860504670
:103AE000BDE8F087012251022046FFF7BFFE824663
:103AF000BAF1000F04D00120AF4908605046EFE74B
:103B000004F5007408F500783800A7F10107D2D158
:103B10000120A9490860FF20FEF722FF0020DFE70F
:103B20002DE9F04104460D46A2480078042800D053
:103B30006402002221461820FFF70AFD064616B14E
:103B40003046BDE8F08100209B490860FF20FEF769
:103B500007FFFF20FEF704FFFF20FEF701FFFE2016
:103B6000FEF7FEFE002705E015F8010BFEF7F8FE54
:103B7000781C87B2B7F5007FF6DBFF20FEF7F0FE7A
:103B8000FF20FEF7EDFEFF20FEF7EAFE064606F0F8
:103B90001F00052804D00120874908603046D0E77F
:103BA0004FF000080BE008F101001FFA80F84FF613
:103BB000FE70804503DD01207F490860C1E7FF20DA
:103BC000FEF7CEFE0028EED001207B490860FF20E2
:103BD000FEF7C6FE0020B4E72DE9F04104460D468D
:103BE000174674480078042800D064020022214659
:103BF0001220FFF7ADFC064616B13046BDE8F08155
:103C000000BF00224FF400712846FFF72FFE00B1DD
:103C100005E005F50075781EC0B20700F1D100BFC0
:103C2000002211460C20FFF793FC01206249086036
:103C3000FF20FEF795FE0FB13846DFE70020DDE7F5
:103C40002DE9F04104460D4617465A4800780428ED
:103C500000D064025748007828B100223946172066
:103C6000FFF776FC0646002221461920FFF770FC7C
:103C7000064616B13046BDE8F08100204E49086086
:103C8000FF20FEF76DFEFF20FEF76AFE00BFFC205E
:103C9000FEF766FE4FF0000807E015F8010BFEF78F
:103CA0005FFE08F101001FFA80F8B8F5007FF4DB31
:103CB000FF20FEF755FEFF20FEF752FEFF20FEF725
:103CC0004FFE064606F01F00052804D001203A49A1
:103CD00008603046CFE7FFF70AFC012802D13649D9
:103CE0000860C8E7781EC0B20700D0D1FD20FEF7FB
:103CF00037FE064606B9FE27FFF7F9FB18B101208B
:103D00002D490860B7E701202B490860FF20FEF726
:103D100027FE3846AFE72DE9F04704460D46164624
:103D20001F464FF00009610200221120FFF710FC2E
:103D30008046B8F1000F02D04046BDE8F087002071
:103D40001D490860FE20FFF7BFFB18B101201A498A
:103D50000860F2E74FF0000906E0FF20FEF700FEE2
:103D600009F101001FFA80F9B145F6D308E0FF2000
:103D7000FEF7F6FD05F8010B09F101001FFA80F9C5
:103D8000F0194845F3D806E0FF20FEF7E9FD09F1F8
:103D900001001FFA80F9B9F5007FF5DBFF20FEF77F
:103DA000DFFDFF20FEF7DCFD012003490860002055
:103DB000C3E700001C0000208C0121427047000076
:103DC0000FB4054A054910B503AB7944029800F0D9
:103DD000D8F810BC5DF814FB0400002085C9FFFF73
:103DE0002DE9F04104460E4600202BE0E168204614
:103DF000884748B3252802D0D4E901211FE0E168B3
:103E000020460027884705001ED0A5F1410019284B
:103E100002D820354FF400673246294620462760F5
:103E2000FCF79EF940B1012801D1361DDEE7F61DF1
:103E300026F007060836D9E7D4E90121284690473D
:103E4000206A401C2062D1E7206ABDE8F0810000B2
:103E500070B504460D4621461068AFF30080216816
:103E6000090502D5104A7A4402E00F4A7A440E321C
:103E7000002104F1240306E000F00F064FEA1010C1
:103E8000965D5E54491C0028F6D120680023000787
:103E900004D5702D02D009B1113202232046BDE8AD
:103EA000704000F012B800005018000070477047D2
:103EB0007047704710B500F077F8006810BD10B576
:103EC000044600F071F8046010BD2DE9F0470D467E
:103ED00004469246994600F124080168880604D5F4
:103EE000E06921F01001216000E001200027A842D4
:103EF00000DD471BA1697A1902EB0900081AA061CD
:103F00002068C00602D42046AFF30080002608E0F7
:103F1000D4E901211AF806009047206A401C761C5B
:103F200020624E45F4DB2068C0060AD52046AFF378
:103F3000008006E0D4E9012130209047206A401C2F
:103F40002062381EA7F10107F4DC07E0D4E9012163
:103F500018F805009047206A401C2062281EA5F131
:103F60000105F3DC2046AFF300802168022009063A
:103F700000D40120BDE8F08701694A1C026108787D
:103F8000704710B50C46194690B0CDE902420022A8
:103F90000692044A7A44CDE9042001A8FFF720FFE5
:103FA00010B010BDE1FFFFFF0148704770470000EF
:103FB0004402002000487047440200207546FFF785
:103FC000F9FFAE4605006946534620F007008546D6
:103FD00018B020B5FCF7EAF8BDE820404FF0000625
:103FE0004FF000074FF000084FF0000B21F00701E1
:103FF000AC46ACE8C009ACE8C009ACE8C009ACE824
:10400000C0098D4670470446AFF300802046FCF798
:10401000BBF8000030B504460D460C480088A0F5FA
:104020000941893908D121464E20FCF777FD294600
:104030004F20FCF773FD07E021462020FCF76EFDC2
:1040400029462120FCF76AFD30BD00000E0000204B
:1040500070B504000D4601D0012200E000220A43A1
:104060000B4B22F000429A1AD20F0AD109A20CCAB5
:1040700000F0BAF805D20120FFF721FF07A103C91C
:1040800070BD29462046BDE8704000F029B9000007
:104090000000F07F000000000000000001000000B0
:1040A0000000F87F02494FF0000000F06CBD0000F6
:1040B0000000F87F02494FF0000000F064BD0000EE
:1040C0000000F87F00B54FF4001E1EEB410F08BF43
:1040D000002898BF1EEB430F08BF002A26D85DF8C2
:1040E00004EBAFF3008051EA030C06D4994208BFF9
:1040F000904210D6EFF3008070478B4208BF824297
:10410000EFF3008020F0104038BF40F0004080F313
:10411000008878BF70474FF0010C38BFBCF1020F28
:1041200068BFBCF1000FEFF3008070475DF804EB4F
:104130001CF4502F3FF4B6AF00F057BD4FEAC12337
:1041400003B40A1543EA505318BF43F000430CD49C
:10415000A2F56072D2F19E0211DBFF2ACCBF0021D2
:1041600023FA02F1084602B0704701F1804212F5CD
:10417000801F80F204804FF0000002B0704703BC43
:10418000DFF828C0012841EB010313F5001F88BFA9
:104190004CF4803C3FF68EAF3CBF6FEAE170704755
:1041A000AFF300806FEAE17070470000E80002049E
:1041B00010F0004314BF4142014643F08043B1FA7E
:1041C00081FC03F1F87311FA0CF1A3EB0C534FEAE5
:1041D000415008BF704703EBE12170474FF0804327
:1041E0000146FFF7ECBF000051EA030C17D41CF5A1
:1041F000801F58BFBCF5801F00F10680994218BF90
:10420000704708BF9042704707D711F5801F58BF0D
:1042100013F5801F19D499427047894270471CF5E5
:10422000801F08D5BCF5801FF7D58B4218BF70479B
:1042300008BF824270474FF4001C1CEB410F38BF8F
:104240001CEB430F01D28B427047DFF808C0FFF729
:1042500039BF00001900160453EA010C17D41CF5ED
:10426000801F58BFBCF5801F00F106808B4218BF2D
:10427000704708BF8242704707D713F5801F58BFA9
:1042800011F5801F19D48B4270479B4270471CF573
:10429000801F08D5BCF5801FF7D5994218BF70471D
:1042A00008BF904270474FF4001C1CEB430F38BF0F
:1042B0001CEB410F01D29942704783EA010182EA67
:1042C000000081EA030380EA0202DFF810C083EAFB
:1042D000010182EA0000FFF7F5BE00001900160494
:1042E0004FF0E04C4CF07F6C70B511EA0C0F00F011
:1042F00078803CEA010E00F07D8011F0004F40F024
:1043000087804FEA115C21EA0C5141F480110CF1D5
:10431000FD0C5FEA5C0C0CF5C07C02D3400041EB65
:1043200001014FF000034FF080424FEA812141EA42
:1043300090514FEA8020A1F180414FF0805E8C1AAD
:1043400022BFB4EB0E04214602EB4E02400041EBCB
:1043500001015FEA5E0EF2D171EB020407D3B0F106
:10436000004574F1000422BF21462846521C40003B
:1043700041EB01014FF0804EC51A71EB020408D3E6
:10438000B5EB0E0574F1000422BF2146284603EB6D
:104390004E03400041EB01014FEA5E0EBEF1800F7B
:1043A000EAD151EA000418BF0224980A4FEA922188
:1043B0005FEA340440EA825001EB0C5100D170BD39
:1043C000640050F10000244241F1000108BF20F0D8
:1043D000010070BDDEF5800E50F1000041F10001DA
:1043E00070BD50EA013C00D170BD01F000414FF0BA
:1043F000000070BDBDE8704050EA013CDFF81CC011
:104400007FF458AEAFF30080094258BF704701E017
:10441000BDE870404FF000000149704717000004EC
:104420000000F87F00F5000C1CF0FE4F09D0C11011
:104430004FEA407001F1605158BF7047A1F1E0416F
:1044400070471CF4000F08D00146400008BF7047B9
:104450004FF000004FEA30017047DFF814C042020D
:1044600040F08E80AFF3008040F4E00110467047CA
:104470001800000490EA010F48BF81F0004100F1EC
:10448000B482421A3CBF801A89184FEAD0524FF0CA
:104490007F4C1CEA410FA2EBD15318BF9CEA026F7C
:1044A00000F040804FF0004C4CEA00204CEA012123
:1044B00021FA03FC10EB0C0C23D202F1FF325FEA6D
:1044C0001C2040EBC25038BF70471CF07F0F4FEAF2
:1044D000400C18BFBCF17F4F38BF7047C3F12003B9
:1044E000994008BF20F00100BCF17F4F38BF7047F2
:1044F000A0F1C0404FF0FF0141EAD0514FEAC15056
:1045000070474FEA3C00000A40EBC25028BF1CF045
:10451000FF0F4FEA400CE1D018BFBCF17F4F38BF0E
:104520007047E5E79CEA026F05D010EA5C0F08BF10
:1045300000F000407047BCEB410F4FEA400228BF3B
:104540009445DFF828C0C0F01580AFF30080B2EBCF
:10455000410F05D012F1807F08BF704708467047B1
:1045600090EA010F58BF70470148704701000004EE
:104570000000C07F014800F006BB00000000C07FC3
:10458000014800F000BB00000000C07F4FF47F0C2A
:104590001CEAD0121EBF1CEAD11392EA0C0F93EA58
:1045A0000C0F00F0A58090EA010F48BF42F4807222
:1045B00040F4000C41F400002CF07F4120F07F40DB
:1045C00000B58142A2EB03020FF2401CACEB504E4F
:1045D000C0F100009EF800E04FEA4E0E00FB0EFC1A
:1045E00038BF49004FEA2C1C02F5FA020CFB0EF30F
:1045F0004FEACE1E4FEA112C4FEAC1210EEB635E4B
:104600000EFB0CFC4FEA1C5300FB03114FEA112C6C
:104610004FEA01310EFB0CFC02F4807E42EB224299
:104620004FEADC4C00FB0C11C14228BF09184CEBCF
:104630000333012924BF4EF0020E4EF0804E10EBE2
:10464000410F24BF4EF0010E4EF0804E08BF4EF0D9
:10465000040E4EF008015DF804EB43EBC25018BFA6
:10466000B2F57C0F38BF704741EAC07108BF20F037
:104670000100B2F57C0F38BF704729D512F0F00F5A
:104680001CBF00F1C04000F00040704700818283F1
:104690008485868788898B8C8D8E8F919293959651
:1046A00097999A9C9D9FA0A2A3A5A7A8AAACAEB0DB
:1046B000B2B3B5B7B9BCBEC0C2C5C7C9CCCED1D4E0
:1046C000D7D9DCDFE2E6E9ECF0F3F7FAFE00000010
:1046D0004FEA400C0CF1807CBCF17E4F28BF704744
:1046E000B0F1C0404FF07F404CBF401040087047D1
:1046F00090EA010F0CEAD11348BF42F48072624580
:1047000038BF634507D213F47F0F23D080EA01003E
:1047100000F0004070474FF0807C1CEB400F98BFCA
:104720001CEB410FDFF840C03FF624AFAFF3008031
:104730004FF0807C1CEB400F02BF1CEB410F0B487D
:1047400070471CEB410F0CBF002020F0004040EAF6
:10475000C250704712F47F0F04BF0448704742F004
:10476000FF004FEAC0507047040000040000C07F03
:10477000C2154FEA002318BF43F0004305D4D2F11D
:104780009E0213D923FA02F07047B0F14F4F0DD8B3
:1047900012F0FF0208BF23F000434FF00000D2F1F7
:1047A0009E0223FA02F1A0EB01007047DFF82CC053
:1047B0004FEA4001B1F17F4F88BF4CF4803C3FF697
:1047C000DFAE1EBF6FEAE07080F000407047AFF3CD
:1047D00000806FEAE07080F00040704748000204FB
:1047E000C2154FEA002318BF43F0004305D4D2F1AD
:1047F0009E020AD323FA02F070474FEA4001B1F15A
:10480000FE4F02D24FF000007047DFF828C04FEA99
:104810004001B1F17F4F88BF4CF4803C3FF6B0AE11
:104820001CBF6FEAE0707047AFF300806FEAE07082
:10483000704700006800020410F0004218BF4042B8
:1048400042F08042B0FA80F18840A2EBC15202F1FE
:10485000786208BF7047410642EB202018BF5FF026
:10486000806C28BF20F0010070474FF08042FFF7B6
:10487000E9BF00004FF47F0C1CEAD0121EBF1CEAF7
:10488000D11392EA0C0F93EA0C0F00F04A8090EAE1
:10489000010F48BF42F480724FF0004C4CEA0020F8
:1048A0004CEA01211A44A0FB01C3A2F50002BCF1AD
:1048B000000F18BF43F0010302F4807CB3F1004FF6
:1048C00038BF5B0042EB2242180A40EBC25028BFBF
:1048D00013F07F0F18BFB2F57C0F38BF704708BFC9
:1048E00020F00100B2F57C0F38BF70470BD582F085
:1048F000FF0212F5803FC8BF704700F1C040D8BF2B
:1049000000F00040704700F5000C5FEA4C0C48BF17
:104910007047B0F1C0404FF07F404CBF401040089E
:10492000704790EA010F0CEAD11348BF42F480723D
:10493000624538BF634504D280EA010000F00040C0
:1049400070474FF0807C1CEB400F98BF1CEB410F71
:104950004FF0030C4CF0806C3FF60CAEAFF30080D0
:1049600012F47F0F1FBF13F47F0F42F0FF02D00538
:1049700070470148704700000000C07F10B412F477
:104980007F0F4FEA00204FEA012110D1B0FA80F4E6
:1049900000FA04F0A2EB044213F47F0F02F5803218
:1049A00018BF41F0004100D010BC18BF604740F074
:1049B0000040B1FA81F401FA04F1A3EB044310BC06
:1049C00003F58033604780F0004090EA010F7FF5E7
:1049D00058AD81F0004100F008B8000090EA010FE6
:1049E00048BF81F000413FF54CAD421A3EBF82F016
:1049F0000042801A89184FEAD0524FF07F4C1CEACF
:104A0000410FA2EBD15318BF9CEA026F4FD04FF079
:104A1000004C4CEA00204CEA012121FA03FCB0EBE7
:104A20000C0C0FD412F0FE0F18BF5FEA4C001DD51E
:104A3000001240EBC25038BF70471CF03F0F18BF48
:104A400070470BE0A2F101025FEA1C2040EBC2506C
:104A500038BF70471CF07F0F18BF7047C3F12003A9
:104A6000994014BF401E20F0010070474FEA122306
:104A700016D0004204BF002070474FEA9000B0FA01
:104A800080FCA2EB0C02CCF1280C60FA0CF093EA4B
:104A9000122F04BF00EBC25070474FEAC37070473B
:104AA0005FEADC1008BF70474FEAC37070479CEAAA
:104AB000026F04D010EA5C0F08BF00207047BCEB07
:104AC000410F4FEA400228BF9445DFF82CC0FFF4A5
:104AD00051ADAFF30080B2EB410F06D012F1807FF1
:104AE00008BF704781F00040704790EA010F48BF4F
:104AF0007047024870470000020000040000C07FB9
:104B000000F0004343EAD05323F48073C3F1C103A0
:104B100023F0004117291FD8C3F1200310FA03F135
:104B2000C3F1200320F07F4040F4000020FA03F09E
:104B300003F0004340EA03000DD00B46590009D3AF
:104B400018BF401C06D17FEAE27398BF401C38BFF3
:104B500020F0010070477047182903EB912318BF1C
:104B60006FF00041013168BF03F0004009D64002F8
:104B700003F0004000F1010004BF12F0004F20F0EC
:104B80000100704770470CF00F03092B08BF082085
:104B900000F02B800A2B0BD0082B18BF704708BFE2
:104BA0001CF0400F0AD04FF000004FF0000170479A
:104BB0001CF0400F18BF4FF0004070471CF0100F62
:104BC00008D020F0704300F07F4242EAD3014FEA60
:104BD0004370704700F0604021F07F4242EA0002DB
:104BE00001F07F4040EA727070471CF4801F11D0C2
:104BF0001CF4E02F03D06FEACC31490070474FF02E
:104C00004050EFF3008222F0704242EA000282F349
:104C1000008870474FF0000070470000000000005F
:104C20000000000000000000040404040404000468
:104C3000000000140A0A000000000000000000004C
:104C400014143F140A3F0A0A000000041E1505064A
:104C50000C14150F0400000012150D0A142C2A1252
:104C600000000000040A0A1E1515093600000002A3
:104C700002010000000000000000002010080808E9
:104C800008080810200000020408080808080804A2
:104C9000020000000004150E0E15040000000000C4
:104CA0000404041F040404000000000000000000CD
:104CB00000000002020100000000001F00000000D0
:104CC00000000000000000000000000200000010D2
:104CD0000808080404020202010000000E1111116C
:104CE0001111110E00000000040604040404040E57
:104CF000000000000E1111080402011F0000000056
:104D00000E11100C1010110E00000000080C0A0A01
:104D1000091E0818000000001F01010F1010110EDD
:104D2000000000000E09010F1111110E000000001B
:104D30001F09080404040404000000000E11110EF1
:104D40001111110E000000000E1111111E10120E93
:104D5000000000000000040000000004000000004B
:104D600000000004000000040400002010080402F9
:104D7000040810200000000000001F00001F0000B9
:104D800000000002040810201008040200000000C7
:104D90000E11110804040004000000000E11191582
:104DA000151D011E0000000004040C0A0A1E123327
:104DB000000000000F12120E1212120F000000006D
:104DC0001E1101010101110E000000000F1212124C
:104DD0001212120F000000001F120A0E0A02121F08
:104DE000000000001F120A0E0A0202070000000065
:104DF0001C1201013911120C000000003312121EA6
:104E000012121233000000001F0404040404041FE3
:104E1000000000003E080808080808090700000014
:104E200037120A060A0A12370000000007020202BF
:104E30000202223F000000001B1B1B1B151515154D
:104E4000000000003B1216161A1A1217000000008C
:104E50000E1111111111110E000000000F12120E8F
:104E600002020207000000000E1111111117190EA5
:104E7000180000000F12120E0A1212370000000074
:104E80001E1101060810110F000000001F15040478
:104E90000404040E00000000331212121212120C4D
:104EA000000000003312120A0A0C04040000000083
:104EB0001515150E0A0A0A0A000000001B0A0A044A
:104EC000040A0A1B000000001B0A0A040404040E62
:104ED000000000001F0908040402121F0000001C4B
:104EE00004040404040404041C0000020202040478
:104EF000080808100000000E08080808080808083C
:104F00000E0000040A000000000000000000000085
:104F10000000000000000000003F0004000000004E
:104F200000000000000000000000000C121C123CF9
:104F3000000000000302020E1212120E0000000018
:104F40000000001C1202021C000000001810101CBF
:104F50001212123C000000000000000C121E021C85
:104F6000000000003804041E0404041E00000000B9
:104F70000000003C120C021E221C00000302020E64
:104F80001212123700000000040000060404040E90
:104F9000000000000800000C0808080808070000CE
:104FA0000302023A0A0E123700000000070404044C
:104FB0000404041F000000000000000F1515151563
:104FC000000000000000000F121212370000000065
:104FD0000000000C1212120C000000000000000F74
:104FE0001212120E020700000000001C1212121C06
:104FF000103800000000001B06020207000000003D
:105000000000001E020C101E000000000004040E30
:1050100004040418000000000000001B1212123CDF
:105020000000000000000037120A0C04000000001D
:1050300000000015150E0A0A000000000000001B09
:105040000A040A1B0000000000000037120A0C04CA
:10505000040300000000001E0804041E00000018E5
:1050600008080804080808081800080808080808BC
:1050700008080808080800060404040804040404D6
:1050800006000225180000000000000000000000DB
:105090000000000000000000000000000000000010
:1050A0000008080808080808000018180000004850
:1050B0006C2412000000000000000000000000004E
:1050C000002424247F1212127F121212000000000A
:1050D000081C2A2A0A0C1828282A2A1C080800005A
:1050E0000022251515152A5854545422000000009A
:1050F000000C1212120A76252911916E000000068A
:105100000604030000000000000000000000004052
:10511000201010080808080808101020400000029D
:1051200004080810101010101008080402000000F5
:10513000000008086B1C1C6B080800000000000041
:105140000000080808087F080808080000000000A0
:10515000000000000000000000000606040300003C
:10516000000000000000FE00000000000000000041
:105170000000000000000000000006060000000023
:1051800080404020201010080804040202000000A3
:1051900000182442424242424242241800000000C9
:1051A00000080E08080808080808083E000000006B
:1051B000003C4242422020100804427E00000000D1
:1051C000003C4242201820404042221C00000000C7
:1051D00000203028242422227E2020780000000095
:1051E000007E0202021A26404042221C00000000FB
:1051F00000382402021A264242422418000000000D
:10520000007E22221010080808080808000000008C
:10521000003C4242422418244242423C000000002A
:1052200000182442424264584040241C0000000000
:10523000000000001818000000001818000000000E
:105240000000000000080000000000080804000042
:105250000040201008040204081020400000000054
:10526000000000007F0000007F0000000000000040
:105270000002040810204020100804020000000072
:10528000003C424246402010100018180000000068
:10529000001C225A555555552D42221C0000000075
:1052A000000808181414243C224242E700000000C1
:1052B000001F2222221E22424242221F0000000022
:1052C000007C4242010101010142221C0000000059
:1052D000001F2242424242424242221F000000007E
:1052E000003F4212121E12120242423F0000000012
:1052F000003F4212121E12120202020700000000BA
:10530000003C2222010101712122221C0000000028
:1053100000E7424242427E42424242E70000000031
:10532000003E0808080808080808083E00000000B9
:10533000007C10101010101010101010110F000031
:10534000007722120A0E0A121222227700000000B1
:1053500000070202020202020202427F0000000075
:105360000077363636362A2A2A2A2A6B00000000B1
:1053700000E346464A4A5252526262470000000029
:10538000001C2241414141414141221C00000000DA
:10539000003F424242423E02020202070000000079
:1053A000001C2241414141414D53321C600000002C
:1053B000003F4242423E1212222242C70000000039
:1053C000007C4242020418204042423E000000009D
:1053D000007F4908080808080808081C00000000A9
:1053E00000E74242424242424242423C0000000048
:1053F00000E7424222242414141808080000000088
:10540000006B4949494955553622222200000000C7
:1054100000E7422424181818242442E70000000062
:1054200000772222141408080808081C0000000055
:10543000007E2120101008040442423F0000007842
:105440000808080808080808080808087800000084
:105450000202040408080810102020204040001E0A
:105460001010101010101010101010101E00003826
:1054700044000000000000000000000000000000E8
:1054800000000000000000000000000000FF000617
:105490000800000000000000000000000000000004
:1054A00000000000003C4278444242FC0000000042
:1054B00000030202021A26424242261A000000009D
:1054C00000000000003844020202443800000000DE
:1054D0000060404040784442424264D800000000EE
:1054E00000000000003C427E0202423C000000003E
:1054F00000F08808087E08080808083E0000000040
:1055000000000000007C22221C023C42423C0000C1
:1055100000030202023A4642424242E70000000013
:10552000000C0C00000E08080808083E00000000EF
:10553000003030000038202020202020221E0000D3
:10554000000302020272120A161222770000000003
:10555000000E0808080808080808083E00000000B7
:1055600000000000007F9292929292B7000000002B
:1055700000000000003B4642424242E700000000BB
:1055800000000000003C42424242423C0000000059
:1055900000000000001B26424242221E02070000BB
:1055A00000000000007844424242447840E000009D
:1055B0000000000000774C040404041F00000000F9
:1055C00000000000007C42023C40423E000000001F
:1055D00000000008083E0808080808300000000025
:1055E0000000000000634242424262DC0000000012
:1055F0000000000000E74224241408080000000016
:105600000000000000EB494955552222000000002F
:1056100000000000007624181818246E0000000016
:105620000000000000E742242414180808070000C6
:1056300000000000007E22100808447E000000C028
:10564000202020202010202020202020C00010100A
:105650001010101010101010101010101010000664
:1056600008080808081008080808080806000C328E
:10567000C200000000000000000000000000000365
:10568000030601040602050003051F1C1F1E1F1E42
:105690001F1F1E1F1E1F4A616E4665624D617241CB
:1056A00070724D61794A756E4A756C4175675365C4
:1056B000704F63744E6F76446563303132333435E6
:1056C000363738394142434445464030580030313E
:1056D0003233343536373839616263646566403059
:1056E000780000000457000800000020200000009F
:1056F000280100082457000820000020880400002A
:105700004401000800000000000000007F000000CD
:10571000FFFF00000000000000000000000000008B
:045720000000000085
:04000005080000ED02
:00000001FF
