:030000000202AA4F
:10000B0002004E781DEBF208EAF208E9F2C2E9129F
:10001B000525AE07E4FD7820E2FFEDC39F501B786A
:10002B001DE2FB0808E2F92401F218E2FA3400F2AF
:0F003B00120336FF1205250D80DCD2E9AF062235
:10004B00020485C0E0C0F0C083C082C0D075D00070
:10005B00C000C001C002C003C004C005C006C00779
:10006B007800E204F2E2C39411407678157401F241
:10007B007800E4F27806E2FC08E2FD08E2FE08E212
:10008B00FF08120386780612039200000000782105
:10009B00E4F27806E2FC08E2FD08E2FE08E2FF78F3
:1000AB000512037378061203867806E2FB08E2F961
:1000BB0008E2FA08E2CBF8C0007821E22401F8E26A
:1000CB00FFE4FCFDFED000EB2FFFEE3AFEED39FD19
:1000DB00EC38FC78061203867821E204F2E2B404D1
:1000EB00B17800E214601E14602E14603E14604E52
:1000FB00240470587801E4F208F208F208F25393E2
:10010B00FDD281805B1204597801EFF2C2814393D7
:10011B00025393FED28080481204597802EFF2C248
:10012B00804393015394F7D293803512045978038B
:10013B00EFF2C2934394085394FBD29280221204A1
:10014B00597804EFF2C2924394048014C2934394FF
:10015B0008C292439404C281439302C28043930129
:10016B00D007D006D005D004D003D002D001D000E8
:10017B00D0D0D082D083D0F0D0E0321203AB1204B7
:10018B00EC5389F0D2A9D28CD2AF7815E2B401FA34
:10019B007805E204F2E47815F27805E2C3940540A1
:1001AB0004E4F2B282780AE2FC08E2FD08E2FE08FF
:1001BB00E2FF7806E2FB08E2F908E2FA08E2CBF884
:1001CB00C312034F700302028C7806E2FC08E2FDB7
:1001DB0008E2FE08E2FF7818120386E4FFFEFDFC3E
:1001EB007806E2FB08E2F908E2FA08E2CBF8C31260
:1001FB00034F606CB283E47816F27818080808E2B3
:10020B005401FFE4FEFDFC7B01FAF9F8C312034F26
:10021B00700B7816E2241008F2F51080207818E2A3
:10022B00FC08E2FD08E2FE08E2FF780112036078A9
:10023B00181203867816E204F2E2B414BD78177430
:10024B0025F2F51004F511142402F512742524037C
:10025B00F51374252404F51474252405F515801B5A
:10026B0078167408F27816E2FFD3940D500D7408CB
:10027B002FF8E4F67816E204F280EA1204CE0201BB
:10028B009578167408F27816E2FFD3940D400302AA
:10029B00019574082FF8E4F67816E204F280E778FB
:1002AB007FE4F6D8FD7581200202F1020186E4930A
:1002BB00A3F8E493A34003F68001F208DFF480294E
:1002CB00E493A3F85407240CC8C333C4540F44203D
:1002DB00C8834004F456800146F6DFE4800B01022C
:1002EB00040810204080900400E47E019360BCA3BE
:1002FB00FF543F30E509541FFEE493A360010ECF7A
:10030B0054C025E060A840B8E493A3FAE493A3F8A3
:10031B00E493A3C8C582C8CAC583CAF0A3C8C58263
:10032B00C8CAC583CADFE9DEE780BEBB0106898286
:10033B008A83E0225002E722BBFE02E32289828AF3
:10034B0083E49322EB9FF5F0EA9E42F0E99D42F0A5
:10035B00E89C45F022E8600FECC313FCED13FDEEB7
:10036B0013FEEF13FFD8F122E8600FEFC333FFEE5C
:10037B0033FEED33FDEC33FCD8F122ECF208EDF259
:10038B0008EEF208EFF222D083D082E493F20874E5
:10039B000193F208740293F208740393F2740473DA
:1003AB00C2E8D2EAD2B97FE87E0312042D7BFE7A33
:1003BB0000790E78207405F27F3012000E7BFE7AE6
:1003CB0000790E78207405F27F2A12000E7D017FD2
:1003DB00211205077F221205077D1A7F24120507BC
:1003EB007D287F251205077D0F7F261205077D14BB
:1003FB007F31020507850E3456789012140801E2FE
:10040B0000000002000000000000000000000000DF
:10041B00000081130081150081140081000081050B
:10042B000000E4FDFCC3ED9FEC9E5021781CE4F230
:10043B0008746CF2781C08E2FB24FFF218E2FA3421
:10044B00FFF2EB4A70EE0DBD00010C80D822A2909A
:10045B00E43325E0FFA291E4334FFFA287E4332579
:10046B00E025E04FFFA286E43333333354F84FFFDC
:10047B00A296E433C454F04FFF22C0E0C0D075D035
:10048B0000C005C006C0077F071205188F207D70BE
:10049B007F27120507D007D006D005D0D0D0E03289
:1004AB007D0E7F201205077B007A00790878207477
:1004BB0014F27FA012000ED2E87F647E0012042D8E
:1004CB00C2E822E4F5201204ABA204720550FAE450
:1004DB00FD7FE11205077DFF7F27120507E4F5205D
:1004EB0022E4F580F5907593C0759443759F317533
:1004FB009F30759F36759E37759E3622C2E9120561
:10050B0025AE07AF05120525D2E9AF0622C2E912C7
:10051B000525E4FF120525D2E9228FE7E5E630E158
:04052B00FBAFE72219
:00000001FF
