:1000030000000000000000000000000000000000ED
:100013001022640C9008F71434541414F6040000EE
:1000230000FC408912869092F28ACA8202FF020083
:10003300402010FC0310929292FE91D19810000080
:100043004020F028242724E4342C2420F02000002E
:10005300003E22E2223E848484FC848283C28000A8
:10006300000000000000000000000000000000008D
:1000730040424242424242FE4242424243624000C6
:10008300040404F494949596949494F4040604005C
:10009300804020F88780848484FC848282C080002E
:1000A300000000FC041665048404FE040000000044
:1000B30002020202020202020202FFA21018000060
:1000C300000000000000000000000000000000002D
:1000D300000000000000000000000000000000001D
:1000E300000000000000000000000000000000000D
:1000F3000404FE01011F1111131551917F11010019
:1001030000FF087C02007C2427243E44807F0000FB
:1001130000008081403E020202023F4240407000E4
:1001230040405F494949494F494949495F60400057
:10013300207F203F915120180601061860C040001F
:10014300000000462F1F0600000000000000000012
:1001530080804020100C0300030C102040C040009E
:1001630000FE02027A4A4A4A4A4A7A0282FF02009F
:10017300000000FF00202020203F2020302000002E
:10018300101010131212121212135A92423F02004D
:10019300000000000000000000000F3041836000F9
:1001A30000387C44447C380000000000000000005C
:1001B300000000000000000000000000000000003C
:1001C300000102030405060708090A0B0C0D0E0FB4
:10024400E4FDFCC3ED9FEC9E5015E4FBFA0BBB00F0
:0F025400010AEB64324A70F50DBD00010C80E425
:010263002278
:1001D300E4F508F509E4F50AF50BE4F50CF50DAFC4
:1001E3000DE5092FFE90000393F590EE9000E39345
:1001F300F5B0EF9001C393F5A07F037E0012024494
:10020300050DE50D7002050CC39410E50C94004038
:10021300CE050BE50B7002050AC39405E50A9400AD
:1002230040B8E50D6410450C7004F50CF50D050997
:10023300E50970020508C394D0E508940040968050
:010243008F2B
:0300000002026495
:0C026400787FE4F6D8FD75810D0201D30F
:00000001FF
