:020000040800F2
:1000000068050020B5010008B9010008BB0100081F
:10001000BD010008BF010008C10100080000000088
:10002000000000000000000000000000C301000804
:10003000C501000800000000C7010008C901000850
:10004000A7180008CB010008CB010008CB0100086D
:10005000CB010008CB01000881160008CB01000885
:10006000CB010008CB010008CB010008CB01000840
:10007000CB010008CB010008CB010008CB01000830
:10008000CB010008CB010008CB010008CB01000820
:10009000CB010008CB010008CB010008CB01000810
:1000A000CB010008CB010008CB010008CB01000800
:1000B000CB01000801190008CB010008CB010008A2
:1000C000CB010008CB010008CB010008CB010008E0
:1000D000CB0100083512000875130008CB01000899
:1000E000BF160008CB010008CB01000800F002F8A1
:1000F00000F050F80AA090E8000C82448344AAF172
:100100000107DA4501D100F045F8AFF2090EBAE86F
:100110000F0013F0010F18BFFB1A43F0010318473B
:100120002846000048460000103A24BF78C878C12D
:10013000FAD8520724BF30C830C144BF04680C60ED
:10014000704700000023002400250026103A28BF35
:1001500078C1FBD8520728BF30C148BF0B60704739
:10016000642902F0A785782902F0DC85732903F061
:100170002080002070471FB5AFF3008003F078F9AE
:1001800004000020002103F0DFF9401C60601FBD67
:1001900010B510BD03F046F91146FFF7ECFF00F073
:1001A00023F803F07BF9FFF7F3FF01F035F80000C7
:1001B00030BF000008480047FEE7FEE7FEE7FEE725
:1001C000FEE7FEE7FEE7FEE7FEE7FEE70348044939
:1001D000024A044B70470000ED000008680300204D
:1001E000680500206803002010B5092000F0BAFF60
:1001F000482000F051FE4FF4E131482001F055F85D
:100200004FF41661242001F0F0F801F06FF901F0CD
:1002100037FD01F0ABF941F61F41092001F081FBE8
:1002200000F0F6F801E000F089FDFCE730B595B08C
:1002300004460D462022502101A802F0FFFE2A4666
:10024000FDA101A802F0D2FC284602F092FE01A90D
:1002500020220A5400208DF82C0004EB041081B2F7
:1002600001AA002002F082FC15B030BD10B5044692
:1002700004EB0410401E83B204EB0410401E81B254
:1002800040F23F12002002F06EFA10BD70B5044635
:100290000D46164605EB85008004010CE7A2002000
:1002A00002F064FC05EB85008004010C3246204618
:1002B00002F05CFC70BD00BFEA49098811F0400FF4
:1002C000FAD0E849091D0880704700B5E64890F863
:1002D0003F00E54991F83E1088420ED0E24890F880
:1002E0003F00401CC2B23E2A00DB0022DE48835C95
:1002F00080F83F201846FFF7DEFF00BD10B5002450
:10030000DA480068401CD949086008460068C828D7
:100310000AD30120D6490870D6480078801CD549F8
:1003200008700020D1490860D3480088D34908806C
:10033000CE480838006809880844CC490839086064
:10034000084600684EF66021884203D30020C74962
:1003500008390860C5480838006847F230518842BB
:1003600003D20120C649086002E00020C4490860A9
:10037000C34880380068C4B2C2484078A04206D062
:10038000012C04D1BF480078401CBE490870BD480C
:100390004470BD480068C4B2BA480079A04206D093
:1003A000012C04D1B748C078401CB649C870B54884
:1003B0000471B548001D0068C4B2B248C079A042BB
:1003C00006D0012C04D1AF488079401CAD4988711A
:1003D000AC48C471A548001F0078401CA349091F00
:1003E000087008460078102801DB00200870A74834
:1003F00000789E49091F0978884203DD0020A4493E
:10040000086002E00120A2490860FFF75EFF10BD0E
:1004100010B5A048806940F010009E4988619E4850
:10042000406820F470209C4948600846406840F4C9
:10043000002048600846C06840F48050C860084604
:10044000406820F4704048600846406840F400402E
:1004500048600846C06840F40060C860084600680C
:1004600020F4702008600846006840F4E02008602E
:100470000846C06840F01000C8604FF6FF7001F0F9
:10048000DDFB4FF478408549088085A10020FFF707
:10049000CDFE8CA38EA291A1954802F0A7FB9449B2
:1004A0000120FFF7C3FE0220FFF7E0FE0720FFF761
:1004B000DDFE0A20FFF7DAFE0D20FFF7D7FE1F2032
:1004C000764908808BA10220FFF7B0FE00206F491B
:1004D0000870487010BD0021634A92F83E20521CFB
:1004E000D1B23E2900DB00215F4A505482F83E1011
:1004F000704770B50446002504E0605DFFF7EBFF30
:10050000681CC5B2204602F034FDA842F5D870BD83
:1005100070B506460C4622467DA1002002F0E1FCA3
:1005200005462A467BA1724802F060FB70490D2007
:10053000FFF77CFE284602F0C7FC4F49088070BDDB
:100540000146302905DB392903DCA1F13000C0B2B6
:100550007047412905DB462903DCA1F13700C0B211
:10056000F6E70020F4E770B502460B4613F8010BDE
:10057000FFF7E6FF0546012408E013F8010BFFF73B
:10058000DFFF00EB051085B2601CC4B29442F4DBBF
:10059000284670BD2DE9F34F87B00C46236861A152
:1005A0005348079A02F022FB51490D20FFF73EFE07
:1005B000206802F0DEFC0C283AD301202168FFF706
:1005C000D2FFC5B22068411C0120FFF7CCFFC6B2A4
:1005D0002068811C0220FFF7C6FFC7B22068011DFA
:1005E0000220FFF7C0FF00F0FF082068811D0220F5
:1005F000FFF7B9FF00F0FF09206800F108010220B1
:10060000FFF7B1FF00F0FF0A206800F10A010220A5
:10061000FFF7A9FF00F0FF0B2B468DE8C00F44A1A8
:100620003348079A02F0E2FA31490320FFF7FEFD52
:1006300009B0BDE8F08F00002573000020202020C5
:1006400020202020202020202020202020202020AA
:10065000202020202020202020202020202020209A
:100660002020200000380140440200201C0000200F
:1006700000000020020000200400002006000020EE
:10068000888122423C0000202C01224224000020CC
:10069000A00121420010024000100140360000205D
:1006A00020202020202044324D2052464944205210
:1006B0006561646572202F20466C6F772053656EEC
:1006C000736F720030393A33343A32380000000028
:1006D0004A616E2020342032303131002020204207
:1006E00075696C642044617465202573202573004E
:1006F0008500002020202020523030203A20303049
:100700003030302D78787878782D323030303700AE
:1007100020000000465220436D64202573202020D5
:10072000202000002020202573203A20257300007F
:10073000202020202573203A205525582D5A255851
:100740002D52253032582D47253032582D42253034
:1007500032582D43253032582D4325303258000071
:1007600030B589B004460D462246AFF24801FF4835
:100770002B6802F03BFAFD490D20FFF757FD286872
:1007800002F0F7FB142829D307A800210A4606C067
:1007900005A806C003A806C02868011D062207A8F0
:1007A00002F006FC286800F10A01052205A802F003
:1007B000FFFB286800F10F01052203A802F0F8FBF7
:1007C00003AB05AACDE9002307AB2246E8A1E74821
:1007D00002F00CFAE5490220FFF728FD09B030BD10
:1007E000F8B506460C4617466A46AFF2DC012046CD
:1007F00002F077FB05460122E2A1284602F073FBD6
:1008000018B969462846FFF7ABFF0122DEA128464A
:1008100002F069FB18B969462846FFF7BBFE0322C0
:10082000DAA1284602F05FFB18B969462846FFF7AF
:100830006FFEF8BD10B5D648007810F0800F25D0B7
:10084000D348007800F03F044021D24802F0FEFB7C
:100850002246D149CF4802F0ABFB0020CC490870BA
:10086000CC4ACEA1C14802F0C1F9C048FFF741FE11
:10087000C84ACBA1BD4802F0B9F9BC490A20FFF72C
:10088000D5FC2246C3490120FFF7AAFFC8480078DB
:1008900010F0800F25D0C648007800F03F044021BA
:1008A000BC4802F0D3FB2246C249BA4802F080FBA2
:1008B0000020BF490870B74AB8A1AC4802F096F9C9
:1008C000AA48FFF716FEB34ABBA1A84802F08EF96A
:1008D000A6490B20FFF7AAFC2246AE490220FFF7EB
:1008E0007FFF10BD024600200846914201D3801AC6
:1008F00004E0401C4FF6FF7353401844704730B576
:1009000000253FE0002413E0C5EB0510AE4901EBE4
:100910008000C4F1040150F82100C5EB0511AA4A7A
:1009200002EB8101C4F1050241F82200601CC4B24F
:10093000052CE9DBA54800EB45100069C5EB051166
:10094000A14A42F82100002418E0C5EB05129E4B95
:1009500003EB8203621C53F82200C5EB05129A4B8D
:1009600053F82210FFF7BEFFC5EB0511964A02EBC4
:100970008101283141F82400601CC4B2052CE4DB5D
:10098000681CC5B2022DBDDD30BD10B5002439E0B4
:1009900004EB84008E4901EB8000406804EB840185
:1009A0008B4A42F82100894800EB4410006904EBAF
:1009B000840102EB8101486004EB8400114601EBE5
:1009C0008000C06804EB840102EB810188608148EB
:1009D000007804EB840102EB8101C86004EB84021F
:1009E0007B4B03EB8202516804EB840253F8220034
:1009F000FFF778FF04EB8401754A02EB810108617F
:100A0000601CC4B2022CC3DD10BD034600220A469E
:100A1000994201DBD21A02E002F58072D21AD0B2FA
:100A20007047024600200846914202DB831AD8B282
:100A300004E0431CD8B2D3430344D8B2704730B566
:100A4000002428E004EB440063490D5C5F4901EB9E
:100A50004411087F2946FFF7E4FF5C4901EB44118C
:100A600009690844594901EB44110861574800EBF2
:100A70004410057757480578544800EB4410C06887
:100A8000401C524901EB4411C860504800EB44102F
:100A90000572601CC4B2022CD4DD5048007820B12D
:100AA00001280BD0022831D12FE000204B494860AB
:100AB000C860002149480161416127E0474840681A
:100AC000801C46494860444A1178444A107EFFF72A
:100AD0009CFF4249C96808444049C8603E4AD178F1
:100AE0003E4A507EFFF791FF3C49096901443B486B
:100AF0000161394A91790246907EFFF786FF3749B6
:100B0000496901443548416100E000BF00BF3248F7
:100B10000078324908763048C178304841762E480E
:100B200081792E4881762B4800782C49087230BD97
:100B30001FB52B480078401C2949087029480068D7
:100B400080F001002849C1F89001FFF778FFFFF716
:100B50001CFFFFF7D4FE1C48836B1D4802691B482D
:100B600001691E48007E8DE80F003FE085000020EF
:100B7000202020202573203A2025732D25732D2534
:100B80007300000052000000530000006346520052
:100B90002C000020450000208402002025730A005C
:100BA000205541525431203A202573202020000046
:100BB0002D000020C4020020205541525432203A1A
:100BC000202573202020000090010020F400002048
:100BD00054010020020000203C000020D80000202A
:100BE0002000002090012242000022427648038823
:100BF0007648027876A1814801F0F8FF7F49072006
:100C0000FFF714FB7E48436F7E48426A7E48016BC3
:100C10007E488DE80E00437E7DA14268774801F052
:100C2000E5FF76490820FFF701FB7548D0F8B030A2
:100C30007448826B7448016D74488DE80E00837EA1
:100C400002787EA16D4801F0D1FF6C490920FFF7C1
:100C5000EDFA1FBD10B55D48401C0078401C5B4993
:100C6000491C08700846007801281EDB0020087027
:100C7000481C0078401C491C087008460078202851
:100C800001DB002008705148801C0078102807DD27
:100C90004E48801C007880F01F007349087004E003
:100CA0004A48801C0078704908704848C01C007889
:100CB000401C4649C91C087008460078052803DB1B
:100CC00000200870FFF734FF002C36D0012C04D030
:100CD000022C12D0032C2FD11EE03B48008800F5D7
:100CE00080703949088008460088C0F30B000880EE
:100CF0005EA10C20FFF79AFA1EE0334800881030FE
:100D00003149088008460088C0F3090008805AA1CC
:100D10000C20FFF78BFA0FE05AA10C20FFF786FAA0
:100D20003A480078401C3949087008460078032882
:100D300001DB0020087000BF00BF10BD10B5544893
:100D40000078012804D1002051490870FFF782FF84
:100D5000FFF770FD10BD01460020002209E04306A8
:100D6000180E012393400B4201D0431CD8B2531CF0
:100D7000DAB2072AF3DD704770B5002400BF002502
:100D80001AE0444AA91C505CFFF7E5FF44400026E6
:100D90000EE014F0800F05D06004040C40F21D1129
:100DA0004C4001E06004040CC4F30804701CC6B29B
:100DB000072EEEDD681CC5B2082DE2DBE0B2FFF7BE
:100DC000CAFF0446254670BD040000202000002014
:100DD00020544D20253032582020202046524120DA
:100DE00025303564204120253032582025303458B4
:100DF0002025303464202530346400008500002034
:100E00009001002054010020F4000020D8000020B0
:100E100020202020202020202020454C5420253038
:100E20003564204220253032582025303458202582
:100E3000303464202530346400000000202020205D
:100E400020202020202053542020256420202020F2
:100E50002043202530325820253034582025303486
:100E6000642025303464000024000020204B4559C4
:100E70002020203A20310000204B45592020203AE4
:100E800020320000204B45592020203A203300001A
:100E900000000020080000204FF0E021096921F047
:100EA00004014FF0E02211610146C21700EB5272BB
:100EB000D2101F4B1A70194609784FF47A725143B9
:100EC0009A1C118070471A4A921C128842434FF0B4
:100ED000E0235A6100229A6101221A6100BF4FF09B
:100EE000E022116911F0010F02D011F4803FF6D019
:100EF00000224FF0E0231A619A6170470C4A127881
:100F000042434FF0E0235A6100229A6101221A61A4
:100F100000BF4FF0E022116911F0010F02D011F46F
:100F2000803FF6D000224FF0E0231A619A617047AB
:100F300026000020AC4A0A400243AC4B1A607047BE
:100F4000072323EA00021202A84B1B1D19684FF663
:100F5000FF031940A64B194311434FF0E023C3F898
:100F60000C1D70472DE9F04704460D4616461F46F6
:100F70003046F11706EB91714FEAA109F11706EB24
:100F800091718910A6EB810101F0FF0A042101EBA8
:100F9000CA0000F0FF0A3846FFF7D2FFC7F104008D
:100FA00004FA00F80F203841284040EA080808F009
:100FB0000F08202E09DA8F4800680121B14008434C
:100FC0004FF0E021C1F800010BE08A48001D0168E4
:100FD000A6F120020120904001434FF0E020C0F82C
:100FE0000411854850F8290008FA0AF101438248A3
:100FF00040F82910BDE8F08770B50D46CE1701EB1B
:101000009676B310CE1701EB9676B610A1EB860656
:10101000B606340E794DAD6945F00105774EB561E0
:101020004FEAB63555F823600F25A540AE43744D01
:1010300045F8236055F8235000FA04F63543704E06
:1010400046F823506F4D2E6801258D402E436C4D80
:10105000083DC5F8006412F0010F09D0694D0C3548
:101060002E6801258D402E43654D083DC5F80C6462
:1010700012F0020F09D0634D08352E6801258D400E
:101080002E435F4D083DC5F8086470BD00B50020D3
:101090005A490861C8601420486100208861C8610D
:1010A0000846006840F0010008600846406856495C
:1010B00008405249486008460068544908404F4972
:1010C00008600846006820F48020086008464068F0
:1010D00020F4FE0048600020886000214FF000608E
:1010E000FFF728FF00BD10B540480830006840F009
:1010F00004004FF0E021C1F8100D4048C06940F0F5
:1011000080503E49C8614248406840F48070404980
:1011100048600846006840F004000860084600681F
:1011200040F002000860FFF743F810BD3048001D92
:101130002E49091D086070470146084649062F4A96
:10114000926942F001022D4B9A612D4A083A526889
:1011500022F0E0622A4B083B5A601A4652680A4362
:101160005A60704730B504460025FFF78FFF2348CB
:10117000006840F480302149086000BF1F480068C3
:10118000400CFBD04FF480601C494860A01EC4B2E4
:101190000846406840EA844048600846406840F499
:1011A000803048601B48006840F0320019490860F0
:1011B0001248006840F080701049086000BF0F4876
:1011C0000068400EFBD00D48406840F002000B491B
:1011D000486005E009484068C0F3870505F003054D
:1011E000022DF7D130BD000080FFFF1F08ED00E0A9
:1011F0000000FA0500E100E000E400E00010024019
:1012000008000140000401400000FFF8FFFFF6FE67
:101210000070004000200240014600BF7047C2B28B
:10122000A64B1A8000BFA54A121F128812F0400F69
:10123000F9D07047A149091F098811F0200F33D058
:101240009E490988C8B29E49097811F0800F2BD1B8
:101250009B49097811F0400F0CD00A2803D00021D7
:10126000974A117020E09649097841F08001944A2C
:10127000117019E00D2806D19149097841F040011B
:101280008F4A117010E08E49097801F03F018D4AB4
:1012900050548B490978491C894A117011460978C4
:1012A0003F2901DD0021117070472DE9F05F0446F0
:1012B0000D46280102F021FB8146834904FB01F021
:1012C00002F01BFB8246494602F0E0F90646304632
:1012D00002F0CEFA87B2384602F00FFB8346314661
:1012E00002F0B9FB82464FF0834102F00BFB8146CE
:1012F00002F0BEFA80463F0107EB080087B2734850
:10130000806940F00400714988610846806940F4B2
:10131000804088616E486F4908606C48C06840F43E
:1013200080406A49C8600846C06820F48040C860B0
:101330006948A0F8087861480830008842F20C013A
:1013400008436549A1F80C080846B0F80C0840F4B9
:101350008070A1F80C080846B0F80C0840F0200096
:10136000A1F80C080223252203210846FFF7FAFD05
:10137000BDE8F09F5949098811F0200F34D0574932
:10138000091D0988C8B25649097811F0800F2BD180
:101390005349097811F0400F0CD00A2803D00021DE
:1013A0004F4A117020E04E49097841F080014C4AC3
:1013B000117019E00D2806D14949097841F0400122
:1013C000474A117010E04649097801F03F01454A4B
:1013D000505443490978491C414A11701146097813
:1013E0003F2901DD0021117070472DE9F05F0446AF
:1013F0000D46280102F081FA8146334904FB01F0D1
:1014000002F07BFA8246494602F040F90646304631
:1014100002F02EFA87B2384602F06FFA8346314660
:1014200002F019FB82464FF0834102F06BFA8146CD
:1014300002F01EFA80463F0107EB080087B22348FE
:10144000806940F00400214988610846C06940F481
:101450000030C86124481F49091F08601B48006903
:1014600040F40030194908610846006920F4003052
:1014700008614FF04020A0F8087418480C3000882C
:1014800042F20C0108434FF04021A1F80C04084639
:10149000B0F80C0440F48070A1F80C040846B0F8D1
:1014A0000C0440F02000A1F80C04022326220321A2
:1014B0000846FFF757FDBDE8F09F000004380140E3
:1014C0002C0000208402002040420F000010024047
:1014D000B44444440408014000300140004400404A
:1014E0002D000020C4020020444B44441B48806966
:1014F00040F00400194988610846806940F02000E6
:1015000088611748006820F00F001649C1F80408E8
:101510000846D0F8040840F00300C1F80408084663
:10152000D0F80C0840F48070C1F80C080E48D0F8D0
:10153000000420F470600C49C1F800040846D0F89B
:10154000000440F44070C1F800040846D0F80C04D0
:1015500040F00400C1F80C04704700000010024085
:101560000408014000000140001001403D4880692E
:1015700040F004003B4988613B48006820F00F00C0
:101580003A49C1F800080846D0F8000840F00800C1
:10159000C1F800083448001D006835490840334947
:1015A000C1F804083048001D0068324908432F493B
:1015B000C1F804080846D0F80C0840F40050C1F8FF
:1015C0000C080846D0F80C0840F40040C1F80C089C
:1015D000704710B50220FFF7AFFD274800780028BC
:1015E0002BD02648006840B124480830006820B15C
:1015F00022483438006801281FD10A20FFF763FC15
:1016000000201D4908701D48006820B90120FFF71F
:1016100093FD012010BD19480830006820B9012051
:10162000FFF78AFD0220F5E71448343800680128E6
:1016300013D1FFF781FD0320ECE710480068012873
:101640000BD10E4808300068012806D10B48343809
:10165000006810B90120084908700120FFF76CFDEF
:101660000020D7E7001002400008014000000140C0
:10167000FFFF0F0F00008080340000203401214262
:1016800010B50A20FFF71FFC50480068012812D14E
:101690004E48A030006808B9012000E000204B4906
:1016A000A03108604A48D0F8880108B9012000E05C
:1016B00000204849086001204749086010BD10B566
:1016C0000A20FFF700FC41483430006850B93F4819
:1016D000A030006808B9012000E000203B49A0319B
:1016E00008600BE039483C30006838B93948006878
:1016F00008B9012000E00020364908604FF400508E
:101700003549086080003549C1F8140410BD10B592
:101710003348806940F00400314988610846806997
:1017200040F0010088612D48406820F0E0602B49BE
:1017300048600846406840F080604860294800687A
:1017400020F00F00C1F800080846D0F8000840F06B
:101750000800C1F800082348001D0068224908401D
:101760001E49C1F804081F48001D00681F490843AE
:101770001A49C1F804080846D0F80C0840F4005093
:10178000C1F80C080846D0F80C0840F40040C1F835
:101790000C08022200210846FFF72EFC01220D2131
:1017A0000020FFF729FC01220F210020FFF724FC75
:1017B0000223062219461846FFF7D4FB02232822EB
:1017C00001211846FFF7CEFB10BD000000012142A9
:1017D000008022428881224214040140000001401E
:1017E0000010024000080140FFFF0F0F0000808042
:1017F00045F255523B4B1A601A46506091604AF6CA
:10180000AA221A604CF6CC421A6070474AF6AA2007
:1018100034490860704770B504460D461646324894
:10182000C06940F400603049C8613049097804EA71
:1018300001002E4908702E48006840EAC6102D4964
:10184000C1F8040C0846D0F8040C40F40070C1F84C
:10185000040C274800684FF6807108402549C1F8FC
:10186000040C0846D0F8040C2843C1F8040C2048A6
:10187000001F00681D49097841F0800108431D4997
:10188000C1F8000C0223002203211846FFF76AFB6F
:1018900070BD1749091F096800F07F021143154AFE
:1018A000C2F8001C704710B51148006800F07F03B3
:1018B0001048D0F8000C00F07F049C4203DA0B487B
:1018C0000078FFF7E6FF00200949091D08600A4873
:1018D000D0F8880108B9012000E00020074908601D
:1018E00010BD000000300040001002403500002014
:1018F000042C0040002000400080224288812242C7
:1019000010B54648008810F0010F01D0FEF7F6FC34
:101910004248008820F001004FF08041A1F81004F7
:1019200010BD70B504460D463D48C06940F0020048
:101930003B49C86139481C3004808804A0F8285409
:10194000B0F80C0440F001008904A1F80C0408462A
:10195000B0F80C0440F04000A1F80C040846B0F8C0
:10196000000440F00100A1F8000402231D2203211D
:101970000120FFF7F7FA70BD294AD26942F002024E
:10198000274BDA61274A126822F00F02264BC3F870
:1019900004281A46D2F8042842F00402C3F80428A6
:1019A0001A46D2F8002822F07042C3F800281A46DE
:1019B000D2F8002842F03042C3F800281A46D2F884
:1019C0000C2842F08002C3F80C289A03A2F82C04D9
:1019D000A2F82814B2F8182442F4E0429B03A3F8BA
:1019E00018241A46B2F8182442F40062A3F8182406
:1019F0001A46B2F8202442F01002084B10331A8025
:101A0000DA13D303A3F80024D203B2F8002442F07F
:101A10000102024B103B1A80704700001004004086
:101A20000010024004080140000001400021FF4A6C
:101A30001160FF4AC2F8A411FE4908600021FB4A68
:101A4000121F116001211160F94AC2F8A4117047F8
:101A500010B504460B462046FFF7E8FF0120F34986
:101A600008600020F249C1F8A401F2480360002098
:101A7000EE49091F086001200860ED49C1F8A40182
:101A800010BD10B503461846FFF7D0FF4FF0883061
:101A9000E8490C390860E849C1F8040C0020E54920
:101AA00008600120E14908600020091D0860DF4945
:101AB000083908600120DE49C1F89801DD48001F9F
:101AC000006884B20120D949091D08604FF0333005
:101AD000D8490C390860091D08604FF6FF70D649D7
:101AE000C1F80C0C204610BD00B52220FFF79EFF68
:101AF00000BD0121CD4A11600021CD4AC2F8A411D8
:101B0000CC4908600021C94A121F116001211160EF
:101B1000C74AC2F8A411704730B5014601F01F044E
:101B2000C1F34513CA0AE50205EB43151544A8B2F3
:101B300030BD70B504460D46B4F5A07F01DAF02D36
:101B400001DB002070BD2946204601F0EDFC22207B
:101B5000FFF76CFF4FF08830B6490C390860B64982
:101B6000C1F8040C4FF6FF70B24908600120AF497C
:101B700008600020091D0860AC4908390860012090
:101B80000860002008600120A949C1F89801AA480E
:101B9000D0F8080C86B20120A449091D08604FF056
:101BA0003330A4490C390860091D08604FF6FF70F6
:101BB000A149C1F80C0CA1480088A0F58A4131392F
:101BC00001D13046BEE73046FFF7A6FFBAE700B5C1
:101BD00040F273110720FFF73BFF00BD00B5002165
:101BE0000720FFF735FF00BD002100E0491C00EB96
:101BF000C00202EB0012B1EB820FF7D3704770B551
:101C000004460D462946204601F08EFC2220FFF7AF
:101C10000DFF01208549086000208549C1F8A40115
:101C2000874800888349086000208049091F0860B0
:101C3000012008607E49C1F8A40170BD70B5054659
:101C400000240021084601F06FFCFFF74DFF00BFA4
:101C500012E001207549086000207549C1F8A4010F
:101C60007448056000207149091F08600120086060
:101C70006F49C1F8A401641CB4F5963FE9D370BD67
:101C800010B57048806940F008006E4988610846C8
:101C9000806940F0100088610846806940F00100CA
:101CA00088610120FFF748FA674840686FF30B002E
:101CB000654948600846406840F23331084362494C
:101CC00048600846006820F07F40086008460068C9
:101CD00040F04C5008600846C06840F4F860C860A6
:101CE0004FF033305349083908605349C1F8000CAC
:101CF0004FF6FF704F4908600520FFF775FF01217F
:101D00000020FFF7A5FE0520FFF76EFF0020FFF77C
:101D1000B8FE4A490880084601884CA000F056FFEA
:101D200046480088A0F51341253905D0434800886E
:101D3000A0F51341283978D11021E720FFF788FE5C
:101D400001210020FFF784FE4FF480710120FFF78E
:101D50007FFE4FF4E0610220FFF77AFE41F230018E
:101D60000320FFF775FE00210420FFF771FE40F20B
:101D700007210820FFF76CFE00210920FFF768FE0D
:101D800000210A20FFF764FE01210C20FFF760FE0E
:101D900000210D20FFF75CFE00210F20FFF758FE09
:101DA00000211020FFF754FE07211120FFF750FEFD
:101DB00000211220FFF74CFE00211320FFF748FE00
:101DC0000520FFF711FF41F290511020FFF740FE70
:101DD00040F227211120FFF73BFE0520FFF704FF0B
:101DE0009C211220FFF734FE0520FFF7FDFE4FF483
:101DF000C8511320FFF72CFE23212920FFF728FECE
:101E00000E212B20FFF724FE0520FFF7EDFE002119
:101E10002020FFF71DFE40F23F112120FFF718FEA2
:101E20000520FFF7E1FE072114E0A0E0A001224217
:101E3000000022420C0C0140000001403A0000204A
:101E400036000020001002400010014049443A25AD
:101E5000640A00003020FFF7FBFD40F207713120DB
:101E6000FFF7F6FD06213220FFF7F2FD40F2047184
:101E70003520FFF7EDFD41F604713620FFF7E8FD50
:101E800004213720FFF7E4FD00213820FFF7E0FDB3
:101E900040F206713920FFF7DBFD40F201713C2072
:101EA000FFF7D6FD0F213D20FFF7D2FD0520FFF7FC
:101EB0009BFE00215020FFF7CBFDEF215120FFF7C3
:101EC000C7FD00215220FFF7C3FD40F23F11532010
:101ED000FFF7BEFD4FF427416020FFF7B9FD012158
:101EE0006120FFF7B5FD00216A20FFF7B1FD002159
:101EF0008020FFF7ADFD00218120FFF7A9FD002123
:101F00008220FFF7A5FD00218320FFF7A1FD00211E
:101F10008420FFF79DFD00218520FFF799FD10210A
:101F20009020FFF795FD00219220FFF791FD0321FE
:101F30009320FFF78DFD4FF488719520FFF788FD02
:101F400000219720FFF784FD00219820FFF780FDF6
:101F500040F233110720FFF77BFD00212020FFF71F
:101F600077FD40F23F112120FFF772FDCDE3FF48DE
:101F70000088A0F51341203904D0FC480088B0F552
:101F8000134F7ED100210846FFF762FD4FF48071A8
:101F90000120FFF75DFD4FF4E0610220FFF758FDDF
:101FA00041F230010320FFF753FD00210420FFF729
:101FB0004FFD40F202210820FFF74AFD00210920D1
:101FC000FFF746FD00210A20FFF742FD01210C200A
:101FD000FFF73EFD00210D20FFF73AFD00210F2005
:101FE000FFF736FD0520FFF7FFFD40F20111072046
:101FF000FFF72EFD0520FFF7F7FD4FF48651102067
:10200000FFF726FD07211120FFF722FD4FF488710D
:102010001220FFF71DFD4FF430611320FFF718FD6C
:1020200000212920FFF714FD44F210012B20FFF7B7
:102030000FFD00215020FFF70BFDEF215120FFF78E
:1020400007FD00215220FFF703FD40F23F1153200E
:10205000FFF7FEFC4FF41C516020FFF7F9FC012153
:102060006120FFF7F5FC00216A20FFF7F1FC002159
:102070008020FFF7EDFC00218120FFF7E9FC002123
:1020800000E02DE08220FFF7E3FC00218320FFF732
:10209000DFFC00218420FFF7DBFC00218520FFF717
:1020A000D7FC10219020FFF7D3FC00219220FFF7EE
:1020B000CFFC01219320FFF7CBFC4FF488719520D2
:1020C000FFF7C6FC00219720FFF7C2FC00219820F3
:1020D000FFF7BEFC40F273110720FFF7B9FC14E3D1
:1020E000A2480088A0F5A85105397ED10720FFF746
:1020F000AFFC0520FFF778FD4FF48E711220FFF73B
:10210000A7FC0121A420FFF7A3FC0F210820FFF763
:102110009FFC08210A20FFF79BFC08210D20FFF7F8
:1021200097FC40F207713020FFF792FC0721312025
:10213000FFF78EFC40F203613220FFF789FC4FF479
:10214000E0613320FFF784FC40F202213420FFF7E6
:102150007FFC02213520FFF77BFC41F60F71362012
:10216000FFF776FC40F207713720FFF771FC002182
:102170003820FFF76DFC00213920FFF769FC40F2A1
:1021800007713A20FFF764FC00213B20FFF760FC59
:1021900007213C20FFF75CFC00213D20FFF758FCA5
:1021A0000520FFF721FD01210720FFF751FC012148
:1021B0001720FFF74DFC0520FFF716FD4FF4BD512A
:1021C0001020FFF745FC40F217211120FFF740FCDB
:1021D0004FF48F711220FFF73BFC4FF47061132016
:1021E000FFF736FC00212A2000E093E0FFF730FCE7
:1021F0000A212920FFF72CFC4FF49F711220FFF7D2
:1022000027FC00215020FFF723FCEF215120FFF78E
:102210001FFC00215220FFF71BFC40F23F1153200E
:10222000FFF716FC4FF41C516020FFF711FC012151
:102230006120FFF70DFC00216A20FFF709FC002157
:102240008020FFF705FC00218120FFF701FC002121
:102250008220FFF7FDFB00218320FFF7F9FB00211F
:102260008420FFF7F5FB00218520FFF7F1FB132108
:102270009020FFF7EDFB4FF440719220FFF7E8FB51
:1022800005219320FFF7E4FB00219520FFF7E0FBF9
:1022900000219720FFF7DCFB00219820FFF7D8FBF7
:1022A0004FF480710120FFF7D3FB4FF4E06102206F
:1022B000FFF7CEFB41F230010320FFF7C9FB0021FD
:1022C0000420FFF7C5FB00210C20FFF7C1FB002114
:1022D0000F20FFF7BDFB00212020FFF7B9FB0021F5
:1022E0002120FFF7B5FB21210720FFF7B1FB1420C8
:1022F000FFF77AFC61210720FFF7AAFB1420FFF704
:1023000073FC40F273110720FFF7A2FB1420FFF7C4
:102310006BFCFAE115480088A0F5094189397ED1A6
:1023200001210020FFF794FB0520FFF75DFC4AF632
:10233000A4010320FFF78CFB0520FFF755FC0021CB
:102340000C20FFF785FB0520FFF74EFC40F60C0143
:102350000D20FFF77DFB0520FFF746FC4FF42C51C5
:102360000E20FFF775FB052002E000003A00002078
:10237000FFF73AFCB0211E20FFF76AFB0520FFF7AC
:1023800033FC42F63F310120FFF762FB0520FFF7E7
:102390002BFC4FF4C0610220FFF75AFB0520FFF72A
:1023A00023FC00211020FFF753FB0520FFF71CFC46
:1023B00046F270011120FFF74BFB0520FFF714FCDC
:1023C00000210520FFF744FB0520FFF70DFC00214D
:1023D0000620FFF73DFB0520FFF706FC4EF61C71BB
:1023E0001620FFF735FB0520FFF7FEFB0321172022
:1023F000FFF72EFB0520FFF7F7FB40F23321072004
:10240000FFF726FB0520FFF7EFFB00210B20FFF76E
:102410001FFB0520FFF7E8FB00210F2000E0B5E0DF
:10242000FFF716FB0520FFF7DFFB00214120FFF738
:102430000FFB0520FFF7D8FB00214220FFF708FB28
:102440000520FFF7D1FB00214820FFF701FB052005
:10245000FFF7CAFB40F23F114920FFF7F9FA0520C8
:10246000FFF7C2FB00214A20FFF7F2FA0520FFF731
:10247000BBFB00214B20FFF7EBFA0520FFF7B4FB75
:102480004FF46F414420FFF7E3FA0520FFF7ACFB60
:1024900000214520FFF7DCFA0520FFF7A5FB40F2FD
:1024A0003F114620FFF7D4FA0520FFF79DFB40F2CD
:1024B00007713020FFF7CCFA0520FFF795FB4FF4AA
:1024C00001713120FFF7C4FA0520FFF78DFB4FF4AF
:1024D00001713220FFF7BCFA0520FFF785FB40F2BF
:1024E00002513320FFF7B4FA0520FFF77DFB40F2DD
:1024F00007513420FFF7ACFA0520FFF775FB4FF4C6
:1025000001713520FFF7A4FA0520FFF76DFB4FF4AA
:1025100001713620FFF79CFA0520FFF765FB40F2BA
:1025200002513720FFF794FA0520FFF75DFB40F2D8
:1025300002313A20FFF78CFA0520FFF755FB40F2F5
:1025400002313B20FFF784FA0520FFF74DFB002105
:102550002320FFF77DFA0520FFF746FB002124200A
:10256000FFF776FA0520FFF73FFB4FF400412520E7
:10257000FFF76EFA0520FFF737FB00214F20FFF72A
:1025800067FA00214E20FFF763FABEE0FB4800889F
:10259000A0F58A413139F8D101210020FFF758FA1E
:1025A0003220FFF721FB41F228611020FFF750FA9B
:1025B0000E211220FFF74CFA40F639211320FFF7C5
:1025C00047FA0A20FFF710FB40211120FFF740FADD
:1025D00050211520FFF73CFA2820FFF705FB1E21AC
:1025E0001220FFF735FA2820FFF7FEFA4FF4B15119
:1025F0001020FFF72DFA42F639211320FFF728FAB1
:102600000A20FFF7F1FA4FF480710120FFF720FA5A
:102610004FF440710220FFF71BFA41F23001032012
:10262000FFF716FA40F202210820FFF711FA0821FD
:102630000A20FFF70DFA00213020FFF709FA40F2D7
:1026400002413120FFF704FA4FF483713220FFF783
:10265000FFF940F203513320FFF7FAF94FF482718A
:102660003420FFF7F5F940F201313520FFF7F0F99A
:1026700040F207713620FFF7EBF940F205313720C1
:10268000FFF7E6F94FF402713820FFF7E1F940F661
:102690000B713920FFF7DCF902214120FFF7D8F94F
:1026A0004FF41C516020FFF7D3F901216120FFF79F
:1026B000CFF94FF404719020FFF7CAF94FF48571F8
:1026C0009220FFF7C5F904219320FFF7C1F94FF4D9
:1026D0008071A020FFF7BCF901210720FFF7B8F9AE
:1026E00021210720FFF7B4F923210720FFF7B0F9D4
:1026F00033210720FFF7ACF940F233110720FFF731
:10270000A7F90021A020FFF7A3F941F28830FFF7D5
:102710006BFA00209A4908604FF6FF70FFF78EFAB7
:1027200010BD2DE9F04704460D4616461F46DDF85C
:1027300020809448B0F80090AA46A0F800800BE0F2
:1027400005E029462046FFF75AFA681C85B2BD42CB
:10275000F7DD5546601C84B2B442F1DD8948A0F82B
:102760000090BDE8F0872DE9FF4F85B004460D4687
:102770001646002004900390A6EB04080898A0EBEE
:102780000509A3460095B8F1000F02DD0120019074
:102790000AE0B8F1000F02D10020019004E04FF0F0
:1027A000FF300190C8F10008B9F1000F02DD4FF0D1
:1027B000010A09E0B9F1000F02D14FF0000A03E06D
:1027C0004FF0FF3AC9F10009C84502DDCDF8088095
:1027D00001E0CDF80890002722E0009881B21FFAAE
:1027E0008BF0FFF70CFA0498404404900398484497
:1027F000039002990498884205DD04990298081A0A
:10280000049001988344DDE90210884206DDDDE989
:102810000210401A0390009850440090781C87B230
:102820000298401C8742D8DD09B0BDE8F08F2DE941
:10283000F04104460D4616461F462B4632462946B1
:102840002046FFF790FF3B46224629462046FFF7E9
:102850008AFF3B46324639462046FFF784FF3B4617
:10286000324629463046FFF77EFFBDE8F0812DE96C
:10287000F04704460D4616460027B0460320A0EB5D
:10288000460954E0EA1B91B2A4EB080290B2FFF7AC
:10289000B6F9EA1B91B204EB080290B2FFF7AFF968
:1028A00005EB080291B2E21B90B2FFF7A8F9EA1B10
:1028B00091B2A4EB080290B2FFF7A1F9A5EB0802D0
:1028C00091B2E21B90B2FFF79AF9EA1991B204EBC8
:1028D000080290B2FFF793F9A5EB080291B2E21952
:1028E00090B2FFF78CF905EB080291B2E21990B2B1
:1028F000FFF785F9EA1991B2A4EB080290B2FFF74D
:102900007EF97F1CB9F1000F03DAB800801D814405
:1029100006E0A7EB080080000A308144A8F1010816
:1029200005EB080291B2E21990B2FFF768F947454A
:10293000A8DDBDE8F0872DE9F84F04460D461646A0
:102940001F46A3460F4800880090B4F59C7F01DC29
:10295000E82D01DDBDE8F88FA6F12000C6B20A9887
:10296000002841D181463CE00C2F0FD106EB4600F8
:10297000054901EB800010F809800CE03A000020C6
:10298000A801224236000020AA3C00088A4800EB39
:10299000061010F809804FF0000A16E018F0010F39
:1029A00003D086490098088003E085480088834961
:1029B000088029462046FFF722F94FEA6808601C84
:1029C00084B20AF1010000F0FF0A07EBD771BAEBFD
:1029D000610FE3DB5C46681C85B209F1010000F081
:1029E000FF09B945C0DB30E04FF000092BE00C2FA8
:1029F00007D106EB4600734901EB800010F809800F
:102A000004E06D4800EB061010F809804FF0000A52
:102A100010E018F0010F07D005EB090291B204EBAA
:102A20000A0290B2FFF7EBF84FEA68080AF10100DA
:102A300000F0FF0A07EBD771BAEB610FE9DB09F190
:102A4000010000F0FF09B945D1DB5C49009808801E
:102A500080E710B50246012000E050430B00A1F1D1
:102A60000104E1B2F9D110BD2DE9FF4F81B0044658
:102A700015461E460E9F4FF0000AD0463EE0A6EBDC
:102A80000800401EC1B20A20FFF7E3FFB5FBF0F0DB
:102A90000A21B0FBF1F201FB120000F0FF09BAF1CC
:102AA000000F16D1701E404513DDB9F1000F0ED195
:102AB0000023BB4607EBD771491001FB084188B2E0
:102AC00000933B4620220299FFF735FF12E04FF0BA
:102AD000010A0023BB4607EBD771491001FB0841EF
:102AE00088B200933B4609F13001CAB20299FFF760
:102AF00022FF00BF08F1010000F0FF08B045BEDB77
:102B000005B0BDE8F08F2DE9F84F04460D46164696
:102B10001F46DDF828804FF0000923E0A7EB0900ED
:102B2000401EC1B20A20FFF794FFB6FBF0F00A2165
:102B3000B0FBF1F201FB120000F0FF0A0B9BC34651
:102B400008EBD871491001FB094188B20093434654
:102B50000AF13001CAB22946FFF7EDFE09F1010082
:102B600000F0FF09B945D9DBBDE8F88FF8B5044698
:102B70000D4616461BE0B4F59C7F03DD002405F1ED
:102B8000100085B2E82D06DD0020044605464FF60C
:102B9000FF70FFF753F80023009332781023294683
:102BA0002046FFF7C8FE04F1080084B2761C307896
:102BB0000028E0D1F8BD00001E41000836000020CA
:102BC00038000020AA3C0008704700000FB4054AF6
:102BD000054910B503AB7944029800F0C0FA10BC67
:102BE0005DF814FB3000002045E6FFFF0FB40849F4
:102BF0001CB506AB6A4679440090059800F0AFFA20
:102C00000020694600F0BEFA1CBC5DF814FB000011
:102C10008B05000070B50446856900683026C10642
:102C200000D42026C00709D106E0D4E901213046AE
:102C30009047206A401C20626D1EF6D570BD70B5AD
:102C4000044685690068C00709D006E0D4E901217F
:102C500020209047206A401C20626D1EF6D570BD72
:102C600070B505460C46012A01D101200BE0286809
:102C7000800600D5EA69002000E0401C904202D2A4
:102C8000215C0029F9D1A9692618091AA961296AC4
:102C9000014428462962FFF7BDFF04E0D5E9012180
:102CA00014F8010B9047B442F8D32846FFF7C7FF4A
:102CB00070BD00002DE9F04180460026106875299E
:102CC000414614A511D0AFF30080002802DA40423B
:102CD00011A508E0D8F800108A0701D50FA502E079
:102CE000490704D50EA5012601E0AFF300800024BA
:102CF00008F1240704E000F016FB30313955641C5C
:102D00000028F8D133462A4621464046BDE8F04126
:102D100000F0C8B9000000002D0000002B000000EA
:102D20002000000070B504460D4621461068AFF340
:102D300000802168090502D5104A7A4402E00F4A52
:102D40007A440E32002104F1240306E000F00F065D
:102D50004FEA1010965D5E54491C0028F6D1206899
:102D60000023000704D5702D02D009B111320223CF
:102D70002046BDE8704000F095B90000D019000071
:102D80002DE9F05F4FF0000B044689464FF0010A31
:102D9000C0F820B02046E168884700287DD025286B
:102DA00002D0D4E9012185E0464F00267F44204629
:102DB000E16888472028054607DB312D05D27819C0
:102DC00010F8200C08B10643F1E7B00701D526F052
:102DD0000406C4F81CB00027C4F818B02A2D10D17E
:102DE000204659F8041B04EB87029161E16888478B
:102DF000012F054628D1E069002830DA26F02006A8
:102E00002DE0A5F1300052460A2801461AD2CAB177
:102E100004EB870092468046816108E0D8F81800EC
:102E200000EB800005EB40003038C8F81800204661
:102E3000E168884705465046A5F130010A2901D2CC
:102E40000028EBD1012F0AD02E2D08D12046E168B1
:102E500088477F1C0546022F46F02006BEDBA0698E
:102E6000002803DA404246F00106A061F00701D0D5
:102E700026F010068DB1A5F14100192802D82035A1
:102E800046F400664A462946204626604E46FDF72F
:102E900067F960B1012804D100E010E006F10409EF
:102EA00078E7F61D26F0070000F1080972E7D4E97B
:102EB000012128469047206A401C20626AE7206A68
:102EC000BDE8F09F8619000070B5064600F0E4F8F2
:102ED0000468054630460A22002100F06EF92C6095
:102EE00070BD00F0A3B940EA010370B59B0729D17A
:102EF0004FF00136042A25D308C810C9121F9D1BA4
:102F00009D4315EAC61505D1A342F3D018BA21BADC
:102F1000401A70BDD8B2E1B2401A50EA0561F8D14A
:102F200098B2A1B2401A50EA0541F2D123F07F4194
:102F300024F07F40081A50EA0521EAD1180EA0EBD0
:102F4000146070BD0AB9002070BD10F8013B11F883
:102F5000014B63B1A3420AD1521E08D010F8013BC5
:102F600011F8014B1BB1A34201D1521EEDD1181B28
:102F700070BD10B5431C04E010F8011B09B9C01A5C
:102F800010BD8107F8D14FF0013202C88C1A8C4372
:102F900014EAC211F9D0C01A0A0601D0C01E10BD31
:102FA0000A0401D0801E10BD0902FCD0401E10BDD5
:102FB000032A40F2318010F0030C00F0158011F864
:102FC000013BBCF1020F624498BF11F801CB00F83D
:102FD000013B38BF11F8013BA2F1040298BF00F891
:102FE00001CB38BF00F8013B11F0030300F0428130
:102FF000083AC0F0098051F8043B51F804CB40F87E
:10300000043B40F804CBF3E7121D5CBF51F8043BCE
:1030100040F8043BAFF30080D20724BF11F8013B16
:1030200011F801CB48BF11F8012B24BF00F8013B78
:1030300000F801CB48BF00F8012B704702F0FF03F6
:1030400043EA032242EA024200F002B84FF00002D3
:103050000429C0F0128010F0030C00F03F81CCF185
:10306000040CBCF1020F18BF00F8012BA8BF20F818
:10307000022BA1EB0C0100F031B95FEAC17C24BF47
:1030800000F8012B00F8012B48BF00F8012B704716
:10309000704770477047704701487047704700009D
:1030A000040300202DE9F0470D4604469246994658
:1030B00000F124080168880604D5E06921F01001B8
:1030C000216000E001200027A84200DD471BA16924
:1030D0007A1902EB0900081AA0612068C00602D420
:1030E0002046FFF797FD002608E0D4E901211AF8F1
:1030F00006009047206A401C761C20624E45F4DB97
:103100002068C0060AD52046FFF784FD06E0D4E912
:10311000012130209047206A401C2062381EA7F110
:103120000107F4DC07E0D4E9012118F80500904715
:10313000206A401C2062281EA5F10105F3DC204610
:10314000FFF77DFD21680220090600D40120BDE8BB
:10315000F087000001694A1C02610878704710B5C9
:103160000C46194690B0CDE9024200220692044A6C
:103170007A44CDE9042001A8FFF702FE10B010BD8B
:10318000E1FFFFFF0A6802F8010B0A60704710B503
:10319000436913B1AFF3008001E0FFF761FD012047
:1031A00010BD126800F124010A7000224A70012249
:1031B000EDE711684FF0FF32E9E72DE9F04780466F
:1031C0000F4691460446002614F8015B2DB100F02D
:1031D000B7F80068405DC007F6D12B2D05D02D2D26
:1031E00002D146F4806600E0641E4A463946204615
:1031F00000F0AEF827B13968A14201D1C7F80080CC
:103200004FF00204710508D54042002803DDFFF7A6
:1032100043FF0460A007BDE8F0870028FBDAFFF752
:103220003BFF04606FF00040F5E700002DE9F0413E
:103230000E461546040003D128680DA400B10446CB
:103240003146204600F0E0F80444207808B9002711
:103250000AE027463146204600F0C6F804442078AC
:1032600010B1002004F8010B38462C60BDE8F08155
:103270000000000010B5203AC0F00B80B1E81850F3
:10328000203AA0E81850B1E81850A0E81850BFF450
:10329000F5AF5FEA027C24BFB1E81850A0E81850EF
:1032A00044BF18C918C0BDE810405FEA827C24BF43
:1032B00051F8043B40F8043B08BF7047D20728BFD1
:1032C00031F8023B48BF11F8012B28BF20F8023B20
:1032D00048BF00F8012B70474FF0000200B51346BD
:1032E00094469646203922BFA0E80C50A0E80C5026
:1032F000B1F12001BFF4F7AF090728BFA0E80C50D7
:1033000048BF0CC05DF804EB890028BF40F8042BCF
:1033100008BF704748BF20F8022B11F0804F18BF3C
:1033200000F8012B70474FF00A01B0FBF1F202FBED
:103330001101104670470000004870470403002048
:1033400010B500F095F8001D10BD0000FD01000053
:103350002DE9F05F824604468B461546641C002723
:10336000B9460078302811D114F8010B01277828CC
:1033700001D0582807D10DB1102D09D1002714F81C
:10338000010B102504E01DB9082501E005B90A2547
:103390000026B0460EE005FB080005FB06F10127FC
:1033A0001FFA80F801EB1046B6F5803F00D3B9460E
:1033B00014F8010B294600F061F80028EBDABBF1A4
:1033C000000F04D0641E07B95446CBF80040B9F191
:1033D000000F06D0FFF760FE02210160C81EBDE8A5
:1033E000F09F48EA0640FAE730B503461D781DB164
:1033F0000A4603E0AC4201D1181A30BD12F8014B65
:10340000002CF7D15B1CF1E730B503461D781DB1E8
:103410000A4612F8014B0CB9181A30BDAC42F8D16B
:103420005B1CF3E77546FFF787FFAE46050069466C
:10343000534620F00700854618B020B5FCF7C6FEBD
:10344000BDE820404FF000064FF000074FF00008A5
:103450004FF0000B21F00701AC46ACE8C009ACE826
:10346000C009ACE8C009ACE8C0098D46704700004F
:103470000148704770470000240300203A2800D21A
:10348000303820F02002412A01D3A2F137004FF05A
:10349000FF32884200D20246104670470446AFF31E
:1034A00000802046FCF77FFE4FF0013C50F8042BD3
:1034B00051F8043B9A4221D1A2EB0C03934313EA47
:1034C000CC1317D150F8042B51F8043B9A4215D174
:1034D000A2EB0C03934313EACC130BD150F8042B4B
:1034E00051F8043B9A4209D1A2EB0C03934313EA2F
:1034F000CC13DBD04FF0000070470000D01A01BAA7
:10350000B1FA81F101F0180122FA01F0CB40C1F1CA
:103510002001DBB2C0B2C01A2CFA01F3D11A9143D8
:1035200011EAC311E6D1704730B504460D4629466D
:103530002020FEF78DFA40F23F10001B81B22120BF
:10354000FEF786FA30BD000010B500290AD00878D1
:10355000002807D005487844FFF7A6FF002801D0CF
:10356000002010BD0248784410BD00001212000077
:103570000A12000090EA010F48BF81F0004100F1FB
:103580007C82421A3CBF801A89184FEAD0524FF011
:103590007F4C1CEA410FA2EBD15318BF9CEA026F8B
:1035A00000F040804FF0004C4CEA00204CEA012132
:1035B00021FA03FC10EB0C0C23D202F1FF325FEA7C
:1035C0001C2040EBC25038BF70471CF07F0F4FEA01
:1035D000400C18BFBCF17F4F38BF7047C3F12003C8
:1035E000994008BF20F00100BCF17F4F38BF704701
:1035F000A0F1C0404FF0FF0141EAD0514FEAC15065
:1036000070474FEA3C00000A40EBC25028BF1CF054
:10361000FF0F4FEA400CE1D018BFBCF17F4F38BF1D
:103620007047E5E79CEA026F05D010EA5C0F08BF1F
:1036300000F000407047BCEB410F4FEA400228BF4A
:103640009445DFF828C0C0F01580AFF30080B2EBDE
:10365000410F05D012F1807F08BF704708467047C0
:1036600090EA010F58BF70470148704701000004FD
:103670000000C07F014800F0CEBA00000000C07F0B
:10368000014800F0C8BA00000000C07F4FF47F0C72
:103690001CEAD0121EBF1CEAD11392EA0C0F93EA67
:1036A0000C0F00F0A58090EA010F48BF42F4807231
:1036B00040F4000C41F400002CF07F4120F07F40EA
:1036C00000B58142A2EB03020FF2401CACEB504E5E
:1036D000C0F100009EF800E04FEA4E0E00FB0EFC29
:1036E00038BF49004FEA2C1C02F5FA020CFB0EF31E
:1036F0004FEACE1E4FEA112C4FEAC1210EEB635E5A
:103700000EFB0CFC4FEA1C5300FB03114FEA112C7B
:103710004FEA01310EFB0CFC02F4807E42EB2242A8
:103720004FEADC4C00FB0C11C14228BF09184CEBDE
:103730000333012924BF4EF0020E4EF0804E10EBF1
:10374000410F24BF4EF0010E4EF0804E08BF4EF0E8
:10375000040E4EF008015DF804EB43EBC25018BFB5
:10376000B2F57C0F38BF704741EAC07108BF20F046
:103770000100B2F57C0F38BF704729D512F0F00F69
:103780001CBF00F1C04000F0004070470081828300
:103790008485868788898B8C8D8E8F919293959660
:1037A00097999A9C9D9FA0A2A3A5A7A8AAACAEB0EA
:1037B000B2B3B5B7B9BCBEC0C2C5C7C9CCCED1D4EF
:1037C000D7D9DCDFE2E6E9ECF0F3F7FAFE0000001F
:1037D0004FEA400C0CF1807CBCF17E4F28BF704753
:1037E000B0F1C0404FF07F404CBF401040087047E0
:1037F00090EA010F0CEAD11348BF42F4807262458F
:1038000038BF634507D213F47F0F23D080EA01004D
:1038100000F0004070474FF0807C1CEB400F98BFD9
:103820001CEB410FDFF840C03FF624AFAFF3008040
:103830004FF0807C1CEB400F02BF1CEB410F0B488C
:1038400070471CEB410F0CBF002020F0004040EA05
:10385000C250704712F47F0F04BF0448704742F013
:10386000FF004FEAC0507047040000040000C07F12
:10387000C2154FEA002318BF43F0004305D4D2F12C
:103880009E020AD323FA02F070474FEA4001B1F1D9
:10389000FE4F02D24FF000007047DFF828C04FEA19
:1038A0004001B1F17F4F88BF4CF4803C3FF6E8AE59
:1038B0001CBF6FEAE0707047AFF300806FEAE07002
:1038C000704700006800020410F0004218BF404238
:1038D00042F08042B0FA80F18840A2EBC15202F17E
:1038E000786208BF7047410642EB202018BF5FF0A6
:1038F000806C28BF20F0010070474FF08042FFF736
:10390000E9BF00004FF47F0C1CEAD0121EBF1CEA76
:10391000D11392EA0C0F93EA0C0F00F04A8090EA60
:10392000010F48BF42F480724FF0004C4CEA002077
:103930004CEA01211A44A0FB01C3A2F50002BCF12C
:10394000000F18BF43F0010302F4807CB3F1004F75
:1039500038BF5B0042EB2242180A40EBC25028BF3E
:1039600013F07F0F18BFB2F57C0F38BF704708BF48
:1039700020F00100B2F57C0F38BF70470BD582F004
:10398000FF0212F5803FC8BF704700F1C040D8BFAA
:1039900000F00040704700F5000C5FEA4C0C48BF97
:1039A0007047B0F1C0404FF07F404CBF401040081E
:1039B000704790EA010F0CEAD11348BF42F48072BD
:1039C000624538BF634504D280EA010000F0004040
:1039D00070474FF0807C1CEB400F98BF1CEB410FF1
:1039E0004FF0030C4CF0806C3FF644AEAFF3008018
:1039F00012F47F0F1FBF13F47F0F42F0FF02D005B8
:103A000070470148704700000000C07F10B412F4F6
:103A10007F0F4FEA00204FEA012110D1B0FA80F465
:103A200000FA04F0A2EB044213F47F0F02F5803297
:103A300018BF41F0004100D010BC18BF604740F0F3
:103A40000040B1FA81F401FA04F1A3EB044310BC85
:103A500003F58033604780F0004090EA010F7FF566
:103A600090AD81F0004100F008B8000090EA010F2D
:103A700048BF81F000413FF584AD421A3EBF82F05D
:103A80000042801A89184FEAD0524FF07F4C1CEA4E
:103A9000410FA2EBD15318BF9CEA026F4FD04FF0F9
:103AA000004C4CEA00204CEA012121FA03FCB0EB67
:103AB0000C0C0FD412F0FE0F18BF5FEA4C001DD59E
:103AC000001240EBC25038BF70471CF03F0F18BFC8
:103AD00070470BE0A2F101025FEA1C2040EBC250EC
:103AE00038BF70471CF07F0F18BF7047C3F1200329
:103AF000994014BF401E20F0010070474FEA122386
:103B000016D0004204BF002070474FEA9000B0FA80
:103B100080FCA2EB0C02CCF1280C60FA0CF093EACA
:103B2000122F04BF00EBC25070474FEAC3707047BA
:103B30005FEADC1008BF70474FEAC37070479CEA29
:103B4000026F04D010EA5C0F08BF00207047BCEB86
:103B5000410F4FEA400228BF9445DFF82CC0FFF424
:103B600089ADAFF30080B2EB410F06D012F1807F38
:103B700008BF704781F00040704790EA010F48BFCE
:103B80007047024870470000020000040000C07F38
:103B900000F0004343EAD05323F48073C3F1C10320
:103BA00023F0004117291FD8C3F1200310FA03F1B5
:103BB000C3F1200320F07F4040F4000020FA03F01E
:103BC00003F0004340EA03000DD00B46590009D32F
:103BD00018BF401C06D17FEAE27398BF401C38BF73
:103BE00020F0010070477047182903EB912318BF9C
:103BF0006FF00041013168BF03F0004009D6400278
:103C000003F0004000F1010004BF12F0004F20F06B
:103C10000100704770470CF00F03092B08BF082004
:103C200000F02B800A2B0BD0082B18BF704708BF61
:103C30001CF0400F0AD04FF000004FF00001704719
:103C40001CF0400F18BF4FF0004070471CF0100FE1
:103C500008D020F0704300F07F4242EAD3014FEADF
:103C60004370704700F0604021F07F4242EA00025A
:103C700001F07F4040EA727070471CF4801F11D041
:103C80001CF4E02F03D06FEACC31490070474FF0AD
:103C90004050EFF3008222F0704242EA000282F3C9
:103CA000008870474FF000007047000000000000DF
:103CB00000000000000000000404040404040004E8
:103CC000000000140A0A00000000000000000000CC
:103CD00014143F140A3F0A0A000000041E150506CA
:103CE0000C14150F0400000012150D0A142C2A12D2
:103CF00000000000040A0A1E151509360000000223
:103D00000201000000000000000000201008080868
:103D10000808081020000002040808080808080421
:103D2000020000000004150E0E1504000000000043
:103D30000404041F0404040000000000000000004C
:103D400000000002020100000000001F000000004F
:103D50000000000000000000000000020000001051
:103D60000808080404020202010000000E111111EB
:103D70001111110E00000000040604040404040ED6
:103D8000000000000E1111080402011F00000000D5
:103D90000E11100C1010110E00000000080C0A0A81
:103DA000091E0818000000001F01010F1010110E5D
:103DB000000000000E09010F1111110E000000009B
:103DC0001F09080404040404000000000E11110E71
:103DD0001111110E000000000E1111111E10120E13
:103DE00000000000000004000000000400000000CB
:103DF0000000000400000004040000201008040279
:103E0000040810200000000000001F00001F000038
:103E10000000000204081020100804020000000046
:103E20000E11110804040004000000000E11191501
:103E3000151D011E0000000004040C0A0A1E1233A6
:103E4000000000000F12120E1212120F00000000EC
:103E50001E1101010101110E000000000F121212CB
:103E60001212120F000000001F120A0E0A02121F87
:103E7000000000001F120A0E0A02020700000000E4
:103E80001C1201013911120C000000003312121E25
:103E900012121233000000001F0404040404041F63
:103EA000000000003E080808080808090700000094
:103EB00037120A060A0A123700000000070202023F
:103EC0000202223F000000001B1B1B1B15151515CD
:103ED000000000003B1216161A1A1217000000000C
:103EE0000E1111111111110E000000000F12120E0F
:103EF00002020207000000000E1111111117190E25
:103F0000180000000F12120E0A12123700000000F3
:103F10001E1101060810110F000000001F150404F7
:103F20000404040E00000000331212121212120CCC
:103F3000000000003312120A0A0C04040000000002
:103F40001515150E0A0A0A0A000000001B0A0A04C9
:103F5000040A0A1B000000001B0A0A040404040EE1
:103F6000000000001F0908040402121F0000001CCA
:103F700004040404040404041C00000202020404F7
:103F8000080808100000000E0808080808080808BB
:103F90000E0000040A000000000000000000000005
:103FA0000000000000000000003F000400000000CE
:103FB00000000000000000000000000C121C123C79
:103FC000000000000302020E1212120E0000000098
:103FD0000000001C1202021C000000001810101C3F
:103FE0001212123C000000000000000C121E021C05
:103FF000000000003804041E0404041E0000000039
:104000000000003C120C021E221C00000302020EE3
:104010001212123700000000040000060404040E0F
:10402000000000000800000C08080808080700004D
:104030000302023A0A0E12370000000007040404CB
:104040000404041F000000000000000F15151515E2
:10405000000000000000000F1212123700000000E4
:104060000000000C1212120C000000000000000FF3
:104070001212120E020700000000001C1212121C85
:10408000103800000000001B0602020700000000BC
:104090000000001E020C101E000000000004040EB0
:1040A00004040418000000000000001B1212123C5F
:1040B0000000000000000037120A0C04000000009D
:1040C00000000015150E0A0A000000000000001B89
:1040D0000A040A1B0000000000000037120A0C044A
:1040E000040300000000001E0804041E0000001865
:1040F000080808040808080818000808080808083C
:104100000808080808080006040404080404040455
:10411000060002251800000000000000000000005A
:10412000000000000000000000000000000000008F
:1041300000080808080808080000181800000048CF
:104140006C241200000000000000000000000000CD
:10415000002424247F1212127F1212120000000089
:10416000081C2A2A0A0C1828282A2A1C08080000D9
:104170000022251515152A58545454220000000019
:10418000000C1212120A76252911916E0000000609
:1041900006040300000000000000000000000040D2
:1041A000201010080808080808101020400000021D
:1041B0000408081010101010100808040200000075
:1041C000000008086B1C1C6B0808000000000000C1
:1041D0000000080808087F08080808000000000020
:1041E00000000000000000000000060604030000BC
:1041F000000000000000FE000000000000000000C1
:1042000000000000000000000000060600000000A2
:104210008040402020101008080404020200000022
:104220000018244242424242424224180000000048
:1042300000080E08080808080808083E00000000EA
:10424000003C4242422020100804427E0000000050
:10425000003C4242201820404042221C0000000046
:1042600000203028242422227E2020780000000014
:10427000007E0202021A26404042221C000000007A
:1042800000382402021A264242422418000000008C
:10429000007E22221010080808080808000000000C
:1042A000003C4242422418244242423C00000000AA
:1042B00000182442424264584040241C0000000080
:1042C000000000001818000000001818000000008E
:1042D00000000000000800000000000808040000C2
:1042E00000402010080402040810204000000000D4
:1042F000000000007F0000007F00000000000000C0
:1043000000020408102040201008040200000000F1
:10431000003C4242464020101000181800000000E7
:10432000001C225A555555552D42221C00000000F4
:10433000000808181414243C224242E70000000040
:10434000001F2222221E22424242221F00000000A1
:10435000007C4242010101010142221C00000000D8
:10436000001F2242424242424242221F00000000FD
:10437000003F4212121E12120242423F0000000091
:10438000003F4212121E1212020202070000000039
:10439000003C2222010101712122221C00000000A8
:1043A00000E7424242427E42424242E700000000B1
:1043B000003E0808080808080808083E0000000039
:1043C000007C10101010101010101010110F0000B1
:1043D000007722120A0E0A12122222770000000031
:1043E00000070202020202020202427F00000000F5
:1043F0000077363636362A2A2A2A2A6B0000000031
:1044000000E346464A4A52525262624700000000A8
:10441000001C2241414141414141221C0000000059
:10442000003F424242423E020202020700000000F8
:10443000001C2241414141414D53321C60000000AB
:10444000003F4242423E1212222242C700000000B8
:10445000007C4242020418204042423E000000001C
:10446000007F4908080808080808081C0000000028
:1044700000E74242424242424242423C00000000C7
:1044800000E7424222242414141808080000000007
:10449000006B494949495555362222220000000047
:1044A00000E7422424181818242442E700000000E2
:1044B00000772222141408080808081C00000000D5
:1044C000007E2120101008040442423F00000078C2
:1044D0000808080808080808080808087800000004
:1044E0000202040408080810102020204040001E8A
:1044F0001010101010101010101010101E000038A6
:104500004400000000000000000000000000000067
:1045100000000000000000000000000000FF000696
:104520000800000000000000000000000000000083
:1045300000000000003C4278444242FC00000000C1
:1045400000030202021A26424242261A000000001C
:10455000000000000038440202024438000000005D
:104560000060404040784442424264D8000000006D
:1045700000000000003C427E0202423C00000000BD
:1045800000F08808087E08080808083E00000000BF
:1045900000000000007C22221C023C42423C000041
:1045A00000030202023A4642424242E70000000093
:1045B000000C0C00000E08080808083E000000006F
:1045C000003030000038202020202020221E000053
:1045D000000302020272120A161222770000000083
:1045E000000E0808080808080808083E0000000037
:1045F00000000000007F9292929292B700000000AB
:1046000000000000003B4642424242E7000000003A
:1046100000000000003C42424242423C00000000D8
:1046200000000000001B26424242221E020700003A
:1046300000000000007844424242447840E000001C
:104640000000000000774C040404041F0000000078
:1046500000000000007C42023C40423E000000009E
:1046600000000008083E08080808083000000000A4
:104670000000000000634242424262DC0000000091
:104680000000000000E74224241408080000000095
:104690000000000000EB49495555222200000000AF
:1046A00000000000007624181818246E0000000096
:1046B0000000000000E74224241418080807000046
:1046C00000000000007E22100808447E000000C0A8
:1046D000202020202010202020202020C00010108A
:1046E00010101010101010101010101010100006E4
:1046F00008080808081008080808080806000C320E
:10470000C200000000000000000000000000303186
:1047100032333435363738394142434445464030E8
:10472000580030313233343536373839616263649A
:1047300065664030780004000008000000000000BA
:10474000000200010000100078480008000000206E
:104750003C00000028010008B44800083C0000208C
:104760002C05000044010008100100004300000077
:10477000F8FFFFFF00404040404040404040414182
:104780004141414040404040404040404040404026
:1047900040404040400502020202020202020202C0
:1047A00002020202022020202020202020202002BD
:1047B000020202020202909090909090101010104D
:1047C00010101010101010101010101010101010E9
:1047D000020202020202888888888888080808087D
:1047E0000808080808080808080808080808080849
:1047F0000202020240000000000000000000000071
:1048000000000000000000000000000000000000A8
:104810000000000000000000000000000000000098
:104820000000000000000000000000000000000088
:104830000000000000000000000000000000000078
:104840000000000000000000000000000000000068
:104850000000000000000000000000000000000058
:104860000000000000000000000000000000000048
:104870000000000000000000000000000000000038
:104880002AFF0700820000000000DB00000000009B
:104890000000000000000000000000000000000018
:1048A000000000000000000000000000017F000088
:0448B000FFFF000006
:04000005080000ED02
:00000001FF
