:030000000202D821
:10000B000201A0781DEBF208EAF208E9F2C2E9124C
:10001B000553AE07E4FD7820E2FFEDC39F501B783C
:10002B001DE2FB0808E2F92401F218E2FA3400F2AF
:0F003B00120364FF1205530D80DCD2E9AF0622D9
:10004B000204B3E47817F21203D912051A5389F09C
:10005B00D2A9D28CD2AF7815E2B401FA7805E204BA
:10006B00F2E47815F27805E2C3940A400EE4F2C28A
:10007B0082D2827F0AFE12045BC282780AE2FC08FB
:10008B00E2FD08E2FE08E2FF7806E2FB08E2F9086F
:10009B00E2FA08E2CBF8C312037D700302017F780A
:1000AB0006E2FC08E2FD08E2FE08E2FF7818120304
:1000BB00B4E4FFFEFDFC7806E2FB08E2F908E2FA85
:1000CB0008E2CBF8C312037D6068B283E47816F2C2
:1000DB007818080808E25401FFE4FEFDFC7B01FAE6
:1000EB00F9F8C312037D70057817E2F5107818E262
:1000FB00FC08E2FD08E2FE08E2FF780112038E78AD
:10010B00181203B47816E204F2E2B414C37817E2BF
:10011B00C394244002E4F275102F7817E22404F5FF
:10012B001175122775131E751430751528E204F21C
:10013B00801EE4F51078167408F27816E2FFD3945B
:10014B000D500D74082FF8E4F67816E204F280EAED
:10015B001204FC78167408F27816E2FFD3940D5053
:10016B000D74082FF8E4F67816E204F280EA120414
:10017B00FC02006178167408F27816E2FFD3940D36
:10018B00500D74082FF8E4F67816E204F280EAE4D6
:10019B00F510020061C0E0C0F0C083C082C0D07512
:1001AB00D000C000C001C002C003C004C005C0061F
:1001BB00C0077800E204F2E2C3941140767815741C
:1001CB0001F27800E4F27806E2FC08E2FD08E2FEB8
:1001DB0008E2FF081203B478061203C00000000007
:1001EB007821E4F27806E2FC08E2FD08E2FE08E280
:1001FB00FF78051203A178061203B47806E2FB0818
:10020B00E2F908E2FA08E2CBF8C0007821E2240117
:10021B00F8E2FFE4FCFDFED000EB2FFFEE3AFEED23
:10022B0039FDEC38FC78061203B47821E204F2E2D3
:10023B00B404B17800E214601E14602E14603E14F6
:10024B00604E240470587801E4F208F208F208F2C8
:10025B005393FDD281805B1204877801EFF2C28148
:10026B004393025393FED28080481204877802EFA7
:10027B00F2C2804393015394F7D2938035120487D3
:10028B007803EFF2C2934394085394FBD2928022EB
:10029B001204877804EFF2C2924394048014C29341
:1002AB00439408C292439404C281439302C2804395
:1002BB009301D007D006D005D004D003D002D001D3
:1002CB00D000D0D0D082D083D0F0D0E032787FE491
:1002DB00F6D8FD75812002031F02004EE493A3F8AC
:1002EB00E493A34003F68001F208DFF48029E49342
:1002FB00A3F85407240CC8C333C4540F4420C88339
:10030B004004F456800146F6DFE4800B010204083A
:10031B001020408090042EE47E019360BCA3FF5418
:10032B003F30E509541FFEE493A360010ECF54C088
:10033B0025E060A840B8E493A3FAE493A3F8E49310
:10034B00A3C8C582C8CAC583CAF0A3C8C582C8CA18
:10035B00C583CADFE9DEE780BEBB010689828A83DB
:10036B00E0225002E722BBFE02E32289828A83E469
:10037B009322EB9FF5F0EA9E42F0E99D42F0E89C58
:10038B0045F022E8600FECC313FCED13FDEE13FEFA
:10039B00EF13FFD8F122E8600FEFC333FFEE33FE0C
:1003AB00ED33FDEC33FCD8F122ECF208EDF208EE64
:1003BB00F208EFF222D083D082E493F20874019317
:1003CB00F208740293F208740393F2740473C2E894
:1003DB00D2EAD2B97FE87E0312045B7BFE7A007906
:1003EB000E78207405F27F3012000E7BFE7A0079B6
:1003FB000E78207405F27F2A12000E7D017F2112E8
:10040B0005357F221205357D107F241205357D2899
:10041B007F251205357D0F7F261205357D147F3123
:10042B00020535850E345678901214080100000031
:10043B0000020000000000000000000000000000AF
:10044B0081130081150081140081000081050000DB
:10045B00E4FDFCC3ED9FEC9E5021781CE4F2087484
:10046B006CF2781C08E2FB24FFF218E2FA34FFF27C
:10047B00EB4A70EE0DBD00010C80D822A290E43344
:10048B0025E0FFA291E4334FFFA287E43325E0255B
:10049B00E04FFFA286E43333333354F84FFFA29679
:1004AB00E433C454F04FFF22C0E0C0D075D000C07D
:1004BB0005C006C0077F071205468F207D707F277A
:1004CB00120535D007D006D005D0D0D0E0327D0E46
:1004DB007F201205357B007A00790878207414F29E
:1004EB007FA012000ED2E87F647E0012045BC2E88C
:1004FB0022E4F5201204D9A204720550FAE4FD7F20
:10050B00E11205357DFF7F27120535E4F52022E446
:10051B00F580F5907593C0759443759F31759F3039
:10052B00759F36759E37759E3622C2E9120553AEFE
:10053B0007AF05120553D2E9AF0622C2E9120553E4
:10054B00E4FF120553D2E9228FE7E5E630E1FBAF7A
:02055B00E72295
:00000001FF
