:03000000020026D5
:0C002600787FE4F6D8FD75814902006D7A
:10025000496E7374616772616D20312E30204020C9
:100260004D61722032312032303132202032333A27
:0F02700031363A33360D0A0049443D000D0A007D
:0302F000014900C1
:10011C0012035412002212030712034A7549FF8579
:10012C004990D2AF7BFF7A02795012027F7BFF7A23
:10013C0002797812027F7540F1E4F541E5402541E2
:10014C00F8E6F542FFE4FD1201EC0541E541D394DC
:10015C000640E97BFF7A02797C12027F12022012A0
:04016C00002180F8F6
:0100210022BC
:10022000E508D394804028754301E508547FFFE535
:1002300043D39F500E74082543F8E6FF12001E05B5
:0F0240004380E77BFF7A02797C12027FE4F508A6
:01024F00228C
:10000300AE071FEE6014E4FCFDC3ED94D0EC94073F
:0A00130050EE000DBD00010C80EF5F
:01001D0022C0
:030023000201B225
:0B01B200C0E0C0D075D000C000C00746
:1001BD00309821C298AF99EF640D6003BF0A0343D5
:1001CD000880E508C3941F500D050874082508F82C
:0601DD00A6078002C29992
:0901E300D007D000D0D0D0E032EA
:0E033C00C2ACC2998F993099FDC299D2AC2201
:1003070075985075C834759CFD758E11438E04D24F
:02031700AC2216
:070354007592FFE4F5912210
:0100220022BB
:09034A007F207808E4F608DFFCCE
:010353002287
:1002F30011283031323334353637383941424344AB
:030303004546006C
:1002A400EF1FAA0670011E4A60107C007D82ED1DBE
:0A02B400AA0470011C4A60E880F4FF
:0102BE00221D
:10032B00C3EE648094805008C3E49FFFE49EFE22DA
:01033B00229F
:10031900C3EE6480948050057EFF7FFF227E007FBC
:020329000122AF
:0800B2008F398B3A8A3B893C2F
:1000BA00053CE53C7002053B1201113395E0F53E23
:1000CA008F3F753D01C3E5396480F8E53D6480984A
:1000DA005030AB3A053CE53CAA3B7002053B1201A5
:1000EA0011FD3395E0FCE53FC4F8540FC868FFE5FD
:1000FA003EC454F048FEEF2DF53FEE3CF53E053D7B
:06010A0080C3AE3EAF3FD2
:0C0110002214F91202BFFF120170EF224E
:10017000C3EF648094B0400DD3EF648094B9500510
:10018000EF24D0FF22C3EF648094C1400DD3EF640D
:100190008094C65005EF24C9FF22C3EF648094E128
:1001A000400DD3EF648094E65005EF24A9FF227F31
:0201B00000222B
:1002D8008E478F48E547FFE4FD1201ECAF48E4FD87
:0802E8001201EC7F2002001E50
:0401EC008F438D446C
:1001F000E54354F0FF3395E0FEEF7804CEA2E71319
:10020000CE13D8F8120215E543120215E544600436
:04021000FF12001EBB
:0C02140022540F2428F8E6FF12001E22DE
:03001E0002033C9E
:10027F008B448A458946AB44AA45A9461202BF6002
:10028F00130546E5467002054514F91202BFFF1229
:05029F00001E80E222B8
:1000320002011CE493A3F8E493A34003F68001F2C7
:1000420008DFF48029E493A3F85407240CC8C333CF
:10005200C4540F4420C8834004F456800146F6DF9E
:10006200E4800B01020408102040809002F0E47E3C
:10007200019360BCA3FF543F30E509541FFEE49393
:10008200A360010ECF54C025E060A840B8E493A35A
:10009200FAE493A3F8E493A3C8C582C8CAC583CA85
:1000A200F0A3C8C582C8CAC583CADFE9DEE780BE3D
:0103060000F6
:1002BF00BB010689828A83E0225002E722BBFE023D
:0902CF00E32289828A83E4932270
:00000001FF
