:030000000209E50D
:03004B00020BD4D1
:03006B00020C88FC
:10080000750801E4F509F50AF50BF50C750D027F85
:1008100008780EE4F608DFFC7F0E5393FDD28112B8
:100820000B817806EFF27FF47E01120B557806E219
:10083000B4010A087401F275101E120B557806E215
:10084000B4020A087401F275101F120B527806E206
:10085000B4040A087401F2751020120B527806E2F3
:10086000B4080D087401F27510217FF4FE120B55C7
:100870007806E2B4100D087401F27510227FF4FEC0
:10088000120B55C2814393025393FED280120B8107
:100890007806EFF27FF47E01120B557806E2B40180
:1008A0000A087401F2751023120B557806E2B4029F
:1008B0000D087401F27510247FF4FE120B557806B2
:1008C000E2B4040D087401F27510257FF4FE120BDA
:1008D000557806E2B4080D087401F27510267FF40D
:1008E000FE120B557806E2B4100D087401F2751073
:1008F000277FF4FE120B55C2804393015394F7D225
:1009000093120B817806EFF27FF47E01120B55787B
:1009100006E2B4010A087401F27509E2120B557877
:1009200006E2B4020D087401F2750B027FF4FE12A8
:100930000B557806E2B4040D087401F27509B77F0F
:10094000F4FE120B557806E2B4080D087401F27536
:1009500009B67FF4FE120B557806E2B4100D087448
:1009600001F27509CD7FF4FE120B55C29343940832
:100970005394FBD292120B817806EFF27FF47E0142
:10098000120B557806E2B4010A087401F27509B534
:10099000120B557806E2B4020D087401F27509E9EC
:1009A0007FF4FE120B557806E2B4040D087401F2D0
:1009B0007509EA7FF4FE120B557806E2B4080D08BB
:1009C0007401F275099C7FF4FE120B557806E2B4AF
:1009D000100D087401F275099D7FF4FE120B55C2CB
:1009E0009243940422787FE4F6D8FD758120020AB0
:1009F0002C020AC6E493A3F8E493A34003F6800113
:100A0000F208DFF48029E493A3F85407240CC8C348
:100A100033C4540F4420C8834004F456800146F682
:100A2000DFE4800B0102040810204080900BADE44D
:100A30007E019360BCA3FF543F30E509541FFEE4E0
:100A400093A360010ECF54C025E060A840B8E493A2
:100A5000A3FAE493A3F8E493A3C8C582C8CAC583E4
:100A6000CAF0A3C8C582C8CAC583CADFE9DEE78069
:100A7000BEC2E8D2EAD2B97FE87E03120B557BFEF4
:100A80007A007901780C7405F27F30120B167BFE28
:100A90007A007901780C7405F27F2A120B167D0119
:100AA0007F21120C517F22120C517D1A7F24120CCF
:100AB000517D287F25120C517D0F7F26120C517D10
:100AC000147F31020C517FE87E03120B55120A711C
:100AD000120C1DD2AF120C62D283C28212080078AF
:100AE00007E260F87800E26401F224FF9283E47880
:100AF00007F2F520120BFAA204720550FAE4FD7F0A
:100B0000E1120C517DFF7F27120C51E4F5207F6428
:100B1000FE120B5580C67809EBF208EAF208E9F2FA
:100B2000C2E9120C7EAE07E4FD780CE2FFEDC39F34
:100B3000501B7809E2FB0808E2F92401F218E2FAF6
:100B40003400F2120C38FF120C7E0D80DCD2E9AFBB
:100B500006227FF4FEE4FDFCC3ED9FEC9E5021785D
:100B600008E4F208746CF2780808E2FB24FFF2183B
:100B7000E2FA34FFF2EB4A70EE0DBD00010C80D8B2
:100B800022A290E43325E0FFA291E4334FFFA28735
:100B9000E43325E025E04FFFA286E43333333354BA
:100BA000F84FFFA296E433C454F04FFF228501347E
:100BB00056789012140801E20000000200000000C4
:100BC0000000000000000000000081060081070016
:100BD00081000000C0E0C0D075D000C005C006C0D4
:100BE000077F07120C718F207D707F27120C51D068
:100BF00007D006D005D0D0D0E0327D0E7F20120C79
:100C0000517B007A007908780C7414F27FA0120BE3
:100C100016D2E87F647E00120B55C2E822E4F5800C
:100C2000F5907593C0759443759F31759F30759F8E
:100C300036759E37759E3622BB010689828A83E00F
:100C4000225002E722BBFE02E32289828A83E493D8
:100C500022C2E9120C7EAE07AF05120C7ED2E9AFBC
:100C6000062275AD0175B4FF75B5FF75B306D2BD2B
:100C700022C2E9120C7EE4FF120C7ED2E9228FE739
:090C8000E5E630E1FBAFE72232AA
:00000001FF
